{
	"Event trigger supply chain.sol": {
		"InvoiceManager": {
			"abi": [
				{
					"anonymous": false,
					"inputs": [
						{
							"indexed": false,
							"internalType": "uint256",
							"name": "_itemindex",
							"type": "uint256"
						},
						{
							"indexed": false,
							"internalType": "uint256",
							"name": "_step",
							"type": "uint256"
						},
						{
							"indexed": false,
							"internalType": "address",
							"name": "itemaddr",
							"type": "address"
						},
						{
							"indexed": false,
							"internalType": "uint256",
							"name": "InvoiceDate",
							"type": "uint256"
						},
						{
							"indexed": false,
							"internalType": "address",
							"name": "Buyer",
							"type": "address"
						},
						{
							"indexed": false,
							"internalType": "address",
							"name": "Seller",
							"type": "address"
						}
					],
					"name": "Invoice_State",
					"type": "event"
				},
				{
					"anonymous": false,
					"inputs": [
						{
							"indexed": true,
							"internalType": "address",
							"name": "previousOwner",
							"type": "address"
						},
						{
							"indexed": true,
							"internalType": "address",
							"name": "newOwner",
							"type": "address"
						}
					],
					"name": "OwnershipTransferred",
					"type": "event"
				},
				{
					"inputs": [
						{
							"internalType": "uint256",
							"name": "_itemindex",
							"type": "uint256"
						}
					],
					"name": "Buyer",
					"outputs": [],
					"stateMutability": "payable",
					"type": "function"
				},
				{
					"inputs": [
						{
							"internalType": "address",
							"name": "BuyerAddres",
							"type": "address"
						}
					],
					"name": "BuyersHistory",
					"outputs": [
						{
							"components": [
								{
									"internalType": "address",
									"name": "_BuyerPan",
									"type": "address"
								},
								{
									"internalType": "address",
									"name": "_SellerPan",
									"type": "address"
								},
								{
									"internalType": "contract Item",
									"name": "_items",
									"type": "address"
								},
								{
									"internalType": "string",
									"name": "_Identifier",
									"type": "string"
								},
								{
									"internalType": "uint256",
									"name": "_itemPrice",
									"type": "uint256"
								},
								{
									"internalType": "enum InvoiceManager.InvoiceState",
									"name": "_state",
									"type": "uint8"
								},
								{
									"internalType": "uint256",
									"name": "_InvoiceDate",
									"type": "uint256"
								}
							],
							"internalType": "struct InvoiceManager.Invoice_Data[]",
							"name": "",
							"type": "tuple[]"
						}
					],
					"stateMutability": "view",
					"type": "function"
				},
				{
					"inputs": [
						{
							"internalType": "uint256",
							"name": "",
							"type": "uint256"
						}
					],
					"name": "Invoice",
					"outputs": [
						{
							"internalType": "address",
							"name": "_BuyerPan",
							"type": "address"
						},
						{
							"internalType": "address",
							"name": "_SellerPan",
							"type": "address"
						},
						{
							"internalType": "contract Item",
							"name": "_items",
							"type": "address"
						},
						{
							"internalType": "string",
							"name": "_Identifier",
							"type": "string"
						},
						{
							"internalType": "uint256",
							"name": "_itemPrice",
							"type": "uint256"
						},
						{
							"internalType": "enum InvoiceManager.InvoiceState",
							"name": "_state",
							"type": "uint8"
						},
						{
							"internalType": "uint256",
							"name": "_InvoiceDate",
							"type": "uint256"
						}
					],
					"stateMutability": "view",
					"type": "function"
				},
				{
					"inputs": [],
					"name": "InvoiceLedger",
					"outputs": [
						{
							"components": [
								{
									"internalType": "address",
									"name": "_BuyerPan",
									"type": "address"
								},
								{
									"internalType": "address",
									"name": "_SellerPan",
									"type": "address"
								},
								{
									"internalType": "contract Item",
									"name": "_items",
									"type": "address"
								},
								{
									"internalType": "string",
									"name": "_Identifier",
									"type": "string"
								},
								{
									"internalType": "uint256",
									"name": "_itemPrice",
									"type": "uint256"
								},
								{
									"internalType": "enum InvoiceManager.InvoiceState",
									"name": "_state",
									"type": "uint8"
								},
								{
									"internalType": "uint256",
									"name": "_InvoiceDate",
									"type": "uint256"
								}
							],
							"internalType": "struct InvoiceManager.Invoice_Data[]",
							"name": "",
							"type": "tuple[]"
						}
					],
					"stateMutability": "view",
					"type": "function"
				},
				{
					"inputs": [
						{
							"internalType": "string",
							"name": "_identifier",
							"type": "string"
						},
						{
							"internalType": "uint256",
							"name": "_itemprice",
							"type": "uint256"
						}
					],
					"name": "createItem",
					"outputs": [],
					"stateMutability": "nonpayable",
					"type": "function"
				},
				{
					"inputs": [],
					"name": "owner",
					"outputs": [
						{
							"internalType": "address",
							"name": "",
							"type": "address"
						}
					],
					"stateMutability": "view",
					"type": "function"
				},
				{
					"inputs": [],
					"name": "renounceOwnership",
					"outputs": [],
					"stateMutability": "view",
					"type": "function"
				},
				{
					"inputs": [
						{
							"internalType": "address",
							"name": "newOwner",
							"type": "address"
						}
					],
					"name": "transferOwnership",
					"outputs": [],
					"stateMutability": "nonpayable",
					"type": "function"
				}
			],
			"devdoc": {
				"kind": "dev",
				"methods": {
					"owner()": {
						"details": "Returns the address of the current owner."
					},
					"renounceOwnership()": {
						"details": "Leaves the contract without owner. It will not be possible to call `onlyOwner` functions anymore. Can only be called by the current owner. NOTE: Renouncing ownership will leave the contract without an owner, thereby removing any functionality that is only available to the owner."
					},
					"transferOwnership(address)": {
						"details": "Transfers ownership of the contract to a new account (`newOwner`). Can only be called by the current owner."
					}
				},
				"version": 1
			},
			"evm": {
				"assembly": "    /* \"Event trigger supply chain.sol\":1121:5091  contract InvoiceManager is Ownable{... */\n  mstore(0x40, 0x80)\n  callvalue\n  dup1\n  iszero\n  tag_1\n  jumpi\n  0x00\n  dup1\n  revert\ntag_1:\n  pop\n    /* \"https://github.com/OpenZeppelin/openzeppelin-contracts/contracts/access/Ownable.sol\":921:953  _transferOwnership(_msgSender()) */\n  tag_4\n    /* \"https://github.com/OpenZeppelin/openzeppelin-contracts/contracts/access/Ownable.sol\":940:952  _msgSender() */\n  tag_5\n    /* \"https://github.com/OpenZeppelin/openzeppelin-contracts/contracts/access/Ownable.sol\":940:950  _msgSender */\n  shl(0x20, tag_6)\n    /* \"https://github.com/OpenZeppelin/openzeppelin-contracts/contracts/access/Ownable.sol\":940:952  _msgSender() */\n  0x20\n  shr\n  jump\t// in\ntag_5:\n    /* \"https://github.com/OpenZeppelin/openzeppelin-contracts/contracts/access/Ownable.sol\":921:939  _transferOwnership */\n  shl(0x20, tag_7)\n    /* \"https://github.com/OpenZeppelin/openzeppelin-contracts/contracts/access/Ownable.sol\":921:953  _transferOwnership(_msgSender()) */\n  0x20\n  shr\n  jump\t// in\ntag_4:\n    /* \"Event trigger supply chain.sol\":1121:5091  contract InvoiceManager is Ownable{... */\n  jump(tag_8)\n    /* \"https://github.com/OpenZeppelin/openzeppelin-contracts/contracts/utils/Context.sol\":640:736  function _msgSender() internal view virtual returns (address) {... */\ntag_6:\n    /* \"https://github.com/OpenZeppelin/openzeppelin-contracts/contracts/utils/Context.sol\":693:700  address */\n  0x00\n    /* \"https://github.com/OpenZeppelin/openzeppelin-contracts/contracts/utils/Context.sol\":719:729  msg.sender */\n  caller\n    /* \"https://github.com/OpenZeppelin/openzeppelin-contracts/contracts/utils/Context.sol\":712:729  return msg.sender */\n  swap1\n  pop\n    /* \"https://github.com/OpenZeppelin/openzeppelin-contracts/contracts/utils/Context.sol\":640:736  function _msgSender() internal view virtual returns (address) {... */\n  swap1\n  jump\t// out\n    /* \"https://github.com/OpenZeppelin/openzeppelin-contracts/contracts/access/Ownable.sol\":2270:2457  function _transferOwnership(address newOwner) internal virtual {... */\ntag_7:\n    /* \"https://github.com/OpenZeppelin/openzeppelin-contracts/contracts/access/Ownable.sol\":2343:2359  address oldOwner */\n  0x00\n    /* \"https://github.com/OpenZeppelin/openzeppelin-contracts/contracts/access/Ownable.sol\":2362:2368  _owner */\n  dup1\n  0x00\n  swap1\n  sload\n  swap1\n  0x0100\n  exp\n  swap1\n  div\n  0xffffffffffffffffffffffffffffffffffffffff\n  and\n    /* \"https://github.com/OpenZeppelin/openzeppelin-contracts/contracts/access/Ownable.sol\":2343:2368  address oldOwner = _owner */\n  swap1\n  pop\n    /* \"https://github.com/OpenZeppelin/openzeppelin-contracts/contracts/access/Ownable.sol\":2387:2395  newOwner */\n  dup2\n    /* \"https://github.com/OpenZeppelin/openzeppelin-contracts/contracts/access/Ownable.sol\":2378:2384  _owner */\n  0x00\n  dup1\n    /* \"https://github.com/OpenZeppelin/openzeppelin-contracts/contracts/access/Ownable.sol\":2378:2395  _owner = newOwner */\n  0x0100\n  exp\n  dup2\n  sload\n  dup2\n  0xffffffffffffffffffffffffffffffffffffffff\n  mul\n  not\n  and\n  swap1\n  dup4\n  0xffffffffffffffffffffffffffffffffffffffff\n  and\n  mul\n  or\n  swap1\n  sstore\n  pop\n    /* \"https://github.com/OpenZeppelin/openzeppelin-contracts/contracts/access/Ownable.sol\":2441:2449  newOwner */\n  dup2\n    /* \"https://github.com/OpenZeppelin/openzeppelin-contracts/contracts/access/Ownable.sol\":2410:2450  OwnershipTransferred(oldOwner, newOwner) */\n  0xffffffffffffffffffffffffffffffffffffffff\n  and\n    /* \"https://github.com/OpenZeppelin/openzeppelin-contracts/contracts/access/Ownable.sol\":2431:2439  oldOwner */\n  dup2\n    /* \"https://github.com/OpenZeppelin/openzeppelin-contracts/contracts/access/Ownable.sol\":2410:2450  OwnershipTransferred(oldOwner, newOwner) */\n  0xffffffffffffffffffffffffffffffffffffffff\n  and\n  0x8be0079c531659141344cd1fd0a4f28419497f9722a3daafe3b4186f6b6457e0\n  mload(0x40)\n  mload(0x40)\n  dup1\n  swap2\n  sub\n  swap1\n  log3\n    /* \"https://github.com/OpenZeppelin/openzeppelin-contracts/contracts/access/Ownable.sol\":2333:2457  {... */\n  pop\n    /* \"https://github.com/OpenZeppelin/openzeppelin-contracts/contracts/access/Ownable.sol\":2270:2457  function _transferOwnership(address newOwner) internal virtual {... */\n  pop\n  jump\t// out\n    /* \"Event trigger supply chain.sol\":1121:5091  contract InvoiceManager is Ownable{... */\ntag_8:\n  dataSize(sub_0)\n  dup1\n  dataOffset(sub_0)\n  0x00\n  codecopy\n  0x00\n  return\nstop\n\nsub_0: assembly {\n        /* \"Event trigger supply chain.sol\":1121:5091  contract InvoiceManager is Ownable{... */\n      mstore(0x40, 0x80)\n      jumpi(tag_1, lt(calldatasize, 0x04))\n      shr(0xe0, calldataload(0x00))\n      dup1\n      0x8da5cb5b\n      gt\n      tag_10\n      jumpi\n      dup1\n      0x8da5cb5b\n      eq\n      tag_6\n      jumpi\n      dup1\n      0x98589742\n      eq\n      tag_7\n      jumpi\n      dup1\n      0xa5f445b7\n      eq\n      tag_8\n      jumpi\n      dup1\n      0xf2fde38b\n      eq\n      tag_9\n      jumpi\n      jump(tag_1)\n    tag_10:\n      dup1\n      0x27435f62\n      eq\n      tag_2\n      jumpi\n      dup1\n      0x3ea3a44b\n      eq\n      tag_3\n      jumpi\n      dup1\n      0x715018a6\n      eq\n      tag_4\n      jumpi\n      dup1\n      0x8c551742\n      eq\n      tag_5\n      jumpi\n    tag_1:\n      0x00\n      dup1\n      revert\n        /* \"Event trigger supply chain.sol\":4984:5088  function InvoiceLedger() public view returns (Invoice_Data[] memory){... */\n    tag_2:\n      callvalue\n      dup1\n      iszero\n      tag_11\n      jumpi\n      0x00\n      dup1\n      revert\n    tag_11:\n      pop\n      tag_12\n      tag_13\n      jump\t// in\n    tag_12:\n      mload(0x40)\n      tag_14\n      swap2\n      swap1\n      tag_15\n      jump\t// in\n    tag_14:\n      mload(0x40)\n      dup1\n      swap2\n      sub\n      swap1\n      return\n        /* \"Event trigger supply chain.sol\":2873:3856  function Buyer(uint _itemindex)public payable {... */\n    tag_3:\n      tag_16\n      0x04\n      dup1\n      calldatasize\n      sub\n      dup2\n      add\n      swap1\n      tag_17\n      swap2\n      swap1\n      tag_18\n      jump\t// in\n    tag_17:\n      tag_19\n      jump\t// in\n    tag_16:\n      stop\n        /* \"Event trigger supply chain.sol\":4805:4917  function renounceOwnership() public view override onlyOwner {... */\n    tag_4:\n      callvalue\n      dup1\n      iszero\n      tag_20\n      jumpi\n      0x00\n      dup1\n      revert\n    tag_20:\n      pop\n      tag_21\n      tag_22\n      jump\t// in\n    tag_21:\n      stop\n        /* \"Event trigger supply chain.sol\":1982:2692  function createItem(string memory _identifier , uint _itemprice) public {//putting onlyowner here will restrict anybody other than owner of the contract from creating the item... */\n    tag_5:\n      callvalue\n      dup1\n      iszero\n      tag_23\n      jumpi\n      0x00\n      dup1\n      revert\n    tag_23:\n      pop\n      tag_24\n      0x04\n      dup1\n      calldatasize\n      sub\n      dup2\n      add\n      swap1\n      tag_25\n      swap2\n      swap1\n      tag_26\n      jump\t// in\n    tag_25:\n      tag_27\n      jump\t// in\n    tag_24:\n      stop\n        /* \"https://github.com/OpenZeppelin/openzeppelin-contracts/contracts/access/Ownable.sol\":1036:1121  function owner() public view virtual returns (address) {... */\n    tag_6:\n      callvalue\n      dup1\n      iszero\n      tag_28\n      jumpi\n      0x00\n      dup1\n      revert\n    tag_28:\n      pop\n      tag_29\n      tag_30\n      jump\t// in\n    tag_29:\n      mload(0x40)\n      tag_31\n      swap2\n      swap1\n      tag_32\n      jump\t// in\n    tag_31:\n      mload(0x40)\n      dup1\n      swap2\n      sub\n      swap1\n      return\n        /* \"Event trigger supply chain.sol\":1549:1592  mapping (uint =>Invoice_Data)public Invoice */\n    tag_7:\n      callvalue\n      dup1\n      iszero\n      tag_33\n      jumpi\n      0x00\n      dup1\n      revert\n    tag_33:\n      pop\n      tag_34\n      0x04\n      dup1\n      calldatasize\n      sub\n      dup2\n      add\n      swap1\n      tag_35\n      swap2\n      swap1\n      tag_18\n      jump\t// in\n    tag_35:\n      tag_36\n      jump\t// in\n    tag_34:\n      mload(0x40)\n      tag_37\n      swap8\n      swap7\n      swap6\n      swap5\n      swap4\n      swap3\n      swap2\n      swap1\n      tag_38\n      jump\t// in\n    tag_37:\n      mload(0x40)\n      dup1\n      swap2\n      sub\n      swap1\n      return\n        /* \"Event trigger supply chain.sol\":4673:4799  function BuyersHistory(address BuyerAddres)public view returns(Invoice_Data[] memory){... */\n    tag_8:\n      callvalue\n      dup1\n      iszero\n      tag_39\n      jumpi\n      0x00\n      dup1\n      revert\n    tag_39:\n      pop\n      tag_40\n      0x04\n      dup1\n      calldatasize\n      sub\n      dup2\n      add\n      swap1\n      tag_41\n      swap2\n      swap1\n      tag_42\n      jump\t// in\n    tag_41:\n      tag_43\n      jump\t// in\n    tag_40:\n      mload(0x40)\n      tag_44\n      swap2\n      swap1\n      tag_15\n      jump\t// in\n    tag_44:\n      mload(0x40)\n      dup1\n      swap2\n      sub\n      swap1\n      return\n        /* \"https://github.com/OpenZeppelin/openzeppelin-contracts/contracts/access/Ownable.sol\":1918:2116  function transferOwnership(address newOwner) public virtual onlyOwner {... */\n    tag_9:\n      callvalue\n      dup1\n      iszero\n      tag_45\n      jumpi\n      0x00\n      dup1\n      revert\n    tag_45:\n      pop\n      tag_46\n      0x04\n      dup1\n      calldatasize\n      sub\n      dup2\n      add\n      swap1\n      tag_47\n      swap2\n      swap1\n      tag_42\n      jump\t// in\n    tag_47:\n      tag_48\n      jump\t// in\n    tag_46:\n      stop\n        /* \"Event trigger supply chain.sol\":4984:5088  function InvoiceLedger() public view returns (Invoice_Data[] memory){... */\n    tag_13:\n        /* \"Event trigger supply chain.sol\":5030:5051  Invoice_Data[] memory */\n      0x60\n        /* \"Event trigger supply chain.sol\":5071:5079  invoices */\n      0x03\n        /* \"Event trigger supply chain.sol\":5064:5079  return invoices */\n      dup1\n      sload\n      dup1\n      0x20\n      mul\n      0x20\n      add\n      mload(0x40)\n      swap1\n      dup2\n      add\n      0x40\n      mstore\n      dup1\n      swap3\n      swap2\n      swap1\n      dup2\n      dup2\n      mstore\n      0x20\n      add\n      0x00\n      swap1\n    tag_50:\n      dup3\n      dup3\n      lt\n      iszero\n      tag_51\n      jumpi\n      dup4\n      dup3\n      swap1\n      0x00\n      mstore\n      keccak256(0x00, 0x20)\n      swap1\n      0x07\n      mul\n      add\n      mload(0x40)\n      dup1\n      0xe0\n      add\n      0x40\n      mstore\n      swap1\n      dup2\n      0x00\n      dup3\n      add\n      0x00\n      swap1\n      sload\n      swap1\n      0x0100\n      exp\n      swap1\n      div\n      0xffffffffffffffffffffffffffffffffffffffff\n      and\n      0xffffffffffffffffffffffffffffffffffffffff\n      and\n      0xffffffffffffffffffffffffffffffffffffffff\n      and\n      dup2\n      mstore\n      0x20\n      add\n      0x01\n      dup3\n      add\n      0x00\n      swap1\n      sload\n      swap1\n      0x0100\n      exp\n      swap1\n      div\n      0xffffffffffffffffffffffffffffffffffffffff\n      and\n      0xffffffffffffffffffffffffffffffffffffffff\n      and\n      0xffffffffffffffffffffffffffffffffffffffff\n      and\n      dup2\n      mstore\n      0x20\n      add\n      0x02\n      dup3\n      add\n      0x00\n      swap1\n      sload\n      swap1\n      0x0100\n      exp\n      swap1\n      div\n      0xffffffffffffffffffffffffffffffffffffffff\n      and\n      0xffffffffffffffffffffffffffffffffffffffff\n      and\n      0xffffffffffffffffffffffffffffffffffffffff\n      and\n      dup2\n      mstore\n      0x20\n      add\n      0x03\n      dup3\n      add\n      dup1\n      sload\n      tag_53\n      swap1\n      tag_54\n      jump\t// in\n    tag_53:\n      dup1\n      0x1f\n      add\n      0x20\n      dup1\n      swap2\n      div\n      mul\n      0x20\n      add\n      mload(0x40)\n      swap1\n      dup2\n      add\n      0x40\n      mstore\n      dup1\n      swap3\n      swap2\n      swap1\n      dup2\n      dup2\n      mstore\n      0x20\n      add\n      dup3\n      dup1\n      sload\n      tag_55\n      swap1\n      tag_54\n      jump\t// in\n    tag_55:\n      dup1\n      iszero\n      tag_56\n      jumpi\n      dup1\n      0x1f\n      lt\n      tag_57\n      jumpi\n      0x0100\n      dup1\n      dup4\n      sload\n      div\n      mul\n      dup4\n      mstore\n      swap2\n      0x20\n      add\n      swap2\n      jump(tag_56)\n    tag_57:\n      dup3\n      add\n      swap2\n      swap1\n      0x00\n      mstore\n      keccak256(0x00, 0x20)\n      swap1\n    tag_58:\n      dup2\n      sload\n      dup2\n      mstore\n      swap1\n      0x01\n      add\n      swap1\n      0x20\n      add\n      dup1\n      dup4\n      gt\n      tag_58\n      jumpi\n      dup3\n      swap1\n      sub\n      0x1f\n      and\n      dup3\n      add\n      swap2\n    tag_56:\n      pop\n      pop\n      pop\n      pop\n      pop\n      dup2\n      mstore\n      0x20\n      add\n      0x04\n      dup3\n      add\n      sload\n      dup2\n      mstore\n      0x20\n      add\n      0x05\n      dup3\n      add\n      0x00\n      swap1\n      sload\n      swap1\n      0x0100\n      exp\n      swap1\n      div\n      0xff\n      and\n      0x01\n      dup2\n      gt\n      iszero\n      tag_59\n      jumpi\n      tag_60\n      tag_61\n      jump\t// in\n    tag_60:\n    tag_59:\n      0x01\n      dup2\n      gt\n      iszero\n      tag_62\n      jumpi\n      tag_63\n      tag_61\n      jump\t// in\n    tag_63:\n    tag_62:\n      dup2\n      mstore\n      0x20\n      add\n      0x06\n      dup3\n      add\n      sload\n      dup2\n      mstore\n      pop\n      pop\n      dup2\n      mstore\n      0x20\n      add\n      swap1\n      0x01\n      add\n      swap1\n      jump(tag_50)\n    tag_51:\n      pop\n      pop\n      pop\n      pop\n      swap1\n      pop\n        /* \"Event trigger supply chain.sol\":4984:5088  function InvoiceLedger() public view returns (Invoice_Data[] memory){... */\n      swap1\n      jump\t// out\n        /* \"Event trigger supply chain.sol\":2873:3856  function Buyer(uint _itemindex)public payable {... */\n    tag_19:\n        /* \"Event trigger supply chain.sol\":2972:2981  msg.value */\n      callvalue\n        /* \"Event trigger supply chain.sol\":2938:2945  Invoice */\n      0x02\n        /* \"Event trigger supply chain.sol\":2938:2957  Invoice[_itemindex] */\n      0x00\n        /* \"Event trigger supply chain.sol\":2946:2956  _itemindex */\n      dup4\n        /* \"Event trigger supply chain.sol\":2938:2957  Invoice[_itemindex] */\n      dup2\n      mstore\n      0x20\n      add\n      swap1\n      dup2\n      mstore\n      0x20\n      add\n      0x00\n      keccak256\n        /* \"Event trigger supply chain.sol\":2938:2968  Invoice[_itemindex]._itemPrice */\n      0x04\n      add\n      sload\n        /* \"Event trigger supply chain.sol\":2938:2981  Invoice[_itemindex]._itemPrice <= msg.value */\n      gt\n      iszero\n        /* \"Event trigger supply chain.sol\":2930:3014  require(Invoice[_itemindex]._itemPrice <= msg.value, \"Only full payment is allowed\") */\n      tag_65\n      jumpi\n      mload(0x40)\n      0x08c379a000000000000000000000000000000000000000000000000000000000\n      dup2\n      mstore\n      0x04\n      add\n      tag_66\n      swap1\n      tag_67\n      jump\t// in\n    tag_66:\n      mload(0x40)\n      dup1\n      swap2\n      sub\n      swap1\n      revert\n    tag_65:\n        /* \"Event trigger supply chain.sol\":3060:3080  InvoiceState.Created */\n      0x00\n        /* \"Event trigger supply chain.sol\":3032:3080  Invoice[_itemindex]._state==InvoiceState.Created */\n      0x01\n      dup2\n      gt\n      iszero\n      tag_68\n      jumpi\n      tag_69\n      tag_61\n      jump\t// in\n    tag_69:\n    tag_68:\n        /* \"Event trigger supply chain.sol\":3032:3039  Invoice */\n      0x02\n        /* \"Event trigger supply chain.sol\":3032:3051  Invoice[_itemindex] */\n      0x00\n        /* \"Event trigger supply chain.sol\":3040:3050  _itemindex */\n      dup4\n        /* \"Event trigger supply chain.sol\":3032:3051  Invoice[_itemindex] */\n      dup2\n      mstore\n      0x20\n      add\n      swap1\n      dup2\n      mstore\n      0x20\n      add\n      0x00\n      keccak256\n        /* \"Event trigger supply chain.sol\":3032:3058  Invoice[_itemindex]._state */\n      0x05\n      add\n      0x00\n      swap1\n      sload\n      swap1\n      0x0100\n      exp\n      swap1\n      div\n      0xff\n      and\n        /* \"Event trigger supply chain.sol\":3032:3080  Invoice[_itemindex]._state==InvoiceState.Created */\n      0x01\n      dup2\n      gt\n      iszero\n      tag_70\n      jumpi\n      tag_71\n      tag_61\n      jump\t// in\n    tag_71:\n    tag_70:\n      eq\n        /* \"Event trigger supply chain.sol\":3024:3111  require(Invoice[_itemindex]._state==InvoiceState.Created,\"Item is further in the line\") */\n      tag_72\n      jumpi\n      mload(0x40)\n      0x08c379a000000000000000000000000000000000000000000000000000000000\n      dup2\n      mstore\n      0x04\n      add\n      tag_73\n      swap1\n      tag_74\n      jump\t// in\n    tag_73:\n      mload(0x40)\n      dup1\n      swap2\n      sub\n      swap1\n      revert\n    tag_72:\n        /* \"Event trigger supply chain.sol\":3163:3173  msg.sender */\n      caller\n        /* \"Event trigger supply chain.sol\":3129:3173  Invoice[_itemindex]._SellerPan != msg.sender */\n      0xffffffffffffffffffffffffffffffffffffffff\n      and\n        /* \"Event trigger supply chain.sol\":3129:3136  Invoice */\n      0x02\n        /* \"Event trigger supply chain.sol\":3129:3148  Invoice[_itemindex] */\n      0x00\n        /* \"Event trigger supply chain.sol\":3137:3147  _itemindex */\n      dup4\n        /* \"Event trigger supply chain.sol\":3129:3148  Invoice[_itemindex] */\n      dup2\n      mstore\n      0x20\n      add\n      swap1\n      dup2\n      mstore\n      0x20\n      add\n      0x00\n      keccak256\n        /* \"Event trigger supply chain.sol\":3129:3159  Invoice[_itemindex]._SellerPan */\n      0x01\n      add\n      0x00\n      swap1\n      sload\n      swap1\n      0x0100\n      exp\n      swap1\n      div\n      0xffffffffffffffffffffffffffffffffffffffff\n      and\n        /* \"Event trigger supply chain.sol\":3129:3173  Invoice[_itemindex]._SellerPan != msg.sender */\n      0xffffffffffffffffffffffffffffffffffffffff\n      and\n      sub\n        /* \"Event trigger supply chain.sol\":3121:3210  require(Invoice[_itemindex]._SellerPan != msg.sender,\"Seller can not buy their own item\") */\n      tag_75\n      jumpi\n      mload(0x40)\n      0x08c379a000000000000000000000000000000000000000000000000000000000\n      dup2\n      mstore\n      0x04\n      add\n      tag_76\n      swap1\n      tag_77\n      jump\t// in\n    tag_76:\n      mload(0x40)\n      dup1\n      swap2\n      sub\n      swap1\n      revert\n    tag_75:\n        /* \"Event trigger supply chain.sol\":3247:3264  InvoiceState.Paid */\n      0x01\n        /* \"Event trigger supply chain.sol\":3220:3227  Invoice */\n      0x02\n        /* \"Event trigger supply chain.sol\":3220:3239  Invoice[_itemindex] */\n      0x00\n        /* \"Event trigger supply chain.sol\":3228:3238  _itemindex */\n      dup4\n        /* \"Event trigger supply chain.sol\":3220:3239  Invoice[_itemindex] */\n      dup2\n      mstore\n      0x20\n      add\n      swap1\n      dup2\n      mstore\n      0x20\n      add\n      0x00\n      keccak256\n        /* \"Event trigger supply chain.sol\":3220:3246  Invoice[_itemindex]._state */\n      0x05\n      add\n      0x00\n        /* \"Event trigger supply chain.sol\":3220:3264  Invoice[_itemindex]._state=InvoiceState.Paid */\n      0x0100\n      exp\n      dup2\n      sload\n      dup2\n      0xff\n      mul\n      not\n      and\n      swap1\n      dup4\n      0x01\n      dup2\n      gt\n      iszero\n      tag_78\n      jumpi\n      tag_79\n      tag_61\n      jump\t// in\n    tag_79:\n    tag_78:\n      mul\n      or\n      swap1\n      sstore\n      pop\n        /* \"Event trigger supply chain.sol\":3305:3315  msg.sender */\n      caller\n        /* \"Event trigger supply chain.sol\":3274:3281  Invoice */\n      0x02\n        /* \"Event trigger supply chain.sol\":3274:3293  Invoice[_itemindex] */\n      0x00\n        /* \"Event trigger supply chain.sol\":3282:3292  _itemindex */\n      dup4\n        /* \"Event trigger supply chain.sol\":3274:3293  Invoice[_itemindex] */\n      dup2\n      mstore\n      0x20\n      add\n      swap1\n      dup2\n      mstore\n      0x20\n      add\n      0x00\n      keccak256\n        /* \"Event trigger supply chain.sol\":3274:3303  Invoice[_itemindex]._BuyerPan */\n      0x00\n      add\n      0x00\n        /* \"Event trigger supply chain.sol\":3274:3315  Invoice[_itemindex]._BuyerPan =msg.sender */\n      0x0100\n      exp\n      dup2\n      sload\n      dup2\n      0xffffffffffffffffffffffffffffffffffffffff\n      mul\n      not\n      and\n      swap1\n      dup4\n      0xffffffffffffffffffffffffffffffffffffffff\n      and\n      mul\n      or\n      swap1\n      sstore\n      pop\n        /* \"Event trigger supply chain.sol\":3359:3374  block.timestamp */\n      timestamp\n        /* \"Event trigger supply chain.sol\":3325:3332  Invoice */\n      0x02\n        /* \"Event trigger supply chain.sol\":3325:3344  Invoice[_itemindex] */\n      0x00\n        /* \"Event trigger supply chain.sol\":3333:3343  _itemindex */\n      dup4\n        /* \"Event trigger supply chain.sol\":3325:3344  Invoice[_itemindex] */\n      dup2\n      mstore\n      0x20\n      add\n      swap1\n      dup2\n      mstore\n      0x20\n      add\n      0x00\n      keccak256\n        /* \"Event trigger supply chain.sol\":3325:3357  Invoice[_itemindex]._InvoiceDate */\n      0x06\n      add\n        /* \"Event trigger supply chain.sol\":3325:3374  Invoice[_itemindex]._InvoiceDate =block.timestamp */\n      dup2\n      swap1\n      sstore\n      pop\n        /* \"Event trigger supply chain.sol\":3384:3620  add_Invoice_To_BuyersPan(Invoice[_itemindex]._SellerPan,Invoice[_itemindex]._items,Invoice[_itemindex]._Identifier,Invoice[_itemindex]._itemPrice,Invoice[_itemindex]._state,Invoice[_itemindex]._BuyerPan,Invoice[_itemindex]._InvoiceDate) */\n      tag_80\n        /* \"Event trigger supply chain.sol\":3409:3416  Invoice */\n      0x02\n        /* \"Event trigger supply chain.sol\":3409:3428  Invoice[_itemindex] */\n      0x00\n        /* \"Event trigger supply chain.sol\":3417:3427  _itemindex */\n      dup4\n        /* \"Event trigger supply chain.sol\":3409:3428  Invoice[_itemindex] */\n      dup2\n      mstore\n      0x20\n      add\n      swap1\n      dup2\n      mstore\n      0x20\n      add\n      0x00\n      keccak256\n        /* \"Event trigger supply chain.sol\":3409:3439  Invoice[_itemindex]._SellerPan */\n      0x01\n      add\n      0x00\n      swap1\n      sload\n      swap1\n      0x0100\n      exp\n      swap1\n      div\n      0xffffffffffffffffffffffffffffffffffffffff\n      and\n        /* \"Event trigger supply chain.sol\":3440:3447  Invoice */\n      0x02\n        /* \"Event trigger supply chain.sol\":3440:3459  Invoice[_itemindex] */\n      0x00\n        /* \"Event trigger supply chain.sol\":3448:3458  _itemindex */\n      dup5\n        /* \"Event trigger supply chain.sol\":3440:3459  Invoice[_itemindex] */\n      dup2\n      mstore\n      0x20\n      add\n      swap1\n      dup2\n      mstore\n      0x20\n      add\n      0x00\n      keccak256\n        /* \"Event trigger supply chain.sol\":3440:3466  Invoice[_itemindex]._items */\n      0x02\n      add\n      0x00\n      swap1\n      sload\n      swap1\n      0x0100\n      exp\n      swap1\n      div\n      0xffffffffffffffffffffffffffffffffffffffff\n      and\n        /* \"Event trigger supply chain.sol\":3467:3474  Invoice */\n      0x02\n        /* \"Event trigger supply chain.sol\":3467:3486  Invoice[_itemindex] */\n      0x00\n        /* \"Event trigger supply chain.sol\":3475:3485  _itemindex */\n      dup6\n        /* \"Event trigger supply chain.sol\":3467:3486  Invoice[_itemindex] */\n      dup2\n      mstore\n      0x20\n      add\n      swap1\n      dup2\n      mstore\n      0x20\n      add\n      0x00\n      keccak256\n        /* \"Event trigger supply chain.sol\":3467:3498  Invoice[_itemindex]._Identifier */\n      0x03\n      add\n        /* \"Event trigger supply chain.sol\":3384:3620  add_Invoice_To_BuyersPan(Invoice[_itemindex]._SellerPan,Invoice[_itemindex]._items,Invoice[_itemindex]._Identifier,Invoice[_itemindex]._itemPrice,Invoice[_itemindex]._state,Invoice[_itemindex]._BuyerPan,Invoice[_itemindex]._InvoiceDate) */\n      dup1\n      sload\n      tag_81\n      swap1\n      tag_54\n      jump\t// in\n    tag_81:\n      dup1\n      0x1f\n      add\n      0x20\n      dup1\n      swap2\n      div\n      mul\n      0x20\n      add\n      mload(0x40)\n      swap1\n      dup2\n      add\n      0x40\n      mstore\n      dup1\n      swap3\n      swap2\n      swap1\n      dup2\n      dup2\n      mstore\n      0x20\n      add\n      dup3\n      dup1\n      sload\n      tag_82\n      swap1\n      tag_54\n      jump\t// in\n    tag_82:\n      dup1\n      iszero\n      tag_83\n      jumpi\n      dup1\n      0x1f\n      lt\n      tag_84\n      jumpi\n      0x0100\n      dup1\n      dup4\n      sload\n      div\n      mul\n      dup4\n      mstore\n      swap2\n      0x20\n      add\n      swap2\n      jump(tag_83)\n    tag_84:\n      dup3\n      add\n      swap2\n      swap1\n      0x00\n      mstore\n      keccak256(0x00, 0x20)\n      swap1\n    tag_85:\n      dup2\n      sload\n      dup2\n      mstore\n      swap1\n      0x01\n      add\n      swap1\n      0x20\n      add\n      dup1\n      dup4\n      gt\n      tag_85\n      jumpi\n      dup3\n      swap1\n      sub\n      0x1f\n      and\n      dup3\n      add\n      swap2\n    tag_83:\n      pop\n      pop\n      pop\n      pop\n      pop\n        /* \"Event trigger supply chain.sol\":3499:3506  Invoice */\n      0x02\n        /* \"Event trigger supply chain.sol\":3499:3518  Invoice[_itemindex] */\n      0x00\n        /* \"Event trigger supply chain.sol\":3507:3517  _itemindex */\n      dup7\n        /* \"Event trigger supply chain.sol\":3499:3518  Invoice[_itemindex] */\n      dup2\n      mstore\n      0x20\n      add\n      swap1\n      dup2\n      mstore\n      0x20\n      add\n      0x00\n      keccak256\n        /* \"Event trigger supply chain.sol\":3499:3529  Invoice[_itemindex]._itemPrice */\n      0x04\n      add\n      sload\n        /* \"Event trigger supply chain.sol\":3530:3537  Invoice */\n      0x02\n        /* \"Event trigger supply chain.sol\":3530:3549  Invoice[_itemindex] */\n      0x00\n        /* \"Event trigger supply chain.sol\":3538:3548  _itemindex */\n      dup8\n        /* \"Event trigger supply chain.sol\":3530:3549  Invoice[_itemindex] */\n      dup2\n      mstore\n      0x20\n      add\n      swap1\n      dup2\n      mstore\n      0x20\n      add\n      0x00\n      keccak256\n        /* \"Event trigger supply chain.sol\":3530:3556  Invoice[_itemindex]._state */\n      0x05\n      add\n      0x00\n      swap1\n      sload\n      swap1\n      0x0100\n      exp\n      swap1\n      div\n      0xff\n      and\n        /* \"Event trigger supply chain.sol\":3557:3564  Invoice */\n      0x02\n        /* \"Event trigger supply chain.sol\":3557:3576  Invoice[_itemindex] */\n      0x00\n        /* \"Event trigger supply chain.sol\":3565:3575  _itemindex */\n      dup9\n        /* \"Event trigger supply chain.sol\":3557:3576  Invoice[_itemindex] */\n      dup2\n      mstore\n      0x20\n      add\n      swap1\n      dup2\n      mstore\n      0x20\n      add\n      0x00\n      keccak256\n        /* \"Event trigger supply chain.sol\":3557:3586  Invoice[_itemindex]._BuyerPan */\n      0x00\n      add\n      0x00\n      swap1\n      sload\n      swap1\n      0x0100\n      exp\n      swap1\n      div\n      0xffffffffffffffffffffffffffffffffffffffff\n      and\n        /* \"Event trigger supply chain.sol\":3587:3594  Invoice */\n      0x02\n        /* \"Event trigger supply chain.sol\":3587:3606  Invoice[_itemindex] */\n      0x00\n        /* \"Event trigger supply chain.sol\":3595:3605  _itemindex */\n      dup10\n        /* \"Event trigger supply chain.sol\":3587:3606  Invoice[_itemindex] */\n      dup2\n      mstore\n      0x20\n      add\n      swap1\n      dup2\n      mstore\n      0x20\n      add\n      0x00\n      keccak256\n        /* \"Event trigger supply chain.sol\":3587:3619  Invoice[_itemindex]._InvoiceDate */\n      0x06\n      add\n      sload\n        /* \"Event trigger supply chain.sol\":3384:3408  add_Invoice_To_BuyersPan */\n      tag_86\n        /* \"Event trigger supply chain.sol\":3384:3620  add_Invoice_To_BuyersPan(Invoice[_itemindex]._SellerPan,Invoice[_itemindex]._items,Invoice[_itemindex]._Identifier,Invoice[_itemindex]._itemPrice,Invoice[_itemindex]._state,Invoice[_itemindex]._BuyerPan,Invoice[_itemindex]._InvoiceDate) */\n      jump\t// in\n    tag_80:\n        /* \"Event trigger supply chain.sol\":3635:3848  Invoice_State(_itemindex, uint(Invoice[_itemindex]._state),address(Invoice[_itemindex]._items),uint(Invoice[_itemindex]._InvoiceDate),address(Invoice[_itemindex]._BuyerPan),address(Invoice[_itemindex]._SellerPan)) */\n      0xa3cc98fd99f30b099f998ac88cf0d8cf7c2a3ce87b8af5d8543e401a78e30410\n        /* \"Event trigger supply chain.sol\":3649:3659  _itemindex */\n      dup2\n        /* \"Event trigger supply chain.sol\":3666:3673  Invoice */\n      0x02\n        /* \"Event trigger supply chain.sol\":3666:3685  Invoice[_itemindex] */\n      0x00\n        /* \"Event trigger supply chain.sol\":3674:3684  _itemindex */\n      dup5\n        /* \"Event trigger supply chain.sol\":3666:3685  Invoice[_itemindex] */\n      dup2\n      mstore\n      0x20\n      add\n      swap1\n      dup2\n      mstore\n      0x20\n      add\n      0x00\n      keccak256\n        /* \"Event trigger supply chain.sol\":3666:3692  Invoice[_itemindex]._state */\n      0x05\n      add\n      0x00\n      swap1\n      sload\n      swap1\n      0x0100\n      exp\n      swap1\n      div\n      0xff\n      and\n        /* \"Event trigger supply chain.sol\":3661:3693  uint(Invoice[_itemindex]._state) */\n      0x01\n      dup2\n      gt\n      iszero\n      tag_87\n      jumpi\n      tag_88\n      tag_61\n      jump\t// in\n    tag_88:\n    tag_87:\n        /* \"Event trigger supply chain.sol\":3702:3709  Invoice */\n      0x02\n        /* \"Event trigger supply chain.sol\":3702:3721  Invoice[_itemindex] */\n      0x00\n        /* \"Event trigger supply chain.sol\":3710:3720  _itemindex */\n      dup6\n        /* \"Event trigger supply chain.sol\":3702:3721  Invoice[_itemindex] */\n      dup2\n      mstore\n      0x20\n      add\n      swap1\n      dup2\n      mstore\n      0x20\n      add\n      0x00\n      keccak256\n        /* \"Event trigger supply chain.sol\":3702:3728  Invoice[_itemindex]._items */\n      0x02\n      add\n      0x00\n      swap1\n      sload\n      swap1\n      0x0100\n      exp\n      swap1\n      div\n      0xffffffffffffffffffffffffffffffffffffffff\n      and\n        /* \"Event trigger supply chain.sol\":3735:3742  Invoice */\n      0x02\n        /* \"Event trigger supply chain.sol\":3735:3754  Invoice[_itemindex] */\n      0x00\n        /* \"Event trigger supply chain.sol\":3743:3753  _itemindex */\n      dup7\n        /* \"Event trigger supply chain.sol\":3735:3754  Invoice[_itemindex] */\n      dup2\n      mstore\n      0x20\n      add\n      swap1\n      dup2\n      mstore\n      0x20\n      add\n      0x00\n      keccak256\n        /* \"Event trigger supply chain.sol\":3735:3767  Invoice[_itemindex]._InvoiceDate */\n      0x06\n      add\n      sload\n        /* \"Event trigger supply chain.sol\":3777:3784  Invoice */\n      0x02\n        /* \"Event trigger supply chain.sol\":3777:3796  Invoice[_itemindex] */\n      0x00\n        /* \"Event trigger supply chain.sol\":3785:3795  _itemindex */\n      dup8\n        /* \"Event trigger supply chain.sol\":3777:3796  Invoice[_itemindex] */\n      dup2\n      mstore\n      0x20\n      add\n      swap1\n      dup2\n      mstore\n      0x20\n      add\n      0x00\n      keccak256\n        /* \"Event trigger supply chain.sol\":3777:3806  Invoice[_itemindex]._BuyerPan */\n      0x00\n      add\n      0x00\n      swap1\n      sload\n      swap1\n      0x0100\n      exp\n      swap1\n      div\n      0xffffffffffffffffffffffffffffffffffffffff\n      and\n        /* \"Event trigger supply chain.sol\":3816:3823  Invoice */\n      0x02\n        /* \"Event trigger supply chain.sol\":3816:3835  Invoice[_itemindex] */\n      0x00\n        /* \"Event trigger supply chain.sol\":3824:3834  _itemindex */\n      dup9\n        /* \"Event trigger supply chain.sol\":3816:3835  Invoice[_itemindex] */\n      dup2\n      mstore\n      0x20\n      add\n      swap1\n      dup2\n      mstore\n      0x20\n      add\n      0x00\n      keccak256\n        /* \"Event trigger supply chain.sol\":3816:3846  Invoice[_itemindex]._SellerPan */\n      0x01\n      add\n      0x00\n      swap1\n      sload\n      swap1\n      0x0100\n      exp\n      swap1\n      div\n      0xffffffffffffffffffffffffffffffffffffffff\n      and\n        /* \"Event trigger supply chain.sol\":3635:3848  Invoice_State(_itemindex, uint(Invoice[_itemindex]._state),address(Invoice[_itemindex]._items),uint(Invoice[_itemindex]._InvoiceDate),address(Invoice[_itemindex]._BuyerPan),address(Invoice[_itemindex]._SellerPan)) */\n      mload(0x40)\n      tag_89\n      swap7\n      swap6\n      swap5\n      swap4\n      swap3\n      swap2\n      swap1\n      tag_90\n      jump\t// in\n    tag_89:\n      mload(0x40)\n      dup1\n      swap2\n      sub\n      swap1\n      log1\n        /* \"Event trigger supply chain.sol\":2873:3856  function Buyer(uint _itemindex)public payable {... */\n      pop\n      jump\t// out\n        /* \"Event trigger supply chain.sol\":4805:4917  function renounceOwnership() public view override onlyOwner {... */\n    tag_22:\n        /* \"https://github.com/OpenZeppelin/openzeppelin-contracts/contracts/access/Ownable.sol\":1259:1271  _msgSender() */\n      tag_92\n        /* \"https://github.com/OpenZeppelin/openzeppelin-contracts/contracts/access/Ownable.sol\":1259:1269  _msgSender */\n      tag_93\n        /* \"https://github.com/OpenZeppelin/openzeppelin-contracts/contracts/access/Ownable.sol\":1259:1271  _msgSender() */\n      jump\t// in\n    tag_92:\n        /* \"https://github.com/OpenZeppelin/openzeppelin-contracts/contracts/access/Ownable.sol\":1248:1271  owner() == _msgSender() */\n      0xffffffffffffffffffffffffffffffffffffffff\n      and\n        /* \"https://github.com/OpenZeppelin/openzeppelin-contracts/contracts/access/Ownable.sol\":1248:1255  owner() */\n      tag_94\n        /* \"https://github.com/OpenZeppelin/openzeppelin-contracts/contracts/access/Ownable.sol\":1248:1253  owner */\n      tag_30\n        /* \"https://github.com/OpenZeppelin/openzeppelin-contracts/contracts/access/Ownable.sol\":1248:1255  owner() */\n      jump\t// in\n    tag_94:\n        /* \"https://github.com/OpenZeppelin/openzeppelin-contracts/contracts/access/Ownable.sol\":1248:1271  owner() == _msgSender() */\n      0xffffffffffffffffffffffffffffffffffffffff\n      and\n      eq\n        /* \"https://github.com/OpenZeppelin/openzeppelin-contracts/contracts/access/Ownable.sol\":1240:1308  require(owner() == _msgSender(), \"Ownable: caller is not the owner\") */\n      tag_95\n      jumpi\n      mload(0x40)\n      0x08c379a000000000000000000000000000000000000000000000000000000000\n      dup2\n      mstore\n      0x04\n      add\n      tag_96\n      swap1\n      tag_97\n      jump\t// in\n    tag_96:\n      mload(0x40)\n      dup1\n      swap2\n      sub\n      swap1\n      revert\n    tag_95:\n        /* \"Event trigger supply chain.sol\":4872:4908  revert(\"can not renounce ownership\") */\n      mload(0x40)\n      0x08c379a000000000000000000000000000000000000000000000000000000000\n      dup2\n      mstore\n      0x04\n      add\n      tag_99\n      swap1\n      tag_100\n      jump\t// in\n    tag_99:\n      mload(0x40)\n      dup1\n      swap2\n      sub\n      swap1\n      revert\n        /* \"Event trigger supply chain.sol\":1982:2692  function createItem(string memory _identifier , uint _itemprice) public {//putting onlyowner here will restrict anybody other than owner of the contract from creating the item... */\n    tag_27:\n        /* \"Event trigger supply chain.sol\":2167:2176  Item item */\n      0x00\n        /* \"Event trigger supply chain.sol\":2188:2192  this */\n      address\n        /* \"Event trigger supply chain.sol\":2194:2204  _itemprice */\n      dup3\n        /* \"Event trigger supply chain.sol\":2205:2214  itemIndex */\n      sload(0x04)\n        /* \"Event trigger supply chain.sol\":2179:2215  new Item(this, _itemprice,itemIndex) */\n      mload(0x40)\n      tag_102\n      swap1\n      tag_103\n      jump\t// in\n    tag_102:\n      tag_104\n      swap4\n      swap3\n      swap2\n      swap1\n      tag_105\n      jump\t// in\n    tag_104:\n      mload(0x40)\n      dup1\n      swap2\n      sub\n      swap1\n      0x00\n      create\n      dup1\n      iszero\n      dup1\n      iszero\n      tag_106\n      jumpi\n      returndatasize\n      0x00\n      dup1\n      returndatacopy\n      revert(0x00, returndatasize)\n    tag_106:\n      pop\n        /* \"Event trigger supply chain.sol\":2167:2215  Item item = new Item(this, _itemprice,itemIndex) */\n      swap1\n      pop\n        /* \"Event trigger supply chain.sol\":2257:2267  msg.sender */\n      caller\n        /* \"Event trigger supply chain.sol\":2226:2233  Invoice */\n      0x02\n        /* \"Event trigger supply chain.sol\":2226:2244  Invoice[itemIndex] */\n      0x00\n        /* \"Event trigger supply chain.sol\":2234:2243  itemIndex */\n      sload(0x04)\n        /* \"Event trigger supply chain.sol\":2226:2244  Invoice[itemIndex] */\n      dup2\n      mstore\n      0x20\n      add\n      swap1\n      dup2\n      mstore\n      0x20\n      add\n      0x00\n      keccak256\n        /* \"Event trigger supply chain.sol\":2226:2255  Invoice[itemIndex]._SellerPan */\n      0x01\n      add\n      0x00\n        /* \"Event trigger supply chain.sol\":2226:2267  Invoice[itemIndex]._SellerPan =msg.sender */\n      0x0100\n      exp\n      dup2\n      sload\n      dup2\n      0xffffffffffffffffffffffffffffffffffffffff\n      mul\n      not\n      and\n      swap1\n      dup4\n      0xffffffffffffffffffffffffffffffffffffffff\n      and\n      mul\n      or\n      swap1\n      sstore\n      pop\n        /* \"Event trigger supply chain.sol\":2306:2310  item */\n      dup1\n        /* \"Event trigger supply chain.sol\":2278:2285  Invoice */\n      0x02\n        /* \"Event trigger supply chain.sol\":2278:2296  Invoice[itemIndex] */\n      0x00\n        /* \"Event trigger supply chain.sol\":2286:2295  itemIndex */\n      sload(0x04)\n        /* \"Event trigger supply chain.sol\":2278:2296  Invoice[itemIndex] */\n      dup2\n      mstore\n      0x20\n      add\n      swap1\n      dup2\n      mstore\n      0x20\n      add\n      0x00\n      keccak256\n        /* \"Event trigger supply chain.sol\":2278:2303  Invoice[itemIndex]._items */\n      0x02\n      add\n      0x00\n        /* \"Event trigger supply chain.sol\":2278:2310  Invoice[itemIndex]._items = item */\n      0x0100\n      exp\n      dup2\n      sload\n      dup2\n      0xffffffffffffffffffffffffffffffffffffffff\n      mul\n      not\n      and\n      swap1\n      dup4\n      0xffffffffffffffffffffffffffffffffffffffff\n      and\n      mul\n      or\n      swap1\n      sstore\n      pop\n        /* \"Event trigger supply chain.sol\":2352:2363  _identifier */\n      dup3\n        /* \"Event trigger supply chain.sol\":2319:2326  Invoice */\n      0x02\n        /* \"Event trigger supply chain.sol\":2319:2337  Invoice[itemIndex] */\n      0x00\n        /* \"Event trigger supply chain.sol\":2327:2336  itemIndex */\n      sload(0x04)\n        /* \"Event trigger supply chain.sol\":2319:2337  Invoice[itemIndex] */\n      dup2\n      mstore\n      0x20\n      add\n      swap1\n      dup2\n      mstore\n      0x20\n      add\n      0x00\n      keccak256\n        /* \"Event trigger supply chain.sol\":2319:2349  Invoice[itemIndex]._Identifier */\n      0x03\n      add\n        /* \"Event trigger supply chain.sol\":2319:2363  Invoice[itemIndex]._Identifier = _identifier */\n      swap1\n      dup2\n      tag_107\n      swap2\n      swap1\n      tag_108\n      jump\t// in\n    tag_107:\n      pop\n        /* \"Event trigger supply chain.sol\":2404:2414  _itemprice */\n      dup2\n        /* \"Event trigger supply chain.sol\":2372:2379  Invoice */\n      0x02\n        /* \"Event trigger supply chain.sol\":2372:2390  Invoice[itemIndex] */\n      0x00\n        /* \"Event trigger supply chain.sol\":2380:2389  itemIndex */\n      sload(0x04)\n        /* \"Event trigger supply chain.sol\":2372:2390  Invoice[itemIndex] */\n      dup2\n      mstore\n      0x20\n      add\n      swap1\n      dup2\n      mstore\n      0x20\n      add\n      0x00\n      keccak256\n        /* \"Event trigger supply chain.sol\":2372:2401  Invoice[itemIndex]._itemPrice */\n      0x04\n      add\n        /* \"Event trigger supply chain.sol\":2372:2414  Invoice[itemIndex]._itemPrice = _itemprice */\n      dup2\n      swap1\n      sstore\n      pop\n        /* \"Event trigger supply chain.sol\":2451:2471  InvoiceState.Created */\n      0x00\n        /* \"Event trigger supply chain.sol\":2423:2430  Invoice */\n      0x02\n        /* \"Event trigger supply chain.sol\":2423:2441  Invoice[itemIndex] */\n      0x00\n        /* \"Event trigger supply chain.sol\":2431:2440  itemIndex */\n      sload(0x04)\n        /* \"Event trigger supply chain.sol\":2423:2441  Invoice[itemIndex] */\n      dup2\n      mstore\n      0x20\n      add\n      swap1\n      dup2\n      mstore\n      0x20\n      add\n      0x00\n      keccak256\n        /* \"Event trigger supply chain.sol\":2423:2448  Invoice[itemIndex]._state */\n      0x05\n      add\n      0x00\n        /* \"Event trigger supply chain.sol\":2423:2471  Invoice[itemIndex]._state = InvoiceState.Created */\n      0x0100\n      exp\n      dup2\n      sload\n      dup2\n      0xff\n      mul\n      not\n      and\n      swap1\n      dup4\n      0x01\n      dup2\n      gt\n      iszero\n      tag_109\n      jumpi\n      tag_110\n      tag_61\n      jump\t// in\n    tag_110:\n    tag_109:\n      mul\n      or\n      swap1\n      sstore\n      pop\n        /* \"Event trigger supply chain.sol\":2485:2609  Invoice_State(itemIndex, uint(Invoice[itemIndex]._state),address(item),0,address(0),address( Invoice[itemIndex]._SellerPan)) */\n      0xa3cc98fd99f30b099f998ac88cf0d8cf7c2a3ce87b8af5d8543e401a78e30410\n        /* \"Event trigger supply chain.sol\":2499:2508  itemIndex */\n      sload(0x04)\n        /* \"Event trigger supply chain.sol\":2515:2522  Invoice */\n      0x02\n        /* \"Event trigger supply chain.sol\":2515:2533  Invoice[itemIndex] */\n      0x00\n        /* \"Event trigger supply chain.sol\":2523:2532  itemIndex */\n      sload(0x04)\n        /* \"Event trigger supply chain.sol\":2515:2533  Invoice[itemIndex] */\n      dup2\n      mstore\n      0x20\n      add\n      swap1\n      dup2\n      mstore\n      0x20\n      add\n      0x00\n      keccak256\n        /* \"Event trigger supply chain.sol\":2515:2540  Invoice[itemIndex]._state */\n      0x05\n      add\n      0x00\n      swap1\n      sload\n      swap1\n      0x0100\n      exp\n      swap1\n      div\n      0xff\n      and\n        /* \"Event trigger supply chain.sol\":2510:2541  uint(Invoice[itemIndex]._state) */\n      0x01\n      dup2\n      gt\n      iszero\n      tag_111\n      jumpi\n      tag_112\n      tag_61\n      jump\t// in\n    tag_112:\n    tag_111:\n        /* \"Event trigger supply chain.sol\":2550:2554  item */\n      dup4\n        /* \"Event trigger supply chain.sol\":2556:2557  0 */\n      0x00\n        /* \"Event trigger supply chain.sol\":2566:2567  0 */\n      dup1\n        /* \"Event trigger supply chain.sol\":2578:2585  Invoice */\n      0x02\n        /* \"Event trigger supply chain.sol\":2578:2596  Invoice[itemIndex] */\n      0x00\n        /* \"Event trigger supply chain.sol\":2586:2595  itemIndex */\n      sload(0x04)\n        /* \"Event trigger supply chain.sol\":2578:2596  Invoice[itemIndex] */\n      dup2\n      mstore\n      0x20\n      add\n      swap1\n      dup2\n      mstore\n      0x20\n      add\n      0x00\n      keccak256\n        /* \"Event trigger supply chain.sol\":2578:2607  Invoice[itemIndex]._SellerPan */\n      0x01\n      add\n      0x00\n      swap1\n      sload\n      swap1\n      0x0100\n      exp\n      swap1\n      div\n      0xffffffffffffffffffffffffffffffffffffffff\n      and\n        /* \"Event trigger supply chain.sol\":2485:2609  Invoice_State(itemIndex, uint(Invoice[itemIndex]._state),address(item),0,address(0),address( Invoice[itemIndex]._SellerPan)) */\n      mload(0x40)\n      tag_113\n      swap7\n      swap6\n      swap5\n      swap4\n      swap3\n      swap2\n      swap1\n      tag_114\n      jump\t// in\n    tag_113:\n      mload(0x40)\n      dup1\n      swap2\n      sub\n      swap1\n      log1\n        /* \"Event trigger supply chain.sol\":2665:2674  itemIndex */\n      0x04\n      0x00\n        /* \"Event trigger supply chain.sol\":2665:2676  itemIndex++ */\n      dup2\n      sload\n      dup1\n      swap3\n      swap2\n      swap1\n      tag_115\n      swap1\n      tag_116\n      jump\t// in\n    tag_115:\n      swap2\n      swap1\n      pop\n      sstore\n      pop\n        /* \"Event trigger supply chain.sol\":2054:2692  {//putting onlyowner here will restrict anybody other than owner of the contract from creating the item... */\n      pop\n        /* \"Event trigger supply chain.sol\":1982:2692  function createItem(string memory _identifier , uint _itemprice) public {//putting onlyowner here will restrict anybody other than owner of the contract from creating the item... */\n      pop\n      pop\n      jump\t// out\n        /* \"https://github.com/OpenZeppelin/openzeppelin-contracts/contracts/access/Ownable.sol\":1036:1121  function owner() public view virtual returns (address) {... */\n    tag_30:\n        /* \"https://github.com/OpenZeppelin/openzeppelin-contracts/contracts/access/Ownable.sol\":1082:1089  address */\n      0x00\n        /* \"https://github.com/OpenZeppelin/openzeppelin-contracts/contracts/access/Ownable.sol\":1108:1114  _owner */\n      dup1\n      0x00\n      swap1\n      sload\n      swap1\n      0x0100\n      exp\n      swap1\n      div\n      0xffffffffffffffffffffffffffffffffffffffff\n      and\n        /* \"https://github.com/OpenZeppelin/openzeppelin-contracts/contracts/access/Ownable.sol\":1101:1114  return _owner */\n      swap1\n      pop\n        /* \"https://github.com/OpenZeppelin/openzeppelin-contracts/contracts/access/Ownable.sol\":1036:1121  function owner() public view virtual returns (address) {... */\n      swap1\n      jump\t// out\n        /* \"Event trigger supply chain.sol\":1549:1592  mapping (uint =>Invoice_Data)public Invoice */\n    tag_36:\n      mstore(0x20, 0x02)\n      dup1\n      0x00\n      mstore\n      keccak256(0x00, 0x40)\n      0x00\n      swap2\n      pop\n      swap1\n      pop\n      dup1\n      0x00\n      add\n      0x00\n      swap1\n      sload\n      swap1\n      0x0100\n      exp\n      swap1\n      div\n      0xffffffffffffffffffffffffffffffffffffffff\n      and\n      swap1\n      dup1\n      0x01\n      add\n      0x00\n      swap1\n      sload\n      swap1\n      0x0100\n      exp\n      swap1\n      div\n      0xffffffffffffffffffffffffffffffffffffffff\n      and\n      swap1\n      dup1\n      0x02\n      add\n      0x00\n      swap1\n      sload\n      swap1\n      0x0100\n      exp\n      swap1\n      div\n      0xffffffffffffffffffffffffffffffffffffffff\n      and\n      swap1\n      dup1\n      0x03\n      add\n      dup1\n      sload\n      tag_118\n      swap1\n      tag_54\n      jump\t// in\n    tag_118:\n      dup1\n      0x1f\n      add\n      0x20\n      dup1\n      swap2\n      div\n      mul\n      0x20\n      add\n      mload(0x40)\n      swap1\n      dup2\n      add\n      0x40\n      mstore\n      dup1\n      swap3\n      swap2\n      swap1\n      dup2\n      dup2\n      mstore\n      0x20\n      add\n      dup3\n      dup1\n      sload\n      tag_119\n      swap1\n      tag_54\n      jump\t// in\n    tag_119:\n      dup1\n      iszero\n      tag_120\n      jumpi\n      dup1\n      0x1f\n      lt\n      tag_121\n      jumpi\n      0x0100\n      dup1\n      dup4\n      sload\n      div\n      mul\n      dup4\n      mstore\n      swap2\n      0x20\n      add\n      swap2\n      jump(tag_120)\n    tag_121:\n      dup3\n      add\n      swap2\n      swap1\n      0x00\n      mstore\n      keccak256(0x00, 0x20)\n      swap1\n    tag_122:\n      dup2\n      sload\n      dup2\n      mstore\n      swap1\n      0x01\n      add\n      swap1\n      0x20\n      add\n      dup1\n      dup4\n      gt\n      tag_122\n      jumpi\n      dup3\n      swap1\n      sub\n      0x1f\n      and\n      dup3\n      add\n      swap2\n    tag_120:\n      pop\n      pop\n      pop\n      pop\n      pop\n      swap1\n      dup1\n      0x04\n      add\n      sload\n      swap1\n      dup1\n      0x05\n      add\n      0x00\n      swap1\n      sload\n      swap1\n      0x0100\n      exp\n      swap1\n      div\n      0xff\n      and\n      swap1\n      dup1\n      0x06\n      add\n      sload\n      swap1\n      pop\n      dup8\n      jump\t// out\n        /* \"Event trigger supply chain.sol\":4673:4799  function BuyersHistory(address BuyerAddres)public view returns(Invoice_Data[] memory){... */\n    tag_43:\n        /* \"Event trigger supply chain.sol\":4736:4757  Invoice_Data[] memory */\n      0x60\n        /* \"Event trigger supply chain.sol\":4768:4782  Buyers_History */\n      0x01\n        /* \"Event trigger supply chain.sol\":4768:4795  Buyers_History[BuyerAddres] */\n      0x00\n        /* \"Event trigger supply chain.sol\":4783:4794  BuyerAddres */\n      dup4\n        /* \"Event trigger supply chain.sol\":4768:4795  Buyers_History[BuyerAddres] */\n      0xffffffffffffffffffffffffffffffffffffffff\n      and\n      0xffffffffffffffffffffffffffffffffffffffff\n      and\n      dup2\n      mstore\n      0x20\n      add\n      swap1\n      dup2\n      mstore\n      0x20\n      add\n      0x00\n      keccak256\n        /* \"Event trigger supply chain.sol\":4761:4795  return Buyers_History[BuyerAddres] */\n      dup1\n      sload\n      dup1\n      0x20\n      mul\n      0x20\n      add\n      mload(0x40)\n      swap1\n      dup2\n      add\n      0x40\n      mstore\n      dup1\n      swap3\n      swap2\n      swap1\n      dup2\n      dup2\n      mstore\n      0x20\n      add\n      0x00\n      swap1\n    tag_124:\n      dup3\n      dup3\n      lt\n      iszero\n      tag_125\n      jumpi\n      dup4\n      dup3\n      swap1\n      0x00\n      mstore\n      keccak256(0x00, 0x20)\n      swap1\n      0x07\n      mul\n      add\n      mload(0x40)\n      dup1\n      0xe0\n      add\n      0x40\n      mstore\n      swap1\n      dup2\n      0x00\n      dup3\n      add\n      0x00\n      swap1\n      sload\n      swap1\n      0x0100\n      exp\n      swap1\n      div\n      0xffffffffffffffffffffffffffffffffffffffff\n      and\n      0xffffffffffffffffffffffffffffffffffffffff\n      and\n      0xffffffffffffffffffffffffffffffffffffffff\n      and\n      dup2\n      mstore\n      0x20\n      add\n      0x01\n      dup3\n      add\n      0x00\n      swap1\n      sload\n      swap1\n      0x0100\n      exp\n      swap1\n      div\n      0xffffffffffffffffffffffffffffffffffffffff\n      and\n      0xffffffffffffffffffffffffffffffffffffffff\n      and\n      0xffffffffffffffffffffffffffffffffffffffff\n      and\n      dup2\n      mstore\n      0x20\n      add\n      0x02\n      dup3\n      add\n      0x00\n      swap1\n      sload\n      swap1\n      0x0100\n      exp\n      swap1\n      div\n      0xffffffffffffffffffffffffffffffffffffffff\n      and\n      0xffffffffffffffffffffffffffffffffffffffff\n      and\n      0xffffffffffffffffffffffffffffffffffffffff\n      and\n      dup2\n      mstore\n      0x20\n      add\n      0x03\n      dup3\n      add\n      dup1\n      sload\n      tag_127\n      swap1\n      tag_54\n      jump\t// in\n    tag_127:\n      dup1\n      0x1f\n      add\n      0x20\n      dup1\n      swap2\n      div\n      mul\n      0x20\n      add\n      mload(0x40)\n      swap1\n      dup2\n      add\n      0x40\n      mstore\n      dup1\n      swap3\n      swap2\n      swap1\n      dup2\n      dup2\n      mstore\n      0x20\n      add\n      dup3\n      dup1\n      sload\n      tag_128\n      swap1\n      tag_54\n      jump\t// in\n    tag_128:\n      dup1\n      iszero\n      tag_129\n      jumpi\n      dup1\n      0x1f\n      lt\n      tag_130\n      jumpi\n      0x0100\n      dup1\n      dup4\n      sload\n      div\n      mul\n      dup4\n      mstore\n      swap2\n      0x20\n      add\n      swap2\n      jump(tag_129)\n    tag_130:\n      dup3\n      add\n      swap2\n      swap1\n      0x00\n      mstore\n      keccak256(0x00, 0x20)\n      swap1\n    tag_131:\n      dup2\n      sload\n      dup2\n      mstore\n      swap1\n      0x01\n      add\n      swap1\n      0x20\n      add\n      dup1\n      dup4\n      gt\n      tag_131\n      jumpi\n      dup3\n      swap1\n      sub\n      0x1f\n      and\n      dup3\n      add\n      swap2\n    tag_129:\n      pop\n      pop\n      pop\n      pop\n      pop\n      dup2\n      mstore\n      0x20\n      add\n      0x04\n      dup3\n      add\n      sload\n      dup2\n      mstore\n      0x20\n      add\n      0x05\n      dup3\n      add\n      0x00\n      swap1\n      sload\n      swap1\n      0x0100\n      exp\n      swap1\n      div\n      0xff\n      and\n      0x01\n      dup2\n      gt\n      iszero\n      tag_132\n      jumpi\n      tag_133\n      tag_61\n      jump\t// in\n    tag_133:\n    tag_132:\n      0x01\n      dup2\n      gt\n      iszero\n      tag_134\n      jumpi\n      tag_135\n      tag_61\n      jump\t// in\n    tag_135:\n    tag_134:\n      dup2\n      mstore\n      0x20\n      add\n      0x06\n      dup3\n      add\n      sload\n      dup2\n      mstore\n      pop\n      pop\n      dup2\n      mstore\n      0x20\n      add\n      swap1\n      0x01\n      add\n      swap1\n      jump(tag_124)\n    tag_125:\n      pop\n      pop\n      pop\n      pop\n      swap1\n      pop\n        /* \"Event trigger supply chain.sol\":4673:4799  function BuyersHistory(address BuyerAddres)public view returns(Invoice_Data[] memory){... */\n      swap2\n      swap1\n      pop\n      jump\t// out\n        /* \"https://github.com/OpenZeppelin/openzeppelin-contracts/contracts/access/Ownable.sol\":1918:2116  function transferOwnership(address newOwner) public virtual onlyOwner {... */\n    tag_48:\n        /* \"https://github.com/OpenZeppelin/openzeppelin-contracts/contracts/access/Ownable.sol\":1259:1271  _msgSender() */\n      tag_137\n        /* \"https://github.com/OpenZeppelin/openzeppelin-contracts/contracts/access/Ownable.sol\":1259:1269  _msgSender */\n      tag_93\n        /* \"https://github.com/OpenZeppelin/openzeppelin-contracts/contracts/access/Ownable.sol\":1259:1271  _msgSender() */\n      jump\t// in\n    tag_137:\n        /* \"https://github.com/OpenZeppelin/openzeppelin-contracts/contracts/access/Ownable.sol\":1248:1271  owner() == _msgSender() */\n      0xffffffffffffffffffffffffffffffffffffffff\n      and\n        /* \"https://github.com/OpenZeppelin/openzeppelin-contracts/contracts/access/Ownable.sol\":1248:1255  owner() */\n      tag_138\n        /* \"https://github.com/OpenZeppelin/openzeppelin-contracts/contracts/access/Ownable.sol\":1248:1253  owner */\n      tag_30\n        /* \"https://github.com/OpenZeppelin/openzeppelin-contracts/contracts/access/Ownable.sol\":1248:1255  owner() */\n      jump\t// in\n    tag_138:\n        /* \"https://github.com/OpenZeppelin/openzeppelin-contracts/contracts/access/Ownable.sol\":1248:1271  owner() == _msgSender() */\n      0xffffffffffffffffffffffffffffffffffffffff\n      and\n      eq\n        /* \"https://github.com/OpenZeppelin/openzeppelin-contracts/contracts/access/Ownable.sol\":1240:1308  require(owner() == _msgSender(), \"Ownable: caller is not the owner\") */\n      tag_139\n      jumpi\n      mload(0x40)\n      0x08c379a000000000000000000000000000000000000000000000000000000000\n      dup2\n      mstore\n      0x04\n      add\n      tag_140\n      swap1\n      tag_97\n      jump\t// in\n    tag_140:\n      mload(0x40)\n      dup1\n      swap2\n      sub\n      swap1\n      revert\n    tag_139:\n        /* \"https://github.com/OpenZeppelin/openzeppelin-contracts/contracts/access/Ownable.sol\":2026:2027  0 */\n      0x00\n        /* \"https://github.com/OpenZeppelin/openzeppelin-contracts/contracts/access/Ownable.sol\":2006:2028  newOwner != address(0) */\n      0xffffffffffffffffffffffffffffffffffffffff\n      and\n        /* \"https://github.com/OpenZeppelin/openzeppelin-contracts/contracts/access/Ownable.sol\":2006:2014  newOwner */\n      dup2\n        /* \"https://github.com/OpenZeppelin/openzeppelin-contracts/contracts/access/Ownable.sol\":2006:2028  newOwner != address(0) */\n      0xffffffffffffffffffffffffffffffffffffffff\n      and\n      sub\n        /* \"https://github.com/OpenZeppelin/openzeppelin-contracts/contracts/access/Ownable.sol\":1998:2071  require(newOwner != address(0), \"Ownable: new owner is the zero address\") */\n      tag_142\n      jumpi\n      mload(0x40)\n      0x08c379a000000000000000000000000000000000000000000000000000000000\n      dup2\n      mstore\n      0x04\n      add\n      tag_143\n      swap1\n      tag_144\n      jump\t// in\n    tag_143:\n      mload(0x40)\n      dup1\n      swap2\n      sub\n      swap1\n      revert\n    tag_142:\n        /* \"https://github.com/OpenZeppelin/openzeppelin-contracts/contracts/access/Ownable.sol\":2081:2109  _transferOwnership(newOwner) */\n      tag_145\n        /* \"https://github.com/OpenZeppelin/openzeppelin-contracts/contracts/access/Ownable.sol\":2100:2108  newOwner */\n      dup2\n        /* \"https://github.com/OpenZeppelin/openzeppelin-contracts/contracts/access/Ownable.sol\":2081:2099  _transferOwnership */\n      tag_146\n        /* \"https://github.com/OpenZeppelin/openzeppelin-contracts/contracts/access/Ownable.sol\":2081:2109  _transferOwnership(newOwner) */\n      jump\t// in\n    tag_145:\n        /* \"https://github.com/OpenZeppelin/openzeppelin-contracts/contracts/access/Ownable.sol\":1918:2116  function transferOwnership(address newOwner) public virtual onlyOwner {... */\n      pop\n      jump\t// out\n        /* \"Event trigger supply chain.sol\":4146:4605  function add_Invoice_To_BuyersPan(address _seller, Item _items, string memory _identifier, uint _itemPrice, InvoiceManager.InvoiceState _state, address _BuyerPan ,uint _InvoiceDate)internal {... */\n    tag_86:\n        /* \"Event trigger supply chain.sol\":4339:4366  Invoice_Data memory invoice */\n      tag_148\n      tag_149\n      jump\t// in\n    tag_148:\n        /* \"Event trigger supply chain.sol\":4379:4534  Invoice_Data({_SellerPan:_seller,_items:_items,_Identifier:_identifier,_itemPrice:_itemPrice,_state:_state,_BuyerPan:_BuyerPan ,_InvoiceDate:_InvoiceDate}) */\n      mload(0x40)\n      dup1\n      0xe0\n      add\n      0x40\n      mstore\n      dup1\n        /* \"Event trigger supply chain.sol\":4496:4505  _BuyerPan */\n      dup5\n        /* \"Event trigger supply chain.sol\":4379:4534  Invoice_Data({_SellerPan:_seller,_items:_items,_Identifier:_identifier,_itemPrice:_itemPrice,_state:_state,_BuyerPan:_BuyerPan ,_InvoiceDate:_InvoiceDate}) */\n      0xffffffffffffffffffffffffffffffffffffffff\n      and\n      dup2\n      mstore\n      0x20\n      add\n        /* \"Event trigger supply chain.sol\":4404:4411  _seller */\n      dup10\n        /* \"Event trigger supply chain.sol\":4379:4534  Invoice_Data({_SellerPan:_seller,_items:_items,_Identifier:_identifier,_itemPrice:_itemPrice,_state:_state,_BuyerPan:_BuyerPan ,_InvoiceDate:_InvoiceDate}) */\n      0xffffffffffffffffffffffffffffffffffffffff\n      and\n      dup2\n      mstore\n      0x20\n      add\n        /* \"Event trigger supply chain.sol\":4419:4425  _items */\n      dup9\n        /* \"Event trigger supply chain.sol\":4379:4534  Invoice_Data({_SellerPan:_seller,_items:_items,_Identifier:_identifier,_itemPrice:_itemPrice,_state:_state,_BuyerPan:_BuyerPan ,_InvoiceDate:_InvoiceDate}) */\n      0xffffffffffffffffffffffffffffffffffffffff\n      and\n      dup2\n      mstore\n      0x20\n      add\n        /* \"Event trigger supply chain.sol\":4438:4449  _identifier */\n      dup8\n        /* \"Event trigger supply chain.sol\":4379:4534  Invoice_Data({_SellerPan:_seller,_items:_items,_Identifier:_identifier,_itemPrice:_itemPrice,_state:_state,_BuyerPan:_BuyerPan ,_InvoiceDate:_InvoiceDate}) */\n      dup2\n      mstore\n      0x20\n      add\n        /* \"Event trigger supply chain.sol\":4461:4471  _itemPrice */\n      dup7\n        /* \"Event trigger supply chain.sol\":4379:4534  Invoice_Data({_SellerPan:_seller,_items:_items,_Identifier:_identifier,_itemPrice:_itemPrice,_state:_state,_BuyerPan:_BuyerPan ,_InvoiceDate:_InvoiceDate}) */\n      dup2\n      mstore\n      0x20\n      add\n        /* \"Event trigger supply chain.sol\":4479:4485  _state */\n      dup6\n        /* \"Event trigger supply chain.sol\":4379:4534  Invoice_Data({_SellerPan:_seller,_items:_items,_Identifier:_identifier,_itemPrice:_itemPrice,_state:_state,_BuyerPan:_BuyerPan ,_InvoiceDate:_InvoiceDate}) */\n      0x01\n      dup2\n      gt\n      iszero\n      tag_150\n      jumpi\n      tag_151\n      tag_61\n      jump\t// in\n    tag_151:\n    tag_150:\n      dup2\n      mstore\n      0x20\n      add\n        /* \"Event trigger supply chain.sol\":4520:4532  _InvoiceDate */\n      dup4\n        /* \"Event trigger supply chain.sol\":4379:4534  Invoice_Data({_SellerPan:_seller,_items:_items,_Identifier:_identifier,_itemPrice:_itemPrice,_state:_state,_BuyerPan:_BuyerPan ,_InvoiceDate:_InvoiceDate}) */\n      dup2\n      mstore\n      pop\n        /* \"Event trigger supply chain.sol\":4369:4534  invoice = Invoice_Data({_SellerPan:_seller,_items:_items,_Identifier:_identifier,_itemPrice:_itemPrice,_state:_state,_BuyerPan:_BuyerPan ,_InvoiceDate:_InvoiceDate}) */\n      swap1\n      pop\n        /* \"Event trigger supply chain.sol\":4537:4545  invoices */\n      0x03\n        /* \"Event trigger supply chain.sol\":4551:4558  invoice */\n      dup2\n        /* \"Event trigger supply chain.sol\":4537:4559  invoices.push(invoice) */\n      swap1\n      dup1\n      0x01\n      dup2\n      sload\n      add\n      dup1\n      dup3\n      sstore\n      dup1\n      swap2\n      pop\n      pop\n      0x01\n      swap1\n      sub\n      swap1\n      0x00\n      mstore\n      keccak256(0x00, 0x20)\n      swap1\n      0x07\n      mul\n      add\n      0x00\n      swap1\n      swap2\n      swap1\n      swap2\n      swap1\n      swap2\n      pop\n      0x00\n      dup3\n      add\n      mload\n      dup2\n      0x00\n      add\n      exp(0x0100, 0x00)\n      dup2\n      sload\n      dup2\n      0xffffffffffffffffffffffffffffffffffffffff\n      mul\n      not\n      and\n      swap1\n      dup4\n      0xffffffffffffffffffffffffffffffffffffffff\n      and\n      mul\n      or\n      swap1\n      sstore\n      pop\n      0x20\n      dup3\n      add\n      mload\n      dup2\n      0x01\n      add\n      exp(0x0100, 0x00)\n      dup2\n      sload\n      dup2\n      0xffffffffffffffffffffffffffffffffffffffff\n      mul\n      not\n      and\n      swap1\n      dup4\n      0xffffffffffffffffffffffffffffffffffffffff\n      and\n      mul\n      or\n      swap1\n      sstore\n      pop\n      0x40\n      dup3\n      add\n      mload\n      dup2\n      0x02\n      add\n      exp(0x0100, 0x00)\n      dup2\n      sload\n      dup2\n      0xffffffffffffffffffffffffffffffffffffffff\n      mul\n      not\n      and\n      swap1\n      dup4\n      0xffffffffffffffffffffffffffffffffffffffff\n      and\n      mul\n      or\n      swap1\n      sstore\n      pop\n      0x60\n      dup3\n      add\n      mload\n      dup2\n      0x03\n      add\n      swap1\n      dup2\n      tag_153\n      swap2\n      swap1\n      tag_108\n      jump\t// in\n    tag_153:\n      pop\n      0x80\n      dup3\n      add\n      mload\n      dup2\n      0x04\n      add\n      sstore\n      0xa0\n      dup3\n      add\n      mload\n      dup2\n      0x05\n      add\n      exp(0x0100, 0x00)\n      dup2\n      sload\n      dup2\n      0xff\n      mul\n      not\n      and\n      swap1\n      dup4\n      0x01\n      dup2\n      gt\n      iszero\n      tag_154\n      jumpi\n      tag_155\n      tag_61\n      jump\t// in\n    tag_155:\n    tag_154:\n      mul\n      or\n      swap1\n      sstore\n      pop\n      0xc0\n      dup3\n      add\n      mload\n      dup2\n      0x06\n      add\n      sstore\n      pop\n      pop\n        /* \"Event trigger supply chain.sol\":4562:4576  Buyers_History */\n      0x01\n        /* \"Event trigger supply chain.sol\":4562:4587  Buyers_History[_BuyerPan] */\n      0x00\n        /* \"Event trigger supply chain.sol\":4577:4586  _BuyerPan */\n      dup5\n        /* \"Event trigger supply chain.sol\":4562:4587  Buyers_History[_BuyerPan] */\n      0xffffffffffffffffffffffffffffffffffffffff\n      and\n      0xffffffffffffffffffffffffffffffffffffffff\n      and\n      dup2\n      mstore\n      0x20\n      add\n      swap1\n      dup2\n      mstore\n      0x20\n      add\n      0x00\n      keccak256\n        /* \"Event trigger supply chain.sol\":4593:4600  invoice */\n      dup2\n        /* \"Event trigger supply chain.sol\":4562:4601  Buyers_History[_BuyerPan].push(invoice) */\n      swap1\n      dup1\n      0x01\n      dup2\n      sload\n      add\n      dup1\n      dup3\n      sstore\n      dup1\n      swap2\n      pop\n      pop\n      0x01\n      swap1\n      sub\n      swap1\n      0x00\n      mstore\n      keccak256(0x00, 0x20)\n      swap1\n      0x07\n      mul\n      add\n      0x00\n      swap1\n      swap2\n      swap1\n      swap2\n      swap1\n      swap2\n      pop\n      0x00\n      dup3\n      add\n      mload\n      dup2\n      0x00\n      add\n      exp(0x0100, 0x00)\n      dup2\n      sload\n      dup2\n      0xffffffffffffffffffffffffffffffffffffffff\n      mul\n      not\n      and\n      swap1\n      dup4\n      0xffffffffffffffffffffffffffffffffffffffff\n      and\n      mul\n      or\n      swap1\n      sstore\n      pop\n      0x20\n      dup3\n      add\n      mload\n      dup2\n      0x01\n      add\n      exp(0x0100, 0x00)\n      dup2\n      sload\n      dup2\n      0xffffffffffffffffffffffffffffffffffffffff\n      mul\n      not\n      and\n      swap1\n      dup4\n      0xffffffffffffffffffffffffffffffffffffffff\n      and\n      mul\n      or\n      swap1\n      sstore\n      pop\n      0x40\n      dup3\n      add\n      mload\n      dup2\n      0x02\n      add\n      exp(0x0100, 0x00)\n      dup2\n      sload\n      dup2\n      0xffffffffffffffffffffffffffffffffffffffff\n      mul\n      not\n      and\n      swap1\n      dup4\n      0xffffffffffffffffffffffffffffffffffffffff\n      and\n      mul\n      or\n      swap1\n      sstore\n      pop\n      0x60\n      dup3\n      add\n      mload\n      dup2\n      0x03\n      add\n      swap1\n      dup2\n      tag_157\n      swap2\n      swap1\n      tag_108\n      jump\t// in\n    tag_157:\n      pop\n      0x80\n      dup3\n      add\n      mload\n      dup2\n      0x04\n      add\n      sstore\n      0xa0\n      dup3\n      add\n      mload\n      dup2\n      0x05\n      add\n      exp(0x0100, 0x00)\n      dup2\n      sload\n      dup2\n      0xff\n      mul\n      not\n      and\n      swap1\n      dup4\n      0x01\n      dup2\n      gt\n      iszero\n      tag_158\n      jumpi\n      tag_159\n      tag_61\n      jump\t// in\n    tag_159:\n    tag_158:\n      mul\n      or\n      swap1\n      sstore\n      pop\n      0xc0\n      dup3\n      add\n      mload\n      dup2\n      0x06\n      add\n      sstore\n      pop\n      pop\n        /* \"Event trigger supply chain.sol\":4336:4605  {... */\n      pop\n        /* \"Event trigger supply chain.sol\":4146:4605  function add_Invoice_To_BuyersPan(address _seller, Item _items, string memory _identifier, uint _itemPrice, InvoiceManager.InvoiceState _state, address _BuyerPan ,uint _InvoiceDate)internal {... */\n      pop\n      pop\n      pop\n      pop\n      pop\n      pop\n      pop\n      jump\t// out\n        /* \"https://github.com/OpenZeppelin/openzeppelin-contracts/contracts/utils/Context.sol\":640:736  function _msgSender() internal view virtual returns (address) {... */\n    tag_93:\n        /* \"https://github.com/OpenZeppelin/openzeppelin-contracts/contracts/utils/Context.sol\":693:700  address */\n      0x00\n        /* \"https://github.com/OpenZeppelin/openzeppelin-contracts/contracts/utils/Context.sol\":719:729  msg.sender */\n      caller\n        /* \"https://github.com/OpenZeppelin/openzeppelin-contracts/contracts/utils/Context.sol\":712:729  return msg.sender */\n      swap1\n      pop\n        /* \"https://github.com/OpenZeppelin/openzeppelin-contracts/contracts/utils/Context.sol\":640:736  function _msgSender() internal view virtual returns (address) {... */\n      swap1\n      jump\t// out\n        /* \"https://github.com/OpenZeppelin/openzeppelin-contracts/contracts/access/Ownable.sol\":2270:2457  function _transferOwnership(address newOwner) internal virtual {... */\n    tag_146:\n        /* \"https://github.com/OpenZeppelin/openzeppelin-contracts/contracts/access/Ownable.sol\":2343:2359  address oldOwner */\n      0x00\n        /* \"https://github.com/OpenZeppelin/openzeppelin-contracts/contracts/access/Ownable.sol\":2362:2368  _owner */\n      dup1\n      0x00\n      swap1\n      sload\n      swap1\n      0x0100\n      exp\n      swap1\n      div\n      0xffffffffffffffffffffffffffffffffffffffff\n      and\n        /* \"https://github.com/OpenZeppelin/openzeppelin-contracts/contracts/access/Ownable.sol\":2343:2368  address oldOwner = _owner */\n      swap1\n      pop\n        /* \"https://github.com/OpenZeppelin/openzeppelin-contracts/contracts/access/Ownable.sol\":2387:2395  newOwner */\n      dup2\n        /* \"https://github.com/OpenZeppelin/openzeppelin-contracts/contracts/access/Ownable.sol\":2378:2384  _owner */\n      0x00\n      dup1\n        /* \"https://github.com/OpenZeppelin/openzeppelin-contracts/contracts/access/Ownable.sol\":2378:2395  _owner = newOwner */\n      0x0100\n      exp\n      dup2\n      sload\n      dup2\n      0xffffffffffffffffffffffffffffffffffffffff\n      mul\n      not\n      and\n      swap1\n      dup4\n      0xffffffffffffffffffffffffffffffffffffffff\n      and\n      mul\n      or\n      swap1\n      sstore\n      pop\n        /* \"https://github.com/OpenZeppelin/openzeppelin-contracts/contracts/access/Ownable.sol\":2441:2449  newOwner */\n      dup2\n        /* \"https://github.com/OpenZeppelin/openzeppelin-contracts/contracts/access/Ownable.sol\":2410:2450  OwnershipTransferred(oldOwner, newOwner) */\n      0xffffffffffffffffffffffffffffffffffffffff\n      and\n        /* \"https://github.com/OpenZeppelin/openzeppelin-contracts/contracts/access/Ownable.sol\":2431:2439  oldOwner */\n      dup2\n        /* \"https://github.com/OpenZeppelin/openzeppelin-contracts/contracts/access/Ownable.sol\":2410:2450  OwnershipTransferred(oldOwner, newOwner) */\n      0xffffffffffffffffffffffffffffffffffffffff\n      and\n      0x8be0079c531659141344cd1fd0a4f28419497f9722a3daafe3b4186f6b6457e0\n      mload(0x40)\n      mload(0x40)\n      dup1\n      swap2\n      sub\n      swap1\n      log3\n        /* \"https://github.com/OpenZeppelin/openzeppelin-contracts/contracts/access/Ownable.sol\":2333:2457  {... */\n      pop\n        /* \"https://github.com/OpenZeppelin/openzeppelin-contracts/contracts/access/Ownable.sol\":2270:2457  function _transferOwnership(address newOwner) internal virtual {... */\n      pop\n      jump\t// out\n    tag_103:\n      dataSize(sub_0)\n      dup1\n      dataOffset(sub_0)\n      dup4\n      codecopy\n      add\n      swap1\n      jump\t// out\n    tag_149:\n      mload(0x40)\n      dup1\n      0xe0\n      add\n      0x40\n      mstore\n      dup1\n      and(0xffffffffffffffffffffffffffffffffffffffff, 0x00)\n      dup2\n      mstore\n      0x20\n      add\n      and(0xffffffffffffffffffffffffffffffffffffffff, 0x00)\n      dup2\n      mstore\n      0x20\n      add\n      and(0xffffffffffffffffffffffffffffffffffffffff, 0x00)\n      dup2\n      mstore\n      0x20\n      add\n      0x60\n      dup2\n      mstore\n      0x20\n      add\n      0x00\n      dup2\n      mstore\n      0x20\n      add\n      0x00\n      0x01\n      dup2\n      gt\n      iszero\n      tag_162\n      jumpi\n      tag_163\n      tag_61\n      jump\t// in\n    tag_163:\n    tag_162:\n      dup2\n      mstore\n      0x20\n      add\n      0x00\n      dup2\n      mstore\n      pop\n      swap1\n      jump\t// out\n        /* \"#utility.yul\":7:150   */\n    tag_164:\n        /* \"#utility.yul\":103:109   */\n      0x00\n        /* \"#utility.yul\":137:142   */\n      dup2\n        /* \"#utility.yul\":131:143   */\n      mload\n        /* \"#utility.yul\":121:143   */\n      swap1\n      pop\n        /* \"#utility.yul\":7:150   */\n      swap2\n      swap1\n      pop\n      jump\t// out\n        /* \"#utility.yul\":156:369   */\n    tag_165:\n        /* \"#utility.yul\":284:295   */\n      0x00\n        /* \"#utility.yul\":318:324   */\n      dup3\n        /* \"#utility.yul\":313:316   */\n      dup3\n        /* \"#utility.yul\":306:325   */\n      mstore\n        /* \"#utility.yul\":358:362   */\n      0x20\n        /* \"#utility.yul\":353:356   */\n      dup3\n        /* \"#utility.yul\":349:363   */\n      add\n        /* \"#utility.yul\":334:363   */\n      swap1\n      pop\n        /* \"#utility.yul\":156:369   */\n      swap3\n      swap2\n      pop\n      pop\n      jump\t// out\n        /* \"#utility.yul\":375:536   */\n    tag_166:\n        /* \"#utility.yul\":471:475   */\n      0x00\n        /* \"#utility.yul\":494:497   */\n      dup2\n        /* \"#utility.yul\":486:497   */\n      swap1\n      pop\n        /* \"#utility.yul\":524:528   */\n      0x20\n        /* \"#utility.yul\":519:522   */\n      dup3\n        /* \"#utility.yul\":515:529   */\n      add\n        /* \"#utility.yul\":507:529   */\n      swap1\n      pop\n        /* \"#utility.yul\":375:536   */\n      swap2\n      swap1\n      pop\n      jump\t// out\n        /* \"#utility.yul\":542:668   */\n    tag_167:\n        /* \"#utility.yul\":579:586   */\n      0x00\n        /* \"#utility.yul\":619:661   */\n      0xffffffffffffffffffffffffffffffffffffffff\n        /* \"#utility.yul\":612:617   */\n      dup3\n        /* \"#utility.yul\":608:662   */\n      and\n        /* \"#utility.yul\":597:662   */\n      swap1\n      pop\n        /* \"#utility.yul\":542:668   */\n      swap2\n      swap1\n      pop\n      jump\t// out\n        /* \"#utility.yul\":674:770   */\n    tag_168:\n        /* \"#utility.yul\":711:718   */\n      0x00\n        /* \"#utility.yul\":740:764   */\n      tag_252\n        /* \"#utility.yul\":758:763   */\n      dup3\n        /* \"#utility.yul\":740:764   */\n      tag_167\n      jump\t// in\n    tag_252:\n        /* \"#utility.yul\":729:764   */\n      swap1\n      pop\n        /* \"#utility.yul\":674:770   */\n      swap2\n      swap1\n      pop\n      jump\t// out\n        /* \"#utility.yul\":776:884   */\n    tag_169:\n        /* \"#utility.yul\":853:877   */\n      tag_254\n        /* \"#utility.yul\":871:876   */\n      dup2\n        /* \"#utility.yul\":853:877   */\n      tag_168\n      jump\t// in\n    tag_254:\n        /* \"#utility.yul\":848:851   */\n      dup3\n        /* \"#utility.yul\":841:878   */\n      mstore\n        /* \"#utility.yul\":776:884   */\n      pop\n      pop\n      jump\t// out\n        /* \"#utility.yul\":890:950   */\n    tag_170:\n        /* \"#utility.yul\":918:921   */\n      0x00\n        /* \"#utility.yul\":939:944   */\n      dup2\n        /* \"#utility.yul\":932:944   */\n      swap1\n      pop\n        /* \"#utility.yul\":890:950   */\n      swap2\n      swap1\n      pop\n      jump\t// out\n        /* \"#utility.yul\":956:1098   */\n    tag_171:\n        /* \"#utility.yul\":1006:1015   */\n      0x00\n        /* \"#utility.yul\":1039:1092   */\n      tag_257\n        /* \"#utility.yul\":1057:1091   */\n      tag_258\n        /* \"#utility.yul\":1066:1090   */\n      tag_259\n        /* \"#utility.yul\":1084:1089   */\n      dup5\n        /* \"#utility.yul\":1066:1090   */\n      tag_167\n      jump\t// in\n    tag_259:\n        /* \"#utility.yul\":1057:1091   */\n      tag_170\n      jump\t// in\n    tag_258:\n        /* \"#utility.yul\":1039:1092   */\n      tag_167\n      jump\t// in\n    tag_257:\n        /* \"#utility.yul\":1026:1092   */\n      swap1\n      pop\n        /* \"#utility.yul\":956:1098   */\n      swap2\n      swap1\n      pop\n      jump\t// out\n        /* \"#utility.yul\":1104:1238   */\n    tag_172:\n        /* \"#utility.yul\":1162:1171   */\n      0x00\n        /* \"#utility.yul\":1195:1232   */\n      tag_261\n        /* \"#utility.yul\":1226:1231   */\n      dup3\n        /* \"#utility.yul\":1195:1232   */\n      tag_171\n      jump\t// in\n    tag_261:\n        /* \"#utility.yul\":1182:1232   */\n      swap1\n      pop\n        /* \"#utility.yul\":1104:1238   */\n      swap2\n      swap1\n      pop\n      jump\t// out\n        /* \"#utility.yul\":1244:1397   */\n    tag_173:\n        /* \"#utility.yul\":1313:1322   */\n      0x00\n        /* \"#utility.yul\":1346:1391   */\n      tag_263\n        /* \"#utility.yul\":1385:1390   */\n      dup3\n        /* \"#utility.yul\":1346:1391   */\n      tag_172\n      jump\t// in\n    tag_263:\n        /* \"#utility.yul\":1333:1391   */\n      swap1\n      pop\n        /* \"#utility.yul\":1244:1397   */\n      swap2\n      swap1\n      pop\n      jump\t// out\n        /* \"#utility.yul\":1403:1562   */\n    tag_174:\n        /* \"#utility.yul\":1499:1555   */\n      tag_265\n        /* \"#utility.yul\":1549:1554   */\n      dup2\n        /* \"#utility.yul\":1499:1555   */\n      tag_173\n      jump\t// in\n    tag_265:\n        /* \"#utility.yul\":1494:1497   */\n      dup3\n        /* \"#utility.yul\":1487:1556   */\n      mstore\n        /* \"#utility.yul\":1403:1562   */\n      pop\n      pop\n      jump\t// out\n        /* \"#utility.yul\":1568:1667   */\n    tag_175:\n        /* \"#utility.yul\":1620:1626   */\n      0x00\n        /* \"#utility.yul\":1654:1659   */\n      dup2\n        /* \"#utility.yul\":1648:1660   */\n      mload\n        /* \"#utility.yul\":1638:1660   */\n      swap1\n      pop\n        /* \"#utility.yul\":1568:1667   */\n      swap2\n      swap1\n      pop\n      jump\t// out\n        /* \"#utility.yul\":1673:1832   */\n    tag_176:\n        /* \"#utility.yul\":1747:1758   */\n      0x00\n        /* \"#utility.yul\":1781:1787   */\n      dup3\n        /* \"#utility.yul\":1776:1779   */\n      dup3\n        /* \"#utility.yul\":1769:1788   */\n      mstore\n        /* \"#utility.yul\":1821:1825   */\n      0x20\n        /* \"#utility.yul\":1816:1819   */\n      dup3\n        /* \"#utility.yul\":1812:1826   */\n      add\n        /* \"#utility.yul\":1797:1826   */\n      swap1\n      pop\n        /* \"#utility.yul\":1673:1832   */\n      swap3\n      swap2\n      pop\n      pop\n      jump\t// out\n        /* \"#utility.yul\":1838:2084   */\n    tag_177:\n        /* \"#utility.yul\":1919:1920   */\n      0x00\n        /* \"#utility.yul\":1929:2042   */\n    tag_269:\n        /* \"#utility.yul\":1943:1949   */\n      dup4\n        /* \"#utility.yul\":1940:1941   */\n      dup2\n        /* \"#utility.yul\":1937:1950   */\n      lt\n        /* \"#utility.yul\":1929:2042   */\n      iszero\n      tag_271\n      jumpi\n        /* \"#utility.yul\":2028:2029   */\n      dup1\n        /* \"#utility.yul\":2023:2026   */\n      dup3\n        /* \"#utility.yul\":2019:2030   */\n      add\n        /* \"#utility.yul\":2013:2031   */\n      mload\n        /* \"#utility.yul\":2009:2010   */\n      dup2\n        /* \"#utility.yul\":2004:2007   */\n      dup5\n        /* \"#utility.yul\":2000:2011   */\n      add\n        /* \"#utility.yul\":1993:2032   */\n      mstore\n        /* \"#utility.yul\":1965:1967   */\n      0x20\n        /* \"#utility.yul\":1962:1963   */\n      dup2\n        /* \"#utility.yul\":1958:1968   */\n      add\n        /* \"#utility.yul\":1953:1968   */\n      swap1\n      pop\n        /* \"#utility.yul\":1929:2042   */\n      jump(tag_269)\n    tag_271:\n        /* \"#utility.yul\":2076:2077   */\n      0x00\n        /* \"#utility.yul\":2067:2073   */\n      dup5\n        /* \"#utility.yul\":2062:2065   */\n      dup5\n        /* \"#utility.yul\":2058:2074   */\n      add\n        /* \"#utility.yul\":2051:2078   */\n      mstore\n        /* \"#utility.yul\":1900:2084   */\n      pop\n        /* \"#utility.yul\":1838:2084   */\n      pop\n      pop\n      pop\n      jump\t// out\n        /* \"#utility.yul\":2090:2192   */\n    tag_178:\n        /* \"#utility.yul\":2131:2137   */\n      0x00\n        /* \"#utility.yul\":2182:2184   */\n      0x1f\n        /* \"#utility.yul\":2178:2185   */\n      not\n        /* \"#utility.yul\":2173:2175   */\n      0x1f\n        /* \"#utility.yul\":2166:2171   */\n      dup4\n        /* \"#utility.yul\":2162:2176   */\n      add\n        /* \"#utility.yul\":2158:2186   */\n      and\n        /* \"#utility.yul\":2148:2186   */\n      swap1\n      pop\n        /* \"#utility.yul\":2090:2192   */\n      swap2\n      swap1\n      pop\n      jump\t// out\n        /* \"#utility.yul\":2198:2555   */\n    tag_179:\n        /* \"#utility.yul\":2276:2279   */\n      0x00\n        /* \"#utility.yul\":2304:2343   */\n      tag_274\n        /* \"#utility.yul\":2337:2342   */\n      dup3\n        /* \"#utility.yul\":2304:2343   */\n      tag_175\n      jump\t// in\n    tag_274:\n        /* \"#utility.yul\":2359:2420   */\n      tag_275\n        /* \"#utility.yul\":2413:2419   */\n      dup2\n        /* \"#utility.yul\":2408:2411   */\n      dup6\n        /* \"#utility.yul\":2359:2420   */\n      tag_176\n      jump\t// in\n    tag_275:\n        /* \"#utility.yul\":2352:2420   */\n      swap4\n      pop\n        /* \"#utility.yul\":2429:2494   */\n      tag_276\n        /* \"#utility.yul\":2487:2493   */\n      dup2\n        /* \"#utility.yul\":2482:2485   */\n      dup6\n        /* \"#utility.yul\":2475:2479   */\n      0x20\n        /* \"#utility.yul\":2468:2473   */\n      dup7\n        /* \"#utility.yul\":2464:2480   */\n      add\n        /* \"#utility.yul\":2429:2494   */\n      tag_177\n      jump\t// in\n    tag_276:\n        /* \"#utility.yul\":2519:2548   */\n      tag_277\n        /* \"#utility.yul\":2541:2547   */\n      dup2\n        /* \"#utility.yul\":2519:2548   */\n      tag_178\n      jump\t// in\n    tag_277:\n        /* \"#utility.yul\":2514:2517   */\n      dup5\n        /* \"#utility.yul\":2510:2549   */\n      add\n        /* \"#utility.yul\":2503:2549   */\n      swap2\n      pop\n        /* \"#utility.yul\":2280:2555   */\n      pop\n        /* \"#utility.yul\":2198:2555   */\n      swap3\n      swap2\n      pop\n      pop\n      jump\t// out\n        /* \"#utility.yul\":2561:2638   */\n    tag_180:\n        /* \"#utility.yul\":2598:2605   */\n      0x00\n        /* \"#utility.yul\":2627:2632   */\n      dup2\n        /* \"#utility.yul\":2616:2632   */\n      swap1\n      pop\n        /* \"#utility.yul\":2561:2638   */\n      swap2\n      swap1\n      pop\n      jump\t// out\n        /* \"#utility.yul\":2644:2752   */\n    tag_181:\n        /* \"#utility.yul\":2721:2745   */\n      tag_280\n        /* \"#utility.yul\":2739:2744   */\n      dup2\n        /* \"#utility.yul\":2721:2745   */\n      tag_180\n      jump\t// in\n    tag_280:\n        /* \"#utility.yul\":2716:2719   */\n      dup3\n        /* \"#utility.yul\":2709:2746   */\n      mstore\n        /* \"#utility.yul\":2644:2752   */\n      pop\n      pop\n      jump\t// out\n        /* \"#utility.yul\":2758:2938   */\n    tag_61:\n        /* \"#utility.yul\":2806:2883   */\n      0x4e487b7100000000000000000000000000000000000000000000000000000000\n        /* \"#utility.yul\":2803:2804   */\n      0x00\n        /* \"#utility.yul\":2796:2884   */\n      mstore\n        /* \"#utility.yul\":2903:2907   */\n      0x21\n        /* \"#utility.yul\":2900:2901   */\n      0x04\n        /* \"#utility.yul\":2893:2908   */\n      mstore\n        /* \"#utility.yul\":2927:2931   */\n      0x24\n        /* \"#utility.yul\":2924:2925   */\n      0x00\n        /* \"#utility.yul\":2917:2932   */\n      revert\n        /* \"#utility.yul\":2944:3064   */\n    tag_182:\n        /* \"#utility.yul\":3032:3033   */\n      0x02\n        /* \"#utility.yul\":3025:3030   */\n      dup2\n        /* \"#utility.yul\":3022:3034   */\n      lt\n        /* \"#utility.yul\":3012:3058   */\n      tag_283\n      jumpi\n        /* \"#utility.yul\":3038:3056   */\n      tag_284\n      tag_61\n      jump\t// in\n    tag_284:\n        /* \"#utility.yul\":3012:3058   */\n    tag_283:\n        /* \"#utility.yul\":2944:3064   */\n      pop\n      jump\t// out\n        /* \"#utility.yul\":3070:3211   */\n    tag_183:\n        /* \"#utility.yul\":3122:3129   */\n      0x00\n        /* \"#utility.yul\":3151:3156   */\n      dup2\n        /* \"#utility.yul\":3140:3156   */\n      swap1\n      pop\n        /* \"#utility.yul\":3157:3205   */\n      tag_286\n        /* \"#utility.yul\":3199:3204   */\n      dup3\n        /* \"#utility.yul\":3157:3205   */\n      tag_182\n      jump\t// in\n    tag_286:\n        /* \"#utility.yul\":3070:3211   */\n      swap2\n      swap1\n      pop\n      jump\t// out\n        /* \"#utility.yul\":3217:3358   */\n    tag_184:\n        /* \"#utility.yul\":3280:3289   */\n      0x00\n        /* \"#utility.yul\":3313:3352   */\n      tag_288\n        /* \"#utility.yul\":3346:3351   */\n      dup3\n        /* \"#utility.yul\":3313:3352   */\n      tag_183\n      jump\t// in\n    tag_288:\n        /* \"#utility.yul\":3300:3352   */\n      swap1\n      pop\n        /* \"#utility.yul\":3217:3358   */\n      swap2\n      swap1\n      pop\n      jump\t// out\n        /* \"#utility.yul\":3364:3511   */\n    tag_185:\n        /* \"#utility.yul\":3454:3504   */\n      tag_290\n        /* \"#utility.yul\":3498:3503   */\n      dup2\n        /* \"#utility.yul\":3454:3504   */\n      tag_184\n      jump\t// in\n    tag_290:\n        /* \"#utility.yul\":3449:3452   */\n      dup3\n        /* \"#utility.yul\":3442:3505   */\n      mstore\n        /* \"#utility.yul\":3364:3511   */\n      pop\n      pop\n      jump\t// out\n        /* \"#utility.yul\":3597:5139   */\n    tag_186:\n        /* \"#utility.yul\":3714:3717   */\n      0x00\n        /* \"#utility.yul\":3750:3754   */\n      0xe0\n        /* \"#utility.yul\":3745:3748   */\n      dup4\n        /* \"#utility.yul\":3741:3755   */\n      add\n        /* \"#utility.yul\":3842:3846   */\n      0x00\n        /* \"#utility.yul\":3835:3840   */\n      dup4\n        /* \"#utility.yul\":3831:3847   */\n      add\n        /* \"#utility.yul\":3825:3848   */\n      mload\n        /* \"#utility.yul\":3861:3924   */\n      tag_292\n        /* \"#utility.yul\":3918:3922   */\n      0x00\n        /* \"#utility.yul\":3913:3916   */\n      dup7\n        /* \"#utility.yul\":3909:3923   */\n      add\n        /* \"#utility.yul\":3895:3907   */\n      dup3\n        /* \"#utility.yul\":3861:3924   */\n      tag_169\n      jump\t// in\n    tag_292:\n        /* \"#utility.yul\":3765:3934   */\n      pop\n        /* \"#utility.yul\":4022:4026   */\n      0x20\n        /* \"#utility.yul\":4015:4020   */\n      dup4\n        /* \"#utility.yul\":4011:4027   */\n      add\n        /* \"#utility.yul\":4005:4028   */\n      mload\n        /* \"#utility.yul\":4041:4104   */\n      tag_293\n        /* \"#utility.yul\":4098:4102   */\n      0x20\n        /* \"#utility.yul\":4093:4096   */\n      dup7\n        /* \"#utility.yul\":4089:4103   */\n      add\n        /* \"#utility.yul\":4075:4087   */\n      dup3\n        /* \"#utility.yul\":4041:4104   */\n      tag_169\n      jump\t// in\n    tag_293:\n        /* \"#utility.yul\":3944:4114   */\n      pop\n        /* \"#utility.yul\":4198:4202   */\n      0x40\n        /* \"#utility.yul\":4191:4196   */\n      dup4\n        /* \"#utility.yul\":4187:4203   */\n      add\n        /* \"#utility.yul\":4181:4204   */\n      mload\n        /* \"#utility.yul\":4217:4299   */\n      tag_294\n        /* \"#utility.yul\":4293:4297   */\n      0x40\n        /* \"#utility.yul\":4288:4291   */\n      dup7\n        /* \"#utility.yul\":4284:4298   */\n      add\n        /* \"#utility.yul\":4270:4282   */\n      dup3\n        /* \"#utility.yul\":4217:4299   */\n      tag_174\n      jump\t// in\n    tag_294:\n        /* \"#utility.yul\":4124:4309   */\n      pop\n        /* \"#utility.yul\":4398:4402   */\n      0x60\n        /* \"#utility.yul\":4391:4396   */\n      dup4\n        /* \"#utility.yul\":4387:4403   */\n      add\n        /* \"#utility.yul\":4381:4404   */\n      mload\n        /* \"#utility.yul\":4451:4454   */\n      dup5\n        /* \"#utility.yul\":4445:4449   */\n      dup3\n        /* \"#utility.yul\":4441:4455   */\n      sub\n        /* \"#utility.yul\":4434:4438   */\n      0x60\n        /* \"#utility.yul\":4429:4432   */\n      dup7\n        /* \"#utility.yul\":4425:4439   */\n      add\n        /* \"#utility.yul\":4418:4456   */\n      mstore\n        /* \"#utility.yul\":4477:4550   */\n      tag_295\n        /* \"#utility.yul\":4545:4549   */\n      dup3\n        /* \"#utility.yul\":4531:4543   */\n      dup3\n        /* \"#utility.yul\":4477:4550   */\n      tag_179\n      jump\t// in\n    tag_295:\n        /* \"#utility.yul\":4469:4550   */\n      swap2\n      pop\n        /* \"#utility.yul\":4319:4561   */\n      pop\n        /* \"#utility.yul\":4649:4653   */\n      0x80\n        /* \"#utility.yul\":4642:4647   */\n      dup4\n        /* \"#utility.yul\":4638:4654   */\n      add\n        /* \"#utility.yul\":4632:4655   */\n      mload\n        /* \"#utility.yul\":4668:4731   */\n      tag_296\n        /* \"#utility.yul\":4725:4729   */\n      0x80\n        /* \"#utility.yul\":4720:4723   */\n      dup7\n        /* \"#utility.yul\":4716:4730   */\n      add\n        /* \"#utility.yul\":4702:4714   */\n      dup3\n        /* \"#utility.yul\":4668:4731   */\n      tag_181\n      jump\t// in\n    tag_296:\n        /* \"#utility.yul\":4571:4741   */\n      pop\n        /* \"#utility.yul\":4825:4829   */\n      0xa0\n        /* \"#utility.yul\":4818:4823   */\n      dup4\n        /* \"#utility.yul\":4814:4830   */\n      add\n        /* \"#utility.yul\":4808:4831   */\n      mload\n        /* \"#utility.yul\":4844:4920   */\n      tag_297\n        /* \"#utility.yul\":4914:4918   */\n      0xa0\n        /* \"#utility.yul\":4909:4912   */\n      dup7\n        /* \"#utility.yul\":4905:4919   */\n      add\n        /* \"#utility.yul\":4891:4903   */\n      dup3\n        /* \"#utility.yul\":4844:4920   */\n      tag_185\n      jump\t// in\n    tag_297:\n        /* \"#utility.yul\":4751:4930   */\n      pop\n        /* \"#utility.yul\":5020:5024   */\n      0xc0\n        /* \"#utility.yul\":5013:5018   */\n      dup4\n        /* \"#utility.yul\":5009:5025   */\n      add\n        /* \"#utility.yul\":5003:5026   */\n      mload\n        /* \"#utility.yul\":5039:5102   */\n      tag_298\n        /* \"#utility.yul\":5096:5100   */\n      0xc0\n        /* \"#utility.yul\":5091:5094   */\n      dup7\n        /* \"#utility.yul\":5087:5101   */\n      add\n        /* \"#utility.yul\":5073:5085   */\n      dup3\n        /* \"#utility.yul\":5039:5102   */\n      tag_181\n      jump\t// in\n    tag_298:\n        /* \"#utility.yul\":4940:5112   */\n      pop\n        /* \"#utility.yul\":5129:5133   */\n      dup1\n        /* \"#utility.yul\":5122:5133   */\n      swap2\n      pop\n        /* \"#utility.yul\":3719:5139   */\n      pop\n        /* \"#utility.yul\":3597:5139   */\n      swap3\n      swap2\n      pop\n      pop\n      jump\t// out\n        /* \"#utility.yul\":5145:5417   */\n    tag_187:\n        /* \"#utility.yul\":5272:5282   */\n      0x00\n        /* \"#utility.yul\":5307:5411   */\n      tag_300\n        /* \"#utility.yul\":5407:5410   */\n      dup4\n        /* \"#utility.yul\":5399:5405   */\n      dup4\n        /* \"#utility.yul\":5307:5411   */\n      tag_186\n      jump\t// in\n    tag_300:\n        /* \"#utility.yul\":5293:5411   */\n      swap1\n      pop\n        /* \"#utility.yul\":5145:5417   */\n      swap3\n      swap2\n      pop\n      pop\n      jump\t// out\n        /* \"#utility.yul\":5423:5565   */\n    tag_188:\n        /* \"#utility.yul\":5522:5526   */\n      0x00\n        /* \"#utility.yul\":5554:5558   */\n      0x20\n        /* \"#utility.yul\":5549:5552   */\n      dup3\n        /* \"#utility.yul\":5545:5559   */\n      add\n        /* \"#utility.yul\":5537:5559   */\n      swap1\n      pop\n        /* \"#utility.yul\":5423:5565   */\n      swap2\n      swap1\n      pop\n      jump\t// out\n        /* \"#utility.yul\":5655:6798   */\n    tag_189:\n        /* \"#utility.yul\":5832:5835   */\n      0x00\n        /* \"#utility.yul\":5861:5944   */\n      tag_303\n        /* \"#utility.yul\":5938:5943   */\n      dup3\n        /* \"#utility.yul\":5861:5944   */\n      tag_164\n      jump\t// in\n    tag_303:\n        /* \"#utility.yul\":5960:6075   */\n      tag_304\n        /* \"#utility.yul\":6068:6074   */\n      dup2\n        /* \"#utility.yul\":6063:6066   */\n      dup6\n        /* \"#utility.yul\":5960:6075   */\n      tag_165\n      jump\t// in\n    tag_304:\n        /* \"#utility.yul\":5953:6075   */\n      swap4\n      pop\n        /* \"#utility.yul\":6101:6104   */\n      dup4\n        /* \"#utility.yul\":6146:6150   */\n      0x20\n        /* \"#utility.yul\":6138:6144   */\n      dup3\n        /* \"#utility.yul\":6134:6151   */\n      mul\n        /* \"#utility.yul\":6129:6132   */\n      dup6\n        /* \"#utility.yul\":6125:6152   */\n      add\n        /* \"#utility.yul\":6176:6261   */\n      tag_305\n        /* \"#utility.yul\":6255:6260   */\n      dup6\n        /* \"#utility.yul\":6176:6261   */\n      tag_166\n      jump\t// in\n    tag_305:\n        /* \"#utility.yul\":6284:6291   */\n      dup1\n        /* \"#utility.yul\":6315:6316   */\n      0x00\n        /* \"#utility.yul\":6300:6753   */\n    tag_306:\n        /* \"#utility.yul\":6325:6331   */\n      dup6\n        /* \"#utility.yul\":6322:6323   */\n      dup2\n        /* \"#utility.yul\":6319:6332   */\n      lt\n        /* \"#utility.yul\":6300:6753   */\n      iszero\n      tag_308\n      jumpi\n        /* \"#utility.yul\":6396:6405   */\n      dup5\n        /* \"#utility.yul\":6390:6394   */\n      dup5\n        /* \"#utility.yul\":6386:6406   */\n      sub\n        /* \"#utility.yul\":6381:6384   */\n      dup10\n        /* \"#utility.yul\":6374:6407   */\n      mstore\n        /* \"#utility.yul\":6447:6453   */\n      dup2\n        /* \"#utility.yul\":6441:6454   */\n      mload\n        /* \"#utility.yul\":6475:6597   */\n      tag_309\n        /* \"#utility.yul\":6592:6596   */\n      dup6\n        /* \"#utility.yul\":6577:6590   */\n      dup3\n        /* \"#utility.yul\":6475:6597   */\n      tag_187\n      jump\t// in\n    tag_309:\n        /* \"#utility.yul\":6467:6597   */\n      swap5\n      pop\n        /* \"#utility.yul\":6620:6709   */\n      tag_310\n        /* \"#utility.yul\":6702:6708   */\n      dup4\n        /* \"#utility.yul\":6620:6709   */\n      tag_188\n      jump\t// in\n    tag_310:\n        /* \"#utility.yul\":6610:6709   */\n      swap3\n      pop\n        /* \"#utility.yul\":6738:6742   */\n      0x20\n        /* \"#utility.yul\":6733:6736   */\n      dup11\n        /* \"#utility.yul\":6729:6743   */\n      add\n        /* \"#utility.yul\":6722:6743   */\n      swap10\n      pop\n        /* \"#utility.yul\":6360:6753   */\n      pop\n        /* \"#utility.yul\":6347:6348   */\n      0x01\n        /* \"#utility.yul\":6344:6345   */\n      dup2\n        /* \"#utility.yul\":6340:6349   */\n      add\n        /* \"#utility.yul\":6335:6349   */\n      swap1\n      pop\n        /* \"#utility.yul\":6300:6753   */\n      jump(tag_306)\n    tag_308:\n        /* \"#utility.yul\":6304:6318   */\n      pop\n        /* \"#utility.yul\":6769:6773   */\n      dup3\n        /* \"#utility.yul\":6762:6773   */\n      swap8\n      pop\n        /* \"#utility.yul\":6789:6792   */\n      dup8\n        /* \"#utility.yul\":6782:6792   */\n      swap6\n      pop\n        /* \"#utility.yul\":5837:6798   */\n      pop\n      pop\n      pop\n      pop\n      pop\n        /* \"#utility.yul\":5655:6798   */\n      swap3\n      swap2\n      pop\n      pop\n      jump\t// out\n        /* \"#utility.yul\":6804:7293   */\n    tag_15:\n        /* \"#utility.yul\":7005:7009   */\n      0x00\n        /* \"#utility.yul\":7043:7045   */\n      0x20\n        /* \"#utility.yul\":7032:7041   */\n      dup3\n        /* \"#utility.yul\":7028:7046   */\n      add\n        /* \"#utility.yul\":7020:7046   */\n      swap1\n      pop\n        /* \"#utility.yul\":7092:7101   */\n      dup2\n        /* \"#utility.yul\":7086:7090   */\n      dup2\n        /* \"#utility.yul\":7082:7102   */\n      sub\n        /* \"#utility.yul\":7078:7079   */\n      0x00\n        /* \"#utility.yul\":7067:7076   */\n      dup4\n        /* \"#utility.yul\":7063:7080   */\n      add\n        /* \"#utility.yul\":7056:7103   */\n      mstore\n        /* \"#utility.yul\":7120:7286   */\n      tag_312\n        /* \"#utility.yul\":7281:7285   */\n      dup2\n        /* \"#utility.yul\":7272:7278   */\n      dup5\n        /* \"#utility.yul\":7120:7286   */\n      tag_189\n      jump\t// in\n    tag_312:\n        /* \"#utility.yul\":7112:7286   */\n      swap1\n      pop\n        /* \"#utility.yul\":6804:7293   */\n      swap3\n      swap2\n      pop\n      pop\n      jump\t// out\n        /* \"#utility.yul\":7299:7374   */\n    tag_190:\n        /* \"#utility.yul\":7332:7338   */\n      0x00\n        /* \"#utility.yul\":7365:7367   */\n      0x40\n        /* \"#utility.yul\":7359:7368   */\n      mload\n        /* \"#utility.yul\":7349:7368   */\n      swap1\n      pop\n        /* \"#utility.yul\":7299:7374   */\n      swap1\n      jump\t// out\n        /* \"#utility.yul\":7380:7497   */\n    tag_191:\n        /* \"#utility.yul\":7489:7490   */\n      0x00\n        /* \"#utility.yul\":7486:7487   */\n      dup1\n        /* \"#utility.yul\":7479:7491   */\n      revert\n        /* \"#utility.yul\":7503:7620   */\n    tag_192:\n        /* \"#utility.yul\":7612:7613   */\n      0x00\n        /* \"#utility.yul\":7609:7610   */\n      dup1\n        /* \"#utility.yul\":7602:7614   */\n      revert\n        /* \"#utility.yul\":7626:7748   */\n    tag_193:\n        /* \"#utility.yul\":7699:7723   */\n      tag_317\n        /* \"#utility.yul\":7717:7722   */\n      dup2\n        /* \"#utility.yul\":7699:7723   */\n      tag_180\n      jump\t// in\n    tag_317:\n        /* \"#utility.yul\":7692:7697   */\n      dup2\n        /* \"#utility.yul\":7689:7724   */\n      eq\n        /* \"#utility.yul\":7679:7742   */\n      tag_318\n      jumpi\n        /* \"#utility.yul\":7738:7739   */\n      0x00\n        /* \"#utility.yul\":7735:7736   */\n      dup1\n        /* \"#utility.yul\":7728:7740   */\n      revert\n        /* \"#utility.yul\":7679:7742   */\n    tag_318:\n        /* \"#utility.yul\":7626:7748   */\n      pop\n      jump\t// out\n        /* \"#utility.yul\":7754:7893   */\n    tag_194:\n        /* \"#utility.yul\":7800:7805   */\n      0x00\n        /* \"#utility.yul\":7838:7844   */\n      dup2\n        /* \"#utility.yul\":7825:7845   */\n      calldataload\n        /* \"#utility.yul\":7816:7845   */\n      swap1\n      pop\n        /* \"#utility.yul\":7854:7887   */\n      tag_320\n        /* \"#utility.yul\":7881:7886   */\n      dup2\n        /* \"#utility.yul\":7854:7887   */\n      tag_193\n      jump\t// in\n    tag_320:\n        /* \"#utility.yul\":7754:7893   */\n      swap3\n      swap2\n      pop\n      pop\n      jump\t// out\n        /* \"#utility.yul\":7899:8228   */\n    tag_18:\n        /* \"#utility.yul\":7958:7964   */\n      0x00\n        /* \"#utility.yul\":8007:8009   */\n      0x20\n        /* \"#utility.yul\":7995:8004   */\n      dup3\n        /* \"#utility.yul\":7986:7993   */\n      dup5\n        /* \"#utility.yul\":7982:8005   */\n      sub\n        /* \"#utility.yul\":7978:8010   */\n      slt\n        /* \"#utility.yul\":7975:8094   */\n      iszero\n      tag_322\n      jumpi\n        /* \"#utility.yul\":8013:8092   */\n      tag_323\n      tag_191\n      jump\t// in\n    tag_323:\n        /* \"#utility.yul\":7975:8094   */\n    tag_322:\n        /* \"#utility.yul\":8133:8134   */\n      0x00\n        /* \"#utility.yul\":8158:8211   */\n      tag_324\n        /* \"#utility.yul\":8203:8210   */\n      dup5\n        /* \"#utility.yul\":8194:8200   */\n      dup3\n        /* \"#utility.yul\":8183:8192   */\n      dup6\n        /* \"#utility.yul\":8179:8201   */\n      add\n        /* \"#utility.yul\":8158:8211   */\n      tag_194\n      jump\t// in\n    tag_324:\n        /* \"#utility.yul\":8148:8211   */\n      swap2\n      pop\n        /* \"#utility.yul\":8104:8221   */\n      pop\n        /* \"#utility.yul\":7899:8228   */\n      swap3\n      swap2\n      pop\n      pop\n      jump\t// out\n        /* \"#utility.yul\":8234:8351   */\n    tag_195:\n        /* \"#utility.yul\":8343:8344   */\n      0x00\n        /* \"#utility.yul\":8340:8341   */\n      dup1\n        /* \"#utility.yul\":8333:8345   */\n      revert\n        /* \"#utility.yul\":8357:8474   */\n    tag_196:\n        /* \"#utility.yul\":8466:8467   */\n      0x00\n        /* \"#utility.yul\":8463:8464   */\n      dup1\n        /* \"#utility.yul\":8456:8468   */\n      revert\n        /* \"#utility.yul\":8480:8660   */\n    tag_197:\n        /* \"#utility.yul\":8528:8605   */\n      0x4e487b7100000000000000000000000000000000000000000000000000000000\n        /* \"#utility.yul\":8525:8526   */\n      0x00\n        /* \"#utility.yul\":8518:8606   */\n      mstore\n        /* \"#utility.yul\":8625:8629   */\n      0x41\n        /* \"#utility.yul\":8622:8623   */\n      0x04\n        /* \"#utility.yul\":8615:8630   */\n      mstore\n        /* \"#utility.yul\":8649:8653   */\n      0x24\n        /* \"#utility.yul\":8646:8647   */\n      0x00\n        /* \"#utility.yul\":8639:8654   */\n      revert\n        /* \"#utility.yul\":8666:8947   */\n    tag_198:\n        /* \"#utility.yul\":8749:8776   */\n      tag_329\n        /* \"#utility.yul\":8771:8775   */\n      dup3\n        /* \"#utility.yul\":8749:8776   */\n      tag_178\n      jump\t// in\n    tag_329:\n        /* \"#utility.yul\":8741:8747   */\n      dup2\n        /* \"#utility.yul\":8737:8777   */\n      add\n        /* \"#utility.yul\":8879:8885   */\n      dup2\n        /* \"#utility.yul\":8867:8877   */\n      dup2\n        /* \"#utility.yul\":8864:8886   */\n      lt\n        /* \"#utility.yul\":8843:8861   */\n      0xffffffffffffffff\n        /* \"#utility.yul\":8831:8841   */\n      dup3\n        /* \"#utility.yul\":8828:8862   */\n      gt\n        /* \"#utility.yul\":8825:8887   */\n      or\n        /* \"#utility.yul\":8822:8910   */\n      iszero\n      tag_330\n      jumpi\n        /* \"#utility.yul\":8890:8908   */\n      tag_331\n      tag_197\n      jump\t// in\n    tag_331:\n        /* \"#utility.yul\":8822:8910   */\n    tag_330:\n        /* \"#utility.yul\":8930:8940   */\n      dup1\n        /* \"#utility.yul\":8926:8928   */\n      0x40\n        /* \"#utility.yul\":8919:8941   */\n      mstore\n        /* \"#utility.yul\":8709:8947   */\n      pop\n        /* \"#utility.yul\":8666:8947   */\n      pop\n      pop\n      jump\t// out\n        /* \"#utility.yul\":8953:9082   */\n    tag_199:\n        /* \"#utility.yul\":8987:8993   */\n      0x00\n        /* \"#utility.yul\":9014:9034   */\n      tag_333\n      tag_190\n      jump\t// in\n    tag_333:\n        /* \"#utility.yul\":9004:9034   */\n      swap1\n      pop\n        /* \"#utility.yul\":9043:9076   */\n      tag_334\n        /* \"#utility.yul\":9071:9075   */\n      dup3\n        /* \"#utility.yul\":9063:9069   */\n      dup3\n        /* \"#utility.yul\":9043:9076   */\n      tag_198\n      jump\t// in\n    tag_334:\n        /* \"#utility.yul\":8953:9082   */\n      swap2\n      swap1\n      pop\n      jump\t// out\n        /* \"#utility.yul\":9088:9396   */\n    tag_200:\n        /* \"#utility.yul\":9150:9154   */\n      0x00\n        /* \"#utility.yul\":9240:9258   */\n      0xffffffffffffffff\n        /* \"#utility.yul\":9232:9238   */\n      dup3\n        /* \"#utility.yul\":9229:9259   */\n      gt\n        /* \"#utility.yul\":9226:9282   */\n      iszero\n      tag_336\n      jumpi\n        /* \"#utility.yul\":9262:9280   */\n      tag_337\n      tag_197\n      jump\t// in\n    tag_337:\n        /* \"#utility.yul\":9226:9282   */\n    tag_336:\n        /* \"#utility.yul\":9300:9329   */\n      tag_338\n        /* \"#utility.yul\":9322:9328   */\n      dup3\n        /* \"#utility.yul\":9300:9329   */\n      tag_178\n      jump\t// in\n    tag_338:\n        /* \"#utility.yul\":9292:9329   */\n      swap1\n      pop\n        /* \"#utility.yul\":9384:9388   */\n      0x20\n        /* \"#utility.yul\":9378:9382   */\n      dup2\n        /* \"#utility.yul\":9374:9389   */\n      add\n        /* \"#utility.yul\":9366:9389   */\n      swap1\n      pop\n        /* \"#utility.yul\":9088:9396   */\n      swap2\n      swap1\n      pop\n      jump\t// out\n        /* \"#utility.yul\":9402:9548   */\n    tag_201:\n        /* \"#utility.yul\":9499:9505   */\n      dup3\n        /* \"#utility.yul\":9494:9497   */\n      dup2\n        /* \"#utility.yul\":9489:9492   */\n      dup4\n        /* \"#utility.yul\":9476:9506   */\n      calldatacopy\n        /* \"#utility.yul\":9540:9541   */\n      0x00\n        /* \"#utility.yul\":9531:9537   */\n      dup4\n        /* \"#utility.yul\":9526:9529   */\n      dup4\n        /* \"#utility.yul\":9522:9538   */\n      add\n        /* \"#utility.yul\":9515:9542   */\n      mstore\n        /* \"#utility.yul\":9402:9548   */\n      pop\n      pop\n      pop\n      jump\t// out\n        /* \"#utility.yul\":9554:9979   */\n    tag_202:\n        /* \"#utility.yul\":9632:9637   */\n      0x00\n        /* \"#utility.yul\":9657:9723   */\n      tag_341\n        /* \"#utility.yul\":9673:9722   */\n      tag_342\n        /* \"#utility.yul\":9715:9721   */\n      dup5\n        /* \"#utility.yul\":9673:9722   */\n      tag_200\n      jump\t// in\n    tag_342:\n        /* \"#utility.yul\":9657:9723   */\n      tag_199\n      jump\t// in\n    tag_341:\n        /* \"#utility.yul\":9648:9723   */\n      swap1\n      pop\n        /* \"#utility.yul\":9746:9752   */\n      dup3\n        /* \"#utility.yul\":9739:9744   */\n      dup2\n        /* \"#utility.yul\":9732:9753   */\n      mstore\n        /* \"#utility.yul\":9784:9788   */\n      0x20\n        /* \"#utility.yul\":9777:9782   */\n      dup2\n        /* \"#utility.yul\":9773:9789   */\n      add\n        /* \"#utility.yul\":9822:9825   */\n      dup5\n        /* \"#utility.yul\":9813:9819   */\n      dup5\n        /* \"#utility.yul\":9808:9811   */\n      dup5\n        /* \"#utility.yul\":9804:9820   */\n      add\n        /* \"#utility.yul\":9801:9826   */\n      gt\n        /* \"#utility.yul\":9798:9910   */\n      iszero\n      tag_343\n      jumpi\n        /* \"#utility.yul\":9829:9908   */\n      tag_344\n      tag_196\n      jump\t// in\n    tag_344:\n        /* \"#utility.yul\":9798:9910   */\n    tag_343:\n        /* \"#utility.yul\":9919:9973   */\n      tag_345\n        /* \"#utility.yul\":9966:9972   */\n      dup5\n        /* \"#utility.yul\":9961:9964   */\n      dup3\n        /* \"#utility.yul\":9956:9959   */\n      dup6\n        /* \"#utility.yul\":9919:9973   */\n      tag_201\n      jump\t// in\n    tag_345:\n        /* \"#utility.yul\":9638:9979   */\n      pop\n        /* \"#utility.yul\":9554:9979   */\n      swap4\n      swap3\n      pop\n      pop\n      pop\n      jump\t// out\n        /* \"#utility.yul\":9999:10339   */\n    tag_203:\n        /* \"#utility.yul\":10055:10060   */\n      0x00\n        /* \"#utility.yul\":10104:10107   */\n      dup3\n        /* \"#utility.yul\":10097:10101   */\n      0x1f\n        /* \"#utility.yul\":10089:10095   */\n      dup4\n        /* \"#utility.yul\":10085:10102   */\n      add\n        /* \"#utility.yul\":10081:10108   */\n      slt\n        /* \"#utility.yul\":10071:10193   */\n      tag_347\n      jumpi\n        /* \"#utility.yul\":10112:10191   */\n      tag_348\n      tag_195\n      jump\t// in\n    tag_348:\n        /* \"#utility.yul\":10071:10193   */\n    tag_347:\n        /* \"#utility.yul\":10229:10235   */\n      dup2\n        /* \"#utility.yul\":10216:10236   */\n      calldataload\n        /* \"#utility.yul\":10254:10333   */\n      tag_349\n        /* \"#utility.yul\":10329:10332   */\n      dup5\n        /* \"#utility.yul\":10321:10327   */\n      dup3\n        /* \"#utility.yul\":10314:10318   */\n      0x20\n        /* \"#utility.yul\":10306:10312   */\n      dup7\n        /* \"#utility.yul\":10302:10319   */\n      add\n        /* \"#utility.yul\":10254:10333   */\n      tag_202\n      jump\t// in\n    tag_349:\n        /* \"#utility.yul\":10245:10333   */\n      swap2\n      pop\n        /* \"#utility.yul\":10061:10339   */\n      pop\n        /* \"#utility.yul\":9999:10339   */\n      swap3\n      swap2\n      pop\n      pop\n      jump\t// out\n        /* \"#utility.yul\":10345:10999   */\n    tag_26:\n        /* \"#utility.yul\":10423:10429   */\n      0x00\n        /* \"#utility.yul\":10431:10437   */\n      dup1\n        /* \"#utility.yul\":10480:10482   */\n      0x40\n        /* \"#utility.yul\":10468:10477   */\n      dup4\n        /* \"#utility.yul\":10459:10466   */\n      dup6\n        /* \"#utility.yul\":10455:10478   */\n      sub\n        /* \"#utility.yul\":10451:10483   */\n      slt\n        /* \"#utility.yul\":10448:10567   */\n      iszero\n      tag_351\n      jumpi\n        /* \"#utility.yul\":10486:10565   */\n      tag_352\n      tag_191\n      jump\t// in\n    tag_352:\n        /* \"#utility.yul\":10448:10567   */\n    tag_351:\n        /* \"#utility.yul\":10634:10635   */\n      0x00\n        /* \"#utility.yul\":10623:10632   */\n      dup4\n        /* \"#utility.yul\":10619:10636   */\n      add\n        /* \"#utility.yul\":10606:10637   */\n      calldataload\n        /* \"#utility.yul\":10664:10682   */\n      0xffffffffffffffff\n        /* \"#utility.yul\":10656:10662   */\n      dup2\n        /* \"#utility.yul\":10653:10683   */\n      gt\n        /* \"#utility.yul\":10650:10767   */\n      iszero\n      tag_353\n      jumpi\n        /* \"#utility.yul\":10686:10765   */\n      tag_354\n      tag_192\n      jump\t// in\n    tag_354:\n        /* \"#utility.yul\":10650:10767   */\n    tag_353:\n        /* \"#utility.yul\":10791:10854   */\n      tag_355\n        /* \"#utility.yul\":10846:10853   */\n      dup6\n        /* \"#utility.yul\":10837:10843   */\n      dup3\n        /* \"#utility.yul\":10826:10835   */\n      dup7\n        /* \"#utility.yul\":10822:10844   */\n      add\n        /* \"#utility.yul\":10791:10854   */\n      tag_203\n      jump\t// in\n    tag_355:\n        /* \"#utility.yul\":10781:10854   */\n      swap3\n      pop\n        /* \"#utility.yul\":10577:10864   */\n      pop\n        /* \"#utility.yul\":10903:10905   */\n      0x20\n        /* \"#utility.yul\":10929:10982   */\n      tag_356\n        /* \"#utility.yul\":10974:10981   */\n      dup6\n        /* \"#utility.yul\":10965:10971   */\n      dup3\n        /* \"#utility.yul\":10954:10963   */\n      dup7\n        /* \"#utility.yul\":10950:10972   */\n      add\n        /* \"#utility.yul\":10929:10982   */\n      tag_194\n      jump\t// in\n    tag_356:\n        /* \"#utility.yul\":10919:10982   */\n      swap2\n      pop\n        /* \"#utility.yul\":10874:10992   */\n      pop\n        /* \"#utility.yul\":10345:10999   */\n      swap3\n      pop\n      swap3\n      swap1\n      pop\n      jump\t// out\n        /* \"#utility.yul\":11005:11123   */\n    tag_204:\n        /* \"#utility.yul\":11092:11116   */\n      tag_358\n        /* \"#utility.yul\":11110:11115   */\n      dup2\n        /* \"#utility.yul\":11092:11116   */\n      tag_168\n      jump\t// in\n    tag_358:\n        /* \"#utility.yul\":11087:11090   */\n      dup3\n        /* \"#utility.yul\":11080:11117   */\n      mstore\n        /* \"#utility.yul\":11005:11123   */\n      pop\n      pop\n      jump\t// out\n        /* \"#utility.yul\":11129:11351   */\n    tag_32:\n        /* \"#utility.yul\":11222:11226   */\n      0x00\n        /* \"#utility.yul\":11260:11262   */\n      0x20\n        /* \"#utility.yul\":11249:11258   */\n      dup3\n        /* \"#utility.yul\":11245:11263   */\n      add\n        /* \"#utility.yul\":11237:11263   */\n      swap1\n      pop\n        /* \"#utility.yul\":11273:11344   */\n      tag_360\n        /* \"#utility.yul\":11341:11342   */\n      0x00\n        /* \"#utility.yul\":11330:11339   */\n      dup4\n        /* \"#utility.yul\":11326:11343   */\n      add\n        /* \"#utility.yul\":11317:11323   */\n      dup5\n        /* \"#utility.yul\":11273:11344   */\n      tag_204\n      jump\t// in\n    tag_360:\n        /* \"#utility.yul\":11129:11351   */\n      swap3\n      swap2\n      pop\n      pop\n      jump\t// out\n        /* \"#utility.yul\":11357:11526   */\n    tag_205:\n        /* \"#utility.yul\":11463:11519   */\n      tag_362\n        /* \"#utility.yul\":11513:11518   */\n      dup2\n        /* \"#utility.yul\":11463:11519   */\n      tag_173\n      jump\t// in\n    tag_362:\n        /* \"#utility.yul\":11458:11461   */\n      dup3\n        /* \"#utility.yul\":11451:11520   */\n      mstore\n        /* \"#utility.yul\":11357:11526   */\n      pop\n      pop\n      jump\t// out\n        /* \"#utility.yul\":11532:11701   */\n    tag_206:\n        /* \"#utility.yul\":11616:11627   */\n      0x00\n        /* \"#utility.yul\":11650:11656   */\n      dup3\n        /* \"#utility.yul\":11645:11648   */\n      dup3\n        /* \"#utility.yul\":11638:11657   */\n      mstore\n        /* \"#utility.yul\":11690:11694   */\n      0x20\n        /* \"#utility.yul\":11685:11688   */\n      dup3\n        /* \"#utility.yul\":11681:11695   */\n      add\n        /* \"#utility.yul\":11666:11695   */\n      swap1\n      pop\n        /* \"#utility.yul\":11532:11701   */\n      swap3\n      swap2\n      pop\n      pop\n      jump\t// out\n        /* \"#utility.yul\":11707:12084   */\n    tag_207:\n        /* \"#utility.yul\":11795:11798   */\n      0x00\n        /* \"#utility.yul\":11823:11862   */\n      tag_365\n        /* \"#utility.yul\":11856:11861   */\n      dup3\n        /* \"#utility.yul\":11823:11862   */\n      tag_175\n      jump\t// in\n    tag_365:\n        /* \"#utility.yul\":11878:11949   */\n      tag_366\n        /* \"#utility.yul\":11942:11948   */\n      dup2\n        /* \"#utility.yul\":11937:11940   */\n      dup6\n        /* \"#utility.yul\":11878:11949   */\n      tag_206\n      jump\t// in\n    tag_366:\n        /* \"#utility.yul\":11871:11949   */\n      swap4\n      pop\n        /* \"#utility.yul\":11958:12023   */\n      tag_367\n        /* \"#utility.yul\":12016:12022   */\n      dup2\n        /* \"#utility.yul\":12011:12014   */\n      dup6\n        /* \"#utility.yul\":12004:12008   */\n      0x20\n        /* \"#utility.yul\":11997:12002   */\n      dup7\n        /* \"#utility.yul\":11993:12009   */\n      add\n        /* \"#utility.yul\":11958:12023   */\n      tag_177\n      jump\t// in\n    tag_367:\n        /* \"#utility.yul\":12048:12077   */\n      tag_368\n        /* \"#utility.yul\":12070:12076   */\n      dup2\n        /* \"#utility.yul\":12048:12077   */\n      tag_178\n      jump\t// in\n    tag_368:\n        /* \"#utility.yul\":12043:12046   */\n      dup5\n        /* \"#utility.yul\":12039:12078   */\n      add\n        /* \"#utility.yul\":12032:12078   */\n      swap2\n      pop\n        /* \"#utility.yul\":11799:12084   */\n      pop\n        /* \"#utility.yul\":11707:12084   */\n      swap3\n      swap2\n      pop\n      pop\n      jump\t// out\n        /* \"#utility.yul\":12090:12208   */\n    tag_208:\n        /* \"#utility.yul\":12177:12201   */\n      tag_370\n        /* \"#utility.yul\":12195:12200   */\n      dup2\n        /* \"#utility.yul\":12177:12201   */\n      tag_180\n      jump\t// in\n    tag_370:\n        /* \"#utility.yul\":12172:12175   */\n      dup3\n        /* \"#utility.yul\":12165:12202   */\n      mstore\n        /* \"#utility.yul\":12090:12208   */\n      pop\n      pop\n      jump\t// out\n        /* \"#utility.yul\":12214:12371   */\n    tag_209:\n        /* \"#utility.yul\":12314:12364   */\n      tag_372\n        /* \"#utility.yul\":12358:12363   */\n      dup2\n        /* \"#utility.yul\":12314:12364   */\n      tag_184\n      jump\t// in\n    tag_372:\n        /* \"#utility.yul\":12309:12312   */\n      dup3\n        /* \"#utility.yul\":12302:12365   */\n      mstore\n        /* \"#utility.yul\":12214:12371   */\n      pop\n      pop\n      jump\t// out\n        /* \"#utility.yul\":12377:13418   */\n    tag_38:\n        /* \"#utility.yul\":12690:12694   */\n      0x00\n        /* \"#utility.yul\":12728:12731   */\n      0xe0\n        /* \"#utility.yul\":12717:12726   */\n      dup3\n        /* \"#utility.yul\":12713:12732   */\n      add\n        /* \"#utility.yul\":12705:12732   */\n      swap1\n      pop\n        /* \"#utility.yul\":12742:12813   */\n      tag_374\n        /* \"#utility.yul\":12810:12811   */\n      0x00\n        /* \"#utility.yul\":12799:12808   */\n      dup4\n        /* \"#utility.yul\":12795:12812   */\n      add\n        /* \"#utility.yul\":12786:12792   */\n      dup11\n        /* \"#utility.yul\":12742:12813   */\n      tag_204\n      jump\t// in\n    tag_374:\n        /* \"#utility.yul\":12823:12895   */\n      tag_375\n        /* \"#utility.yul\":12891:12893   */\n      0x20\n        /* \"#utility.yul\":12880:12889   */\n      dup4\n        /* \"#utility.yul\":12876:12894   */\n      add\n        /* \"#utility.yul\":12867:12873   */\n      dup10\n        /* \"#utility.yul\":12823:12895   */\n      tag_204\n      jump\t// in\n    tag_375:\n        /* \"#utility.yul\":12905:12996   */\n      tag_376\n        /* \"#utility.yul\":12992:12994   */\n      0x40\n        /* \"#utility.yul\":12981:12990   */\n      dup4\n        /* \"#utility.yul\":12977:12995   */\n      add\n        /* \"#utility.yul\":12968:12974   */\n      dup9\n        /* \"#utility.yul\":12905:12996   */\n      tag_205\n      jump\t// in\n    tag_376:\n        /* \"#utility.yul\":13043:13052   */\n      dup2\n        /* \"#utility.yul\":13037:13041   */\n      dup2\n        /* \"#utility.yul\":13033:13053   */\n      sub\n        /* \"#utility.yul\":13028:13030   */\n      0x60\n        /* \"#utility.yul\":13017:13026   */\n      dup4\n        /* \"#utility.yul\":13013:13031   */\n      add\n        /* \"#utility.yul\":13006:13054   */\n      mstore\n        /* \"#utility.yul\":13071:13149   */\n      tag_377\n        /* \"#utility.yul\":13144:13148   */\n      dup2\n        /* \"#utility.yul\":13135:13141   */\n      dup8\n        /* \"#utility.yul\":13071:13149   */\n      tag_207\n      jump\t// in\n    tag_377:\n        /* \"#utility.yul\":13063:13149   */\n      swap1\n      pop\n        /* \"#utility.yul\":13159:13232   */\n      tag_378\n        /* \"#utility.yul\":13227:13230   */\n      0x80\n        /* \"#utility.yul\":13216:13225   */\n      dup4\n        /* \"#utility.yul\":13212:13231   */\n      add\n        /* \"#utility.yul\":13203:13209   */\n      dup7\n        /* \"#utility.yul\":13159:13232   */\n      tag_208\n      jump\t// in\n    tag_378:\n        /* \"#utility.yul\":13242:13328   */\n      tag_379\n        /* \"#utility.yul\":13323:13326   */\n      0xa0\n        /* \"#utility.yul\":13312:13321   */\n      dup4\n        /* \"#utility.yul\":13308:13327   */\n      add\n        /* \"#utility.yul\":13299:13305   */\n      dup6\n        /* \"#utility.yul\":13242:13328   */\n      tag_209\n      jump\t// in\n    tag_379:\n        /* \"#utility.yul\":13338:13411   */\n      tag_380\n        /* \"#utility.yul\":13406:13409   */\n      0xc0\n        /* \"#utility.yul\":13395:13404   */\n      dup4\n        /* \"#utility.yul\":13391:13410   */\n      add\n        /* \"#utility.yul\":13382:13388   */\n      dup5\n        /* \"#utility.yul\":13338:13411   */\n      tag_208\n      jump\t// in\n    tag_380:\n        /* \"#utility.yul\":12377:13418   */\n      swap9\n      swap8\n      pop\n      pop\n      pop\n      pop\n      pop\n      pop\n      pop\n      pop\n      jump\t// out\n        /* \"#utility.yul\":13424:13546   */\n    tag_210:\n        /* \"#utility.yul\":13497:13521   */\n      tag_382\n        /* \"#utility.yul\":13515:13520   */\n      dup2\n        /* \"#utility.yul\":13497:13521   */\n      tag_168\n      jump\t// in\n    tag_382:\n        /* \"#utility.yul\":13490:13495   */\n      dup2\n        /* \"#utility.yul\":13487:13522   */\n      eq\n        /* \"#utility.yul\":13477:13540   */\n      tag_383\n      jumpi\n        /* \"#utility.yul\":13536:13537   */\n      0x00\n        /* \"#utility.yul\":13533:13534   */\n      dup1\n        /* \"#utility.yul\":13526:13538   */\n      revert\n        /* \"#utility.yul\":13477:13540   */\n    tag_383:\n        /* \"#utility.yul\":13424:13546   */\n      pop\n      jump\t// out\n        /* \"#utility.yul\":13552:13691   */\n    tag_211:\n        /* \"#utility.yul\":13598:13603   */\n      0x00\n        /* \"#utility.yul\":13636:13642   */\n      dup2\n        /* \"#utility.yul\":13623:13643   */\n      calldataload\n        /* \"#utility.yul\":13614:13643   */\n      swap1\n      pop\n        /* \"#utility.yul\":13652:13685   */\n      tag_385\n        /* \"#utility.yul\":13679:13684   */\n      dup2\n        /* \"#utility.yul\":13652:13685   */\n      tag_210\n      jump\t// in\n    tag_385:\n        /* \"#utility.yul\":13552:13691   */\n      swap3\n      swap2\n      pop\n      pop\n      jump\t// out\n        /* \"#utility.yul\":13697:14026   */\n    tag_42:\n        /* \"#utility.yul\":13756:13762   */\n      0x00\n        /* \"#utility.yul\":13805:13807   */\n      0x20\n        /* \"#utility.yul\":13793:13802   */\n      dup3\n        /* \"#utility.yul\":13784:13791   */\n      dup5\n        /* \"#utility.yul\":13780:13803   */\n      sub\n        /* \"#utility.yul\":13776:13808   */\n      slt\n        /* \"#utility.yul\":13773:13892   */\n      iszero\n      tag_387\n      jumpi\n        /* \"#utility.yul\":13811:13890   */\n      tag_388\n      tag_191\n      jump\t// in\n    tag_388:\n        /* \"#utility.yul\":13773:13892   */\n    tag_387:\n        /* \"#utility.yul\":13931:13932   */\n      0x00\n        /* \"#utility.yul\":13956:14009   */\n      tag_389\n        /* \"#utility.yul\":14001:14008   */\n      dup5\n        /* \"#utility.yul\":13992:13998   */\n      dup3\n        /* \"#utility.yul\":13981:13990   */\n      dup6\n        /* \"#utility.yul\":13977:13999   */\n      add\n        /* \"#utility.yul\":13956:14009   */\n      tag_211\n      jump\t// in\n    tag_389:\n        /* \"#utility.yul\":13946:14009   */\n      swap2\n      pop\n        /* \"#utility.yul\":13902:14019   */\n      pop\n        /* \"#utility.yul\":13697:14026   */\n      swap3\n      swap2\n      pop\n      pop\n      jump\t// out\n        /* \"#utility.yul\":14032:14212   */\n    tag_212:\n        /* \"#utility.yul\":14080:14157   */\n      0x4e487b7100000000000000000000000000000000000000000000000000000000\n        /* \"#utility.yul\":14077:14078   */\n      0x00\n        /* \"#utility.yul\":14070:14158   */\n      mstore\n        /* \"#utility.yul\":14177:14181   */\n      0x22\n        /* \"#utility.yul\":14174:14175   */\n      0x04\n        /* \"#utility.yul\":14167:14182   */\n      mstore\n        /* \"#utility.yul\":14201:14205   */\n      0x24\n        /* \"#utility.yul\":14198:14199   */\n      0x00\n        /* \"#utility.yul\":14191:14206   */\n      revert\n        /* \"#utility.yul\":14218:14538   */\n    tag_54:\n        /* \"#utility.yul\":14262:14268   */\n      0x00\n        /* \"#utility.yul\":14299:14300   */\n      0x02\n        /* \"#utility.yul\":14293:14297   */\n      dup3\n        /* \"#utility.yul\":14289:14301   */\n      div\n        /* \"#utility.yul\":14279:14301   */\n      swap1\n      pop\n        /* \"#utility.yul\":14346:14347   */\n      0x01\n        /* \"#utility.yul\":14340:14344   */\n      dup3\n        /* \"#utility.yul\":14336:14348   */\n      and\n        /* \"#utility.yul\":14367:14385   */\n      dup1\n        /* \"#utility.yul\":14357:14438   */\n      tag_392\n      jumpi\n        /* \"#utility.yul\":14423:14427   */\n      0x7f\n        /* \"#utility.yul\":14415:14421   */\n      dup3\n        /* \"#utility.yul\":14411:14428   */\n      and\n        /* \"#utility.yul\":14401:14428   */\n      swap2\n      pop\n        /* \"#utility.yul\":14357:14438   */\n    tag_392:\n        /* \"#utility.yul\":14485:14487   */\n      0x20\n        /* \"#utility.yul\":14477:14483   */\n      dup3\n        /* \"#utility.yul\":14474:14488   */\n      lt\n        /* \"#utility.yul\":14454:14472   */\n      dup2\n        /* \"#utility.yul\":14451:14489   */\n      sub\n        /* \"#utility.yul\":14448:14532   */\n      tag_393\n      jumpi\n        /* \"#utility.yul\":14504:14522   */\n      tag_394\n      tag_212\n      jump\t// in\n    tag_394:\n        /* \"#utility.yul\":14448:14532   */\n    tag_393:\n        /* \"#utility.yul\":14269:14538   */\n      pop\n        /* \"#utility.yul\":14218:14538   */\n      swap2\n      swap1\n      pop\n      jump\t// out\n        /* \"#utility.yul\":14544:14722   */\n    tag_213:\n        /* \"#utility.yul\":14684:14714   */\n      0x4f6e6c792066756c6c207061796d656e7420697320616c6c6f77656400000000\n        /* \"#utility.yul\":14680:14681   */\n      0x00\n        /* \"#utility.yul\":14672:14678   */\n      dup3\n        /* \"#utility.yul\":14668:14682   */\n      add\n        /* \"#utility.yul\":14661:14715   */\n      mstore\n        /* \"#utility.yul\":14544:14722   */\n      pop\n      jump\t// out\n        /* \"#utility.yul\":14728:15094   */\n    tag_214:\n        /* \"#utility.yul\":14870:14873   */\n      0x00\n        /* \"#utility.yul\":14891:14958   */\n      tag_397\n        /* \"#utility.yul\":14955:14957   */\n      0x1c\n        /* \"#utility.yul\":14950:14953   */\n      dup4\n        /* \"#utility.yul\":14891:14958   */\n      tag_206\n      jump\t// in\n    tag_397:\n        /* \"#utility.yul\":14884:14958   */\n      swap2\n      pop\n        /* \"#utility.yul\":14967:15060   */\n      tag_398\n        /* \"#utility.yul\":15056:15059   */\n      dup3\n        /* \"#utility.yul\":14967:15060   */\n      tag_213\n      jump\t// in\n    tag_398:\n        /* \"#utility.yul\":15085:15087   */\n      0x20\n        /* \"#utility.yul\":15080:15083   */\n      dup3\n        /* \"#utility.yul\":15076:15088   */\n      add\n        /* \"#utility.yul\":15069:15088   */\n      swap1\n      pop\n        /* \"#utility.yul\":14728:15094   */\n      swap2\n      swap1\n      pop\n      jump\t// out\n        /* \"#utility.yul\":15100:15519   */\n    tag_67:\n        /* \"#utility.yul\":15266:15270   */\n      0x00\n        /* \"#utility.yul\":15304:15306   */\n      0x20\n        /* \"#utility.yul\":15293:15302   */\n      dup3\n        /* \"#utility.yul\":15289:15307   */\n      add\n        /* \"#utility.yul\":15281:15307   */\n      swap1\n      pop\n        /* \"#utility.yul\":15353:15362   */\n      dup2\n        /* \"#utility.yul\":15347:15351   */\n      dup2\n        /* \"#utility.yul\":15343:15363   */\n      sub\n        /* \"#utility.yul\":15339:15340   */\n      0x00\n        /* \"#utility.yul\":15328:15337   */\n      dup4\n        /* \"#utility.yul\":15324:15341   */\n      add\n        /* \"#utility.yul\":15317:15364   */\n      mstore\n        /* \"#utility.yul\":15381:15512   */\n      tag_400\n        /* \"#utility.yul\":15507:15511   */\n      dup2\n        /* \"#utility.yul\":15381:15512   */\n      tag_214\n      jump\t// in\n    tag_400:\n        /* \"#utility.yul\":15373:15512   */\n      swap1\n      pop\n        /* \"#utility.yul\":15100:15519   */\n      swap2\n      swap1\n      pop\n      jump\t// out\n        /* \"#utility.yul\":15525:15702   */\n    tag_215:\n        /* \"#utility.yul\":15665:15694   */\n      0x4974656d206973206675727468657220696e20746865206c696e650000000000\n        /* \"#utility.yul\":15661:15662   */\n      0x00\n        /* \"#utility.yul\":15653:15659   */\n      dup3\n        /* \"#utility.yul\":15649:15663   */\n      add\n        /* \"#utility.yul\":15642:15695   */\n      mstore\n        /* \"#utility.yul\":15525:15702   */\n      pop\n      jump\t// out\n        /* \"#utility.yul\":15708:16074   */\n    tag_216:\n        /* \"#utility.yul\":15850:15853   */\n      0x00\n        /* \"#utility.yul\":15871:15938   */\n      tag_403\n        /* \"#utility.yul\":15935:15937   */\n      0x1b\n        /* \"#utility.yul\":15930:15933   */\n      dup4\n        /* \"#utility.yul\":15871:15938   */\n      tag_206\n      jump\t// in\n    tag_403:\n        /* \"#utility.yul\":15864:15938   */\n      swap2\n      pop\n        /* \"#utility.yul\":15947:16040   */\n      tag_404\n        /* \"#utility.yul\":16036:16039   */\n      dup3\n        /* \"#utility.yul\":15947:16040   */\n      tag_215\n      jump\t// in\n    tag_404:\n        /* \"#utility.yul\":16065:16067   */\n      0x20\n        /* \"#utility.yul\":16060:16063   */\n      dup3\n        /* \"#utility.yul\":16056:16068   */\n      add\n        /* \"#utility.yul\":16049:16068   */\n      swap1\n      pop\n        /* \"#utility.yul\":15708:16074   */\n      swap2\n      swap1\n      pop\n      jump\t// out\n        /* \"#utility.yul\":16080:16499   */\n    tag_74:\n        /* \"#utility.yul\":16246:16250   */\n      0x00\n        /* \"#utility.yul\":16284:16286   */\n      0x20\n        /* \"#utility.yul\":16273:16282   */\n      dup3\n        /* \"#utility.yul\":16269:16287   */\n      add\n        /* \"#utility.yul\":16261:16287   */\n      swap1\n      pop\n        /* \"#utility.yul\":16333:16342   */\n      dup2\n        /* \"#utility.yul\":16327:16331   */\n      dup2\n        /* \"#utility.yul\":16323:16343   */\n      sub\n        /* \"#utility.yul\":16319:16320   */\n      0x00\n        /* \"#utility.yul\":16308:16317   */\n      dup4\n        /* \"#utility.yul\":16304:16321   */\n      add\n        /* \"#utility.yul\":16297:16344   */\n      mstore\n        /* \"#utility.yul\":16361:16492   */\n      tag_406\n        /* \"#utility.yul\":16487:16491   */\n      dup2\n        /* \"#utility.yul\":16361:16492   */\n      tag_216\n      jump\t// in\n    tag_406:\n        /* \"#utility.yul\":16353:16492   */\n      swap1\n      pop\n        /* \"#utility.yul\":16080:16499   */\n      swap2\n      swap1\n      pop\n      jump\t// out\n        /* \"#utility.yul\":16505:16725   */\n    tag_217:\n        /* \"#utility.yul\":16645:16679   */\n      0x53656c6c65722063616e206e6f7420627579207468656972206f776e20697465\n        /* \"#utility.yul\":16641:16642   */\n      0x00\n        /* \"#utility.yul\":16633:16639   */\n      dup3\n        /* \"#utility.yul\":16629:16643   */\n      add\n        /* \"#utility.yul\":16622:16680   */\n      mstore\n        /* \"#utility.yul\":16714:16717   */\n      0x6d00000000000000000000000000000000000000000000000000000000000000\n        /* \"#utility.yul\":16709:16711   */\n      0x20\n        /* \"#utility.yul\":16701:16707   */\n      dup3\n        /* \"#utility.yul\":16697:16712   */\n      add\n        /* \"#utility.yul\":16690:16718   */\n      mstore\n        /* \"#utility.yul\":16505:16725   */\n      pop\n      jump\t// out\n        /* \"#utility.yul\":16731:17097   */\n    tag_218:\n        /* \"#utility.yul\":16873:16876   */\n      0x00\n        /* \"#utility.yul\":16894:16961   */\n      tag_409\n        /* \"#utility.yul\":16958:16960   */\n      0x21\n        /* \"#utility.yul\":16953:16956   */\n      dup4\n        /* \"#utility.yul\":16894:16961   */\n      tag_206\n      jump\t// in\n    tag_409:\n        /* \"#utility.yul\":16887:16961   */\n      swap2\n      pop\n        /* \"#utility.yul\":16970:17063   */\n      tag_410\n        /* \"#utility.yul\":17059:17062   */\n      dup3\n        /* \"#utility.yul\":16970:17063   */\n      tag_217\n      jump\t// in\n    tag_410:\n        /* \"#utility.yul\":17088:17090   */\n      0x40\n        /* \"#utility.yul\":17083:17086   */\n      dup3\n        /* \"#utility.yul\":17079:17091   */\n      add\n        /* \"#utility.yul\":17072:17091   */\n      swap1\n      pop\n        /* \"#utility.yul\":16731:17097   */\n      swap2\n      swap1\n      pop\n      jump\t// out\n        /* \"#utility.yul\":17103:17522   */\n    tag_77:\n        /* \"#utility.yul\":17269:17273   */\n      0x00\n        /* \"#utility.yul\":17307:17309   */\n      0x20\n        /* \"#utility.yul\":17296:17305   */\n      dup3\n        /* \"#utility.yul\":17292:17310   */\n      add\n        /* \"#utility.yul\":17284:17310   */\n      swap1\n      pop\n        /* \"#utility.yul\":17356:17365   */\n      dup2\n        /* \"#utility.yul\":17350:17354   */\n      dup2\n        /* \"#utility.yul\":17346:17366   */\n      sub\n        /* \"#utility.yul\":17342:17343   */\n      0x00\n        /* \"#utility.yul\":17331:17340   */\n      dup4\n        /* \"#utility.yul\":17327:17344   */\n      add\n        /* \"#utility.yul\":17320:17367   */\n      mstore\n        /* \"#utility.yul\":17384:17515   */\n      tag_412\n        /* \"#utility.yul\":17510:17514   */\n      dup2\n        /* \"#utility.yul\":17384:17515   */\n      tag_218\n      jump\t// in\n    tag_412:\n        /* \"#utility.yul\":17376:17515   */\n      swap1\n      pop\n        /* \"#utility.yul\":17103:17522   */\n      swap2\n      swap1\n      pop\n      jump\t// out\n        /* \"#utility.yul\":17528:18303   */\n    tag_90:\n        /* \"#utility.yul\":17761:17765   */\n      0x00\n        /* \"#utility.yul\":17799:17802   */\n      0xc0\n        /* \"#utility.yul\":17788:17797   */\n      dup3\n        /* \"#utility.yul\":17784:17803   */\n      add\n        /* \"#utility.yul\":17776:17803   */\n      swap1\n      pop\n        /* \"#utility.yul\":17813:17884   */\n      tag_414\n        /* \"#utility.yul\":17881:17882   */\n      0x00\n        /* \"#utility.yul\":17870:17879   */\n      dup4\n        /* \"#utility.yul\":17866:17883   */\n      add\n        /* \"#utility.yul\":17857:17863   */\n      dup10\n        /* \"#utility.yul\":17813:17884   */\n      tag_208\n      jump\t// in\n    tag_414:\n        /* \"#utility.yul\":17894:17966   */\n      tag_415\n        /* \"#utility.yul\":17962:17964   */\n      0x20\n        /* \"#utility.yul\":17951:17960   */\n      dup4\n        /* \"#utility.yul\":17947:17965   */\n      add\n        /* \"#utility.yul\":17938:17944   */\n      dup9\n        /* \"#utility.yul\":17894:17966   */\n      tag_208\n      jump\t// in\n    tag_415:\n        /* \"#utility.yul\":17976:18048   */\n      tag_416\n        /* \"#utility.yul\":18044:18046   */\n      0x40\n        /* \"#utility.yul\":18033:18042   */\n      dup4\n        /* \"#utility.yul\":18029:18047   */\n      add\n        /* \"#utility.yul\":18020:18026   */\n      dup8\n        /* \"#utility.yul\":17976:18048   */\n      tag_204\n      jump\t// in\n    tag_416:\n        /* \"#utility.yul\":18058:18130   */\n      tag_417\n        /* \"#utility.yul\":18126:18128   */\n      0x60\n        /* \"#utility.yul\":18115:18124   */\n      dup4\n        /* \"#utility.yul\":18111:18129   */\n      add\n        /* \"#utility.yul\":18102:18108   */\n      dup7\n        /* \"#utility.yul\":18058:18130   */\n      tag_208\n      jump\t// in\n    tag_417:\n        /* \"#utility.yul\":18140:18213   */\n      tag_418\n        /* \"#utility.yul\":18208:18211   */\n      0x80\n        /* \"#utility.yul\":18197:18206   */\n      dup4\n        /* \"#utility.yul\":18193:18212   */\n      add\n        /* \"#utility.yul\":18184:18190   */\n      dup6\n        /* \"#utility.yul\":18140:18213   */\n      tag_204\n      jump\t// in\n    tag_418:\n        /* \"#utility.yul\":18223:18296   */\n      tag_419\n        /* \"#utility.yul\":18291:18294   */\n      0xa0\n        /* \"#utility.yul\":18280:18289   */\n      dup4\n        /* \"#utility.yul\":18276:18295   */\n      add\n        /* \"#utility.yul\":18267:18273   */\n      dup5\n        /* \"#utility.yul\":18223:18296   */\n      tag_204\n      jump\t// in\n    tag_419:\n        /* \"#utility.yul\":17528:18303   */\n      swap8\n      swap7\n      pop\n      pop\n      pop\n      pop\n      pop\n      pop\n      pop\n      jump\t// out\n        /* \"#utility.yul\":18309:18491   */\n    tag_219:\n        /* \"#utility.yul\":18449:18483   */\n      0x4f776e61626c653a2063616c6c6572206973206e6f7420746865206f776e6572\n        /* \"#utility.yul\":18445:18446   */\n      0x00\n        /* \"#utility.yul\":18437:18443   */\n      dup3\n        /* \"#utility.yul\":18433:18447   */\n      add\n        /* \"#utility.yul\":18426:18484   */\n      mstore\n        /* \"#utility.yul\":18309:18491   */\n      pop\n      jump\t// out\n        /* \"#utility.yul\":18497:18863   */\n    tag_220:\n        /* \"#utility.yul\":18639:18642   */\n      0x00\n        /* \"#utility.yul\":18660:18727   */\n      tag_422\n        /* \"#utility.yul\":18724:18726   */\n      0x20\n        /* \"#utility.yul\":18719:18722   */\n      dup4\n        /* \"#utility.yul\":18660:18727   */\n      tag_206\n      jump\t// in\n    tag_422:\n        /* \"#utility.yul\":18653:18727   */\n      swap2\n      pop\n        /* \"#utility.yul\":18736:18829   */\n      tag_423\n        /* \"#utility.yul\":18825:18828   */\n      dup3\n        /* \"#utility.yul\":18736:18829   */\n      tag_219\n      jump\t// in\n    tag_423:\n        /* \"#utility.yul\":18854:18856   */\n      0x20\n        /* \"#utility.yul\":18849:18852   */\n      dup3\n        /* \"#utility.yul\":18845:18857   */\n      add\n        /* \"#utility.yul\":18838:18857   */\n      swap1\n      pop\n        /* \"#utility.yul\":18497:18863   */\n      swap2\n      swap1\n      pop\n      jump\t// out\n        /* \"#utility.yul\":18869:19288   */\n    tag_97:\n        /* \"#utility.yul\":19035:19039   */\n      0x00\n        /* \"#utility.yul\":19073:19075   */\n      0x20\n        /* \"#utility.yul\":19062:19071   */\n      dup3\n        /* \"#utility.yul\":19058:19076   */\n      add\n        /* \"#utility.yul\":19050:19076   */\n      swap1\n      pop\n        /* \"#utility.yul\":19122:19131   */\n      dup2\n        /* \"#utility.yul\":19116:19120   */\n      dup2\n        /* \"#utility.yul\":19112:19132   */\n      sub\n        /* \"#utility.yul\":19108:19109   */\n      0x00\n        /* \"#utility.yul\":19097:19106   */\n      dup4\n        /* \"#utility.yul\":19093:19110   */\n      add\n        /* \"#utility.yul\":19086:19133   */\n      mstore\n        /* \"#utility.yul\":19150:19281   */\n      tag_425\n        /* \"#utility.yul\":19276:19280   */\n      dup2\n        /* \"#utility.yul\":19150:19281   */\n      tag_220\n      jump\t// in\n    tag_425:\n        /* \"#utility.yul\":19142:19281   */\n      swap1\n      pop\n        /* \"#utility.yul\":18869:19288   */\n      swap2\n      swap1\n      pop\n      jump\t// out\n        /* \"#utility.yul\":19294:19470   */\n    tag_221:\n        /* \"#utility.yul\":19434:19462   */\n      0x63616e206e6f742072656e6f756e6365206f776e657273686970000000000000\n        /* \"#utility.yul\":19430:19431   */\n      0x00\n        /* \"#utility.yul\":19422:19428   */\n      dup3\n        /* \"#utility.yul\":19418:19432   */\n      add\n        /* \"#utility.yul\":19411:19463   */\n      mstore\n        /* \"#utility.yul\":19294:19470   */\n      pop\n      jump\t// out\n        /* \"#utility.yul\":19476:19842   */\n    tag_222:\n        /* \"#utility.yul\":19618:19621   */\n      0x00\n        /* \"#utility.yul\":19639:19706   */\n      tag_428\n        /* \"#utility.yul\":19703:19705   */\n      0x1a\n        /* \"#utility.yul\":19698:19701   */\n      dup4\n        /* \"#utility.yul\":19639:19706   */\n      tag_206\n      jump\t// in\n    tag_428:\n        /* \"#utility.yul\":19632:19706   */\n      swap2\n      pop\n        /* \"#utility.yul\":19715:19808   */\n      tag_429\n        /* \"#utility.yul\":19804:19807   */\n      dup3\n        /* \"#utility.yul\":19715:19808   */\n      tag_221\n      jump\t// in\n    tag_429:\n        /* \"#utility.yul\":19833:19835   */\n      0x20\n        /* \"#utility.yul\":19828:19831   */\n      dup3\n        /* \"#utility.yul\":19824:19836   */\n      add\n        /* \"#utility.yul\":19817:19836   */\n      swap1\n      pop\n        /* \"#utility.yul\":19476:19842   */\n      swap2\n      swap1\n      pop\n      jump\t// out\n        /* \"#utility.yul\":19848:20267   */\n    tag_100:\n        /* \"#utility.yul\":20014:20018   */\n      0x00\n        /* \"#utility.yul\":20052:20054   */\n      0x20\n        /* \"#utility.yul\":20041:20050   */\n      dup3\n        /* \"#utility.yul\":20037:20055   */\n      add\n        /* \"#utility.yul\":20029:20055   */\n      swap1\n      pop\n        /* \"#utility.yul\":20101:20110   */\n      dup2\n        /* \"#utility.yul\":20095:20099   */\n      dup2\n        /* \"#utility.yul\":20091:20111   */\n      sub\n        /* \"#utility.yul\":20087:20088   */\n      0x00\n        /* \"#utility.yul\":20076:20085   */\n      dup4\n        /* \"#utility.yul\":20072:20089   */\n      add\n        /* \"#utility.yul\":20065:20112   */\n      mstore\n        /* \"#utility.yul\":20129:20260   */\n      tag_431\n        /* \"#utility.yul\":20255:20259   */\n      dup2\n        /* \"#utility.yul\":20129:20260   */\n      tag_222\n      jump\t// in\n    tag_431:\n        /* \"#utility.yul\":20121:20260   */\n      swap1\n      pop\n        /* \"#utility.yul\":19848:20267   */\n      swap2\n      swap1\n      pop\n      jump\t// out\n        /* \"#utility.yul\":20273:20399   */\n    tag_223:\n        /* \"#utility.yul\":20323:20332   */\n      0x00\n        /* \"#utility.yul\":20356:20393   */\n      tag_433\n        /* \"#utility.yul\":20387:20392   */\n      dup3\n        /* \"#utility.yul\":20356:20393   */\n      tag_171\n      jump\t// in\n    tag_433:\n        /* \"#utility.yul\":20343:20393   */\n      swap1\n      pop\n        /* \"#utility.yul\":20273:20399   */\n      swap2\n      swap1\n      pop\n      jump\t// out\n        /* \"#utility.yul\":20405:20553   */\n    tag_224:\n        /* \"#utility.yul\":20477:20486   */\n      0x00\n        /* \"#utility.yul\":20510:20547   */\n      tag_435\n        /* \"#utility.yul\":20541:20546   */\n      dup3\n        /* \"#utility.yul\":20510:20547   */\n      tag_223\n      jump\t// in\n    tag_435:\n        /* \"#utility.yul\":20497:20547   */\n      swap1\n      pop\n        /* \"#utility.yul\":20405:20553   */\n      swap2\n      swap1\n      pop\n      jump\t// out\n        /* \"#utility.yul\":20559:20734   */\n    tag_225:\n        /* \"#utility.yul\":20668:20727   */\n      tag_437\n        /* \"#utility.yul\":20721:20726   */\n      dup2\n        /* \"#utility.yul\":20668:20727   */\n      tag_224\n      jump\t// in\n    tag_437:\n        /* \"#utility.yul\":20663:20666   */\n      dup3\n        /* \"#utility.yul\":20656:20728   */\n      mstore\n        /* \"#utility.yul\":20559:20734   */\n      pop\n      pop\n      jump\t// out\n        /* \"#utility.yul\":20740:21226   */\n    tag_105:\n        /* \"#utility.yul\":20911:20915   */\n      0x00\n        /* \"#utility.yul\":20949:20951   */\n      0x60\n        /* \"#utility.yul\":20938:20947   */\n      dup3\n        /* \"#utility.yul\":20934:20952   */\n      add\n        /* \"#utility.yul\":20926:20952   */\n      swap1\n      pop\n        /* \"#utility.yul\":20962:21055   */\n      tag_439\n        /* \"#utility.yul\":21052:21053   */\n      0x00\n        /* \"#utility.yul\":21041:21050   */\n      dup4\n        /* \"#utility.yul\":21037:21054   */\n      add\n        /* \"#utility.yul\":21028:21034   */\n      dup7\n        /* \"#utility.yul\":20962:21055   */\n      tag_225\n      jump\t// in\n    tag_439:\n        /* \"#utility.yul\":21065:21137   */\n      tag_440\n        /* \"#utility.yul\":21133:21135   */\n      0x20\n        /* \"#utility.yul\":21122:21131   */\n      dup4\n        /* \"#utility.yul\":21118:21136   */\n      add\n        /* \"#utility.yul\":21109:21115   */\n      dup6\n        /* \"#utility.yul\":21065:21137   */\n      tag_208\n      jump\t// in\n    tag_440:\n        /* \"#utility.yul\":21147:21219   */\n      tag_441\n        /* \"#utility.yul\":21215:21217   */\n      0x40\n        /* \"#utility.yul\":21204:21213   */\n      dup4\n        /* \"#utility.yul\":21200:21218   */\n      add\n        /* \"#utility.yul\":21191:21197   */\n      dup5\n        /* \"#utility.yul\":21147:21219   */\n      tag_208\n      jump\t// in\n    tag_441:\n        /* \"#utility.yul\":20740:21226   */\n      swap5\n      swap4\n      pop\n      pop\n      pop\n      pop\n      jump\t// out\n        /* \"#utility.yul\":21232:21373   */\n    tag_226:\n        /* \"#utility.yul\":21281:21285   */\n      0x00\n        /* \"#utility.yul\":21304:21307   */\n      dup2\n        /* \"#utility.yul\":21296:21307   */\n      swap1\n      pop\n        /* \"#utility.yul\":21327:21330   */\n      dup2\n        /* \"#utility.yul\":21324:21325   */\n      0x00\n        /* \"#utility.yul\":21317:21331   */\n      mstore\n        /* \"#utility.yul\":21361:21365   */\n      0x20\n        /* \"#utility.yul\":21358:21359   */\n      0x00\n        /* \"#utility.yul\":21348:21366   */\n      keccak256\n        /* \"#utility.yul\":21340:21366   */\n      swap1\n      pop\n        /* \"#utility.yul\":21232:21373   */\n      swap2\n      swap1\n      pop\n      jump\t// out\n        /* \"#utility.yul\":21379:21472   */\n    tag_227:\n        /* \"#utility.yul\":21416:21422   */\n      0x00\n        /* \"#utility.yul\":21463:21465   */\n      0x20\n        /* \"#utility.yul\":21458:21460   */\n      0x1f\n        /* \"#utility.yul\":21451:21456   */\n      dup4\n        /* \"#utility.yul\":21447:21461   */\n      add\n        /* \"#utility.yul\":21443:21466   */\n      div\n        /* \"#utility.yul\":21433:21466   */\n      swap1\n      pop\n        /* \"#utility.yul\":21379:21472   */\n      swap2\n      swap1\n      pop\n      jump\t// out\n        /* \"#utility.yul\":21478:21585   */\n    tag_228:\n        /* \"#utility.yul\":21522:21530   */\n      0x00\n        /* \"#utility.yul\":21572:21577   */\n      dup3\n        /* \"#utility.yul\":21566:21570   */\n      dup3\n        /* \"#utility.yul\":21562:21578   */\n      shl\n        /* \"#utility.yul\":21541:21578   */\n      swap1\n      pop\n        /* \"#utility.yul\":21478:21585   */\n      swap3\n      swap2\n      pop\n      pop\n      jump\t// out\n        /* \"#utility.yul\":21591:21984   */\n    tag_229:\n        /* \"#utility.yul\":21660:21666   */\n      0x00\n        /* \"#utility.yul\":21710:21711   */\n      0x08\n        /* \"#utility.yul\":21698:21708   */\n      dup4\n        /* \"#utility.yul\":21694:21712   */\n      mul\n        /* \"#utility.yul\":21733:21830   */\n      tag_446\n        /* \"#utility.yul\":21763:21829   */\n      0xffffffffffffffffffffffffffffffffffffffffffffffffffffffffffffffff\n        /* \"#utility.yul\":21752:21761   */\n      dup3\n        /* \"#utility.yul\":21733:21830   */\n      tag_228\n      jump\t// in\n    tag_446:\n        /* \"#utility.yul\":21851:21890   */\n      tag_447\n        /* \"#utility.yul\":21881:21889   */\n      dup7\n        /* \"#utility.yul\":21870:21879   */\n      dup4\n        /* \"#utility.yul\":21851:21890   */\n      tag_228\n      jump\t// in\n    tag_447:\n        /* \"#utility.yul\":21839:21890   */\n      swap6\n      pop\n        /* \"#utility.yul\":21923:21927   */\n      dup1\n        /* \"#utility.yul\":21919:21928   */\n      not\n        /* \"#utility.yul\":21912:21917   */\n      dup5\n        /* \"#utility.yul\":21908:21929   */\n      and\n        /* \"#utility.yul\":21899:21929   */\n      swap4\n      pop\n        /* \"#utility.yul\":21972:21976   */\n      dup1\n        /* \"#utility.yul\":21962:21970   */\n      dup7\n        /* \"#utility.yul\":21958:21977   */\n      and\n        /* \"#utility.yul\":21951:21956   */\n      dup5\n        /* \"#utility.yul\":21948:21978   */\n      or\n        /* \"#utility.yul\":21938:21978   */\n      swap3\n      pop\n        /* \"#utility.yul\":21667:21984   */\n      pop\n      pop\n        /* \"#utility.yul\":21591:21984   */\n      swap4\n      swap3\n      pop\n      pop\n      pop\n      jump\t// out\n        /* \"#utility.yul\":21990:22132   */\n    tag_230:\n        /* \"#utility.yul\":22040:22049   */\n      0x00\n        /* \"#utility.yul\":22073:22126   */\n      tag_449\n        /* \"#utility.yul\":22091:22125   */\n      tag_450\n        /* \"#utility.yul\":22100:22124   */\n      tag_451\n        /* \"#utility.yul\":22118:22123   */\n      dup5\n        /* \"#utility.yul\":22100:22124   */\n      tag_180\n      jump\t// in\n    tag_451:\n        /* \"#utility.yul\":22091:22125   */\n      tag_170\n      jump\t// in\n    tag_450:\n        /* \"#utility.yul\":22073:22126   */\n      tag_180\n      jump\t// in\n    tag_449:\n        /* \"#utility.yul\":22060:22126   */\n      swap1\n      pop\n        /* \"#utility.yul\":21990:22132   */\n      swap2\n      swap1\n      pop\n      jump\t// out\n        /* \"#utility.yul\":22138:22213   */\n    tag_231:\n        /* \"#utility.yul\":22181:22184   */\n      0x00\n        /* \"#utility.yul\":22202:22207   */\n      dup2\n        /* \"#utility.yul\":22195:22207   */\n      swap1\n      pop\n        /* \"#utility.yul\":22138:22213   */\n      swap2\n      swap1\n      pop\n      jump\t// out\n        /* \"#utility.yul\":22219:22488   */\n    tag_232:\n        /* \"#utility.yul\":22329:22368   */\n      tag_454\n        /* \"#utility.yul\":22360:22367   */\n      dup4\n        /* \"#utility.yul\":22329:22368   */\n      tag_230\n      jump\t// in\n    tag_454:\n        /* \"#utility.yul\":22390:22481   */\n      tag_455\n        /* \"#utility.yul\":22439:22480   */\n      tag_456\n        /* \"#utility.yul\":22463:22479   */\n      dup3\n        /* \"#utility.yul\":22439:22480   */\n      tag_231\n      jump\t// in\n    tag_456:\n        /* \"#utility.yul\":22431:22437   */\n      dup5\n        /* \"#utility.yul\":22424:22428   */\n      dup5\n        /* \"#utility.yul\":22418:22429   */\n      sload\n        /* \"#utility.yul\":22390:22481   */\n      tag_229\n      jump\t// in\n    tag_455:\n        /* \"#utility.yul\":22384:22388   */\n      dup3\n        /* \"#utility.yul\":22377:22482   */\n      sstore\n        /* \"#utility.yul\":22295:22488   */\n      pop\n        /* \"#utility.yul\":22219:22488   */\n      pop\n      pop\n      pop\n      jump\t// out\n        /* \"#utility.yul\":22494:22567   */\n    tag_233:\n        /* \"#utility.yul\":22539:22542   */\n      0x00\n        /* \"#utility.yul\":22494:22567   */\n      swap1\n      jump\t// out\n        /* \"#utility.yul\":22573:22762   */\n    tag_234:\n        /* \"#utility.yul\":22650:22682   */\n      tag_459\n      tag_233\n      jump\t// in\n    tag_459:\n        /* \"#utility.yul\":22691:22756   */\n      tag_460\n        /* \"#utility.yul\":22749:22755   */\n      dup2\n        /* \"#utility.yul\":22741:22747   */\n      dup5\n        /* \"#utility.yul\":22735:22739   */\n      dup5\n        /* \"#utility.yul\":22691:22756   */\n      tag_232\n      jump\t// in\n    tag_460:\n        /* \"#utility.yul\":22626:22762   */\n      pop\n        /* \"#utility.yul\":22573:22762   */\n      pop\n      pop\n      jump\t// out\n        /* \"#utility.yul\":22768:22954   */\n    tag_235:\n        /* \"#utility.yul\":22828:22948   */\n    tag_462:\n        /* \"#utility.yul\":22845:22848   */\n      dup2\n        /* \"#utility.yul\":22838:22843   */\n      dup2\n        /* \"#utility.yul\":22835:22849   */\n      lt\n        /* \"#utility.yul\":22828:22948   */\n      iszero\n      tag_464\n      jumpi\n        /* \"#utility.yul\":22899:22938   */\n      tag_465\n        /* \"#utility.yul\":22936:22937   */\n      0x00\n        /* \"#utility.yul\":22929:22934   */\n      dup3\n        /* \"#utility.yul\":22899:22938   */\n      tag_234\n      jump\t// in\n    tag_465:\n        /* \"#utility.yul\":22872:22873   */\n      0x01\n        /* \"#utility.yul\":22865:22870   */\n      dup2\n        /* \"#utility.yul\":22861:22874   */\n      add\n        /* \"#utility.yul\":22852:22874   */\n      swap1\n      pop\n        /* \"#utility.yul\":22828:22948   */\n      jump(tag_462)\n    tag_464:\n        /* \"#utility.yul\":22768:22954   */\n      pop\n      pop\n      jump\t// out\n        /* \"#utility.yul\":22960:23503   */\n    tag_236:\n        /* \"#utility.yul\":23061:23063   */\n      0x1f\n        /* \"#utility.yul\":23056:23059   */\n      dup3\n        /* \"#utility.yul\":23053:23064   */\n      gt\n        /* \"#utility.yul\":23050:23496   */\n      iszero\n      tag_467\n      jumpi\n        /* \"#utility.yul\":23095:23133   */\n      tag_468\n        /* \"#utility.yul\":23127:23132   */\n      dup2\n        /* \"#utility.yul\":23095:23133   */\n      tag_226\n      jump\t// in\n    tag_468:\n        /* \"#utility.yul\":23179:23208   */\n      tag_469\n        /* \"#utility.yul\":23197:23207   */\n      dup5\n        /* \"#utility.yul\":23179:23208   */\n      tag_227\n      jump\t// in\n    tag_469:\n        /* \"#utility.yul\":23169:23177   */\n      dup2\n        /* \"#utility.yul\":23165:23209   */\n      add\n        /* \"#utility.yul\":23362:23364   */\n      0x20\n        /* \"#utility.yul\":23350:23360   */\n      dup6\n        /* \"#utility.yul\":23347:23365   */\n      lt\n        /* \"#utility.yul\":23344:23393   */\n      iszero\n      tag_470\n      jumpi\n        /* \"#utility.yul\":23383:23391   */\n      dup2\n        /* \"#utility.yul\":23368:23391   */\n      swap1\n      pop\n        /* \"#utility.yul\":23344:23393   */\n    tag_470:\n        /* \"#utility.yul\":23406:23486   */\n      tag_471\n        /* \"#utility.yul\":23462:23484   */\n      tag_472\n        /* \"#utility.yul\":23480:23483   */\n      dup6\n        /* \"#utility.yul\":23462:23484   */\n      tag_227\n      jump\t// in\n    tag_472:\n        /* \"#utility.yul\":23452:23460   */\n      dup4\n        /* \"#utility.yul\":23448:23485   */\n      add\n        /* \"#utility.yul\":23435:23446   */\n      dup3\n        /* \"#utility.yul\":23406:23486   */\n      tag_235\n      jump\t// in\n    tag_471:\n        /* \"#utility.yul\":23065:23496   */\n      pop\n      pop\n        /* \"#utility.yul\":23050:23496   */\n    tag_467:\n        /* \"#utility.yul\":22960:23503   */\n      pop\n      pop\n      pop\n      jump\t// out\n        /* \"#utility.yul\":23509:23626   */\n    tag_237:\n        /* \"#utility.yul\":23563:23571   */\n      0x00\n        /* \"#utility.yul\":23613:23618   */\n      dup3\n        /* \"#utility.yul\":23607:23611   */\n      dup3\n        /* \"#utility.yul\":23603:23619   */\n      shr\n        /* \"#utility.yul\":23582:23619   */\n      swap1\n      pop\n        /* \"#utility.yul\":23509:23626   */\n      swap3\n      swap2\n      pop\n      pop\n      jump\t// out\n        /* \"#utility.yul\":23632:23801   */\n    tag_238:\n        /* \"#utility.yul\":23676:23682   */\n      0x00\n        /* \"#utility.yul\":23709:23760   */\n      tag_475\n        /* \"#utility.yul\":23757:23758   */\n      0x00\n        /* \"#utility.yul\":23753:23759   */\n      not\n        /* \"#utility.yul\":23745:23750   */\n      dup5\n        /* \"#utility.yul\":23742:23743   */\n      0x08\n        /* \"#utility.yul\":23738:23751   */\n      mul\n        /* \"#utility.yul\":23709:23760   */\n      tag_237\n      jump\t// in\n    tag_475:\n        /* \"#utility.yul\":23705:23761   */\n      not\n        /* \"#utility.yul\":23790:23794   */\n      dup1\n        /* \"#utility.yul\":23784:23788   */\n      dup4\n        /* \"#utility.yul\":23780:23795   */\n      and\n        /* \"#utility.yul\":23770:23795   */\n      swap2\n      pop\n        /* \"#utility.yul\":23683:23801   */\n      pop\n        /* \"#utility.yul\":23632:23801   */\n      swap3\n      swap2\n      pop\n      pop\n      jump\t// out\n        /* \"#utility.yul\":23806:24101   */\n    tag_239:\n        /* \"#utility.yul\":23882:23886   */\n      0x00\n        /* \"#utility.yul\":24028:24057   */\n      tag_477\n        /* \"#utility.yul\":24053:24056   */\n      dup4\n        /* \"#utility.yul\":24047:24051   */\n      dup4\n        /* \"#utility.yul\":24028:24057   */\n      tag_238\n      jump\t// in\n    tag_477:\n        /* \"#utility.yul\":24020:24057   */\n      swap2\n      pop\n        /* \"#utility.yul\":24090:24093   */\n      dup3\n        /* \"#utility.yul\":24087:24088   */\n      0x02\n        /* \"#utility.yul\":24083:24094   */\n      mul\n        /* \"#utility.yul\":24077:24081   */\n      dup3\n        /* \"#utility.yul\":24074:24095   */\n      or\n        /* \"#utility.yul\":24066:24095   */\n      swap1\n      pop\n        /* \"#utility.yul\":23806:24101   */\n      swap3\n      swap2\n      pop\n      pop\n      jump\t// out\n        /* \"#utility.yul\":24106:25501   */\n    tag_108:\n        /* \"#utility.yul\":24223:24260   */\n      tag_479\n        /* \"#utility.yul\":24256:24259   */\n      dup3\n        /* \"#utility.yul\":24223:24260   */\n      tag_175\n      jump\t// in\n    tag_479:\n        /* \"#utility.yul\":24325:24343   */\n      0xffffffffffffffff\n        /* \"#utility.yul\":24317:24323   */\n      dup2\n        /* \"#utility.yul\":24314:24344   */\n      gt\n        /* \"#utility.yul\":24311:24367   */\n      iszero\n      tag_480\n      jumpi\n        /* \"#utility.yul\":24347:24365   */\n      tag_481\n      tag_197\n      jump\t// in\n    tag_481:\n        /* \"#utility.yul\":24311:24367   */\n    tag_480:\n        /* \"#utility.yul\":24391:24429   */\n      tag_482\n        /* \"#utility.yul\":24423:24427   */\n      dup3\n        /* \"#utility.yul\":24417:24428   */\n      sload\n        /* \"#utility.yul\":24391:24429   */\n      tag_54\n      jump\t// in\n    tag_482:\n        /* \"#utility.yul\":24476:24543   */\n      tag_483\n        /* \"#utility.yul\":24536:24542   */\n      dup3\n        /* \"#utility.yul\":24528:24534   */\n      dup3\n        /* \"#utility.yul\":24522:24526   */\n      dup6\n        /* \"#utility.yul\":24476:24543   */\n      tag_236\n      jump\t// in\n    tag_483:\n        /* \"#utility.yul\":24570:24571   */\n      0x00\n        /* \"#utility.yul\":24594:24598   */\n      0x20\n        /* \"#utility.yul\":24581:24598   */\n      swap1\n      pop\n        /* \"#utility.yul\":24626:24628   */\n      0x1f\n        /* \"#utility.yul\":24618:24624   */\n      dup4\n        /* \"#utility.yul\":24615:24629   */\n      gt\n        /* \"#utility.yul\":24643:24644   */\n      0x01\n        /* \"#utility.yul\":24638:25256   */\n      dup2\n      eq\n      tag_485\n      jumpi\n        /* \"#utility.yul\":25300:25301   */\n      0x00\n        /* \"#utility.yul\":25317:25323   */\n      dup5\n        /* \"#utility.yul\":25314:25391   */\n      iszero\n      tag_486\n      jumpi\n        /* \"#utility.yul\":25366:25375   */\n      dup3\n        /* \"#utility.yul\":25361:25364   */\n      dup8\n        /* \"#utility.yul\":25357:25376   */\n      add\n        /* \"#utility.yul\":25351:25377   */\n      mload\n        /* \"#utility.yul\":25342:25377   */\n      swap1\n      pop\n        /* \"#utility.yul\":25314:25391   */\n    tag_486:\n        /* \"#utility.yul\":25417:25484   */\n      tag_487\n        /* \"#utility.yul\":25477:25483   */\n      dup6\n        /* \"#utility.yul\":25470:25475   */\n      dup3\n        /* \"#utility.yul\":25417:25484   */\n      tag_239\n      jump\t// in\n    tag_487:\n        /* \"#utility.yul\":25411:25415   */\n      dup7\n        /* \"#utility.yul\":25404:25485   */\n      sstore\n        /* \"#utility.yul\":25273:25495   */\n      pop\n        /* \"#utility.yul\":24608:25495   */\n      jump(tag_484)\n        /* \"#utility.yul\":24638:25256   */\n    tag_485:\n        /* \"#utility.yul\":24690:24694   */\n      0x1f\n        /* \"#utility.yul\":24686:24695   */\n      not\n        /* \"#utility.yul\":24678:24684   */\n      dup5\n        /* \"#utility.yul\":24674:24696   */\n      and\n        /* \"#utility.yul\":24724:24761   */\n      tag_488\n        /* \"#utility.yul\":24756:24760   */\n      dup7\n        /* \"#utility.yul\":24724:24761   */\n      tag_226\n      jump\t// in\n    tag_488:\n        /* \"#utility.yul\":24783:24784   */\n      0x00\n        /* \"#utility.yul\":24797:25005   */\n    tag_489:\n        /* \"#utility.yul\":24811:24818   */\n      dup3\n        /* \"#utility.yul\":24808:24809   */\n      dup2\n        /* \"#utility.yul\":24805:24819   */\n      lt\n        /* \"#utility.yul\":24797:25005   */\n      iszero\n      tag_491\n      jumpi\n        /* \"#utility.yul\":24890:24899   */\n      dup5\n        /* \"#utility.yul\":24885:24888   */\n      dup10\n        /* \"#utility.yul\":24881:24900   */\n      add\n        /* \"#utility.yul\":24875:24901   */\n      mload\n        /* \"#utility.yul\":24867:24873   */\n      dup3\n        /* \"#utility.yul\":24860:24902   */\n      sstore\n        /* \"#utility.yul\":24941:24942   */\n      0x01\n        /* \"#utility.yul\":24933:24939   */\n      dup3\n        /* \"#utility.yul\":24929:24943   */\n      add\n        /* \"#utility.yul\":24919:24943   */\n      swap2\n      pop\n        /* \"#utility.yul\":24988:24990   */\n      0x20\n        /* \"#utility.yul\":24977:24986   */\n      dup6\n        /* \"#utility.yul\":24973:24991   */\n      add\n        /* \"#utility.yul\":24960:24991   */\n      swap5\n      pop\n        /* \"#utility.yul\":24834:24838   */\n      0x20\n        /* \"#utility.yul\":24831:24832   */\n      dup2\n        /* \"#utility.yul\":24827:24839   */\n      add\n        /* \"#utility.yul\":24822:24839   */\n      swap1\n      pop\n        /* \"#utility.yul\":24797:25005   */\n      jump(tag_489)\n    tag_491:\n        /* \"#utility.yul\":25033:25039   */\n      dup7\n        /* \"#utility.yul\":25024:25031   */\n      dup4\n        /* \"#utility.yul\":25021:25040   */\n      lt\n        /* \"#utility.yul\":25018:25197   */\n      iszero\n      tag_492\n      jumpi\n        /* \"#utility.yul\":25091:25100   */\n      dup5\n        /* \"#utility.yul\":25086:25089   */\n      dup10\n        /* \"#utility.yul\":25082:25101   */\n      add\n        /* \"#utility.yul\":25076:25102   */\n      mload\n        /* \"#utility.yul\":25134:25182   */\n      tag_493\n        /* \"#utility.yul\":25176:25180   */\n      0x1f\n        /* \"#utility.yul\":25168:25174   */\n      dup10\n        /* \"#utility.yul\":25164:25181   */\n      and\n        /* \"#utility.yul\":25153:25162   */\n      dup3\n        /* \"#utility.yul\":25134:25182   */\n      tag_238\n      jump\t// in\n    tag_493:\n        /* \"#utility.yul\":25126:25132   */\n      dup4\n        /* \"#utility.yul\":25119:25183   */\n      sstore\n        /* \"#utility.yul\":25041:25197   */\n      pop\n        /* \"#utility.yul\":25018:25197   */\n    tag_492:\n        /* \"#utility.yul\":25243:25244   */\n      0x01\n        /* \"#utility.yul\":25239:25240   */\n      0x02\n        /* \"#utility.yul\":25231:25237   */\n      dup9\n        /* \"#utility.yul\":25227:25241   */\n      mul\n        /* \"#utility.yul\":25223:25245   */\n      add\n        /* \"#utility.yul\":25217:25221   */\n      dup9\n        /* \"#utility.yul\":25210:25246   */\n      sstore\n        /* \"#utility.yul\":24645:25256   */\n      pop\n      pop\n      pop\n        /* \"#utility.yul\":24608:25495   */\n    tag_484:\n      pop\n        /* \"#utility.yul\":24198:25501   */\n      pop\n      pop\n      pop\n        /* \"#utility.yul\":24106:25501   */\n      pop\n      pop\n      jump\t// out\n        /* \"#utility.yul\":25507:25592   */\n    tag_240:\n        /* \"#utility.yul\":25552:25559   */\n      0x00\n        /* \"#utility.yul\":25581:25586   */\n      dup2\n        /* \"#utility.yul\":25570:25586   */\n      swap1\n      pop\n        /* \"#utility.yul\":25507:25592   */\n      swap2\n      swap1\n      pop\n      jump\t// out\n        /* \"#utility.yul\":25598:25756   */\n    tag_241:\n        /* \"#utility.yul\":25656:25665   */\n      0x00\n        /* \"#utility.yul\":25689:25750   */\n      tag_496\n        /* \"#utility.yul\":25707:25749   */\n      tag_497\n        /* \"#utility.yul\":25716:25748   */\n      tag_498\n        /* \"#utility.yul\":25742:25747   */\n      dup5\n        /* \"#utility.yul\":25716:25748   */\n      tag_240\n      jump\t// in\n    tag_498:\n        /* \"#utility.yul\":25707:25749   */\n      tag_170\n      jump\t// in\n    tag_497:\n        /* \"#utility.yul\":25689:25750   */\n      tag_180\n      jump\t// in\n    tag_496:\n        /* \"#utility.yul\":25676:25750   */\n      swap1\n      pop\n        /* \"#utility.yul\":25598:25756   */\n      swap2\n      swap1\n      pop\n      jump\t// out\n        /* \"#utility.yul\":25762:25909   */\n    tag_242:\n        /* \"#utility.yul\":25857:25902   */\n      tag_500\n        /* \"#utility.yul\":25896:25901   */\n      dup2\n        /* \"#utility.yul\":25857:25902   */\n      tag_241\n      jump\t// in\n    tag_500:\n        /* \"#utility.yul\":25852:25855   */\n      dup3\n        /* \"#utility.yul\":25845:25903   */\n      mstore\n        /* \"#utility.yul\":25762:25909   */\n      pop\n      pop\n      jump\t// out\n        /* \"#utility.yul\":25915:26706   */\n    tag_114:\n        /* \"#utility.yul\":26156:26160   */\n      0x00\n        /* \"#utility.yul\":26194:26197   */\n      0xc0\n        /* \"#utility.yul\":26183:26192   */\n      dup3\n        /* \"#utility.yul\":26179:26198   */\n      add\n        /* \"#utility.yul\":26171:26198   */\n      swap1\n      pop\n        /* \"#utility.yul\":26208:26279   */\n      tag_502\n        /* \"#utility.yul\":26276:26277   */\n      0x00\n        /* \"#utility.yul\":26265:26274   */\n      dup4\n        /* \"#utility.yul\":26261:26278   */\n      add\n        /* \"#utility.yul\":26252:26258   */\n      dup10\n        /* \"#utility.yul\":26208:26279   */\n      tag_208\n      jump\t// in\n    tag_502:\n        /* \"#utility.yul\":26289:26361   */\n      tag_503\n        /* \"#utility.yul\":26357:26359   */\n      0x20\n        /* \"#utility.yul\":26346:26355   */\n      dup4\n        /* \"#utility.yul\":26342:26360   */\n      add\n        /* \"#utility.yul\":26333:26339   */\n      dup9\n        /* \"#utility.yul\":26289:26361   */\n      tag_208\n      jump\t// in\n    tag_503:\n        /* \"#utility.yul\":26371:26443   */\n      tag_504\n        /* \"#utility.yul\":26439:26441   */\n      0x40\n        /* \"#utility.yul\":26428:26437   */\n      dup4\n        /* \"#utility.yul\":26424:26442   */\n      add\n        /* \"#utility.yul\":26415:26421   */\n      dup8\n        /* \"#utility.yul\":26371:26443   */\n      tag_204\n      jump\t// in\n    tag_504:\n        /* \"#utility.yul\":26453:26533   */\n      tag_505\n        /* \"#utility.yul\":26529:26531   */\n      0x60\n        /* \"#utility.yul\":26518:26527   */\n      dup4\n        /* \"#utility.yul\":26514:26532   */\n      add\n        /* \"#utility.yul\":26505:26511   */\n      dup7\n        /* \"#utility.yul\":26453:26533   */\n      tag_242\n      jump\t// in\n    tag_505:\n        /* \"#utility.yul\":26543:26616   */\n      tag_506\n        /* \"#utility.yul\":26611:26614   */\n      0x80\n        /* \"#utility.yul\":26600:26609   */\n      dup4\n        /* \"#utility.yul\":26596:26615   */\n      add\n        /* \"#utility.yul\":26587:26593   */\n      dup6\n        /* \"#utility.yul\":26543:26616   */\n      tag_204\n      jump\t// in\n    tag_506:\n        /* \"#utility.yul\":26626:26699   */\n      tag_507\n        /* \"#utility.yul\":26694:26697   */\n      0xa0\n        /* \"#utility.yul\":26683:26692   */\n      dup4\n        /* \"#utility.yul\":26679:26698   */\n      add\n        /* \"#utility.yul\":26670:26676   */\n      dup5\n        /* \"#utility.yul\":26626:26699   */\n      tag_204\n      jump\t// in\n    tag_507:\n        /* \"#utility.yul\":25915:26706   */\n      swap8\n      swap7\n      pop\n      pop\n      pop\n      pop\n      pop\n      pop\n      pop\n      jump\t// out\n        /* \"#utility.yul\":26712:26892   */\n    tag_243:\n        /* \"#utility.yul\":26760:26837   */\n      0x4e487b7100000000000000000000000000000000000000000000000000000000\n        /* \"#utility.yul\":26757:26758   */\n      0x00\n        /* \"#utility.yul\":26750:26838   */\n      mstore\n        /* \"#utility.yul\":26857:26861   */\n      0x11\n        /* \"#utility.yul\":26854:26855   */\n      0x04\n        /* \"#utility.yul\":26847:26862   */\n      mstore\n        /* \"#utility.yul\":26881:26885   */\n      0x24\n        /* \"#utility.yul\":26878:26879   */\n      0x00\n        /* \"#utility.yul\":26871:26886   */\n      revert\n        /* \"#utility.yul\":26898:27131   */\n    tag_116:\n        /* \"#utility.yul\":26937:26940   */\n      0x00\n        /* \"#utility.yul\":26960:26984   */\n      tag_510\n        /* \"#utility.yul\":26978:26983   */\n      dup3\n        /* \"#utility.yul\":26960:26984   */\n      tag_180\n      jump\t// in\n    tag_510:\n        /* \"#utility.yul\":26951:26984   */\n      swap2\n      pop\n        /* \"#utility.yul\":27006:27072   */\n      0xffffffffffffffffffffffffffffffffffffffffffffffffffffffffffffffff\n        /* \"#utility.yul\":26999:27004   */\n      dup3\n        /* \"#utility.yul\":26996:27073   */\n      sub\n        /* \"#utility.yul\":26993:27096   */\n      tag_511\n      jumpi\n        /* \"#utility.yul\":27076:27094   */\n      tag_512\n      tag_243\n      jump\t// in\n    tag_512:\n        /* \"#utility.yul\":26993:27096   */\n    tag_511:\n        /* \"#utility.yul\":27123:27124   */\n      0x01\n        /* \"#utility.yul\":27116:27121   */\n      dup3\n        /* \"#utility.yul\":27112:27125   */\n      add\n        /* \"#utility.yul\":27105:27125   */\n      swap1\n      pop\n        /* \"#utility.yul\":26898:27131   */\n      swap2\n      swap1\n      pop\n      jump\t// out\n        /* \"#utility.yul\":27137:27362   */\n    tag_244:\n        /* \"#utility.yul\":27277:27311   */\n      0x4f776e61626c653a206e6577206f776e657220697320746865207a65726f2061\n        /* \"#utility.yul\":27273:27274   */\n      0x00\n        /* \"#utility.yul\":27265:27271   */\n      dup3\n        /* \"#utility.yul\":27261:27275   */\n      add\n        /* \"#utility.yul\":27254:27312   */\n      mstore\n        /* \"#utility.yul\":27346:27354   */\n      0x6464726573730000000000000000000000000000000000000000000000000000\n        /* \"#utility.yul\":27341:27343   */\n      0x20\n        /* \"#utility.yul\":27333:27339   */\n      dup3\n        /* \"#utility.yul\":27329:27344   */\n      add\n        /* \"#utility.yul\":27322:27355   */\n      mstore\n        /* \"#utility.yul\":27137:27362   */\n      pop\n      jump\t// out\n        /* \"#utility.yul\":27368:27734   */\n    tag_245:\n        /* \"#utility.yul\":27510:27513   */\n      0x00\n        /* \"#utility.yul\":27531:27598   */\n      tag_515\n        /* \"#utility.yul\":27595:27597   */\n      0x26\n        /* \"#utility.yul\":27590:27593   */\n      dup4\n        /* \"#utility.yul\":27531:27598   */\n      tag_206\n      jump\t// in\n    tag_515:\n        /* \"#utility.yul\":27524:27598   */\n      swap2\n      pop\n        /* \"#utility.yul\":27607:27700   */\n      tag_516\n        /* \"#utility.yul\":27696:27699   */\n      dup3\n        /* \"#utility.yul\":27607:27700   */\n      tag_244\n      jump\t// in\n    tag_516:\n        /* \"#utility.yul\":27725:27727   */\n      0x40\n        /* \"#utility.yul\":27720:27723   */\n      dup3\n        /* \"#utility.yul\":27716:27728   */\n      add\n        /* \"#utility.yul\":27709:27728   */\n      swap1\n      pop\n        /* \"#utility.yul\":27368:27734   */\n      swap2\n      swap1\n      pop\n      jump\t// out\n        /* \"#utility.yul\":27740:28159   */\n    tag_144:\n        /* \"#utility.yul\":27906:27910   */\n      0x00\n        /* \"#utility.yul\":27944:27946   */\n      0x20\n        /* \"#utility.yul\":27933:27942   */\n      dup3\n        /* \"#utility.yul\":27929:27947   */\n      add\n        /* \"#utility.yul\":27921:27947   */\n      swap1\n      pop\n        /* \"#utility.yul\":27993:28002   */\n      dup2\n        /* \"#utility.yul\":27987:27991   */\n      dup2\n        /* \"#utility.yul\":27983:28003   */\n      sub\n        /* \"#utility.yul\":27979:27980   */\n      0x00\n        /* \"#utility.yul\":27968:27977   */\n      dup4\n        /* \"#utility.yul\":27964:27981   */\n      add\n        /* \"#utility.yul\":27957:28004   */\n      mstore\n        /* \"#utility.yul\":28021:28152   */\n      tag_518\n        /* \"#utility.yul\":28147:28151   */\n      dup2\n        /* \"#utility.yul\":28021:28152   */\n      tag_245\n      jump\t// in\n    tag_518:\n        /* \"#utility.yul\":28013:28152   */\n      swap1\n      pop\n        /* \"#utility.yul\":27740:28159   */\n      swap2\n      swap1\n      pop\n      jump\t// out\n    stop\n\n    sub_0: assembly {\n            /* \"Event trigger supply chain.sol\":258:1041  contract Item{... */\n          mstore(0x40, 0x80)\n            /* \"Event trigger supply chain.sol\":384:574  constructor(InvoiceManager _parentContract, uint _itempriceinwei, uint _index){... */\n          callvalue\n          dup1\n          iszero\n          tag_1\n          jumpi\n          0x00\n          dup1\n          revert\n        tag_1:\n          pop\n          mload(0x40)\n          sub(codesize, bytecodeSize)\n          dup1\n          bytecodeSize\n          dup4\n          codecopy\n          dup2\n          dup2\n          add\n          0x40\n          mstore\n          dup2\n          add\n          swap1\n          tag_2\n          swap2\n          swap1\n          tag_3\n          jump\t// in\n        tag_2:\n            /* \"Event trigger supply chain.sol\":486:501  _itempriceinwei */\n          dup2\n            /* \"Event trigger supply chain.sol\":473:483  priceinwei */\n          0x00\n            /* \"Event trigger supply chain.sol\":473:501  priceinwei = _itempriceinwei */\n          dup2\n          swap1\n          sstore\n          pop\n            /* \"Event trigger supply chain.sol\":518:524  _index */\n          dup1\n            /* \"Event trigger supply chain.sol\":512:517  index */\n          0x02\n            /* \"Event trigger supply chain.sol\":512:524  index=_index */\n          dup2\n          swap1\n          sstore\n          pop\n            /* \"Event trigger supply chain.sol\":551:566  _parentContract */\n          dup3\n            /* \"Event trigger supply chain.sol\":535:549  parentContract */\n          0x03\n          0x00\n            /* \"Event trigger supply chain.sol\":535:566  parentContract =_parentContract */\n          0x0100\n          exp\n          dup2\n          sload\n          dup2\n          0xffffffffffffffffffffffffffffffffffffffff\n          mul\n          not\n          and\n          swap1\n          dup4\n          0xffffffffffffffffffffffffffffffffffffffff\n          and\n          mul\n          or\n          swap1\n          sstore\n          pop\n            /* \"Event trigger supply chain.sol\":384:574  constructor(InvoiceManager _parentContract, uint _itempriceinwei, uint _index){... */\n          pop\n          pop\n          pop\n            /* \"Event trigger supply chain.sol\":258:1041  contract Item{... */\n          jump(tag_6)\n            /* \"#utility.yul\":88:205   */\n        tag_8:\n            /* \"#utility.yul\":197:198   */\n          0x00\n            /* \"#utility.yul\":194:195   */\n          dup1\n            /* \"#utility.yul\":187:199   */\n          revert\n            /* \"#utility.yul\":334:460   */\n        tag_10:\n            /* \"#utility.yul\":371:378   */\n          0x00\n            /* \"#utility.yul\":411:453   */\n          0xffffffffffffffffffffffffffffffffffffffff\n            /* \"#utility.yul\":404:409   */\n          dup3\n            /* \"#utility.yul\":400:454   */\n          and\n            /* \"#utility.yul\":389:454   */\n          swap1\n          pop\n            /* \"#utility.yul\":334:460   */\n          swap2\n          swap1\n          pop\n          jump\t// out\n            /* \"#utility.yul\":466:562   */\n        tag_11:\n            /* \"#utility.yul\":503:510   */\n          0x00\n            /* \"#utility.yul\":532:556   */\n          tag_24\n            /* \"#utility.yul\":550:555   */\n          dup3\n            /* \"#utility.yul\":532:556   */\n          tag_10\n          jump\t// in\n        tag_24:\n            /* \"#utility.yul\":521:556   */\n          swap1\n          pop\n            /* \"#utility.yul\":466:562   */\n          swap2\n          swap1\n          pop\n          jump\t// out\n            /* \"#utility.yul\":568:686   */\n        tag_12:\n            /* \"#utility.yul\":627:634   */\n          0x00\n            /* \"#utility.yul\":656:680   */\n          tag_26\n            /* \"#utility.yul\":674:679   */\n          dup3\n            /* \"#utility.yul\":656:680   */\n          tag_11\n          jump\t// in\n        tag_26:\n            /* \"#utility.yul\":645:680   */\n          swap1\n          pop\n            /* \"#utility.yul\":568:686   */\n          swap2\n          swap1\n          pop\n          jump\t// out\n            /* \"#utility.yul\":692:858   */\n        tag_13:\n            /* \"#utility.yul\":787:833   */\n          tag_28\n            /* \"#utility.yul\":827:832   */\n          dup2\n            /* \"#utility.yul\":787:833   */\n          tag_12\n          jump\t// in\n        tag_28:\n            /* \"#utility.yul\":780:785   */\n          dup2\n            /* \"#utility.yul\":777:834   */\n          eq\n            /* \"#utility.yul\":767:852   */\n          tag_29\n          jumpi\n            /* \"#utility.yul\":848:849   */\n          0x00\n            /* \"#utility.yul\":845:846   */\n          dup1\n            /* \"#utility.yul\":838:850   */\n          revert\n            /* \"#utility.yul\":767:852   */\n        tag_29:\n            /* \"#utility.yul\":692:858   */\n          pop\n          jump\t// out\n            /* \"#utility.yul\":864:1051   */\n        tag_14:\n            /* \"#utility.yul\":943:948   */\n          0x00\n            /* \"#utility.yul\":974:980   */\n          dup2\n            /* \"#utility.yul\":968:981   */\n          mload\n            /* \"#utility.yul\":959:981   */\n          swap1\n          pop\n            /* \"#utility.yul\":990:1045   */\n          tag_31\n            /* \"#utility.yul\":1039:1044   */\n          dup2\n            /* \"#utility.yul\":990:1045   */\n          tag_13\n          jump\t// in\n        tag_31:\n            /* \"#utility.yul\":864:1051   */\n          swap3\n          swap2\n          pop\n          pop\n          jump\t// out\n            /* \"#utility.yul\":1057:1134   */\n        tag_15:\n            /* \"#utility.yul\":1094:1101   */\n          0x00\n            /* \"#utility.yul\":1123:1128   */\n          dup2\n            /* \"#utility.yul\":1112:1128   */\n          swap1\n          pop\n            /* \"#utility.yul\":1057:1134   */\n          swap2\n          swap1\n          pop\n          jump\t// out\n            /* \"#utility.yul\":1140:1262   */\n        tag_16:\n            /* \"#utility.yul\":1213:1237   */\n          tag_34\n            /* \"#utility.yul\":1231:1236   */\n          dup2\n            /* \"#utility.yul\":1213:1237   */\n          tag_15\n          jump\t// in\n        tag_34:\n            /* \"#utility.yul\":1206:1211   */\n          dup2\n            /* \"#utility.yul\":1203:1238   */\n          eq\n            /* \"#utility.yul\":1193:1256   */\n          tag_35\n          jumpi\n            /* \"#utility.yul\":1252:1253   */\n          0x00\n            /* \"#utility.yul\":1249:1250   */\n          dup1\n            /* \"#utility.yul\":1242:1254   */\n          revert\n            /* \"#utility.yul\":1193:1256   */\n        tag_35:\n            /* \"#utility.yul\":1140:1262   */\n          pop\n          jump\t// out\n            /* \"#utility.yul\":1268:1411   */\n        tag_17:\n            /* \"#utility.yul\":1325:1330   */\n          0x00\n            /* \"#utility.yul\":1356:1362   */\n          dup2\n            /* \"#utility.yul\":1350:1363   */\n          mload\n            /* \"#utility.yul\":1341:1363   */\n          swap1\n          pop\n            /* \"#utility.yul\":1372:1405   */\n          tag_37\n            /* \"#utility.yul\":1399:1404   */\n          dup2\n            /* \"#utility.yul\":1372:1405   */\n          tag_16\n          jump\t// in\n        tag_37:\n            /* \"#utility.yul\":1268:1411   */\n          swap3\n          swap2\n          pop\n          pop\n          jump\t// out\n            /* \"#utility.yul\":1417:2124   */\n        tag_3:\n            /* \"#utility.yul\":1527:1533   */\n          0x00\n            /* \"#utility.yul\":1535:1541   */\n          dup1\n            /* \"#utility.yul\":1543:1549   */\n          0x00\n            /* \"#utility.yul\":1592:1594   */\n          0x60\n            /* \"#utility.yul\":1580:1589   */\n          dup5\n            /* \"#utility.yul\":1571:1578   */\n          dup7\n            /* \"#utility.yul\":1567:1590   */\n          sub\n            /* \"#utility.yul\":1563:1595   */\n          slt\n            /* \"#utility.yul\":1560:1679   */\n          iszero\n          tag_39\n          jumpi\n            /* \"#utility.yul\":1598:1677   */\n          tag_40\n          tag_8\n          jump\t// in\n        tag_40:\n            /* \"#utility.yul\":1560:1679   */\n        tag_39:\n            /* \"#utility.yul\":1718:1719   */\n          0x00\n            /* \"#utility.yul\":1743:1829   */\n          tag_41\n            /* \"#utility.yul\":1821:1828   */\n          dup7\n            /* \"#utility.yul\":1812:1818   */\n          dup3\n            /* \"#utility.yul\":1801:1810   */\n          dup8\n            /* \"#utility.yul\":1797:1819   */\n          add\n            /* \"#utility.yul\":1743:1829   */\n          tag_14\n          jump\t// in\n        tag_41:\n            /* \"#utility.yul\":1733:1829   */\n          swap4\n          pop\n            /* \"#utility.yul\":1689:1839   */\n          pop\n            /* \"#utility.yul\":1878:1880   */\n          0x20\n            /* \"#utility.yul\":1904:1968   */\n          tag_42\n            /* \"#utility.yul\":1960:1967   */\n          dup7\n            /* \"#utility.yul\":1951:1957   */\n          dup3\n            /* \"#utility.yul\":1940:1949   */\n          dup8\n            /* \"#utility.yul\":1936:1958   */\n          add\n            /* \"#utility.yul\":1904:1968   */\n          tag_17\n          jump\t// in\n        tag_42:\n            /* \"#utility.yul\":1894:1968   */\n          swap3\n          pop\n            /* \"#utility.yul\":1849:1978   */\n          pop\n            /* \"#utility.yul\":2017:2019   */\n          0x40\n            /* \"#utility.yul\":2043:2107   */\n          tag_43\n            /* \"#utility.yul\":2099:2106   */\n          dup7\n            /* \"#utility.yul\":2090:2096   */\n          dup3\n            /* \"#utility.yul\":2079:2088   */\n          dup8\n            /* \"#utility.yul\":2075:2097   */\n          add\n            /* \"#utility.yul\":2043:2107   */\n          tag_17\n          jump\t// in\n        tag_43:\n            /* \"#utility.yul\":2033:2107   */\n          swap2\n          pop\n            /* \"#utility.yul\":1988:2117   */\n          pop\n            /* \"#utility.yul\":1417:2124   */\n          swap3\n          pop\n          swap3\n          pop\n          swap3\n          jump\t// out\n            /* \"Event trigger supply chain.sol\":258:1041  contract Item{... */\n        tag_6:\n          dataSize(sub_0)\n          dup1\n          dataOffset(sub_0)\n          0x00\n          codecopy\n          0x00\n          return\n        stop\n\n        sub_0: assembly {\n                /* \"Event trigger supply chain.sol\":258:1041  contract Item{... */\n              mstore(0x40, 0x80)\n              jumpi(tag_1, lt(calldatasize, 0x04))\n              shr(0xe0, calldataload(0x00))\n              dup1\n              0x2986c0e5\n              eq\n              tag_3\n              jumpi\n              dup1\n              0x7666c5a2\n              eq\n              tag_4\n              jumpi\n              jump(tag_2)\n            tag_1:\n              jumpi(tag_2, calldatasize)\n                /* \"Event trigger supply chain.sol\":638:639  0 */\n              0x00\n                /* \"Event trigger supply chain.sol\":625:634  pricepaid */\n              sload(0x01)\n                /* \"Event trigger supply chain.sol\":625:639  pricepaid == 0 */\n              eq\n                /* \"Event trigger supply chain.sol\":617:664  require(pricepaid == 0, \"item is paid already\") */\n              tag_7\n              jumpi\n              mload(0x40)\n              0x08c379a000000000000000000000000000000000000000000000000000000000\n              dup2\n              mstore\n              0x04\n              add\n              tag_8\n              swap1\n              tag_9\n              jump\t// in\n            tag_8:\n              mload(0x40)\n              dup1\n              swap2\n              sub\n              swap1\n              revert\n            tag_7:\n                /* \"Event trigger supply chain.sol\":697:706  msg.value */\n              callvalue\n                /* \"Event trigger supply chain.sol\":683:693  priceinwei */\n              sload(0x00)\n                /* \"Event trigger supply chain.sol\":683:706  priceinwei == msg.value */\n              eq\n                /* \"Event trigger supply chain.sol\":675:737  require(priceinwei == msg.value, \"Only full payments allowed\") */\n              tag_10\n              jumpi\n              mload(0x40)\n              0x08c379a000000000000000000000000000000000000000000000000000000000\n              dup2\n              mstore\n              0x04\n              add\n              tag_11\n              swap1\n              tag_12\n              jump\t// in\n            tag_11:\n              mload(0x40)\n              dup1\n              swap2\n              sub\n              swap1\n              revert\n            tag_10:\n                /* \"Event trigger supply chain.sol\":761:771  priceinwei */\n              sload(0x00)\n                /* \"Event trigger supply chain.sol\":749:758  pricepaid */\n              0x01\n              0x00\n                /* \"Event trigger supply chain.sol\":749:771  pricepaid +=priceinwei */\n              dup3\n              dup3\n              sload\n              tag_13\n              swap2\n              swap1\n              tag_14\n              jump\t// in\n            tag_13:\n              swap3\n              pop\n              pop\n              dup2\n              swap1\n              sstore\n              pop\n                /* \"Event trigger supply chain.sol\":790:802  bool success */\n              0x00\n                /* \"Event trigger supply chain.sol\":824:838  parentContract */\n              0x03\n              0x00\n              swap1\n              sload\n              swap1\n              0x0100\n              exp\n              swap1\n              div\n              0xffffffffffffffffffffffffffffffffffffffff\n              and\n                /* \"Event trigger supply chain.sol\":808:845  payable(address(parentContract)).call */\n              0xffffffffffffffffffffffffffffffffffffffff\n              and\n                /* \"Event trigger supply chain.sol\":852:861  msg.value */\n              callvalue\n                /* \"Event trigger supply chain.sol\":913:918  index */\n              sload(0x02)\n                /* \"Event trigger supply chain.sol\":863:919  abi.encodeWithSignature(\"triggerPayment(uint256)\",index) */\n              add(0x24, mload(0x40))\n              tag_15\n              swap2\n              swap1\n              tag_16\n              jump\t// in\n            tag_15:\n              mload(0x40)\n              0x20\n              dup2\n              dup4\n              sub\n              sub\n              dup2\n              mstore\n              swap1\n              0x40\n              mstore\n              and(not(0xffffffffffffffffffffffffffffffffffffffffffffffffffffffff), 0x800fb83f00000000000000000000000000000000000000000000000000000000)\n              0x20\n              dup3\n              add\n              dup1\n              mload\n              0xffffffffffffffffffffffffffffffffffffffffffffffffffffffff\n              dup4\n              dup2\n              dup4\n              and\n              or\n              dup4\n              mstore\n              pop\n              pop\n              pop\n              pop\n                /* \"Event trigger supply chain.sol\":808:920  payable(address(parentContract)).call{value:msg.value}(abi.encodeWithSignature(\"triggerPayment(uint256)\",index)) */\n              mload(0x40)\n              tag_17\n              swap2\n              swap1\n              tag_18\n              jump\t// in\n            tag_17:\n              0x00\n              mload(0x40)\n              dup1\n              dup4\n              sub\n              dup2\n              dup6\n              dup8\n              gas\n              call\n              swap3\n              pop\n              pop\n              pop\n              returndatasize\n              dup1\n              0x00\n              dup2\n              eq\n              tag_21\n              jumpi\n              mload(0x40)\n              swap2\n              pop\n              and(add(returndatasize, 0x3f), not(0x1f))\n              dup3\n              add\n              0x40\n              mstore\n              returndatasize\n              dup3\n              mstore\n              returndatasize\n              0x00\n              0x20\n              dup5\n              add\n              returndatacopy\n              jump(tag_20)\n            tag_21:\n              0x60\n              swap2\n              pop\n            tag_20:\n              pop\n                /* \"Event trigger supply chain.sol\":789:920  (bool success, ) = payable(address(parentContract)).call{value:msg.value}(abi.encodeWithSignature(\"triggerPayment(uint256)\",index)) */\n              pop\n              swap1\n              pop\n                /* \"Event trigger supply chain.sol\":939:946  success */\n              dup1\n                /* \"Event trigger supply chain.sol\":931:995  require(success, \"The Transaction wasn't successful, canceling\") */\n              tag_22\n              jumpi\n              mload(0x40)\n              0x08c379a000000000000000000000000000000000000000000000000000000000\n              dup2\n              mstore\n              0x04\n              add\n              tag_23\n              swap1\n              tag_24\n              jump\t// in\n            tag_23:\n              mload(0x40)\n              dup1\n              swap2\n              sub\n              swap1\n              revert\n            tag_22:\n                /* \"Event trigger supply chain.sol\":606:1003  {... */\n              stop\n                /* \"Event trigger supply chain.sol\":258:1041  contract Item{... */\n            tag_2:\n              callvalue\n              dup1\n              iszero\n              tag_25\n              jumpi\n              0x00\n              dup1\n              revert\n            tag_25:\n              stop\n                /* \"Event trigger supply chain.sol\":324:341  uint public index */\n            tag_3:\n              callvalue\n              dup1\n              iszero\n              tag_28\n              jumpi\n              0x00\n              dup1\n              revert\n            tag_28:\n              pop\n              tag_29\n              tag_30\n              jump\t// in\n            tag_29:\n              mload(0x40)\n              tag_31\n              swap2\n              swap1\n              tag_16\n              jump\t// in\n            tag_31:\n              mload(0x40)\n              dup1\n              swap2\n              sub\n              swap1\n              return\n                /* \"Event trigger supply chain.sol\":296:317  uint public pricepaid */\n            tag_4:\n              callvalue\n              dup1\n              iszero\n              tag_32\n              jumpi\n              0x00\n              dup1\n              revert\n            tag_32:\n              pop\n              tag_33\n              tag_34\n              jump\t// in\n            tag_33:\n              mload(0x40)\n              tag_35\n              swap2\n              swap1\n              tag_16\n              jump\t// in\n            tag_35:\n              mload(0x40)\n              dup1\n              swap2\n              sub\n              swap1\n              return\n                /* \"Event trigger supply chain.sol\":324:341  uint public index */\n            tag_30:\n              sload(0x02)\n              dup2\n              jump\t// out\n                /* \"Event trigger supply chain.sol\":296:317  uint public pricepaid */\n            tag_34:\n              sload(0x01)\n              dup2\n              jump\t// out\n                /* \"#utility.yul\":7:176   */\n            tag_36:\n                /* \"#utility.yul\":91:102   */\n              0x00\n                /* \"#utility.yul\":125:131   */\n              dup3\n                /* \"#utility.yul\":120:123   */\n              dup3\n                /* \"#utility.yul\":113:132   */\n              mstore\n                /* \"#utility.yul\":165:169   */\n              0x20\n                /* \"#utility.yul\":160:163   */\n              dup3\n                /* \"#utility.yul\":156:170   */\n              add\n                /* \"#utility.yul\":141:170   */\n              swap1\n              pop\n                /* \"#utility.yul\":7:176   */\n              swap3\n              swap2\n              pop\n              pop\n              jump\t// out\n                /* \"#utility.yul\":182:352   */\n            tag_37:\n                /* \"#utility.yul\":322:344   */\n              0x6974656d206973207061696420616c7265616479000000000000000000000000\n                /* \"#utility.yul\":318:319   */\n              0x00\n                /* \"#utility.yul\":310:316   */\n              dup3\n                /* \"#utility.yul\":306:320   */\n              add\n                /* \"#utility.yul\":299:345   */\n              mstore\n                /* \"#utility.yul\":182:352   */\n              pop\n              jump\t// out\n                /* \"#utility.yul\":358:724   */\n            tag_38:\n                /* \"#utility.yul\":500:503   */\n              0x00\n                /* \"#utility.yul\":521:588   */\n              tag_54\n                /* \"#utility.yul\":585:587   */\n              0x14\n                /* \"#utility.yul\":580:583   */\n              dup4\n                /* \"#utility.yul\":521:588   */\n              tag_36\n              jump\t// in\n            tag_54:\n                /* \"#utility.yul\":514:588   */\n              swap2\n              pop\n                /* \"#utility.yul\":597:690   */\n              tag_55\n                /* \"#utility.yul\":686:689   */\n              dup3\n                /* \"#utility.yul\":597:690   */\n              tag_37\n              jump\t// in\n            tag_55:\n                /* \"#utility.yul\":715:717   */\n              0x20\n                /* \"#utility.yul\":710:713   */\n              dup3\n                /* \"#utility.yul\":706:718   */\n              add\n                /* \"#utility.yul\":699:718   */\n              swap1\n              pop\n                /* \"#utility.yul\":358:724   */\n              swap2\n              swap1\n              pop\n              jump\t// out\n                /* \"#utility.yul\":730:1149   */\n            tag_9:\n                /* \"#utility.yul\":896:900   */\n              0x00\n                /* \"#utility.yul\":934:936   */\n              0x20\n                /* \"#utility.yul\":923:932   */\n              dup3\n                /* \"#utility.yul\":919:937   */\n              add\n                /* \"#utility.yul\":911:937   */\n              swap1\n              pop\n                /* \"#utility.yul\":983:992   */\n              dup2\n                /* \"#utility.yul\":977:981   */\n              dup2\n                /* \"#utility.yul\":973:993   */\n              sub\n                /* \"#utility.yul\":969:970   */\n              0x00\n                /* \"#utility.yul\":958:967   */\n              dup4\n                /* \"#utility.yul\":954:971   */\n              add\n                /* \"#utility.yul\":947:994   */\n              mstore\n                /* \"#utility.yul\":1011:1142   */\n              tag_57\n                /* \"#utility.yul\":1137:1141   */\n              dup2\n                /* \"#utility.yul\":1011:1142   */\n              tag_38\n              jump\t// in\n            tag_57:\n                /* \"#utility.yul\":1003:1142   */\n              swap1\n              pop\n                /* \"#utility.yul\":730:1149   */\n              swap2\n              swap1\n              pop\n              jump\t// out\n                /* \"#utility.yul\":1155:1331   */\n            tag_39:\n                /* \"#utility.yul\":1295:1323   */\n              0x4f6e6c792066756c6c207061796d656e747320616c6c6f776564000000000000\n                /* \"#utility.yul\":1291:1292   */\n              0x00\n                /* \"#utility.yul\":1283:1289   */\n              dup3\n                /* \"#utility.yul\":1279:1293   */\n              add\n                /* \"#utility.yul\":1272:1324   */\n              mstore\n                /* \"#utility.yul\":1155:1331   */\n              pop\n              jump\t// out\n                /* \"#utility.yul\":1337:1703   */\n            tag_40:\n                /* \"#utility.yul\":1479:1482   */\n              0x00\n                /* \"#utility.yul\":1500:1567   */\n              tag_60\n                /* \"#utility.yul\":1564:1566   */\n              0x1a\n                /* \"#utility.yul\":1559:1562   */\n              dup4\n                /* \"#utility.yul\":1500:1567   */\n              tag_36\n              jump\t// in\n            tag_60:\n                /* \"#utility.yul\":1493:1567   */\n              swap2\n              pop\n                /* \"#utility.yul\":1576:1669   */\n              tag_61\n                /* \"#utility.yul\":1665:1668   */\n              dup3\n                /* \"#utility.yul\":1576:1669   */\n              tag_39\n              jump\t// in\n            tag_61:\n                /* \"#utility.yul\":1694:1696   */\n              0x20\n                /* \"#utility.yul\":1689:1692   */\n              dup3\n                /* \"#utility.yul\":1685:1697   */\n              add\n                /* \"#utility.yul\":1678:1697   */\n              swap1\n              pop\n                /* \"#utility.yul\":1337:1703   */\n              swap2\n              swap1\n              pop\n              jump\t// out\n                /* \"#utility.yul\":1709:2128   */\n            tag_12:\n                /* \"#utility.yul\":1875:1879   */\n              0x00\n                /* \"#utility.yul\":1913:1915   */\n              0x20\n                /* \"#utility.yul\":1902:1911   */\n              dup3\n                /* \"#utility.yul\":1898:1916   */\n              add\n                /* \"#utility.yul\":1890:1916   */\n              swap1\n              pop\n                /* \"#utility.yul\":1962:1971   */\n              dup2\n                /* \"#utility.yul\":1956:1960   */\n              dup2\n                /* \"#utility.yul\":1952:1972   */\n              sub\n                /* \"#utility.yul\":1948:1949   */\n              0x00\n                /* \"#utility.yul\":1937:1946   */\n              dup4\n                /* \"#utility.yul\":1933:1950   */\n              add\n                /* \"#utility.yul\":1926:1973   */\n              mstore\n                /* \"#utility.yul\":1990:2121   */\n              tag_63\n                /* \"#utility.yul\":2116:2120   */\n              dup2\n                /* \"#utility.yul\":1990:2121   */\n              tag_40\n              jump\t// in\n            tag_63:\n                /* \"#utility.yul\":1982:2121   */\n              swap1\n              pop\n                /* \"#utility.yul\":1709:2128   */\n              swap2\n              swap1\n              pop\n              jump\t// out\n                /* \"#utility.yul\":2134:2211   */\n            tag_41:\n                /* \"#utility.yul\":2171:2178   */\n              0x00\n                /* \"#utility.yul\":2200:2205   */\n              dup2\n                /* \"#utility.yul\":2189:2205   */\n              swap1\n              pop\n                /* \"#utility.yul\":2134:2211   */\n              swap2\n              swap1\n              pop\n              jump\t// out\n                /* \"#utility.yul\":2217:2397   */\n            tag_42:\n                /* \"#utility.yul\":2265:2342   */\n              0x4e487b7100000000000000000000000000000000000000000000000000000000\n                /* \"#utility.yul\":2262:2263   */\n              0x00\n                /* \"#utility.yul\":2255:2343   */\n              mstore\n                /* \"#utility.yul\":2362:2366   */\n              0x11\n                /* \"#utility.yul\":2359:2360   */\n              0x04\n                /* \"#utility.yul\":2352:2367   */\n              mstore\n                /* \"#utility.yul\":2386:2390   */\n              0x24\n                /* \"#utility.yul\":2383:2384   */\n              0x00\n                /* \"#utility.yul\":2376:2391   */\n              revert\n                /* \"#utility.yul\":2403:2594   */\n            tag_14:\n                /* \"#utility.yul\":2443:2446   */\n              0x00\n                /* \"#utility.yul\":2462:2482   */\n              tag_67\n                /* \"#utility.yul\":2480:2481   */\n              dup3\n                /* \"#utility.yul\":2462:2482   */\n              tag_41\n              jump\t// in\n            tag_67:\n                /* \"#utility.yul\":2457:2482   */\n              swap2\n              pop\n                /* \"#utility.yul\":2496:2516   */\n              tag_68\n                /* \"#utility.yul\":2514:2515   */\n              dup4\n                /* \"#utility.yul\":2496:2516   */\n              tag_41\n              jump\t// in\n            tag_68:\n                /* \"#utility.yul\":2491:2516   */\n              swap3\n              pop\n                /* \"#utility.yul\":2539:2540   */\n              dup3\n                /* \"#utility.yul\":2536:2537   */\n              dup3\n                /* \"#utility.yul\":2532:2541   */\n              add\n                /* \"#utility.yul\":2525:2541   */\n              swap1\n              pop\n                /* \"#utility.yul\":2560:2563   */\n              dup1\n                /* \"#utility.yul\":2557:2558   */\n              dup3\n                /* \"#utility.yul\":2554:2564   */\n              gt\n                /* \"#utility.yul\":2551:2587   */\n              iszero\n              tag_69\n              jumpi\n                /* \"#utility.yul\":2567:2585   */\n              tag_70\n              tag_42\n              jump\t// in\n            tag_70:\n                /* \"#utility.yul\":2551:2587   */\n            tag_69:\n                /* \"#utility.yul\":2403:2594   */\n              swap3\n              swap2\n              pop\n              pop\n              jump\t// out\n                /* \"#utility.yul\":2600:2718   */\n            tag_43:\n                /* \"#utility.yul\":2687:2711   */\n              tag_72\n                /* \"#utility.yul\":2705:2710   */\n              dup2\n                /* \"#utility.yul\":2687:2711   */\n              tag_41\n              jump\t// in\n            tag_72:\n                /* \"#utility.yul\":2682:2685   */\n              dup3\n                /* \"#utility.yul\":2675:2712   */\n              mstore\n                /* \"#utility.yul\":2600:2718   */\n              pop\n              pop\n              jump\t// out\n                /* \"#utility.yul\":2724:2946   */\n            tag_16:\n                /* \"#utility.yul\":2817:2821   */\n              0x00\n                /* \"#utility.yul\":2855:2857   */\n              0x20\n                /* \"#utility.yul\":2844:2853   */\n              dup3\n                /* \"#utility.yul\":2840:2858   */\n              add\n                /* \"#utility.yul\":2832:2858   */\n              swap1\n              pop\n                /* \"#utility.yul\":2868:2939   */\n              tag_74\n                /* \"#utility.yul\":2936:2937   */\n              0x00\n                /* \"#utility.yul\":2925:2934   */\n              dup4\n                /* \"#utility.yul\":2921:2938   */\n              add\n                /* \"#utility.yul\":2912:2918   */\n              dup5\n                /* \"#utility.yul\":2868:2939   */\n              tag_43\n              jump\t// in\n            tag_74:\n                /* \"#utility.yul\":2724:2946   */\n              swap3\n              swap2\n              pop\n              pop\n              jump\t// out\n                /* \"#utility.yul\":2952:3050   */\n            tag_44:\n                /* \"#utility.yul\":3003:3009   */\n              0x00\n                /* \"#utility.yul\":3037:3042   */\n              dup2\n                /* \"#utility.yul\":3031:3043   */\n              mload\n                /* \"#utility.yul\":3021:3043   */\n              swap1\n              pop\n                /* \"#utility.yul\":2952:3050   */\n              swap2\n              swap1\n              pop\n              jump\t// out\n                /* \"#utility.yul\":3056:3203   */\n            tag_45:\n                /* \"#utility.yul\":3157:3168   */\n              0x00\n                /* \"#utility.yul\":3194:3197   */\n              dup2\n                /* \"#utility.yul\":3179:3197   */\n              swap1\n              pop\n                /* \"#utility.yul\":3056:3203   */\n              swap3\n              swap2\n              pop\n              pop\n              jump\t// out\n                /* \"#utility.yul\":3209:3455   */\n            tag_46:\n                /* \"#utility.yul\":3290:3291   */\n              0x00\n                /* \"#utility.yul\":3300:3413   */\n            tag_78:\n                /* \"#utility.yul\":3314:3320   */\n              dup4\n                /* \"#utility.yul\":3311:3312   */\n              dup2\n                /* \"#utility.yul\":3308:3321   */\n              lt\n                /* \"#utility.yul\":3300:3413   */\n              iszero\n              tag_80\n              jumpi\n                /* \"#utility.yul\":3399:3400   */\n              dup1\n                /* \"#utility.yul\":3394:3397   */\n              dup3\n                /* \"#utility.yul\":3390:3401   */\n              add\n                /* \"#utility.yul\":3384:3402   */\n              mload\n                /* \"#utility.yul\":3380:3381   */\n              dup2\n                /* \"#utility.yul\":3375:3378   */\n              dup5\n                /* \"#utility.yul\":3371:3382   */\n              add\n                /* \"#utility.yul\":3364:3403   */\n              mstore\n                /* \"#utility.yul\":3336:3338   */\n              0x20\n                /* \"#utility.yul\":3333:3334   */\n              dup2\n                /* \"#utility.yul\":3329:3339   */\n              add\n                /* \"#utility.yul\":3324:3339   */\n              swap1\n              pop\n                /* \"#utility.yul\":3300:3413   */\n              jump(tag_78)\n            tag_80:\n                /* \"#utility.yul\":3447:3448   */\n              0x00\n                /* \"#utility.yul\":3438:3444   */\n              dup5\n                /* \"#utility.yul\":3433:3436   */\n              dup5\n                /* \"#utility.yul\":3429:3445   */\n              add\n                /* \"#utility.yul\":3422:3449   */\n              mstore\n                /* \"#utility.yul\":3271:3455   */\n              pop\n                /* \"#utility.yul\":3209:3455   */\n              pop\n              pop\n              pop\n              jump\t// out\n                /* \"#utility.yul\":3461:3847   */\n            tag_47:\n                /* \"#utility.yul\":3565:3568   */\n              0x00\n                /* \"#utility.yul\":3593:3631   */\n              tag_82\n                /* \"#utility.yul\":3625:3630   */\n              dup3\n                /* \"#utility.yul\":3593:3631   */\n              tag_44\n              jump\t// in\n            tag_82:\n                /* \"#utility.yul\":3647:3735   */\n              tag_83\n                /* \"#utility.yul\":3728:3734   */\n              dup2\n                /* \"#utility.yul\":3723:3726   */\n              dup6\n                /* \"#utility.yul\":3647:3735   */\n              tag_45\n              jump\t// in\n            tag_83:\n                /* \"#utility.yul\":3640:3735   */\n              swap4\n              pop\n                /* \"#utility.yul\":3744:3809   */\n              tag_84\n                /* \"#utility.yul\":3802:3808   */\n              dup2\n                /* \"#utility.yul\":3797:3800   */\n              dup6\n                /* \"#utility.yul\":3790:3794   */\n              0x20\n                /* \"#utility.yul\":3783:3788   */\n              dup7\n                /* \"#utility.yul\":3779:3795   */\n              add\n                /* \"#utility.yul\":3744:3809   */\n              tag_46\n              jump\t// in\n            tag_84:\n                /* \"#utility.yul\":3834:3840   */\n              dup1\n                /* \"#utility.yul\":3829:3832   */\n              dup5\n                /* \"#utility.yul\":3825:3841   */\n              add\n                /* \"#utility.yul\":3818:3841   */\n              swap2\n              pop\n                /* \"#utility.yul\":3569:3847   */\n              pop\n                /* \"#utility.yul\":3461:3847   */\n              swap3\n              swap2\n              pop\n              pop\n              jump\t// out\n                /* \"#utility.yul\":3853:4124   */\n            tag_18:\n                /* \"#utility.yul\":3983:3986   */\n              0x00\n                /* \"#utility.yul\":4005:4098   */\n              tag_86\n                /* \"#utility.yul\":4094:4097   */\n              dup3\n                /* \"#utility.yul\":4085:4091   */\n              dup5\n                /* \"#utility.yul\":4005:4098   */\n              tag_47\n              jump\t// in\n            tag_86:\n                /* \"#utility.yul\":3998:4098   */\n              swap2\n              pop\n                /* \"#utility.yul\":4115:4118   */\n              dup2\n                /* \"#utility.yul\":4108:4118   */\n              swap1\n              pop\n                /* \"#utility.yul\":3853:4124   */\n              swap3\n              swap2\n              pop\n              pop\n              jump\t// out\n                /* \"#utility.yul\":4130:4361   */\n            tag_48:\n                /* \"#utility.yul\":4270:4304   */\n              0x546865205472616e73616374696f6e207761736e277420737563636573736675\n                /* \"#utility.yul\":4266:4267   */\n              0x00\n                /* \"#utility.yul\":4258:4264   */\n              dup3\n                /* \"#utility.yul\":4254:4268   */\n              add\n                /* \"#utility.yul\":4247:4305   */\n              mstore\n                /* \"#utility.yul\":4339:4353   */\n              0x6c2c2063616e63656c696e670000000000000000000000000000000000000000\n                /* \"#utility.yul\":4334:4336   */\n              0x20\n                /* \"#utility.yul\":4326:4332   */\n              dup3\n                /* \"#utility.yul\":4322:4337   */\n              add\n                /* \"#utility.yul\":4315:4354   */\n              mstore\n                /* \"#utility.yul\":4130:4361   */\n              pop\n              jump\t// out\n                /* \"#utility.yul\":4367:4733   */\n            tag_49:\n                /* \"#utility.yul\":4509:4512   */\n              0x00\n                /* \"#utility.yul\":4530:4597   */\n              tag_89\n                /* \"#utility.yul\":4594:4596   */\n              0x2c\n                /* \"#utility.yul\":4589:4592   */\n              dup4\n                /* \"#utility.yul\":4530:4597   */\n              tag_36\n              jump\t// in\n            tag_89:\n                /* \"#utility.yul\":4523:4597   */\n              swap2\n              pop\n                /* \"#utility.yul\":4606:4699   */\n              tag_90\n                /* \"#utility.yul\":4695:4698   */\n              dup3\n                /* \"#utility.yul\":4606:4699   */\n              tag_48\n              jump\t// in\n            tag_90:\n                /* \"#utility.yul\":4724:4726   */\n              0x40\n                /* \"#utility.yul\":4719:4722   */\n              dup3\n                /* \"#utility.yul\":4715:4727   */\n              add\n                /* \"#utility.yul\":4708:4727   */\n              swap1\n              pop\n                /* \"#utility.yul\":4367:4733   */\n              swap2\n              swap1\n              pop\n              jump\t// out\n                /* \"#utility.yul\":4739:5158   */\n            tag_24:\n                /* \"#utility.yul\":4905:4909   */\n              0x00\n                /* \"#utility.yul\":4943:4945   */\n              0x20\n                /* \"#utility.yul\":4932:4941   */\n              dup3\n                /* \"#utility.yul\":4928:4946   */\n              add\n                /* \"#utility.yul\":4920:4946   */\n              swap1\n              pop\n                /* \"#utility.yul\":4992:5001   */\n              dup2\n                /* \"#utility.yul\":4986:4990   */\n              dup2\n                /* \"#utility.yul\":4982:5002   */\n              sub\n                /* \"#utility.yul\":4978:4979   */\n              0x00\n                /* \"#utility.yul\":4967:4976   */\n              dup4\n                /* \"#utility.yul\":4963:4980   */\n              add\n                /* \"#utility.yul\":4956:5003   */\n              mstore\n                /* \"#utility.yul\":5020:5151   */\n              tag_92\n                /* \"#utility.yul\":5146:5150   */\n              dup2\n                /* \"#utility.yul\":5020:5151   */\n              tag_49\n              jump\t// in\n            tag_92:\n                /* \"#utility.yul\":5012:5151   */\n              swap1\n              pop\n                /* \"#utility.yul\":4739:5158   */\n              swap2\n              swap1\n              pop\n              jump\t// out\n\n            auxdata: 0xa26469706673582212205b3012eae8d4d7812be27fd78d2d964380efb68b9a31f917b0dba4a621b3d02864736f6c63430008100033\n        }\n    }\n\n    auxdata: 0xa264697066735822122032e30f6b2f38c94b640c96cd055ade6d440f38285673b4ecc179fbd8bcbfc2cb64736f6c63430008100033\n}\n",
				"bytecode": {
					"linkReferences": {},
					"object": "60806040523480156200001157600080fd5b5062000032620000266200003860201b60201c565b6200004060201b60201c565b62000104565b600033905090565b60008060009054906101000a900473ffffffffffffffffffffffffffffffffffffffff169050816000806101000a81548173ffffffffffffffffffffffffffffffffffffffff021916908373ffffffffffffffffffffffffffffffffffffffff1602179055508173ffffffffffffffffffffffffffffffffffffffff168173ffffffffffffffffffffffffffffffffffffffff167f8be0079c531659141344cd1fd0a4f28419497f9722a3daafe3b4186f6b6457e060405160405180910390a35050565b612d4b80620001146000396000f3fe608060405260043610620000865760003560e01c80638da5cb5b11620000555780638da5cb5b1462000123578063985897421462000153578063a5f445b7146200019d578063f2fde38b14620001e15762000086565b806327435f62146200008b5780633ea3a44b14620000bb578063715018a614620000db5780638c55174214620000f5575b600080fd5b3480156200009857600080fd5b50620000a36200020f565b604051620000b2919062001a02565b60405180910390f35b620000d96004803603810190620000d3919062001a6b565b62000461565b005b348015620000e857600080fd5b50620000f362000987565b005b3480156200010257600080fd5b506200012160048036038101906200011b919062001bee565b62000a47565b005b3480156200013057600080fd5b506200013b62000c98565b6040516200014a919062001c65565b60405180910390f35b3480156200016057600080fd5b506200017f600480360381019062000179919062001a6b565b62000cc1565b60405162000194979695949392919062001d07565b60405180910390f35b348015620001aa57600080fd5b50620001c96004803603810190620001c3919062001dbc565b62000e00565b604051620001d8919062001a02565b60405180910390f35b348015620001ee57600080fd5b506200020d600480360381019062000207919062001dbc565b62001091565b005b60606003805480602002602001604051908101604052809291908181526020016000905b828210156200045857838290600052602060002090600702016040518060e00160405290816000820160009054906101000a900473ffffffffffffffffffffffffffffffffffffffff1673ffffffffffffffffffffffffffffffffffffffff1673ffffffffffffffffffffffffffffffffffffffff1681526020016001820160009054906101000a900473ffffffffffffffffffffffffffffffffffffffff1673ffffffffffffffffffffffffffffffffffffffff1673ffffffffffffffffffffffffffffffffffffffff1681526020016002820160009054906101000a900473ffffffffffffffffffffffffffffffffffffffff1673ffffffffffffffffffffffffffffffffffffffff1673ffffffffffffffffffffffffffffffffffffffff1681526020016003820180546200036b9062001e1d565b80601f0160208091040260200160405190810160405280929190818152602001828054620003999062001e1d565b8015620003ea5780601f10620003be57610100808354040283529160200191620003ea565b820191906000526020600020905b815481529060010190602001808311620003cc57829003601f168201915b50505050508152602001600482015481526020016005820160009054906101000a900460ff16600181111562000425576200042462001834565b5b60018111156200043a576200043962001834565b5b81526020016006820154815250508152602001906001019062000233565b50505050905090565b3460026000838152602001908152602001600020600401541115620004bd576040517f08c379a0000000000000000000000000000000000000000000000000000000008152600401620004b49062001ea2565b60405180910390fd5b60006001811115620004d457620004d362001834565b5b6002600083815260200190815260200160002060050160009054906101000a900460ff1660018111156200050d576200050c62001834565b5b1462000550576040517f08c379a0000000000000000000000000000000000000000000000000000000008152600401620005479062001f14565b60405180910390fd5b3373ffffffffffffffffffffffffffffffffffffffff166002600083815260200190815260200160002060010160009054906101000a900473ffffffffffffffffffffffffffffffffffffffff1673ffffffffffffffffffffffffffffffffffffffff1603620005f7576040517f08c379a0000000000000000000000000000000000000000000000000000000008152600401620005ee9062001fac565b60405180910390fd5b60016002600083815260200190815260200160002060050160006101000a81548160ff0219169083600181111562000634576200063362001834565b5b0217905550336002600083815260200190815260200160002060000160006101000a81548173ffffffffffffffffffffffffffffffffffffffff021916908373ffffffffffffffffffffffffffffffffffffffff160217905550426002600083815260200190815260200160002060060181905550620008516002600083815260200190815260200160002060010160009054906101000a900473ffffffffffffffffffffffffffffffffffffffff166002600084815260200190815260200160002060020160009054906101000a900473ffffffffffffffffffffffffffffffffffffffff166002600085815260200190815260200160002060030180546200073e9062001e1d565b80601f01602080910402602001604051908101604052809291908181526020018280546200076c9062001e1d565b8015620007bd5780601f106200079157610100808354040283529160200191620007bd565b820191906000526020600020905b8154815290600101906020018083116200079f57829003601f168201915b505050505060026000868152602001908152602001600020600401546002600087815260200190815260200160002060050160009054906101000a900460ff166002600088815260200190815260200160002060000160009054906101000a900473ffffffffffffffffffffffffffffffffffffffff16600260008981526020019081526020016000206006015462001194565b7fa3cc98fd99f30b099f998ac88cf0d8cf7c2a3ce87b8af5d8543e401a78e30410816002600084815260200190815260200160002060050160009054906101000a900460ff166001811115620008ac57620008ab62001834565b5b6002600085815260200190815260200160002060020160009054906101000a900473ffffffffffffffffffffffffffffffffffffffff1660026000868152602001908152602001600020600601546002600087815260200190815260200160002060000160009054906101000a900473ffffffffffffffffffffffffffffffffffffffff166002600088815260200190815260200160002060010160009054906101000a900473ffffffffffffffffffffffffffffffffffffffff166040516200097c9695949392919062001fce565b60405180910390a150565b6200099162001535565b73ffffffffffffffffffffffffffffffffffffffff16620009b162000c98565b73ffffffffffffffffffffffffffffffffffffffff161462000a0a576040517f08c379a000000000000000000000000000000000000000000000000000000000815260040162000a01906200208b565b60405180910390fd5b6040517f08c379a000000000000000000000000000000000000000000000000000000000815260040162000a3e90620020fd565b60405180910390fd5b6000308260045460405162000a5c9062001601565b62000a6a9392919062002158565b604051809103906000f08015801562000a87573d6000803e3d6000fd5b5090503360026000600454815260200190815260200160002060010160006101000a81548173ffffffffffffffffffffffffffffffffffffffff021916908373ffffffffffffffffffffffffffffffffffffffff1602179055508060026000600454815260200190815260200160002060020160006101000a81548173ffffffffffffffffffffffffffffffffffffffff021916908373ffffffffffffffffffffffffffffffffffffffff16021790555082600260006004548152602001908152602001600020600301908162000b5f91906200235d565b508160026000600454815260200190815260200160002060040181905550600060026000600454815260200190815260200160002060050160006101000a81548160ff0219169083600181111562000bbc5762000bbb62001834565b5b02179055507fa3cc98fd99f30b099f998ac88cf0d8cf7c2a3ce87b8af5d8543e401a78e3041060045460026000600454815260200190815260200160002060050160009054906101000a900460ff16600181111562000c205762000c1f62001834565b5b8360008060026000600454815260200190815260200160002060010160009054906101000a900473ffffffffffffffffffffffffffffffffffffffff1660405162000c719695949392919062002487565b60405180910390a16004600081548092919062000c8e9062002523565b9190505550505050565b60008060009054906101000a900473ffffffffffffffffffffffffffffffffffffffff16905090565b60026020528060005260406000206000915090508060000160009054906101000a900473ffffffffffffffffffffffffffffffffffffffff16908060010160009054906101000a900473ffffffffffffffffffffffffffffffffffffffff16908060020160009054906101000a900473ffffffffffffffffffffffffffffffffffffffff169080600301805462000d589062001e1d565b80601f016020809104026020016040519081016040528092919081815260200182805462000d869062001e1d565b801562000dd75780601f1062000dab5761010080835404028352916020019162000dd7565b820191906000526020600020905b81548152906001019060200180831162000db957829003601f168201915b5050505050908060040154908060050160009054906101000a900460ff16908060060154905087565b6060600160008373ffffffffffffffffffffffffffffffffffffffff1673ffffffffffffffffffffffffffffffffffffffff168152602001908152602001600020805480602002602001604051908101604052809291908181526020016000905b828210156200108657838290600052602060002090600702016040518060e00160405290816000820160009054906101000a900473ffffffffffffffffffffffffffffffffffffffff1673ffffffffffffffffffffffffffffffffffffffff1673ffffffffffffffffffffffffffffffffffffffff1681526020016001820160009054906101000a900473ffffffffffffffffffffffffffffffffffffffff1673ffffffffffffffffffffffffffffffffffffffff1673ffffffffffffffffffffffffffffffffffffffff1681526020016002820160009054906101000a900473ffffffffffffffffffffffffffffffffffffffff1673ffffffffffffffffffffffffffffffffffffffff1673ffffffffffffffffffffffffffffffffffffffff16815260200160038201805462000f999062001e1d565b80601f016020809104026020016040519081016040528092919081815260200182805462000fc79062001e1d565b8015620010185780601f1062000fec5761010080835404028352916020019162001018565b820191906000526020600020905b81548152906001019060200180831162000ffa57829003601f168201915b50505050508152602001600482015481526020016005820160009054906101000a900460ff16600181111562001053576200105262001834565b5b600181111562001068576200106762001834565b5b81526020016006820154815250508152602001906001019062000e61565b505050509050919050565b6200109b62001535565b73ffffffffffffffffffffffffffffffffffffffff16620010bb62000c98565b73ffffffffffffffffffffffffffffffffffffffff161462001114576040517f08c379a00000000000000000000000000000000000000000000000000000000081526004016200110b906200208b565b60405180910390fd5b600073ffffffffffffffffffffffffffffffffffffffff168173ffffffffffffffffffffffffffffffffffffffff160362001186576040517f08c379a00000000000000000000000000000000000000000000000000000000081526004016200117d90620025e6565b60405180910390fd5b62001191816200153d565b50565b6200119e6200160f565b6040518060e001604052808473ffffffffffffffffffffffffffffffffffffffff1681526020018973ffffffffffffffffffffffffffffffffffffffff1681526020018873ffffffffffffffffffffffffffffffffffffffff1681526020018781526020018681526020018560018111156200121f576200121e62001834565b5b8152602001838152509050600381908060018154018082558091505060019003906000526020600020906007020160009091909190915060008201518160000160006101000a81548173ffffffffffffffffffffffffffffffffffffffff021916908373ffffffffffffffffffffffffffffffffffffffff16021790555060208201518160010160006101000a81548173ffffffffffffffffffffffffffffffffffffffff021916908373ffffffffffffffffffffffffffffffffffffffff16021790555060408201518160020160006101000a81548173ffffffffffffffffffffffffffffffffffffffff021916908373ffffffffffffffffffffffffffffffffffffffff16021790555060608201518160030190816200134291906200235d565b506080820151816004015560a08201518160050160006101000a81548160ff021916908360018111156200137b576200137a62001834565b5b021790555060c082015181600601555050600160008473ffffffffffffffffffffffffffffffffffffffff1673ffffffffffffffffffffffffffffffffffffffff16815260200190815260200160002081908060018154018082558091505060019003906000526020600020906007020160009091909190915060008201518160000160006101000a81548173ffffffffffffffffffffffffffffffffffffffff021916908373ffffffffffffffffffffffffffffffffffffffff16021790555060208201518160010160006101000a81548173ffffffffffffffffffffffffffffffffffffffff021916908373ffffffffffffffffffffffffffffffffffffffff16021790555060408201518160020160006101000a81548173ffffffffffffffffffffffffffffffffffffffff021916908373ffffffffffffffffffffffffffffffffffffffff1602179055506060820151816003019081620014e191906200235d565b506080820151816004015560a08201518160050160006101000a81548160ff021916908360018111156200151a576200151962001834565b5b021790555060c0820151816006015550505050505050505050565b600033905090565b60008060009054906101000a900473ffffffffffffffffffffffffffffffffffffffff169050816000806101000a81548173ffffffffffffffffffffffffffffffffffffffff021916908373ffffffffffffffffffffffffffffffffffffffff1602179055508173ffffffffffffffffffffffffffffffffffffffff168173ffffffffffffffffffffffffffffffffffffffff167f8be0079c531659141344cd1fd0a4f28419497f9722a3daafe3b4186f6b6457e060405160405180910390a35050565b61070d806200260983390190565b6040518060e00160405280600073ffffffffffffffffffffffffffffffffffffffff168152602001600073ffffffffffffffffffffffffffffffffffffffff168152602001600073ffffffffffffffffffffffffffffffffffffffff16815260200160608152602001600081526020016000600181111562001696576200169562001834565b5b8152602001600081525090565b600081519050919050565b600082825260208201905092915050565b6000819050602082019050919050565b600073ffffffffffffffffffffffffffffffffffffffff82169050919050565b6000620016fc82620016cf565b9050919050565b6200170e81620016ef565b82525050565b6000819050919050565b60006200173f620017396200173384620016cf565b62001714565b620016cf565b9050919050565b600062001753826200171e565b9050919050565b6000620017678262001746565b9050919050565b62001779816200175a565b82525050565b600081519050919050565b600082825260208201905092915050565b60005b83811015620017bb5780820151818401526020810190506200179e565b60008484015250505050565b6000601f19601f8301169050919050565b6000620017e5826200177f565b620017f181856200178a565b9350620018038185602086016200179b565b6200180e81620017c7565b840191505092915050565b6000819050919050565b6200182e8162001819565b82525050565b7f4e487b7100000000000000000000000000000000000000000000000000000000600052602160045260246000fd5b6002811062001877576200187662001834565b5b50565b60008190506200188a8262001863565b919050565b60006200189c826200187a565b9050919050565b620018ae816200188f565b82525050565b600060e083016000830151620018ce600086018262001703565b506020830151620018e3602086018262001703565b506040830151620018f860408601826200176e565b5060608301518482036060860152620019128282620017d8565b915050608083015162001929608086018262001823565b5060a08301516200193e60a0860182620018a3565b5060c08301516200195360c086018262001823565b508091505092915050565b60006200196c8383620018b4565b905092915050565b6000602082019050919050565b60006200198e82620016a3565b6200199a8185620016ae565b935083602082028501620019ae85620016bf565b8060005b85811015620019f05784840389528151620019ce85826200195e565b9450620019db8362001974565b925060208a01995050600181019050620019b2565b50829750879550505050505092915050565b6000602082019050818103600083015262001a1e818462001981565b905092915050565b6000604051905090565b600080fd5b600080fd5b62001a458162001819565b811462001a5157600080fd5b50565b60008135905062001a658162001a3a565b92915050565b60006020828403121562001a845762001a8362001a30565b5b600062001a948482850162001a54565b91505092915050565b600080fd5b600080fd5b7f4e487b7100000000000000000000000000000000000000000000000000000000600052604160045260246000fd5b62001ae182620017c7565b810181811067ffffffffffffffff8211171562001b035762001b0262001aa7565b5b80604052505050565b600062001b1862001a26565b905062001b26828262001ad6565b919050565b600067ffffffffffffffff82111562001b495762001b4862001aa7565b5b62001b5482620017c7565b9050602081019050919050565b82818337600083830152505050565b600062001b8762001b818462001b2b565b62001b0c565b90508281526020810184848401111562001ba65762001ba562001aa2565b5b62001bb384828562001b61565b509392505050565b600082601f83011262001bd35762001bd262001a9d565b5b813562001be584826020860162001b70565b91505092915050565b6000806040838503121562001c085762001c0762001a30565b5b600083013567ffffffffffffffff81111562001c295762001c2862001a35565b5b62001c378582860162001bbb565b925050602062001c4a8582860162001a54565b9150509250929050565b62001c5f81620016ef565b82525050565b600060208201905062001c7c600083018462001c54565b92915050565b62001c8d816200175a565b82525050565b600082825260208201905092915050565b600062001cb1826200177f565b62001cbd818562001c93565b935062001ccf8185602086016200179b565b62001cda81620017c7565b840191505092915050565b62001cf08162001819565b82525050565b62001d01816200188f565b82525050565b600060e08201905062001d1e600083018a62001c54565b62001d2d602083018962001c54565b62001d3c604083018862001c82565b818103606083015262001d50818762001ca4565b905062001d61608083018662001ce5565b62001d7060a083018562001cf6565b62001d7f60c083018462001ce5565b98975050505050505050565b62001d9681620016ef565b811462001da257600080fd5b50565b60008135905062001db68162001d8b565b92915050565b60006020828403121562001dd55762001dd462001a30565b5b600062001de58482850162001da5565b91505092915050565b7f4e487b7100000000000000000000000000000000000000000000000000000000600052602260045260246000fd5b6000600282049050600182168062001e3657607f821691505b60208210810362001e4c5762001e4b62001dee565b5b50919050565b7f4f6e6c792066756c6c207061796d656e7420697320616c6c6f77656400000000600082015250565b600062001e8a601c8362001c93565b915062001e978262001e52565b602082019050919050565b6000602082019050818103600083015262001ebd8162001e7b565b9050919050565b7f4974656d206973206675727468657220696e20746865206c696e650000000000600082015250565b600062001efc601b8362001c93565b915062001f098262001ec4565b602082019050919050565b6000602082019050818103600083015262001f2f8162001eed565b9050919050565b7f53656c6c65722063616e206e6f7420627579207468656972206f776e2069746560008201527f6d00000000000000000000000000000000000000000000000000000000000000602082015250565b600062001f9460218362001c93565b915062001fa18262001f36565b604082019050919050565b6000602082019050818103600083015262001fc78162001f85565b9050919050565b600060c08201905062001fe5600083018962001ce5565b62001ff4602083018862001ce5565b62002003604083018762001c54565b62002012606083018662001ce5565b62002021608083018562001c54565b6200203060a083018462001c54565b979650505050505050565b7f4f776e61626c653a2063616c6c6572206973206e6f7420746865206f776e6572600082015250565b60006200207360208362001c93565b915062002080826200203b565b602082019050919050565b60006020820190508181036000830152620020a68162002064565b9050919050565b7f63616e206e6f742072656e6f756e6365206f776e657273686970000000000000600082015250565b6000620020e5601a8362001c93565b9150620020f282620020ad565b602082019050919050565b600060208201905081810360008301526200211881620020d6565b9050919050565b60006200212c826200171e565b9050919050565b600062002140826200211f565b9050919050565b620021528162002133565b82525050565b60006060820190506200216f600083018662002147565b6200217e602083018562001ce5565b6200218d604083018462001ce5565b949350505050565b60008190508160005260206000209050919050565b60006020601f8301049050919050565b600082821b905092915050565b600060088302620021f97fffffffffffffffffffffffffffffffffffffffffffffffffffffffffffffffff82620021ba565b620022058683620021ba565b95508019841693508086168417925050509392505050565b60006200223e62002238620022328462001819565b62001714565b62001819565b9050919050565b6000819050919050565b6200225a836200221d565b62002272620022698262002245565b848454620021c7565b825550505050565b600090565b620022896200227a565b620022968184846200224f565b505050565b5b81811015620022be57620022b26000826200227f565b6001810190506200229c565b5050565b601f8211156200230d57620022d78162002195565b620022e284620021aa565b81016020851015620022f2578190505b6200230a6200230185620021aa565b8301826200229b565b50505b505050565b600082821c905092915050565b6000620023326000198460080262002312565b1980831691505092915050565b60006200234d83836200231f565b9150826002028217905092915050565b62002368826200177f565b67ffffffffffffffff81111562002384576200238362001aa7565b5b62002390825462001e1d565b6200239d828285620022c2565b600060209050601f831160018114620023d55760008415620023c0578287015190505b620023cc85826200233f565b8655506200243c565b601f198416620023e58662002195565b60005b828110156200240f57848901518255600182019150602085019450602081019050620023e8565b868310156200242f57848901516200242b601f8916826200231f565b8355505b6001600288020188555050505b505050505050565b6000819050919050565b60006200246f62002469620024638462002444565b62001714565b62001819565b9050919050565b62002481816200244e565b82525050565b600060c0820190506200249e600083018962001ce5565b620024ad602083018862001ce5565b620024bc604083018762001c54565b620024cb606083018662002476565b620024da608083018562001c54565b620024e960a083018462001c54565b979650505050505050565b7f4e487b7100000000000000000000000000000000000000000000000000000000600052601160045260246000fd5b6000620025308262001819565b91507fffffffffffffffffffffffffffffffffffffffffffffffffffffffffffffffff8203620025655762002564620024f4565b5b600182019050919050565b7f4f776e61626c653a206e6577206f776e657220697320746865207a65726f206160008201527f6464726573730000000000000000000000000000000000000000000000000000602082015250565b6000620025ce60268362001c93565b9150620025db8262002570565b604082019050919050565b600060208201905081810360008301526200260181620025bf565b905091905056fe608060405234801561001057600080fd5b5060405161070d38038061070d83398181016040528101906100329190610134565b816000819055508060028190555082600360006101000a81548173ffffffffffffffffffffffffffffffffffffffff021916908373ffffffffffffffffffffffffffffffffffffffff160217905550505050610187565b600080fd5b600073ffffffffffffffffffffffffffffffffffffffff82169050919050565b60006100b98261008e565b9050919050565b60006100cb826100ae565b9050919050565b6100db816100c0565b81146100e657600080fd5b50565b6000815190506100f8816100d2565b92915050565b6000819050919050565b610111816100fe565b811461011c57600080fd5b50565b60008151905061012e81610108565b92915050565b60008060006060848603121561014d5761014c610089565b5b600061015b868287016100e9565b935050602061016c8682870161011f565b925050604061017d8682870161011f565b9150509250925092565b610577806101966000396000f3fe60806040526004361061002d5760003560e01c80632986c0e5146102455780637666c5a21461027057610237565b3661023757600060015414610077576040517f08c379a000000000000000000000000000000000000000000000000000000000815260040161006e90610304565b60405180910390fd5b34600054146100bb576040517f08c379a00000000000000000000000000000000000000000000000000000000081526004016100b290610370565b60405180910390fd5b600054600160008282546100cf91906103c9565b925050819055506000600360009054906101000a900473ffffffffffffffffffffffffffffffffffffffff1673ffffffffffffffffffffffffffffffffffffffff1634600254604051602401610125919061040c565b6040516020818303038152906040527f800fb83f000000000000000000000000000000000000000000000000000000007bffffffffffffffffffffffffffffffffffffffffffffffffffffffff19166020820180517bffffffffffffffffffffffffffffffffffffffffffffffffffffffff83818316178352505050506040516101af9190610498565b60006040518083038185875af1925050503d80600081146101ec576040519150601f19603f3d011682016040523d82523d6000602084013e6101f1565b606091505b5050905080610235576040517f08c379a000000000000000000000000000000000000000000000000000000000815260040161022c90610521565b60405180910390fd5b005b34801561024357600080fd5b005b34801561025157600080fd5b5061025a61029b565b604051610267919061040c565b60405180910390f35b34801561027c57600080fd5b506102856102a1565b604051610292919061040c565b60405180910390f35b60025481565b60015481565b600082825260208201905092915050565b7f6974656d206973207061696420616c7265616479000000000000000000000000600082015250565b60006102ee6014836102a7565b91506102f9826102b8565b602082019050919050565b6000602082019050818103600083015261031d816102e1565b9050919050565b7f4f6e6c792066756c6c207061796d656e747320616c6c6f776564000000000000600082015250565b600061035a601a836102a7565b915061036582610324565b602082019050919050565b600060208201905081810360008301526103898161034d565b9050919050565b6000819050919050565b7f4e487b7100000000000000000000000000000000000000000000000000000000600052601160045260246000fd5b60006103d482610390565b91506103df83610390565b92508282019050808211156103f7576103f661039a565b5b92915050565b61040681610390565b82525050565b600060208201905061042160008301846103fd565b92915050565b600081519050919050565b600081905092915050565b60005b8381101561045b578082015181840152602081019050610440565b60008484015250505050565b600061047282610427565b61047c8185610432565b935061048c81856020860161043d565b80840191505092915050565b60006104a48284610467565b915081905092915050565b7f546865205472616e73616374696f6e207761736e27742073756363657373667560008201527f6c2c2063616e63656c696e670000000000000000000000000000000000000000602082015250565b600061050b602c836102a7565b9150610516826104af565b604082019050919050565b6000602082019050818103600083015261053a816104fe565b905091905056fea26469706673582212205b3012eae8d4d7812be27fd78d2d964380efb68b9a31f917b0dba4a621b3d02864736f6c63430008100033a264697066735822122032e30f6b2f38c94b640c96cd055ade6d440f38285673b4ecc179fbd8bcbfc2cb64736f6c63430008100033",
					"opcodes": "PUSH1 0x80 PUSH1 0x40 MSTORE CALLVALUE DUP1 ISZERO PUSH3 0x11 JUMPI PUSH1 0x0 DUP1 REVERT JUMPDEST POP PUSH3 0x32 PUSH3 0x26 PUSH3 0x38 PUSH1 0x20 SHL PUSH1 0x20 SHR JUMP JUMPDEST PUSH3 0x40 PUSH1 0x20 SHL PUSH1 0x20 SHR JUMP JUMPDEST PUSH3 0x104 JUMP JUMPDEST PUSH1 0x0 CALLER SWAP1 POP SWAP1 JUMP JUMPDEST PUSH1 0x0 DUP1 PUSH1 0x0 SWAP1 SLOAD SWAP1 PUSH2 0x100 EXP SWAP1 DIV PUSH20 0xFFFFFFFFFFFFFFFFFFFFFFFFFFFFFFFFFFFFFFFF AND SWAP1 POP DUP2 PUSH1 0x0 DUP1 PUSH2 0x100 EXP DUP2 SLOAD DUP2 PUSH20 0xFFFFFFFFFFFFFFFFFFFFFFFFFFFFFFFFFFFFFFFF MUL NOT AND SWAP1 DUP4 PUSH20 0xFFFFFFFFFFFFFFFFFFFFFFFFFFFFFFFFFFFFFFFF AND MUL OR SWAP1 SSTORE POP DUP2 PUSH20 0xFFFFFFFFFFFFFFFFFFFFFFFFFFFFFFFFFFFFFFFF AND DUP2 PUSH20 0xFFFFFFFFFFFFFFFFFFFFFFFFFFFFFFFFFFFFFFFF AND PUSH32 0x8BE0079C531659141344CD1FD0A4F28419497F9722A3DAAFE3B4186F6B6457E0 PUSH1 0x40 MLOAD PUSH1 0x40 MLOAD DUP1 SWAP2 SUB SWAP1 LOG3 POP POP JUMP JUMPDEST PUSH2 0x2D4B DUP1 PUSH3 0x114 PUSH1 0x0 CODECOPY PUSH1 0x0 RETURN INVALID PUSH1 0x80 PUSH1 0x40 MSTORE PUSH1 0x4 CALLDATASIZE LT PUSH3 0x86 JUMPI PUSH1 0x0 CALLDATALOAD PUSH1 0xE0 SHR DUP1 PUSH4 0x8DA5CB5B GT PUSH3 0x55 JUMPI DUP1 PUSH4 0x8DA5CB5B EQ PUSH3 0x123 JUMPI DUP1 PUSH4 0x98589742 EQ PUSH3 0x153 JUMPI DUP1 PUSH4 0xA5F445B7 EQ PUSH3 0x19D JUMPI DUP1 PUSH4 0xF2FDE38B EQ PUSH3 0x1E1 JUMPI PUSH3 0x86 JUMP JUMPDEST DUP1 PUSH4 0x27435F62 EQ PUSH3 0x8B JUMPI DUP1 PUSH4 0x3EA3A44B EQ PUSH3 0xBB JUMPI DUP1 PUSH4 0x715018A6 EQ PUSH3 0xDB JUMPI DUP1 PUSH4 0x8C551742 EQ PUSH3 0xF5 JUMPI JUMPDEST PUSH1 0x0 DUP1 REVERT JUMPDEST CALLVALUE DUP1 ISZERO PUSH3 0x98 JUMPI PUSH1 0x0 DUP1 REVERT JUMPDEST POP PUSH3 0xA3 PUSH3 0x20F JUMP JUMPDEST PUSH1 0x40 MLOAD PUSH3 0xB2 SWAP2 SWAP1 PUSH3 0x1A02 JUMP JUMPDEST PUSH1 0x40 MLOAD DUP1 SWAP2 SUB SWAP1 RETURN JUMPDEST PUSH3 0xD9 PUSH1 0x4 DUP1 CALLDATASIZE SUB DUP2 ADD SWAP1 PUSH3 0xD3 SWAP2 SWAP1 PUSH3 0x1A6B JUMP JUMPDEST PUSH3 0x461 JUMP JUMPDEST STOP JUMPDEST CALLVALUE DUP1 ISZERO PUSH3 0xE8 JUMPI PUSH1 0x0 DUP1 REVERT JUMPDEST POP PUSH3 0xF3 PUSH3 0x987 JUMP JUMPDEST STOP JUMPDEST CALLVALUE DUP1 ISZERO PUSH3 0x102 JUMPI PUSH1 0x0 DUP1 REVERT JUMPDEST POP PUSH3 0x121 PUSH1 0x4 DUP1 CALLDATASIZE SUB DUP2 ADD SWAP1 PUSH3 0x11B SWAP2 SWAP1 PUSH3 0x1BEE JUMP JUMPDEST PUSH3 0xA47 JUMP JUMPDEST STOP JUMPDEST CALLVALUE DUP1 ISZERO PUSH3 0x130 JUMPI PUSH1 0x0 DUP1 REVERT JUMPDEST POP PUSH3 0x13B PUSH3 0xC98 JUMP JUMPDEST PUSH1 0x40 MLOAD PUSH3 0x14A SWAP2 SWAP1 PUSH3 0x1C65 JUMP JUMPDEST PUSH1 0x40 MLOAD DUP1 SWAP2 SUB SWAP1 RETURN JUMPDEST CALLVALUE DUP1 ISZERO PUSH3 0x160 JUMPI PUSH1 0x0 DUP1 REVERT JUMPDEST POP PUSH3 0x17F PUSH1 0x4 DUP1 CALLDATASIZE SUB DUP2 ADD SWAP1 PUSH3 0x179 SWAP2 SWAP1 PUSH3 0x1A6B JUMP JUMPDEST PUSH3 0xCC1 JUMP JUMPDEST PUSH1 0x40 MLOAD PUSH3 0x194 SWAP8 SWAP7 SWAP6 SWAP5 SWAP4 SWAP3 SWAP2 SWAP1 PUSH3 0x1D07 JUMP JUMPDEST PUSH1 0x40 MLOAD DUP1 SWAP2 SUB SWAP1 RETURN JUMPDEST CALLVALUE DUP1 ISZERO PUSH3 0x1AA JUMPI PUSH1 0x0 DUP1 REVERT JUMPDEST POP PUSH3 0x1C9 PUSH1 0x4 DUP1 CALLDATASIZE SUB DUP2 ADD SWAP1 PUSH3 0x1C3 SWAP2 SWAP1 PUSH3 0x1DBC JUMP JUMPDEST PUSH3 0xE00 JUMP JUMPDEST PUSH1 0x40 MLOAD PUSH3 0x1D8 SWAP2 SWAP1 PUSH3 0x1A02 JUMP JUMPDEST PUSH1 0x40 MLOAD DUP1 SWAP2 SUB SWAP1 RETURN JUMPDEST CALLVALUE DUP1 ISZERO PUSH3 0x1EE JUMPI PUSH1 0x0 DUP1 REVERT JUMPDEST POP PUSH3 0x20D PUSH1 0x4 DUP1 CALLDATASIZE SUB DUP2 ADD SWAP1 PUSH3 0x207 SWAP2 SWAP1 PUSH3 0x1DBC JUMP JUMPDEST PUSH3 0x1091 JUMP JUMPDEST STOP JUMPDEST PUSH1 0x60 PUSH1 0x3 DUP1 SLOAD DUP1 PUSH1 0x20 MUL PUSH1 0x20 ADD PUSH1 0x40 MLOAD SWAP1 DUP2 ADD PUSH1 0x40 MSTORE DUP1 SWAP3 SWAP2 SWAP1 DUP2 DUP2 MSTORE PUSH1 0x20 ADD PUSH1 0x0 SWAP1 JUMPDEST DUP3 DUP3 LT ISZERO PUSH3 0x458 JUMPI DUP4 DUP3 SWAP1 PUSH1 0x0 MSTORE PUSH1 0x20 PUSH1 0x0 KECCAK256 SWAP1 PUSH1 0x7 MUL ADD PUSH1 0x40 MLOAD DUP1 PUSH1 0xE0 ADD PUSH1 0x40 MSTORE SWAP1 DUP2 PUSH1 0x0 DUP3 ADD PUSH1 0x0 SWAP1 SLOAD SWAP1 PUSH2 0x100 EXP SWAP1 DIV PUSH20 0xFFFFFFFFFFFFFFFFFFFFFFFFFFFFFFFFFFFFFFFF AND PUSH20 0xFFFFFFFFFFFFFFFFFFFFFFFFFFFFFFFFFFFFFFFF AND PUSH20 0xFFFFFFFFFFFFFFFFFFFFFFFFFFFFFFFFFFFFFFFF AND DUP2 MSTORE PUSH1 0x20 ADD PUSH1 0x1 DUP3 ADD PUSH1 0x0 SWAP1 SLOAD SWAP1 PUSH2 0x100 EXP SWAP1 DIV PUSH20 0xFFFFFFFFFFFFFFFFFFFFFFFFFFFFFFFFFFFFFFFF AND PUSH20 0xFFFFFFFFFFFFFFFFFFFFFFFFFFFFFFFFFFFFFFFF AND PUSH20 0xFFFFFFFFFFFFFFFFFFFFFFFFFFFFFFFFFFFFFFFF AND DUP2 MSTORE PUSH1 0x20 ADD PUSH1 0x2 DUP3 ADD PUSH1 0x0 SWAP1 SLOAD SWAP1 PUSH2 0x100 EXP SWAP1 DIV PUSH20 0xFFFFFFFFFFFFFFFFFFFFFFFFFFFFFFFFFFFFFFFF AND PUSH20 0xFFFFFFFFFFFFFFFFFFFFFFFFFFFFFFFFFFFFFFFF AND PUSH20 0xFFFFFFFFFFFFFFFFFFFFFFFFFFFFFFFFFFFFFFFF AND DUP2 MSTORE PUSH1 0x20 ADD PUSH1 0x3 DUP3 ADD DUP1 SLOAD PUSH3 0x36B SWAP1 PUSH3 0x1E1D JUMP JUMPDEST DUP1 PUSH1 0x1F ADD PUSH1 0x20 DUP1 SWAP2 DIV MUL PUSH1 0x20 ADD PUSH1 0x40 MLOAD SWAP1 DUP2 ADD PUSH1 0x40 MSTORE DUP1 SWAP3 SWAP2 SWAP1 DUP2 DUP2 MSTORE PUSH1 0x20 ADD DUP3 DUP1 SLOAD PUSH3 0x399 SWAP1 PUSH3 0x1E1D JUMP JUMPDEST DUP1 ISZERO PUSH3 0x3EA JUMPI DUP1 PUSH1 0x1F LT PUSH3 0x3BE JUMPI PUSH2 0x100 DUP1 DUP4 SLOAD DIV MUL DUP4 MSTORE SWAP2 PUSH1 0x20 ADD SWAP2 PUSH3 0x3EA JUMP JUMPDEST DUP3 ADD SWAP2 SWAP1 PUSH1 0x0 MSTORE PUSH1 0x20 PUSH1 0x0 KECCAK256 SWAP1 JUMPDEST DUP2 SLOAD DUP2 MSTORE SWAP1 PUSH1 0x1 ADD SWAP1 PUSH1 0x20 ADD DUP1 DUP4 GT PUSH3 0x3CC JUMPI DUP3 SWAP1 SUB PUSH1 0x1F AND DUP3 ADD SWAP2 JUMPDEST POP POP POP POP POP DUP2 MSTORE PUSH1 0x20 ADD PUSH1 0x4 DUP3 ADD SLOAD DUP2 MSTORE PUSH1 0x20 ADD PUSH1 0x5 DUP3 ADD PUSH1 0x0 SWAP1 SLOAD SWAP1 PUSH2 0x100 EXP SWAP1 DIV PUSH1 0xFF AND PUSH1 0x1 DUP2 GT ISZERO PUSH3 0x425 JUMPI PUSH3 0x424 PUSH3 0x1834 JUMP JUMPDEST JUMPDEST PUSH1 0x1 DUP2 GT ISZERO PUSH3 0x43A JUMPI PUSH3 0x439 PUSH3 0x1834 JUMP JUMPDEST JUMPDEST DUP2 MSTORE PUSH1 0x20 ADD PUSH1 0x6 DUP3 ADD SLOAD DUP2 MSTORE POP POP DUP2 MSTORE PUSH1 0x20 ADD SWAP1 PUSH1 0x1 ADD SWAP1 PUSH3 0x233 JUMP JUMPDEST POP POP POP POP SWAP1 POP SWAP1 JUMP JUMPDEST CALLVALUE PUSH1 0x2 PUSH1 0x0 DUP4 DUP2 MSTORE PUSH1 0x20 ADD SWAP1 DUP2 MSTORE PUSH1 0x20 ADD PUSH1 0x0 KECCAK256 PUSH1 0x4 ADD SLOAD GT ISZERO PUSH3 0x4BD JUMPI PUSH1 0x40 MLOAD PUSH32 0x8C379A000000000000000000000000000000000000000000000000000000000 DUP2 MSTORE PUSH1 0x4 ADD PUSH3 0x4B4 SWAP1 PUSH3 0x1EA2 JUMP JUMPDEST PUSH1 0x40 MLOAD DUP1 SWAP2 SUB SWAP1 REVERT JUMPDEST PUSH1 0x0 PUSH1 0x1 DUP2 GT ISZERO PUSH3 0x4D4 JUMPI PUSH3 0x4D3 PUSH3 0x1834 JUMP JUMPDEST JUMPDEST PUSH1 0x2 PUSH1 0x0 DUP4 DUP2 MSTORE PUSH1 0x20 ADD SWAP1 DUP2 MSTORE PUSH1 0x20 ADD PUSH1 0x0 KECCAK256 PUSH1 0x5 ADD PUSH1 0x0 SWAP1 SLOAD SWAP1 PUSH2 0x100 EXP SWAP1 DIV PUSH1 0xFF AND PUSH1 0x1 DUP2 GT ISZERO PUSH3 0x50D JUMPI PUSH3 0x50C PUSH3 0x1834 JUMP JUMPDEST JUMPDEST EQ PUSH3 0x550 JUMPI PUSH1 0x40 MLOAD PUSH32 0x8C379A000000000000000000000000000000000000000000000000000000000 DUP2 MSTORE PUSH1 0x4 ADD PUSH3 0x547 SWAP1 PUSH3 0x1F14 JUMP JUMPDEST PUSH1 0x40 MLOAD DUP1 SWAP2 SUB SWAP1 REVERT JUMPDEST CALLER PUSH20 0xFFFFFFFFFFFFFFFFFFFFFFFFFFFFFFFFFFFFFFFF AND PUSH1 0x2 PUSH1 0x0 DUP4 DUP2 MSTORE PUSH1 0x20 ADD SWAP1 DUP2 MSTORE PUSH1 0x20 ADD PUSH1 0x0 KECCAK256 PUSH1 0x1 ADD PUSH1 0x0 SWAP1 SLOAD SWAP1 PUSH2 0x100 EXP SWAP1 DIV PUSH20 0xFFFFFFFFFFFFFFFFFFFFFFFFFFFFFFFFFFFFFFFF AND PUSH20 0xFFFFFFFFFFFFFFFFFFFFFFFFFFFFFFFFFFFFFFFF AND SUB PUSH3 0x5F7 JUMPI PUSH1 0x40 MLOAD PUSH32 0x8C379A000000000000000000000000000000000000000000000000000000000 DUP2 MSTORE PUSH1 0x4 ADD PUSH3 0x5EE SWAP1 PUSH3 0x1FAC JUMP JUMPDEST PUSH1 0x40 MLOAD DUP1 SWAP2 SUB SWAP1 REVERT JUMPDEST PUSH1 0x1 PUSH1 0x2 PUSH1 0x0 DUP4 DUP2 MSTORE PUSH1 0x20 ADD SWAP1 DUP2 MSTORE PUSH1 0x20 ADD PUSH1 0x0 KECCAK256 PUSH1 0x5 ADD PUSH1 0x0 PUSH2 0x100 EXP DUP2 SLOAD DUP2 PUSH1 0xFF MUL NOT AND SWAP1 DUP4 PUSH1 0x1 DUP2 GT ISZERO PUSH3 0x634 JUMPI PUSH3 0x633 PUSH3 0x1834 JUMP JUMPDEST JUMPDEST MUL OR SWAP1 SSTORE POP CALLER PUSH1 0x2 PUSH1 0x0 DUP4 DUP2 MSTORE PUSH1 0x20 ADD SWAP1 DUP2 MSTORE PUSH1 0x20 ADD PUSH1 0x0 KECCAK256 PUSH1 0x0 ADD PUSH1 0x0 PUSH2 0x100 EXP DUP2 SLOAD DUP2 PUSH20 0xFFFFFFFFFFFFFFFFFFFFFFFFFFFFFFFFFFFFFFFF MUL NOT AND SWAP1 DUP4 PUSH20 0xFFFFFFFFFFFFFFFFFFFFFFFFFFFFFFFFFFFFFFFF AND MUL OR SWAP1 SSTORE POP TIMESTAMP PUSH1 0x2 PUSH1 0x0 DUP4 DUP2 MSTORE PUSH1 0x20 ADD SWAP1 DUP2 MSTORE PUSH1 0x20 ADD PUSH1 0x0 KECCAK256 PUSH1 0x6 ADD DUP2 SWAP1 SSTORE POP PUSH3 0x851 PUSH1 0x2 PUSH1 0x0 DUP4 DUP2 MSTORE PUSH1 0x20 ADD SWAP1 DUP2 MSTORE PUSH1 0x20 ADD PUSH1 0x0 KECCAK256 PUSH1 0x1 ADD PUSH1 0x0 SWAP1 SLOAD SWAP1 PUSH2 0x100 EXP SWAP1 DIV PUSH20 0xFFFFFFFFFFFFFFFFFFFFFFFFFFFFFFFFFFFFFFFF AND PUSH1 0x2 PUSH1 0x0 DUP5 DUP2 MSTORE PUSH1 0x20 ADD SWAP1 DUP2 MSTORE PUSH1 0x20 ADD PUSH1 0x0 KECCAK256 PUSH1 0x2 ADD PUSH1 0x0 SWAP1 SLOAD SWAP1 PUSH2 0x100 EXP SWAP1 DIV PUSH20 0xFFFFFFFFFFFFFFFFFFFFFFFFFFFFFFFFFFFFFFFF AND PUSH1 0x2 PUSH1 0x0 DUP6 DUP2 MSTORE PUSH1 0x20 ADD SWAP1 DUP2 MSTORE PUSH1 0x20 ADD PUSH1 0x0 KECCAK256 PUSH1 0x3 ADD DUP1 SLOAD PUSH3 0x73E SWAP1 PUSH3 0x1E1D JUMP JUMPDEST DUP1 PUSH1 0x1F ADD PUSH1 0x20 DUP1 SWAP2 DIV MUL PUSH1 0x20 ADD PUSH1 0x40 MLOAD SWAP1 DUP2 ADD PUSH1 0x40 MSTORE DUP1 SWAP3 SWAP2 SWAP1 DUP2 DUP2 MSTORE PUSH1 0x20 ADD DUP3 DUP1 SLOAD PUSH3 0x76C SWAP1 PUSH3 0x1E1D JUMP JUMPDEST DUP1 ISZERO PUSH3 0x7BD JUMPI DUP1 PUSH1 0x1F LT PUSH3 0x791 JUMPI PUSH2 0x100 DUP1 DUP4 SLOAD DIV MUL DUP4 MSTORE SWAP2 PUSH1 0x20 ADD SWAP2 PUSH3 0x7BD JUMP JUMPDEST DUP3 ADD SWAP2 SWAP1 PUSH1 0x0 MSTORE PUSH1 0x20 PUSH1 0x0 KECCAK256 SWAP1 JUMPDEST DUP2 SLOAD DUP2 MSTORE SWAP1 PUSH1 0x1 ADD SWAP1 PUSH1 0x20 ADD DUP1 DUP4 GT PUSH3 0x79F JUMPI DUP3 SWAP1 SUB PUSH1 0x1F AND DUP3 ADD SWAP2 JUMPDEST POP POP POP POP POP PUSH1 0x2 PUSH1 0x0 DUP7 DUP2 MSTORE PUSH1 0x20 ADD SWAP1 DUP2 MSTORE PUSH1 0x20 ADD PUSH1 0x0 KECCAK256 PUSH1 0x4 ADD SLOAD PUSH1 0x2 PUSH1 0x0 DUP8 DUP2 MSTORE PUSH1 0x20 ADD SWAP1 DUP2 MSTORE PUSH1 0x20 ADD PUSH1 0x0 KECCAK256 PUSH1 0x5 ADD PUSH1 0x0 SWAP1 SLOAD SWAP1 PUSH2 0x100 EXP SWAP1 DIV PUSH1 0xFF AND PUSH1 0x2 PUSH1 0x0 DUP9 DUP2 MSTORE PUSH1 0x20 ADD SWAP1 DUP2 MSTORE PUSH1 0x20 ADD PUSH1 0x0 KECCAK256 PUSH1 0x0 ADD PUSH1 0x0 SWAP1 SLOAD SWAP1 PUSH2 0x100 EXP SWAP1 DIV PUSH20 0xFFFFFFFFFFFFFFFFFFFFFFFFFFFFFFFFFFFFFFFF AND PUSH1 0x2 PUSH1 0x0 DUP10 DUP2 MSTORE PUSH1 0x20 ADD SWAP1 DUP2 MSTORE PUSH1 0x20 ADD PUSH1 0x0 KECCAK256 PUSH1 0x6 ADD SLOAD PUSH3 0x1194 JUMP JUMPDEST PUSH32 0xA3CC98FD99F30B099F998AC88CF0D8CF7C2A3CE87B8AF5D8543E401A78E30410 DUP2 PUSH1 0x2 PUSH1 0x0 DUP5 DUP2 MSTORE PUSH1 0x20 ADD SWAP1 DUP2 MSTORE PUSH1 0x20 ADD PUSH1 0x0 KECCAK256 PUSH1 0x5 ADD PUSH1 0x0 SWAP1 SLOAD SWAP1 PUSH2 0x100 EXP SWAP1 DIV PUSH1 0xFF AND PUSH1 0x1 DUP2 GT ISZERO PUSH3 0x8AC JUMPI PUSH3 0x8AB PUSH3 0x1834 JUMP JUMPDEST JUMPDEST PUSH1 0x2 PUSH1 0x0 DUP6 DUP2 MSTORE PUSH1 0x20 ADD SWAP1 DUP2 MSTORE PUSH1 0x20 ADD PUSH1 0x0 KECCAK256 PUSH1 0x2 ADD PUSH1 0x0 SWAP1 SLOAD SWAP1 PUSH2 0x100 EXP SWAP1 DIV PUSH20 0xFFFFFFFFFFFFFFFFFFFFFFFFFFFFFFFFFFFFFFFF AND PUSH1 0x2 PUSH1 0x0 DUP7 DUP2 MSTORE PUSH1 0x20 ADD SWAP1 DUP2 MSTORE PUSH1 0x20 ADD PUSH1 0x0 KECCAK256 PUSH1 0x6 ADD SLOAD PUSH1 0x2 PUSH1 0x0 DUP8 DUP2 MSTORE PUSH1 0x20 ADD SWAP1 DUP2 MSTORE PUSH1 0x20 ADD PUSH1 0x0 KECCAK256 PUSH1 0x0 ADD PUSH1 0x0 SWAP1 SLOAD SWAP1 PUSH2 0x100 EXP SWAP1 DIV PUSH20 0xFFFFFFFFFFFFFFFFFFFFFFFFFFFFFFFFFFFFFFFF AND PUSH1 0x2 PUSH1 0x0 DUP9 DUP2 MSTORE PUSH1 0x20 ADD SWAP1 DUP2 MSTORE PUSH1 0x20 ADD PUSH1 0x0 KECCAK256 PUSH1 0x1 ADD PUSH1 0x0 SWAP1 SLOAD SWAP1 PUSH2 0x100 EXP SWAP1 DIV PUSH20 0xFFFFFFFFFFFFFFFFFFFFFFFFFFFFFFFFFFFFFFFF AND PUSH1 0x40 MLOAD PUSH3 0x97C SWAP7 SWAP6 SWAP5 SWAP4 SWAP3 SWAP2 SWAP1 PUSH3 0x1FCE JUMP JUMPDEST PUSH1 0x40 MLOAD DUP1 SWAP2 SUB SWAP1 LOG1 POP JUMP JUMPDEST PUSH3 0x991 PUSH3 0x1535 JUMP JUMPDEST PUSH20 0xFFFFFFFFFFFFFFFFFFFFFFFFFFFFFFFFFFFFFFFF AND PUSH3 0x9B1 PUSH3 0xC98 JUMP JUMPDEST PUSH20 0xFFFFFFFFFFFFFFFFFFFFFFFFFFFFFFFFFFFFFFFF AND EQ PUSH3 0xA0A JUMPI PUSH1 0x40 MLOAD PUSH32 0x8C379A000000000000000000000000000000000000000000000000000000000 DUP2 MSTORE PUSH1 0x4 ADD PUSH3 0xA01 SWAP1 PUSH3 0x208B JUMP JUMPDEST PUSH1 0x40 MLOAD DUP1 SWAP2 SUB SWAP1 REVERT JUMPDEST PUSH1 0x40 MLOAD PUSH32 0x8C379A000000000000000000000000000000000000000000000000000000000 DUP2 MSTORE PUSH1 0x4 ADD PUSH3 0xA3E SWAP1 PUSH3 0x20FD JUMP JUMPDEST PUSH1 0x40 MLOAD DUP1 SWAP2 SUB SWAP1 REVERT JUMPDEST PUSH1 0x0 ADDRESS DUP3 PUSH1 0x4 SLOAD PUSH1 0x40 MLOAD PUSH3 0xA5C SWAP1 PUSH3 0x1601 JUMP JUMPDEST PUSH3 0xA6A SWAP4 SWAP3 SWAP2 SWAP1 PUSH3 0x2158 JUMP JUMPDEST PUSH1 0x40 MLOAD DUP1 SWAP2 SUB SWAP1 PUSH1 0x0 CREATE DUP1 ISZERO DUP1 ISZERO PUSH3 0xA87 JUMPI RETURNDATASIZE PUSH1 0x0 DUP1 RETURNDATACOPY RETURNDATASIZE PUSH1 0x0 REVERT JUMPDEST POP SWAP1 POP CALLER PUSH1 0x2 PUSH1 0x0 PUSH1 0x4 SLOAD DUP2 MSTORE PUSH1 0x20 ADD SWAP1 DUP2 MSTORE PUSH1 0x20 ADD PUSH1 0x0 KECCAK256 PUSH1 0x1 ADD PUSH1 0x0 PUSH2 0x100 EXP DUP2 SLOAD DUP2 PUSH20 0xFFFFFFFFFFFFFFFFFFFFFFFFFFFFFFFFFFFFFFFF MUL NOT AND SWAP1 DUP4 PUSH20 0xFFFFFFFFFFFFFFFFFFFFFFFFFFFFFFFFFFFFFFFF AND MUL OR SWAP1 SSTORE POP DUP1 PUSH1 0x2 PUSH1 0x0 PUSH1 0x4 SLOAD DUP2 MSTORE PUSH1 0x20 ADD SWAP1 DUP2 MSTORE PUSH1 0x20 ADD PUSH1 0x0 KECCAK256 PUSH1 0x2 ADD PUSH1 0x0 PUSH2 0x100 EXP DUP2 SLOAD DUP2 PUSH20 0xFFFFFFFFFFFFFFFFFFFFFFFFFFFFFFFFFFFFFFFF MUL NOT AND SWAP1 DUP4 PUSH20 0xFFFFFFFFFFFFFFFFFFFFFFFFFFFFFFFFFFFFFFFF AND MUL OR SWAP1 SSTORE POP DUP3 PUSH1 0x2 PUSH1 0x0 PUSH1 0x4 SLOAD DUP2 MSTORE PUSH1 0x20 ADD SWAP1 DUP2 MSTORE PUSH1 0x20 ADD PUSH1 0x0 KECCAK256 PUSH1 0x3 ADD SWAP1 DUP2 PUSH3 0xB5F SWAP2 SWAP1 PUSH3 0x235D JUMP JUMPDEST POP DUP2 PUSH1 0x2 PUSH1 0x0 PUSH1 0x4 SLOAD DUP2 MSTORE PUSH1 0x20 ADD SWAP1 DUP2 MSTORE PUSH1 0x20 ADD PUSH1 0x0 KECCAK256 PUSH1 0x4 ADD DUP2 SWAP1 SSTORE POP PUSH1 0x0 PUSH1 0x2 PUSH1 0x0 PUSH1 0x4 SLOAD DUP2 MSTORE PUSH1 0x20 ADD SWAP1 DUP2 MSTORE PUSH1 0x20 ADD PUSH1 0x0 KECCAK256 PUSH1 0x5 ADD PUSH1 0x0 PUSH2 0x100 EXP DUP2 SLOAD DUP2 PUSH1 0xFF MUL NOT AND SWAP1 DUP4 PUSH1 0x1 DUP2 GT ISZERO PUSH3 0xBBC JUMPI PUSH3 0xBBB PUSH3 0x1834 JUMP JUMPDEST JUMPDEST MUL OR SWAP1 SSTORE POP PUSH32 0xA3CC98FD99F30B099F998AC88CF0D8CF7C2A3CE87B8AF5D8543E401A78E30410 PUSH1 0x4 SLOAD PUSH1 0x2 PUSH1 0x0 PUSH1 0x4 SLOAD DUP2 MSTORE PUSH1 0x20 ADD SWAP1 DUP2 MSTORE PUSH1 0x20 ADD PUSH1 0x0 KECCAK256 PUSH1 0x5 ADD PUSH1 0x0 SWAP1 SLOAD SWAP1 PUSH2 0x100 EXP SWAP1 DIV PUSH1 0xFF AND PUSH1 0x1 DUP2 GT ISZERO PUSH3 0xC20 JUMPI PUSH3 0xC1F PUSH3 0x1834 JUMP JUMPDEST JUMPDEST DUP4 PUSH1 0x0 DUP1 PUSH1 0x2 PUSH1 0x0 PUSH1 0x4 SLOAD DUP2 MSTORE PUSH1 0x20 ADD SWAP1 DUP2 MSTORE PUSH1 0x20 ADD PUSH1 0x0 KECCAK256 PUSH1 0x1 ADD PUSH1 0x0 SWAP1 SLOAD SWAP1 PUSH2 0x100 EXP SWAP1 DIV PUSH20 0xFFFFFFFFFFFFFFFFFFFFFFFFFFFFFFFFFFFFFFFF AND PUSH1 0x40 MLOAD PUSH3 0xC71 SWAP7 SWAP6 SWAP5 SWAP4 SWAP3 SWAP2 SWAP1 PUSH3 0x2487 JUMP JUMPDEST PUSH1 0x40 MLOAD DUP1 SWAP2 SUB SWAP1 LOG1 PUSH1 0x4 PUSH1 0x0 DUP2 SLOAD DUP1 SWAP3 SWAP2 SWAP1 PUSH3 0xC8E SWAP1 PUSH3 0x2523 JUMP JUMPDEST SWAP2 SWAP1 POP SSTORE POP POP POP POP JUMP JUMPDEST PUSH1 0x0 DUP1 PUSH1 0x0 SWAP1 SLOAD SWAP1 PUSH2 0x100 EXP SWAP1 DIV PUSH20 0xFFFFFFFFFFFFFFFFFFFFFFFFFFFFFFFFFFFFFFFF AND SWAP1 POP SWAP1 JUMP JUMPDEST PUSH1 0x2 PUSH1 0x20 MSTORE DUP1 PUSH1 0x0 MSTORE PUSH1 0x40 PUSH1 0x0 KECCAK256 PUSH1 0x0 SWAP2 POP SWAP1 POP DUP1 PUSH1 0x0 ADD PUSH1 0x0 SWAP1 SLOAD SWAP1 PUSH2 0x100 EXP SWAP1 DIV PUSH20 0xFFFFFFFFFFFFFFFFFFFFFFFFFFFFFFFFFFFFFFFF AND SWAP1 DUP1 PUSH1 0x1 ADD PUSH1 0x0 SWAP1 SLOAD SWAP1 PUSH2 0x100 EXP SWAP1 DIV PUSH20 0xFFFFFFFFFFFFFFFFFFFFFFFFFFFFFFFFFFFFFFFF AND SWAP1 DUP1 PUSH1 0x2 ADD PUSH1 0x0 SWAP1 SLOAD SWAP1 PUSH2 0x100 EXP SWAP1 DIV PUSH20 0xFFFFFFFFFFFFFFFFFFFFFFFFFFFFFFFFFFFFFFFF AND SWAP1 DUP1 PUSH1 0x3 ADD DUP1 SLOAD PUSH3 0xD58 SWAP1 PUSH3 0x1E1D JUMP JUMPDEST DUP1 PUSH1 0x1F ADD PUSH1 0x20 DUP1 SWAP2 DIV MUL PUSH1 0x20 ADD PUSH1 0x40 MLOAD SWAP1 DUP2 ADD PUSH1 0x40 MSTORE DUP1 SWAP3 SWAP2 SWAP1 DUP2 DUP2 MSTORE PUSH1 0x20 ADD DUP3 DUP1 SLOAD PUSH3 0xD86 SWAP1 PUSH3 0x1E1D JUMP JUMPDEST DUP1 ISZERO PUSH3 0xDD7 JUMPI DUP1 PUSH1 0x1F LT PUSH3 0xDAB JUMPI PUSH2 0x100 DUP1 DUP4 SLOAD DIV MUL DUP4 MSTORE SWAP2 PUSH1 0x20 ADD SWAP2 PUSH3 0xDD7 JUMP JUMPDEST DUP3 ADD SWAP2 SWAP1 PUSH1 0x0 MSTORE PUSH1 0x20 PUSH1 0x0 KECCAK256 SWAP1 JUMPDEST DUP2 SLOAD DUP2 MSTORE SWAP1 PUSH1 0x1 ADD SWAP1 PUSH1 0x20 ADD DUP1 DUP4 GT PUSH3 0xDB9 JUMPI DUP3 SWAP1 SUB PUSH1 0x1F AND DUP3 ADD SWAP2 JUMPDEST POP POP POP POP POP SWAP1 DUP1 PUSH1 0x4 ADD SLOAD SWAP1 DUP1 PUSH1 0x5 ADD PUSH1 0x0 SWAP1 SLOAD SWAP1 PUSH2 0x100 EXP SWAP1 DIV PUSH1 0xFF AND SWAP1 DUP1 PUSH1 0x6 ADD SLOAD SWAP1 POP DUP8 JUMP JUMPDEST PUSH1 0x60 PUSH1 0x1 PUSH1 0x0 DUP4 PUSH20 0xFFFFFFFFFFFFFFFFFFFFFFFFFFFFFFFFFFFFFFFF AND PUSH20 0xFFFFFFFFFFFFFFFFFFFFFFFFFFFFFFFFFFFFFFFF AND DUP2 MSTORE PUSH1 0x20 ADD SWAP1 DUP2 MSTORE PUSH1 0x20 ADD PUSH1 0x0 KECCAK256 DUP1 SLOAD DUP1 PUSH1 0x20 MUL PUSH1 0x20 ADD PUSH1 0x40 MLOAD SWAP1 DUP2 ADD PUSH1 0x40 MSTORE DUP1 SWAP3 SWAP2 SWAP1 DUP2 DUP2 MSTORE PUSH1 0x20 ADD PUSH1 0x0 SWAP1 JUMPDEST DUP3 DUP3 LT ISZERO PUSH3 0x1086 JUMPI DUP4 DUP3 SWAP1 PUSH1 0x0 MSTORE PUSH1 0x20 PUSH1 0x0 KECCAK256 SWAP1 PUSH1 0x7 MUL ADD PUSH1 0x40 MLOAD DUP1 PUSH1 0xE0 ADD PUSH1 0x40 MSTORE SWAP1 DUP2 PUSH1 0x0 DUP3 ADD PUSH1 0x0 SWAP1 SLOAD SWAP1 PUSH2 0x100 EXP SWAP1 DIV PUSH20 0xFFFFFFFFFFFFFFFFFFFFFFFFFFFFFFFFFFFFFFFF AND PUSH20 0xFFFFFFFFFFFFFFFFFFFFFFFFFFFFFFFFFFFFFFFF AND PUSH20 0xFFFFFFFFFFFFFFFFFFFFFFFFFFFFFFFFFFFFFFFF AND DUP2 MSTORE PUSH1 0x20 ADD PUSH1 0x1 DUP3 ADD PUSH1 0x0 SWAP1 SLOAD SWAP1 PUSH2 0x100 EXP SWAP1 DIV PUSH20 0xFFFFFFFFFFFFFFFFFFFFFFFFFFFFFFFFFFFFFFFF AND PUSH20 0xFFFFFFFFFFFFFFFFFFFFFFFFFFFFFFFFFFFFFFFF AND PUSH20 0xFFFFFFFFFFFFFFFFFFFFFFFFFFFFFFFFFFFFFFFF AND DUP2 MSTORE PUSH1 0x20 ADD PUSH1 0x2 DUP3 ADD PUSH1 0x0 SWAP1 SLOAD SWAP1 PUSH2 0x100 EXP SWAP1 DIV PUSH20 0xFFFFFFFFFFFFFFFFFFFFFFFFFFFFFFFFFFFFFFFF AND PUSH20 0xFFFFFFFFFFFFFFFFFFFFFFFFFFFFFFFFFFFFFFFF AND PUSH20 0xFFFFFFFFFFFFFFFFFFFFFFFFFFFFFFFFFFFFFFFF AND DUP2 MSTORE PUSH1 0x20 ADD PUSH1 0x3 DUP3 ADD DUP1 SLOAD PUSH3 0xF99 SWAP1 PUSH3 0x1E1D JUMP JUMPDEST DUP1 PUSH1 0x1F ADD PUSH1 0x20 DUP1 SWAP2 DIV MUL PUSH1 0x20 ADD PUSH1 0x40 MLOAD SWAP1 DUP2 ADD PUSH1 0x40 MSTORE DUP1 SWAP3 SWAP2 SWAP1 DUP2 DUP2 MSTORE PUSH1 0x20 ADD DUP3 DUP1 SLOAD PUSH3 0xFC7 SWAP1 PUSH3 0x1E1D JUMP JUMPDEST DUP1 ISZERO PUSH3 0x1018 JUMPI DUP1 PUSH1 0x1F LT PUSH3 0xFEC JUMPI PUSH2 0x100 DUP1 DUP4 SLOAD DIV MUL DUP4 MSTORE SWAP2 PUSH1 0x20 ADD SWAP2 PUSH3 0x1018 JUMP JUMPDEST DUP3 ADD SWAP2 SWAP1 PUSH1 0x0 MSTORE PUSH1 0x20 PUSH1 0x0 KECCAK256 SWAP1 JUMPDEST DUP2 SLOAD DUP2 MSTORE SWAP1 PUSH1 0x1 ADD SWAP1 PUSH1 0x20 ADD DUP1 DUP4 GT PUSH3 0xFFA JUMPI DUP3 SWAP1 SUB PUSH1 0x1F AND DUP3 ADD SWAP2 JUMPDEST POP POP POP POP POP DUP2 MSTORE PUSH1 0x20 ADD PUSH1 0x4 DUP3 ADD SLOAD DUP2 MSTORE PUSH1 0x20 ADD PUSH1 0x5 DUP3 ADD PUSH1 0x0 SWAP1 SLOAD SWAP1 PUSH2 0x100 EXP SWAP1 DIV PUSH1 0xFF AND PUSH1 0x1 DUP2 GT ISZERO PUSH3 0x1053 JUMPI PUSH3 0x1052 PUSH3 0x1834 JUMP JUMPDEST JUMPDEST PUSH1 0x1 DUP2 GT ISZERO PUSH3 0x1068 JUMPI PUSH3 0x1067 PUSH3 0x1834 JUMP JUMPDEST JUMPDEST DUP2 MSTORE PUSH1 0x20 ADD PUSH1 0x6 DUP3 ADD SLOAD DUP2 MSTORE POP POP DUP2 MSTORE PUSH1 0x20 ADD SWAP1 PUSH1 0x1 ADD SWAP1 PUSH3 0xE61 JUMP JUMPDEST POP POP POP POP SWAP1 POP SWAP2 SWAP1 POP JUMP JUMPDEST PUSH3 0x109B PUSH3 0x1535 JUMP JUMPDEST PUSH20 0xFFFFFFFFFFFFFFFFFFFFFFFFFFFFFFFFFFFFFFFF AND PUSH3 0x10BB PUSH3 0xC98 JUMP JUMPDEST PUSH20 0xFFFFFFFFFFFFFFFFFFFFFFFFFFFFFFFFFFFFFFFF AND EQ PUSH3 0x1114 JUMPI PUSH1 0x40 MLOAD PUSH32 0x8C379A000000000000000000000000000000000000000000000000000000000 DUP2 MSTORE PUSH1 0x4 ADD PUSH3 0x110B SWAP1 PUSH3 0x208B JUMP JUMPDEST PUSH1 0x40 MLOAD DUP1 SWAP2 SUB SWAP1 REVERT JUMPDEST PUSH1 0x0 PUSH20 0xFFFFFFFFFFFFFFFFFFFFFFFFFFFFFFFFFFFFFFFF AND DUP2 PUSH20 0xFFFFFFFFFFFFFFFFFFFFFFFFFFFFFFFFFFFFFFFF AND SUB PUSH3 0x1186 JUMPI PUSH1 0x40 MLOAD PUSH32 0x8C379A000000000000000000000000000000000000000000000000000000000 DUP2 MSTORE PUSH1 0x4 ADD PUSH3 0x117D SWAP1 PUSH3 0x25E6 JUMP JUMPDEST PUSH1 0x40 MLOAD DUP1 SWAP2 SUB SWAP1 REVERT JUMPDEST PUSH3 0x1191 DUP2 PUSH3 0x153D JUMP JUMPDEST POP JUMP JUMPDEST PUSH3 0x119E PUSH3 0x160F JUMP JUMPDEST PUSH1 0x40 MLOAD DUP1 PUSH1 0xE0 ADD PUSH1 0x40 MSTORE DUP1 DUP5 PUSH20 0xFFFFFFFFFFFFFFFFFFFFFFFFFFFFFFFFFFFFFFFF AND DUP2 MSTORE PUSH1 0x20 ADD DUP10 PUSH20 0xFFFFFFFFFFFFFFFFFFFFFFFFFFFFFFFFFFFFFFFF AND DUP2 MSTORE PUSH1 0x20 ADD DUP9 PUSH20 0xFFFFFFFFFFFFFFFFFFFFFFFFFFFFFFFFFFFFFFFF AND DUP2 MSTORE PUSH1 0x20 ADD DUP8 DUP2 MSTORE PUSH1 0x20 ADD DUP7 DUP2 MSTORE PUSH1 0x20 ADD DUP6 PUSH1 0x1 DUP2 GT ISZERO PUSH3 0x121F JUMPI PUSH3 0x121E PUSH3 0x1834 JUMP JUMPDEST JUMPDEST DUP2 MSTORE PUSH1 0x20 ADD DUP4 DUP2 MSTORE POP SWAP1 POP PUSH1 0x3 DUP2 SWAP1 DUP1 PUSH1 0x1 DUP2 SLOAD ADD DUP1 DUP3 SSTORE DUP1 SWAP2 POP POP PUSH1 0x1 SWAP1 SUB SWAP1 PUSH1 0x0 MSTORE PUSH1 0x20 PUSH1 0x0 KECCAK256 SWAP1 PUSH1 0x7 MUL ADD PUSH1 0x0 SWAP1 SWAP2 SWAP1 SWAP2 SWAP1 SWAP2 POP PUSH1 0x0 DUP3 ADD MLOAD DUP2 PUSH1 0x0 ADD PUSH1 0x0 PUSH2 0x100 EXP DUP2 SLOAD DUP2 PUSH20 0xFFFFFFFFFFFFFFFFFFFFFFFFFFFFFFFFFFFFFFFF MUL NOT AND SWAP1 DUP4 PUSH20 0xFFFFFFFFFFFFFFFFFFFFFFFFFFFFFFFFFFFFFFFF AND MUL OR SWAP1 SSTORE POP PUSH1 0x20 DUP3 ADD MLOAD DUP2 PUSH1 0x1 ADD PUSH1 0x0 PUSH2 0x100 EXP DUP2 SLOAD DUP2 PUSH20 0xFFFFFFFFFFFFFFFFFFFFFFFFFFFFFFFFFFFFFFFF MUL NOT AND SWAP1 DUP4 PUSH20 0xFFFFFFFFFFFFFFFFFFFFFFFFFFFFFFFFFFFFFFFF AND MUL OR SWAP1 SSTORE POP PUSH1 0x40 DUP3 ADD MLOAD DUP2 PUSH1 0x2 ADD PUSH1 0x0 PUSH2 0x100 EXP DUP2 SLOAD DUP2 PUSH20 0xFFFFFFFFFFFFFFFFFFFFFFFFFFFFFFFFFFFFFFFF MUL NOT AND SWAP1 DUP4 PUSH20 0xFFFFFFFFFFFFFFFFFFFFFFFFFFFFFFFFFFFFFFFF AND MUL OR SWAP1 SSTORE POP PUSH1 0x60 DUP3 ADD MLOAD DUP2 PUSH1 0x3 ADD SWAP1 DUP2 PUSH3 0x1342 SWAP2 SWAP1 PUSH3 0x235D JUMP JUMPDEST POP PUSH1 0x80 DUP3 ADD MLOAD DUP2 PUSH1 0x4 ADD SSTORE PUSH1 0xA0 DUP3 ADD MLOAD DUP2 PUSH1 0x5 ADD PUSH1 0x0 PUSH2 0x100 EXP DUP2 SLOAD DUP2 PUSH1 0xFF MUL NOT AND SWAP1 DUP4 PUSH1 0x1 DUP2 GT ISZERO PUSH3 0x137B JUMPI PUSH3 0x137A PUSH3 0x1834 JUMP JUMPDEST JUMPDEST MUL OR SWAP1 SSTORE POP PUSH1 0xC0 DUP3 ADD MLOAD DUP2 PUSH1 0x6 ADD SSTORE POP POP PUSH1 0x1 PUSH1 0x0 DUP5 PUSH20 0xFFFFFFFFFFFFFFFFFFFFFFFFFFFFFFFFFFFFFFFF AND PUSH20 0xFFFFFFFFFFFFFFFFFFFFFFFFFFFFFFFFFFFFFFFF AND DUP2 MSTORE PUSH1 0x20 ADD SWAP1 DUP2 MSTORE PUSH1 0x20 ADD PUSH1 0x0 KECCAK256 DUP2 SWAP1 DUP1 PUSH1 0x1 DUP2 SLOAD ADD DUP1 DUP3 SSTORE DUP1 SWAP2 POP POP PUSH1 0x1 SWAP1 SUB SWAP1 PUSH1 0x0 MSTORE PUSH1 0x20 PUSH1 0x0 KECCAK256 SWAP1 PUSH1 0x7 MUL ADD PUSH1 0x0 SWAP1 SWAP2 SWAP1 SWAP2 SWAP1 SWAP2 POP PUSH1 0x0 DUP3 ADD MLOAD DUP2 PUSH1 0x0 ADD PUSH1 0x0 PUSH2 0x100 EXP DUP2 SLOAD DUP2 PUSH20 0xFFFFFFFFFFFFFFFFFFFFFFFFFFFFFFFFFFFFFFFF MUL NOT AND SWAP1 DUP4 PUSH20 0xFFFFFFFFFFFFFFFFFFFFFFFFFFFFFFFFFFFFFFFF AND MUL OR SWAP1 SSTORE POP PUSH1 0x20 DUP3 ADD MLOAD DUP2 PUSH1 0x1 ADD PUSH1 0x0 PUSH2 0x100 EXP DUP2 SLOAD DUP2 PUSH20 0xFFFFFFFFFFFFFFFFFFFFFFFFFFFFFFFFFFFFFFFF MUL NOT AND SWAP1 DUP4 PUSH20 0xFFFFFFFFFFFFFFFFFFFFFFFFFFFFFFFFFFFFFFFF AND MUL OR SWAP1 SSTORE POP PUSH1 0x40 DUP3 ADD MLOAD DUP2 PUSH1 0x2 ADD PUSH1 0x0 PUSH2 0x100 EXP DUP2 SLOAD DUP2 PUSH20 0xFFFFFFFFFFFFFFFFFFFFFFFFFFFFFFFFFFFFFFFF MUL NOT AND SWAP1 DUP4 PUSH20 0xFFFFFFFFFFFFFFFFFFFFFFFFFFFFFFFFFFFFFFFF AND MUL OR SWAP1 SSTORE POP PUSH1 0x60 DUP3 ADD MLOAD DUP2 PUSH1 0x3 ADD SWAP1 DUP2 PUSH3 0x14E1 SWAP2 SWAP1 PUSH3 0x235D JUMP JUMPDEST POP PUSH1 0x80 DUP3 ADD MLOAD DUP2 PUSH1 0x4 ADD SSTORE PUSH1 0xA0 DUP3 ADD MLOAD DUP2 PUSH1 0x5 ADD PUSH1 0x0 PUSH2 0x100 EXP DUP2 SLOAD DUP2 PUSH1 0xFF MUL NOT AND SWAP1 DUP4 PUSH1 0x1 DUP2 GT ISZERO PUSH3 0x151A JUMPI PUSH3 0x1519 PUSH3 0x1834 JUMP JUMPDEST JUMPDEST MUL OR SWAP1 SSTORE POP PUSH1 0xC0 DUP3 ADD MLOAD DUP2 PUSH1 0x6 ADD SSTORE POP POP POP POP POP POP POP POP POP POP JUMP JUMPDEST PUSH1 0x0 CALLER SWAP1 POP SWAP1 JUMP JUMPDEST PUSH1 0x0 DUP1 PUSH1 0x0 SWAP1 SLOAD SWAP1 PUSH2 0x100 EXP SWAP1 DIV PUSH20 0xFFFFFFFFFFFFFFFFFFFFFFFFFFFFFFFFFFFFFFFF AND SWAP1 POP DUP2 PUSH1 0x0 DUP1 PUSH2 0x100 EXP DUP2 SLOAD DUP2 PUSH20 0xFFFFFFFFFFFFFFFFFFFFFFFFFFFFFFFFFFFFFFFF MUL NOT AND SWAP1 DUP4 PUSH20 0xFFFFFFFFFFFFFFFFFFFFFFFFFFFFFFFFFFFFFFFF AND MUL OR SWAP1 SSTORE POP DUP2 PUSH20 0xFFFFFFFFFFFFFFFFFFFFFFFFFFFFFFFFFFFFFFFF AND DUP2 PUSH20 0xFFFFFFFFFFFFFFFFFFFFFFFFFFFFFFFFFFFFFFFF AND PUSH32 0x8BE0079C531659141344CD1FD0A4F28419497F9722A3DAAFE3B4186F6B6457E0 PUSH1 0x40 MLOAD PUSH1 0x40 MLOAD DUP1 SWAP2 SUB SWAP1 LOG3 POP POP JUMP JUMPDEST PUSH2 0x70D DUP1 PUSH3 0x2609 DUP4 CODECOPY ADD SWAP1 JUMP JUMPDEST PUSH1 0x40 MLOAD DUP1 PUSH1 0xE0 ADD PUSH1 0x40 MSTORE DUP1 PUSH1 0x0 PUSH20 0xFFFFFFFFFFFFFFFFFFFFFFFFFFFFFFFFFFFFFFFF AND DUP2 MSTORE PUSH1 0x20 ADD PUSH1 0x0 PUSH20 0xFFFFFFFFFFFFFFFFFFFFFFFFFFFFFFFFFFFFFFFF AND DUP2 MSTORE PUSH1 0x20 ADD PUSH1 0x0 PUSH20 0xFFFFFFFFFFFFFFFFFFFFFFFFFFFFFFFFFFFFFFFF AND DUP2 MSTORE PUSH1 0x20 ADD PUSH1 0x60 DUP2 MSTORE PUSH1 0x20 ADD PUSH1 0x0 DUP2 MSTORE PUSH1 0x20 ADD PUSH1 0x0 PUSH1 0x1 DUP2 GT ISZERO PUSH3 0x1696 JUMPI PUSH3 0x1695 PUSH3 0x1834 JUMP JUMPDEST JUMPDEST DUP2 MSTORE PUSH1 0x20 ADD PUSH1 0x0 DUP2 MSTORE POP SWAP1 JUMP JUMPDEST PUSH1 0x0 DUP2 MLOAD SWAP1 POP SWAP2 SWAP1 POP JUMP JUMPDEST PUSH1 0x0 DUP3 DUP3 MSTORE PUSH1 0x20 DUP3 ADD SWAP1 POP SWAP3 SWAP2 POP POP JUMP JUMPDEST PUSH1 0x0 DUP2 SWAP1 POP PUSH1 0x20 DUP3 ADD SWAP1 POP SWAP2 SWAP1 POP JUMP JUMPDEST PUSH1 0x0 PUSH20 0xFFFFFFFFFFFFFFFFFFFFFFFFFFFFFFFFFFFFFFFF DUP3 AND SWAP1 POP SWAP2 SWAP1 POP JUMP JUMPDEST PUSH1 0x0 PUSH3 0x16FC DUP3 PUSH3 0x16CF JUMP JUMPDEST SWAP1 POP SWAP2 SWAP1 POP JUMP JUMPDEST PUSH3 0x170E DUP2 PUSH3 0x16EF JUMP JUMPDEST DUP3 MSTORE POP POP JUMP JUMPDEST PUSH1 0x0 DUP2 SWAP1 POP SWAP2 SWAP1 POP JUMP JUMPDEST PUSH1 0x0 PUSH3 0x173F PUSH3 0x1739 PUSH3 0x1733 DUP5 PUSH3 0x16CF JUMP JUMPDEST PUSH3 0x1714 JUMP JUMPDEST PUSH3 0x16CF JUMP JUMPDEST SWAP1 POP SWAP2 SWAP1 POP JUMP JUMPDEST PUSH1 0x0 PUSH3 0x1753 DUP3 PUSH3 0x171E JUMP JUMPDEST SWAP1 POP SWAP2 SWAP1 POP JUMP JUMPDEST PUSH1 0x0 PUSH3 0x1767 DUP3 PUSH3 0x1746 JUMP JUMPDEST SWAP1 POP SWAP2 SWAP1 POP JUMP JUMPDEST PUSH3 0x1779 DUP2 PUSH3 0x175A JUMP JUMPDEST DUP3 MSTORE POP POP JUMP JUMPDEST PUSH1 0x0 DUP2 MLOAD SWAP1 POP SWAP2 SWAP1 POP JUMP JUMPDEST PUSH1 0x0 DUP3 DUP3 MSTORE PUSH1 0x20 DUP3 ADD SWAP1 POP SWAP3 SWAP2 POP POP JUMP JUMPDEST PUSH1 0x0 JUMPDEST DUP4 DUP2 LT ISZERO PUSH3 0x17BB JUMPI DUP1 DUP3 ADD MLOAD DUP2 DUP5 ADD MSTORE PUSH1 0x20 DUP2 ADD SWAP1 POP PUSH3 0x179E JUMP JUMPDEST PUSH1 0x0 DUP5 DUP5 ADD MSTORE POP POP POP POP JUMP JUMPDEST PUSH1 0x0 PUSH1 0x1F NOT PUSH1 0x1F DUP4 ADD AND SWAP1 POP SWAP2 SWAP1 POP JUMP JUMPDEST PUSH1 0x0 PUSH3 0x17E5 DUP3 PUSH3 0x177F JUMP JUMPDEST PUSH3 0x17F1 DUP2 DUP6 PUSH3 0x178A JUMP JUMPDEST SWAP4 POP PUSH3 0x1803 DUP2 DUP6 PUSH1 0x20 DUP7 ADD PUSH3 0x179B JUMP JUMPDEST PUSH3 0x180E DUP2 PUSH3 0x17C7 JUMP JUMPDEST DUP5 ADD SWAP2 POP POP SWAP3 SWAP2 POP POP JUMP JUMPDEST PUSH1 0x0 DUP2 SWAP1 POP SWAP2 SWAP1 POP JUMP JUMPDEST PUSH3 0x182E DUP2 PUSH3 0x1819 JUMP JUMPDEST DUP3 MSTORE POP POP JUMP JUMPDEST PUSH32 0x4E487B7100000000000000000000000000000000000000000000000000000000 PUSH1 0x0 MSTORE PUSH1 0x21 PUSH1 0x4 MSTORE PUSH1 0x24 PUSH1 0x0 REVERT JUMPDEST PUSH1 0x2 DUP2 LT PUSH3 0x1877 JUMPI PUSH3 0x1876 PUSH3 0x1834 JUMP JUMPDEST JUMPDEST POP JUMP JUMPDEST PUSH1 0x0 DUP2 SWAP1 POP PUSH3 0x188A DUP3 PUSH3 0x1863 JUMP JUMPDEST SWAP2 SWAP1 POP JUMP JUMPDEST PUSH1 0x0 PUSH3 0x189C DUP3 PUSH3 0x187A JUMP JUMPDEST SWAP1 POP SWAP2 SWAP1 POP JUMP JUMPDEST PUSH3 0x18AE DUP2 PUSH3 0x188F JUMP JUMPDEST DUP3 MSTORE POP POP JUMP JUMPDEST PUSH1 0x0 PUSH1 0xE0 DUP4 ADD PUSH1 0x0 DUP4 ADD MLOAD PUSH3 0x18CE PUSH1 0x0 DUP7 ADD DUP3 PUSH3 0x1703 JUMP JUMPDEST POP PUSH1 0x20 DUP4 ADD MLOAD PUSH3 0x18E3 PUSH1 0x20 DUP7 ADD DUP3 PUSH3 0x1703 JUMP JUMPDEST POP PUSH1 0x40 DUP4 ADD MLOAD PUSH3 0x18F8 PUSH1 0x40 DUP7 ADD DUP3 PUSH3 0x176E JUMP JUMPDEST POP PUSH1 0x60 DUP4 ADD MLOAD DUP5 DUP3 SUB PUSH1 0x60 DUP7 ADD MSTORE PUSH3 0x1912 DUP3 DUP3 PUSH3 0x17D8 JUMP JUMPDEST SWAP2 POP POP PUSH1 0x80 DUP4 ADD MLOAD PUSH3 0x1929 PUSH1 0x80 DUP7 ADD DUP3 PUSH3 0x1823 JUMP JUMPDEST POP PUSH1 0xA0 DUP4 ADD MLOAD PUSH3 0x193E PUSH1 0xA0 DUP7 ADD DUP3 PUSH3 0x18A3 JUMP JUMPDEST POP PUSH1 0xC0 DUP4 ADD MLOAD PUSH3 0x1953 PUSH1 0xC0 DUP7 ADD DUP3 PUSH3 0x1823 JUMP JUMPDEST POP DUP1 SWAP2 POP POP SWAP3 SWAP2 POP POP JUMP JUMPDEST PUSH1 0x0 PUSH3 0x196C DUP4 DUP4 PUSH3 0x18B4 JUMP JUMPDEST SWAP1 POP SWAP3 SWAP2 POP POP JUMP JUMPDEST PUSH1 0x0 PUSH1 0x20 DUP3 ADD SWAP1 POP SWAP2 SWAP1 POP JUMP JUMPDEST PUSH1 0x0 PUSH3 0x198E DUP3 PUSH3 0x16A3 JUMP JUMPDEST PUSH3 0x199A DUP2 DUP6 PUSH3 0x16AE JUMP JUMPDEST SWAP4 POP DUP4 PUSH1 0x20 DUP3 MUL DUP6 ADD PUSH3 0x19AE DUP6 PUSH3 0x16BF JUMP JUMPDEST DUP1 PUSH1 0x0 JUMPDEST DUP6 DUP2 LT ISZERO PUSH3 0x19F0 JUMPI DUP5 DUP5 SUB DUP10 MSTORE DUP2 MLOAD PUSH3 0x19CE DUP6 DUP3 PUSH3 0x195E JUMP JUMPDEST SWAP5 POP PUSH3 0x19DB DUP4 PUSH3 0x1974 JUMP JUMPDEST SWAP3 POP PUSH1 0x20 DUP11 ADD SWAP10 POP POP PUSH1 0x1 DUP2 ADD SWAP1 POP PUSH3 0x19B2 JUMP JUMPDEST POP DUP3 SWAP8 POP DUP8 SWAP6 POP POP POP POP POP POP SWAP3 SWAP2 POP POP JUMP JUMPDEST PUSH1 0x0 PUSH1 0x20 DUP3 ADD SWAP1 POP DUP2 DUP2 SUB PUSH1 0x0 DUP4 ADD MSTORE PUSH3 0x1A1E DUP2 DUP5 PUSH3 0x1981 JUMP JUMPDEST SWAP1 POP SWAP3 SWAP2 POP POP JUMP JUMPDEST PUSH1 0x0 PUSH1 0x40 MLOAD SWAP1 POP SWAP1 JUMP JUMPDEST PUSH1 0x0 DUP1 REVERT JUMPDEST PUSH1 0x0 DUP1 REVERT JUMPDEST PUSH3 0x1A45 DUP2 PUSH3 0x1819 JUMP JUMPDEST DUP2 EQ PUSH3 0x1A51 JUMPI PUSH1 0x0 DUP1 REVERT JUMPDEST POP JUMP JUMPDEST PUSH1 0x0 DUP2 CALLDATALOAD SWAP1 POP PUSH3 0x1A65 DUP2 PUSH3 0x1A3A JUMP JUMPDEST SWAP3 SWAP2 POP POP JUMP JUMPDEST PUSH1 0x0 PUSH1 0x20 DUP3 DUP5 SUB SLT ISZERO PUSH3 0x1A84 JUMPI PUSH3 0x1A83 PUSH3 0x1A30 JUMP JUMPDEST JUMPDEST PUSH1 0x0 PUSH3 0x1A94 DUP5 DUP3 DUP6 ADD PUSH3 0x1A54 JUMP JUMPDEST SWAP2 POP POP SWAP3 SWAP2 POP POP JUMP JUMPDEST PUSH1 0x0 DUP1 REVERT JUMPDEST PUSH1 0x0 DUP1 REVERT JUMPDEST PUSH32 0x4E487B7100000000000000000000000000000000000000000000000000000000 PUSH1 0x0 MSTORE PUSH1 0x41 PUSH1 0x4 MSTORE PUSH1 0x24 PUSH1 0x0 REVERT JUMPDEST PUSH3 0x1AE1 DUP3 PUSH3 0x17C7 JUMP JUMPDEST DUP2 ADD DUP2 DUP2 LT PUSH8 0xFFFFFFFFFFFFFFFF DUP3 GT OR ISZERO PUSH3 0x1B03 JUMPI PUSH3 0x1B02 PUSH3 0x1AA7 JUMP JUMPDEST JUMPDEST DUP1 PUSH1 0x40 MSTORE POP POP POP JUMP JUMPDEST PUSH1 0x0 PUSH3 0x1B18 PUSH3 0x1A26 JUMP JUMPDEST SWAP1 POP PUSH3 0x1B26 DUP3 DUP3 PUSH3 0x1AD6 JUMP JUMPDEST SWAP2 SWAP1 POP JUMP JUMPDEST PUSH1 0x0 PUSH8 0xFFFFFFFFFFFFFFFF DUP3 GT ISZERO PUSH3 0x1B49 JUMPI PUSH3 0x1B48 PUSH3 0x1AA7 JUMP JUMPDEST JUMPDEST PUSH3 0x1B54 DUP3 PUSH3 0x17C7 JUMP JUMPDEST SWAP1 POP PUSH1 0x20 DUP2 ADD SWAP1 POP SWAP2 SWAP1 POP JUMP JUMPDEST DUP3 DUP2 DUP4 CALLDATACOPY PUSH1 0x0 DUP4 DUP4 ADD MSTORE POP POP POP JUMP JUMPDEST PUSH1 0x0 PUSH3 0x1B87 PUSH3 0x1B81 DUP5 PUSH3 0x1B2B JUMP JUMPDEST PUSH3 0x1B0C JUMP JUMPDEST SWAP1 POP DUP3 DUP2 MSTORE PUSH1 0x20 DUP2 ADD DUP5 DUP5 DUP5 ADD GT ISZERO PUSH3 0x1BA6 JUMPI PUSH3 0x1BA5 PUSH3 0x1AA2 JUMP JUMPDEST JUMPDEST PUSH3 0x1BB3 DUP5 DUP3 DUP6 PUSH3 0x1B61 JUMP JUMPDEST POP SWAP4 SWAP3 POP POP POP JUMP JUMPDEST PUSH1 0x0 DUP3 PUSH1 0x1F DUP4 ADD SLT PUSH3 0x1BD3 JUMPI PUSH3 0x1BD2 PUSH3 0x1A9D JUMP JUMPDEST JUMPDEST DUP2 CALLDATALOAD PUSH3 0x1BE5 DUP5 DUP3 PUSH1 0x20 DUP7 ADD PUSH3 0x1B70 JUMP JUMPDEST SWAP2 POP POP SWAP3 SWAP2 POP POP JUMP JUMPDEST PUSH1 0x0 DUP1 PUSH1 0x40 DUP4 DUP6 SUB SLT ISZERO PUSH3 0x1C08 JUMPI PUSH3 0x1C07 PUSH3 0x1A30 JUMP JUMPDEST JUMPDEST PUSH1 0x0 DUP4 ADD CALLDATALOAD PUSH8 0xFFFFFFFFFFFFFFFF DUP2 GT ISZERO PUSH3 0x1C29 JUMPI PUSH3 0x1C28 PUSH3 0x1A35 JUMP JUMPDEST JUMPDEST PUSH3 0x1C37 DUP6 DUP3 DUP7 ADD PUSH3 0x1BBB JUMP JUMPDEST SWAP3 POP POP PUSH1 0x20 PUSH3 0x1C4A DUP6 DUP3 DUP7 ADD PUSH3 0x1A54 JUMP JUMPDEST SWAP2 POP POP SWAP3 POP SWAP3 SWAP1 POP JUMP JUMPDEST PUSH3 0x1C5F DUP2 PUSH3 0x16EF JUMP JUMPDEST DUP3 MSTORE POP POP JUMP JUMPDEST PUSH1 0x0 PUSH1 0x20 DUP3 ADD SWAP1 POP PUSH3 0x1C7C PUSH1 0x0 DUP4 ADD DUP5 PUSH3 0x1C54 JUMP JUMPDEST SWAP3 SWAP2 POP POP JUMP JUMPDEST PUSH3 0x1C8D DUP2 PUSH3 0x175A JUMP JUMPDEST DUP3 MSTORE POP POP JUMP JUMPDEST PUSH1 0x0 DUP3 DUP3 MSTORE PUSH1 0x20 DUP3 ADD SWAP1 POP SWAP3 SWAP2 POP POP JUMP JUMPDEST PUSH1 0x0 PUSH3 0x1CB1 DUP3 PUSH3 0x177F JUMP JUMPDEST PUSH3 0x1CBD DUP2 DUP6 PUSH3 0x1C93 JUMP JUMPDEST SWAP4 POP PUSH3 0x1CCF DUP2 DUP6 PUSH1 0x20 DUP7 ADD PUSH3 0x179B JUMP JUMPDEST PUSH3 0x1CDA DUP2 PUSH3 0x17C7 JUMP JUMPDEST DUP5 ADD SWAP2 POP POP SWAP3 SWAP2 POP POP JUMP JUMPDEST PUSH3 0x1CF0 DUP2 PUSH3 0x1819 JUMP JUMPDEST DUP3 MSTORE POP POP JUMP JUMPDEST PUSH3 0x1D01 DUP2 PUSH3 0x188F JUMP JUMPDEST DUP3 MSTORE POP POP JUMP JUMPDEST PUSH1 0x0 PUSH1 0xE0 DUP3 ADD SWAP1 POP PUSH3 0x1D1E PUSH1 0x0 DUP4 ADD DUP11 PUSH3 0x1C54 JUMP JUMPDEST PUSH3 0x1D2D PUSH1 0x20 DUP4 ADD DUP10 PUSH3 0x1C54 JUMP JUMPDEST PUSH3 0x1D3C PUSH1 0x40 DUP4 ADD DUP9 PUSH3 0x1C82 JUMP JUMPDEST DUP2 DUP2 SUB PUSH1 0x60 DUP4 ADD MSTORE PUSH3 0x1D50 DUP2 DUP8 PUSH3 0x1CA4 JUMP JUMPDEST SWAP1 POP PUSH3 0x1D61 PUSH1 0x80 DUP4 ADD DUP7 PUSH3 0x1CE5 JUMP JUMPDEST PUSH3 0x1D70 PUSH1 0xA0 DUP4 ADD DUP6 PUSH3 0x1CF6 JUMP JUMPDEST PUSH3 0x1D7F PUSH1 0xC0 DUP4 ADD DUP5 PUSH3 0x1CE5 JUMP JUMPDEST SWAP9 SWAP8 POP POP POP POP POP POP POP POP JUMP JUMPDEST PUSH3 0x1D96 DUP2 PUSH3 0x16EF JUMP JUMPDEST DUP2 EQ PUSH3 0x1DA2 JUMPI PUSH1 0x0 DUP1 REVERT JUMPDEST POP JUMP JUMPDEST PUSH1 0x0 DUP2 CALLDATALOAD SWAP1 POP PUSH3 0x1DB6 DUP2 PUSH3 0x1D8B JUMP JUMPDEST SWAP3 SWAP2 POP POP JUMP JUMPDEST PUSH1 0x0 PUSH1 0x20 DUP3 DUP5 SUB SLT ISZERO PUSH3 0x1DD5 JUMPI PUSH3 0x1DD4 PUSH3 0x1A30 JUMP JUMPDEST JUMPDEST PUSH1 0x0 PUSH3 0x1DE5 DUP5 DUP3 DUP6 ADD PUSH3 0x1DA5 JUMP JUMPDEST SWAP2 POP POP SWAP3 SWAP2 POP POP JUMP JUMPDEST PUSH32 0x4E487B7100000000000000000000000000000000000000000000000000000000 PUSH1 0x0 MSTORE PUSH1 0x22 PUSH1 0x4 MSTORE PUSH1 0x24 PUSH1 0x0 REVERT JUMPDEST PUSH1 0x0 PUSH1 0x2 DUP3 DIV SWAP1 POP PUSH1 0x1 DUP3 AND DUP1 PUSH3 0x1E36 JUMPI PUSH1 0x7F DUP3 AND SWAP2 POP JUMPDEST PUSH1 0x20 DUP3 LT DUP2 SUB PUSH3 0x1E4C JUMPI PUSH3 0x1E4B PUSH3 0x1DEE JUMP JUMPDEST JUMPDEST POP SWAP2 SWAP1 POP JUMP JUMPDEST PUSH32 0x4F6E6C792066756C6C207061796D656E7420697320616C6C6F77656400000000 PUSH1 0x0 DUP3 ADD MSTORE POP JUMP JUMPDEST PUSH1 0x0 PUSH3 0x1E8A PUSH1 0x1C DUP4 PUSH3 0x1C93 JUMP JUMPDEST SWAP2 POP PUSH3 0x1E97 DUP3 PUSH3 0x1E52 JUMP JUMPDEST PUSH1 0x20 DUP3 ADD SWAP1 POP SWAP2 SWAP1 POP JUMP JUMPDEST PUSH1 0x0 PUSH1 0x20 DUP3 ADD SWAP1 POP DUP2 DUP2 SUB PUSH1 0x0 DUP4 ADD MSTORE PUSH3 0x1EBD DUP2 PUSH3 0x1E7B JUMP JUMPDEST SWAP1 POP SWAP2 SWAP1 POP JUMP JUMPDEST PUSH32 0x4974656D206973206675727468657220696E20746865206C696E650000000000 PUSH1 0x0 DUP3 ADD MSTORE POP JUMP JUMPDEST PUSH1 0x0 PUSH3 0x1EFC PUSH1 0x1B DUP4 PUSH3 0x1C93 JUMP JUMPDEST SWAP2 POP PUSH3 0x1F09 DUP3 PUSH3 0x1EC4 JUMP JUMPDEST PUSH1 0x20 DUP3 ADD SWAP1 POP SWAP2 SWAP1 POP JUMP JUMPDEST PUSH1 0x0 PUSH1 0x20 DUP3 ADD SWAP1 POP DUP2 DUP2 SUB PUSH1 0x0 DUP4 ADD MSTORE PUSH3 0x1F2F DUP2 PUSH3 0x1EED JUMP JUMPDEST SWAP1 POP SWAP2 SWAP1 POP JUMP JUMPDEST PUSH32 0x53656C6C65722063616E206E6F7420627579207468656972206F776E20697465 PUSH1 0x0 DUP3 ADD MSTORE PUSH32 0x6D00000000000000000000000000000000000000000000000000000000000000 PUSH1 0x20 DUP3 ADD MSTORE POP JUMP JUMPDEST PUSH1 0x0 PUSH3 0x1F94 PUSH1 0x21 DUP4 PUSH3 0x1C93 JUMP JUMPDEST SWAP2 POP PUSH3 0x1FA1 DUP3 PUSH3 0x1F36 JUMP JUMPDEST PUSH1 0x40 DUP3 ADD SWAP1 POP SWAP2 SWAP1 POP JUMP JUMPDEST PUSH1 0x0 PUSH1 0x20 DUP3 ADD SWAP1 POP DUP2 DUP2 SUB PUSH1 0x0 DUP4 ADD MSTORE PUSH3 0x1FC7 DUP2 PUSH3 0x1F85 JUMP JUMPDEST SWAP1 POP SWAP2 SWAP1 POP JUMP JUMPDEST PUSH1 0x0 PUSH1 0xC0 DUP3 ADD SWAP1 POP PUSH3 0x1FE5 PUSH1 0x0 DUP4 ADD DUP10 PUSH3 0x1CE5 JUMP JUMPDEST PUSH3 0x1FF4 PUSH1 0x20 DUP4 ADD DUP9 PUSH3 0x1CE5 JUMP JUMPDEST PUSH3 0x2003 PUSH1 0x40 DUP4 ADD DUP8 PUSH3 0x1C54 JUMP JUMPDEST PUSH3 0x2012 PUSH1 0x60 DUP4 ADD DUP7 PUSH3 0x1CE5 JUMP JUMPDEST PUSH3 0x2021 PUSH1 0x80 DUP4 ADD DUP6 PUSH3 0x1C54 JUMP JUMPDEST PUSH3 0x2030 PUSH1 0xA0 DUP4 ADD DUP5 PUSH3 0x1C54 JUMP JUMPDEST SWAP8 SWAP7 POP POP POP POP POP POP POP JUMP JUMPDEST PUSH32 0x4F776E61626C653A2063616C6C6572206973206E6F7420746865206F776E6572 PUSH1 0x0 DUP3 ADD MSTORE POP JUMP JUMPDEST PUSH1 0x0 PUSH3 0x2073 PUSH1 0x20 DUP4 PUSH3 0x1C93 JUMP JUMPDEST SWAP2 POP PUSH3 0x2080 DUP3 PUSH3 0x203B JUMP JUMPDEST PUSH1 0x20 DUP3 ADD SWAP1 POP SWAP2 SWAP1 POP JUMP JUMPDEST PUSH1 0x0 PUSH1 0x20 DUP3 ADD SWAP1 POP DUP2 DUP2 SUB PUSH1 0x0 DUP4 ADD MSTORE PUSH3 0x20A6 DUP2 PUSH3 0x2064 JUMP JUMPDEST SWAP1 POP SWAP2 SWAP1 POP JUMP JUMPDEST PUSH32 0x63616E206E6F742072656E6F756E6365206F776E657273686970000000000000 PUSH1 0x0 DUP3 ADD MSTORE POP JUMP JUMPDEST PUSH1 0x0 PUSH3 0x20E5 PUSH1 0x1A DUP4 PUSH3 0x1C93 JUMP JUMPDEST SWAP2 POP PUSH3 0x20F2 DUP3 PUSH3 0x20AD JUMP JUMPDEST PUSH1 0x20 DUP3 ADD SWAP1 POP SWAP2 SWAP1 POP JUMP JUMPDEST PUSH1 0x0 PUSH1 0x20 DUP3 ADD SWAP1 POP DUP2 DUP2 SUB PUSH1 0x0 DUP4 ADD MSTORE PUSH3 0x2118 DUP2 PUSH3 0x20D6 JUMP JUMPDEST SWAP1 POP SWAP2 SWAP1 POP JUMP JUMPDEST PUSH1 0x0 PUSH3 0x212C DUP3 PUSH3 0x171E JUMP JUMPDEST SWAP1 POP SWAP2 SWAP1 POP JUMP JUMPDEST PUSH1 0x0 PUSH3 0x2140 DUP3 PUSH3 0x211F JUMP JUMPDEST SWAP1 POP SWAP2 SWAP1 POP JUMP JUMPDEST PUSH3 0x2152 DUP2 PUSH3 0x2133 JUMP JUMPDEST DUP3 MSTORE POP POP JUMP JUMPDEST PUSH1 0x0 PUSH1 0x60 DUP3 ADD SWAP1 POP PUSH3 0x216F PUSH1 0x0 DUP4 ADD DUP7 PUSH3 0x2147 JUMP JUMPDEST PUSH3 0x217E PUSH1 0x20 DUP4 ADD DUP6 PUSH3 0x1CE5 JUMP JUMPDEST PUSH3 0x218D PUSH1 0x40 DUP4 ADD DUP5 PUSH3 0x1CE5 JUMP JUMPDEST SWAP5 SWAP4 POP POP POP POP JUMP JUMPDEST PUSH1 0x0 DUP2 SWAP1 POP DUP2 PUSH1 0x0 MSTORE PUSH1 0x20 PUSH1 0x0 KECCAK256 SWAP1 POP SWAP2 SWAP1 POP JUMP JUMPDEST PUSH1 0x0 PUSH1 0x20 PUSH1 0x1F DUP4 ADD DIV SWAP1 POP SWAP2 SWAP1 POP JUMP JUMPDEST PUSH1 0x0 DUP3 DUP3 SHL SWAP1 POP SWAP3 SWAP2 POP POP JUMP JUMPDEST PUSH1 0x0 PUSH1 0x8 DUP4 MUL PUSH3 0x21F9 PUSH32 0xFFFFFFFFFFFFFFFFFFFFFFFFFFFFFFFFFFFFFFFFFFFFFFFFFFFFFFFFFFFFFFFF DUP3 PUSH3 0x21BA JUMP JUMPDEST PUSH3 0x2205 DUP7 DUP4 PUSH3 0x21BA JUMP JUMPDEST SWAP6 POP DUP1 NOT DUP5 AND SWAP4 POP DUP1 DUP7 AND DUP5 OR SWAP3 POP POP POP SWAP4 SWAP3 POP POP POP JUMP JUMPDEST PUSH1 0x0 PUSH3 0x223E PUSH3 0x2238 PUSH3 0x2232 DUP5 PUSH3 0x1819 JUMP JUMPDEST PUSH3 0x1714 JUMP JUMPDEST PUSH3 0x1819 JUMP JUMPDEST SWAP1 POP SWAP2 SWAP1 POP JUMP JUMPDEST PUSH1 0x0 DUP2 SWAP1 POP SWAP2 SWAP1 POP JUMP JUMPDEST PUSH3 0x225A DUP4 PUSH3 0x221D JUMP JUMPDEST PUSH3 0x2272 PUSH3 0x2269 DUP3 PUSH3 0x2245 JUMP JUMPDEST DUP5 DUP5 SLOAD PUSH3 0x21C7 JUMP JUMPDEST DUP3 SSTORE POP POP POP POP JUMP JUMPDEST PUSH1 0x0 SWAP1 JUMP JUMPDEST PUSH3 0x2289 PUSH3 0x227A JUMP JUMPDEST PUSH3 0x2296 DUP2 DUP5 DUP5 PUSH3 0x224F JUMP JUMPDEST POP POP POP JUMP JUMPDEST JUMPDEST DUP2 DUP2 LT ISZERO PUSH3 0x22BE JUMPI PUSH3 0x22B2 PUSH1 0x0 DUP3 PUSH3 0x227F JUMP JUMPDEST PUSH1 0x1 DUP2 ADD SWAP1 POP PUSH3 0x229C JUMP JUMPDEST POP POP JUMP JUMPDEST PUSH1 0x1F DUP3 GT ISZERO PUSH3 0x230D JUMPI PUSH3 0x22D7 DUP2 PUSH3 0x2195 JUMP JUMPDEST PUSH3 0x22E2 DUP5 PUSH3 0x21AA JUMP JUMPDEST DUP2 ADD PUSH1 0x20 DUP6 LT ISZERO PUSH3 0x22F2 JUMPI DUP2 SWAP1 POP JUMPDEST PUSH3 0x230A PUSH3 0x2301 DUP6 PUSH3 0x21AA JUMP JUMPDEST DUP4 ADD DUP3 PUSH3 0x229B JUMP JUMPDEST POP POP JUMPDEST POP POP POP JUMP JUMPDEST PUSH1 0x0 DUP3 DUP3 SHR SWAP1 POP SWAP3 SWAP2 POP POP JUMP JUMPDEST PUSH1 0x0 PUSH3 0x2332 PUSH1 0x0 NOT DUP5 PUSH1 0x8 MUL PUSH3 0x2312 JUMP JUMPDEST NOT DUP1 DUP4 AND SWAP2 POP POP SWAP3 SWAP2 POP POP JUMP JUMPDEST PUSH1 0x0 PUSH3 0x234D DUP4 DUP4 PUSH3 0x231F JUMP JUMPDEST SWAP2 POP DUP3 PUSH1 0x2 MUL DUP3 OR SWAP1 POP SWAP3 SWAP2 POP POP JUMP JUMPDEST PUSH3 0x2368 DUP3 PUSH3 0x177F JUMP JUMPDEST PUSH8 0xFFFFFFFFFFFFFFFF DUP2 GT ISZERO PUSH3 0x2384 JUMPI PUSH3 0x2383 PUSH3 0x1AA7 JUMP JUMPDEST JUMPDEST PUSH3 0x2390 DUP3 SLOAD PUSH3 0x1E1D JUMP JUMPDEST PUSH3 0x239D DUP3 DUP3 DUP6 PUSH3 0x22C2 JUMP JUMPDEST PUSH1 0x0 PUSH1 0x20 SWAP1 POP PUSH1 0x1F DUP4 GT PUSH1 0x1 DUP2 EQ PUSH3 0x23D5 JUMPI PUSH1 0x0 DUP5 ISZERO PUSH3 0x23C0 JUMPI DUP3 DUP8 ADD MLOAD SWAP1 POP JUMPDEST PUSH3 0x23CC DUP6 DUP3 PUSH3 0x233F JUMP JUMPDEST DUP7 SSTORE POP PUSH3 0x243C JUMP JUMPDEST PUSH1 0x1F NOT DUP5 AND PUSH3 0x23E5 DUP7 PUSH3 0x2195 JUMP JUMPDEST PUSH1 0x0 JUMPDEST DUP3 DUP2 LT ISZERO PUSH3 0x240F JUMPI DUP5 DUP10 ADD MLOAD DUP3 SSTORE PUSH1 0x1 DUP3 ADD SWAP2 POP PUSH1 0x20 DUP6 ADD SWAP5 POP PUSH1 0x20 DUP2 ADD SWAP1 POP PUSH3 0x23E8 JUMP JUMPDEST DUP7 DUP4 LT ISZERO PUSH3 0x242F JUMPI DUP5 DUP10 ADD MLOAD PUSH3 0x242B PUSH1 0x1F DUP10 AND DUP3 PUSH3 0x231F JUMP JUMPDEST DUP4 SSTORE POP JUMPDEST PUSH1 0x1 PUSH1 0x2 DUP9 MUL ADD DUP9 SSTORE POP POP POP JUMPDEST POP POP POP POP POP POP JUMP JUMPDEST PUSH1 0x0 DUP2 SWAP1 POP SWAP2 SWAP1 POP JUMP JUMPDEST PUSH1 0x0 PUSH3 0x246F PUSH3 0x2469 PUSH3 0x2463 DUP5 PUSH3 0x2444 JUMP JUMPDEST PUSH3 0x1714 JUMP JUMPDEST PUSH3 0x1819 JUMP JUMPDEST SWAP1 POP SWAP2 SWAP1 POP JUMP JUMPDEST PUSH3 0x2481 DUP2 PUSH3 0x244E JUMP JUMPDEST DUP3 MSTORE POP POP JUMP JUMPDEST PUSH1 0x0 PUSH1 0xC0 DUP3 ADD SWAP1 POP PUSH3 0x249E PUSH1 0x0 DUP4 ADD DUP10 PUSH3 0x1CE5 JUMP JUMPDEST PUSH3 0x24AD PUSH1 0x20 DUP4 ADD DUP9 PUSH3 0x1CE5 JUMP JUMPDEST PUSH3 0x24BC PUSH1 0x40 DUP4 ADD DUP8 PUSH3 0x1C54 JUMP JUMPDEST PUSH3 0x24CB PUSH1 0x60 DUP4 ADD DUP7 PUSH3 0x2476 JUMP JUMPDEST PUSH3 0x24DA PUSH1 0x80 DUP4 ADD DUP6 PUSH3 0x1C54 JUMP JUMPDEST PUSH3 0x24E9 PUSH1 0xA0 DUP4 ADD DUP5 PUSH3 0x1C54 JUMP JUMPDEST SWAP8 SWAP7 POP POP POP POP POP POP POP JUMP JUMPDEST PUSH32 0x4E487B7100000000000000000000000000000000000000000000000000000000 PUSH1 0x0 MSTORE PUSH1 0x11 PUSH1 0x4 MSTORE PUSH1 0x24 PUSH1 0x0 REVERT JUMPDEST PUSH1 0x0 PUSH3 0x2530 DUP3 PUSH3 0x1819 JUMP JUMPDEST SWAP2 POP PUSH32 0xFFFFFFFFFFFFFFFFFFFFFFFFFFFFFFFFFFFFFFFFFFFFFFFFFFFFFFFFFFFFFFFF DUP3 SUB PUSH3 0x2565 JUMPI PUSH3 0x2564 PUSH3 0x24F4 JUMP JUMPDEST JUMPDEST PUSH1 0x1 DUP3 ADD SWAP1 POP SWAP2 SWAP1 POP JUMP JUMPDEST PUSH32 0x4F776E61626C653A206E6577206F776E657220697320746865207A65726F2061 PUSH1 0x0 DUP3 ADD MSTORE PUSH32 0x6464726573730000000000000000000000000000000000000000000000000000 PUSH1 0x20 DUP3 ADD MSTORE POP JUMP JUMPDEST PUSH1 0x0 PUSH3 0x25CE PUSH1 0x26 DUP4 PUSH3 0x1C93 JUMP JUMPDEST SWAP2 POP PUSH3 0x25DB DUP3 PUSH3 0x2570 JUMP JUMPDEST PUSH1 0x40 DUP3 ADD SWAP1 POP SWAP2 SWAP1 POP JUMP JUMPDEST PUSH1 0x0 PUSH1 0x20 DUP3 ADD SWAP1 POP DUP2 DUP2 SUB PUSH1 0x0 DUP4 ADD MSTORE PUSH3 0x2601 DUP2 PUSH3 0x25BF JUMP JUMPDEST SWAP1 POP SWAP2 SWAP1 POP JUMP INVALID PUSH1 0x80 PUSH1 0x40 MSTORE CALLVALUE DUP1 ISZERO PUSH2 0x10 JUMPI PUSH1 0x0 DUP1 REVERT JUMPDEST POP PUSH1 0x40 MLOAD PUSH2 0x70D CODESIZE SUB DUP1 PUSH2 0x70D DUP4 CODECOPY DUP2 DUP2 ADD PUSH1 0x40 MSTORE DUP2 ADD SWAP1 PUSH2 0x32 SWAP2 SWAP1 PUSH2 0x134 JUMP JUMPDEST DUP2 PUSH1 0x0 DUP2 SWAP1 SSTORE POP DUP1 PUSH1 0x2 DUP2 SWAP1 SSTORE POP DUP3 PUSH1 0x3 PUSH1 0x0 PUSH2 0x100 EXP DUP2 SLOAD DUP2 PUSH20 0xFFFFFFFFFFFFFFFFFFFFFFFFFFFFFFFFFFFFFFFF MUL NOT AND SWAP1 DUP4 PUSH20 0xFFFFFFFFFFFFFFFFFFFFFFFFFFFFFFFFFFFFFFFF AND MUL OR SWAP1 SSTORE POP POP POP POP PUSH2 0x187 JUMP JUMPDEST PUSH1 0x0 DUP1 REVERT JUMPDEST PUSH1 0x0 PUSH20 0xFFFFFFFFFFFFFFFFFFFFFFFFFFFFFFFFFFFFFFFF DUP3 AND SWAP1 POP SWAP2 SWAP1 POP JUMP JUMPDEST PUSH1 0x0 PUSH2 0xB9 DUP3 PUSH2 0x8E JUMP JUMPDEST SWAP1 POP SWAP2 SWAP1 POP JUMP JUMPDEST PUSH1 0x0 PUSH2 0xCB DUP3 PUSH2 0xAE JUMP JUMPDEST SWAP1 POP SWAP2 SWAP1 POP JUMP JUMPDEST PUSH2 0xDB DUP2 PUSH2 0xC0 JUMP JUMPDEST DUP2 EQ PUSH2 0xE6 JUMPI PUSH1 0x0 DUP1 REVERT JUMPDEST POP JUMP JUMPDEST PUSH1 0x0 DUP2 MLOAD SWAP1 POP PUSH2 0xF8 DUP2 PUSH2 0xD2 JUMP JUMPDEST SWAP3 SWAP2 POP POP JUMP JUMPDEST PUSH1 0x0 DUP2 SWAP1 POP SWAP2 SWAP1 POP JUMP JUMPDEST PUSH2 0x111 DUP2 PUSH2 0xFE JUMP JUMPDEST DUP2 EQ PUSH2 0x11C JUMPI PUSH1 0x0 DUP1 REVERT JUMPDEST POP JUMP JUMPDEST PUSH1 0x0 DUP2 MLOAD SWAP1 POP PUSH2 0x12E DUP2 PUSH2 0x108 JUMP JUMPDEST SWAP3 SWAP2 POP POP JUMP JUMPDEST PUSH1 0x0 DUP1 PUSH1 0x0 PUSH1 0x60 DUP5 DUP7 SUB SLT ISZERO PUSH2 0x14D JUMPI PUSH2 0x14C PUSH2 0x89 JUMP JUMPDEST JUMPDEST PUSH1 0x0 PUSH2 0x15B DUP7 DUP3 DUP8 ADD PUSH2 0xE9 JUMP JUMPDEST SWAP4 POP POP PUSH1 0x20 PUSH2 0x16C DUP7 DUP3 DUP8 ADD PUSH2 0x11F JUMP JUMPDEST SWAP3 POP POP PUSH1 0x40 PUSH2 0x17D DUP7 DUP3 DUP8 ADD PUSH2 0x11F JUMP JUMPDEST SWAP2 POP POP SWAP3 POP SWAP3 POP SWAP3 JUMP JUMPDEST PUSH2 0x577 DUP1 PUSH2 0x196 PUSH1 0x0 CODECOPY PUSH1 0x0 RETURN INVALID PUSH1 0x80 PUSH1 0x40 MSTORE PUSH1 0x4 CALLDATASIZE LT PUSH2 0x2D JUMPI PUSH1 0x0 CALLDATALOAD PUSH1 0xE0 SHR DUP1 PUSH4 0x2986C0E5 EQ PUSH2 0x245 JUMPI DUP1 PUSH4 0x7666C5A2 EQ PUSH2 0x270 JUMPI PUSH2 0x237 JUMP JUMPDEST CALLDATASIZE PUSH2 0x237 JUMPI PUSH1 0x0 PUSH1 0x1 SLOAD EQ PUSH2 0x77 JUMPI PUSH1 0x40 MLOAD PUSH32 0x8C379A000000000000000000000000000000000000000000000000000000000 DUP2 MSTORE PUSH1 0x4 ADD PUSH2 0x6E SWAP1 PUSH2 0x304 JUMP JUMPDEST PUSH1 0x40 MLOAD DUP1 SWAP2 SUB SWAP1 REVERT JUMPDEST CALLVALUE PUSH1 0x0 SLOAD EQ PUSH2 0xBB JUMPI PUSH1 0x40 MLOAD PUSH32 0x8C379A000000000000000000000000000000000000000000000000000000000 DUP2 MSTORE PUSH1 0x4 ADD PUSH2 0xB2 SWAP1 PUSH2 0x370 JUMP JUMPDEST PUSH1 0x40 MLOAD DUP1 SWAP2 SUB SWAP1 REVERT JUMPDEST PUSH1 0x0 SLOAD PUSH1 0x1 PUSH1 0x0 DUP3 DUP3 SLOAD PUSH2 0xCF SWAP2 SWAP1 PUSH2 0x3C9 JUMP JUMPDEST SWAP3 POP POP DUP2 SWAP1 SSTORE POP PUSH1 0x0 PUSH1 0x3 PUSH1 0x0 SWAP1 SLOAD SWAP1 PUSH2 0x100 EXP SWAP1 DIV PUSH20 0xFFFFFFFFFFFFFFFFFFFFFFFFFFFFFFFFFFFFFFFF AND PUSH20 0xFFFFFFFFFFFFFFFFFFFFFFFFFFFFFFFFFFFFFFFF AND CALLVALUE PUSH1 0x2 SLOAD PUSH1 0x40 MLOAD PUSH1 0x24 ADD PUSH2 0x125 SWAP2 SWAP1 PUSH2 0x40C JUMP JUMPDEST PUSH1 0x40 MLOAD PUSH1 0x20 DUP2 DUP4 SUB SUB DUP2 MSTORE SWAP1 PUSH1 0x40 MSTORE PUSH32 0x800FB83F00000000000000000000000000000000000000000000000000000000 PUSH28 0xFFFFFFFFFFFFFFFFFFFFFFFFFFFFFFFFFFFFFFFFFFFFFFFFFFFFFFFF NOT AND PUSH1 0x20 DUP3 ADD DUP1 MLOAD PUSH28 0xFFFFFFFFFFFFFFFFFFFFFFFFFFFFFFFFFFFFFFFFFFFFFFFFFFFFFFFF DUP4 DUP2 DUP4 AND OR DUP4 MSTORE POP POP POP POP PUSH1 0x40 MLOAD PUSH2 0x1AF SWAP2 SWAP1 PUSH2 0x498 JUMP JUMPDEST PUSH1 0x0 PUSH1 0x40 MLOAD DUP1 DUP4 SUB DUP2 DUP6 DUP8 GAS CALL SWAP3 POP POP POP RETURNDATASIZE DUP1 PUSH1 0x0 DUP2 EQ PUSH2 0x1EC JUMPI PUSH1 0x40 MLOAD SWAP2 POP PUSH1 0x1F NOT PUSH1 0x3F RETURNDATASIZE ADD AND DUP3 ADD PUSH1 0x40 MSTORE RETURNDATASIZE DUP3 MSTORE RETURNDATASIZE PUSH1 0x0 PUSH1 0x20 DUP5 ADD RETURNDATACOPY PUSH2 0x1F1 JUMP JUMPDEST PUSH1 0x60 SWAP2 POP JUMPDEST POP POP SWAP1 POP DUP1 PUSH2 0x235 JUMPI PUSH1 0x40 MLOAD PUSH32 0x8C379A000000000000000000000000000000000000000000000000000000000 DUP2 MSTORE PUSH1 0x4 ADD PUSH2 0x22C SWAP1 PUSH2 0x521 JUMP JUMPDEST PUSH1 0x40 MLOAD DUP1 SWAP2 SUB SWAP1 REVERT JUMPDEST STOP JUMPDEST CALLVALUE DUP1 ISZERO PUSH2 0x243 JUMPI PUSH1 0x0 DUP1 REVERT JUMPDEST STOP JUMPDEST CALLVALUE DUP1 ISZERO PUSH2 0x251 JUMPI PUSH1 0x0 DUP1 REVERT JUMPDEST POP PUSH2 0x25A PUSH2 0x29B JUMP JUMPDEST PUSH1 0x40 MLOAD PUSH2 0x267 SWAP2 SWAP1 PUSH2 0x40C JUMP JUMPDEST PUSH1 0x40 MLOAD DUP1 SWAP2 SUB SWAP1 RETURN JUMPDEST CALLVALUE DUP1 ISZERO PUSH2 0x27C JUMPI PUSH1 0x0 DUP1 REVERT JUMPDEST POP PUSH2 0x285 PUSH2 0x2A1 JUMP JUMPDEST PUSH1 0x40 MLOAD PUSH2 0x292 SWAP2 SWAP1 PUSH2 0x40C JUMP JUMPDEST PUSH1 0x40 MLOAD DUP1 SWAP2 SUB SWAP1 RETURN JUMPDEST PUSH1 0x2 SLOAD DUP2 JUMP JUMPDEST PUSH1 0x1 SLOAD DUP2 JUMP JUMPDEST PUSH1 0x0 DUP3 DUP3 MSTORE PUSH1 0x20 DUP3 ADD SWAP1 POP SWAP3 SWAP2 POP POP JUMP JUMPDEST PUSH32 0x6974656D206973207061696420616C7265616479000000000000000000000000 PUSH1 0x0 DUP3 ADD MSTORE POP JUMP JUMPDEST PUSH1 0x0 PUSH2 0x2EE PUSH1 0x14 DUP4 PUSH2 0x2A7 JUMP JUMPDEST SWAP2 POP PUSH2 0x2F9 DUP3 PUSH2 0x2B8 JUMP JUMPDEST PUSH1 0x20 DUP3 ADD SWAP1 POP SWAP2 SWAP1 POP JUMP JUMPDEST PUSH1 0x0 PUSH1 0x20 DUP3 ADD SWAP1 POP DUP2 DUP2 SUB PUSH1 0x0 DUP4 ADD MSTORE PUSH2 0x31D DUP2 PUSH2 0x2E1 JUMP JUMPDEST SWAP1 POP SWAP2 SWAP1 POP JUMP JUMPDEST PUSH32 0x4F6E6C792066756C6C207061796D656E747320616C6C6F776564000000000000 PUSH1 0x0 DUP3 ADD MSTORE POP JUMP JUMPDEST PUSH1 0x0 PUSH2 0x35A PUSH1 0x1A DUP4 PUSH2 0x2A7 JUMP JUMPDEST SWAP2 POP PUSH2 0x365 DUP3 PUSH2 0x324 JUMP JUMPDEST PUSH1 0x20 DUP3 ADD SWAP1 POP SWAP2 SWAP1 POP JUMP JUMPDEST PUSH1 0x0 PUSH1 0x20 DUP3 ADD SWAP1 POP DUP2 DUP2 SUB PUSH1 0x0 DUP4 ADD MSTORE PUSH2 0x389 DUP2 PUSH2 0x34D JUMP JUMPDEST SWAP1 POP SWAP2 SWAP1 POP JUMP JUMPDEST PUSH1 0x0 DUP2 SWAP1 POP SWAP2 SWAP1 POP JUMP JUMPDEST PUSH32 0x4E487B7100000000000000000000000000000000000000000000000000000000 PUSH1 0x0 MSTORE PUSH1 0x11 PUSH1 0x4 MSTORE PUSH1 0x24 PUSH1 0x0 REVERT JUMPDEST PUSH1 0x0 PUSH2 0x3D4 DUP3 PUSH2 0x390 JUMP JUMPDEST SWAP2 POP PUSH2 0x3DF DUP4 PUSH2 0x390 JUMP JUMPDEST SWAP3 POP DUP3 DUP3 ADD SWAP1 POP DUP1 DUP3 GT ISZERO PUSH2 0x3F7 JUMPI PUSH2 0x3F6 PUSH2 0x39A JUMP JUMPDEST JUMPDEST SWAP3 SWAP2 POP POP JUMP JUMPDEST PUSH2 0x406 DUP2 PUSH2 0x390 JUMP JUMPDEST DUP3 MSTORE POP POP JUMP JUMPDEST PUSH1 0x0 PUSH1 0x20 DUP3 ADD SWAP1 POP PUSH2 0x421 PUSH1 0x0 DUP4 ADD DUP5 PUSH2 0x3FD JUMP JUMPDEST SWAP3 SWAP2 POP POP JUMP JUMPDEST PUSH1 0x0 DUP2 MLOAD SWAP1 POP SWAP2 SWAP1 POP JUMP JUMPDEST PUSH1 0x0 DUP2 SWAP1 POP SWAP3 SWAP2 POP POP JUMP JUMPDEST PUSH1 0x0 JUMPDEST DUP4 DUP2 LT ISZERO PUSH2 0x45B JUMPI DUP1 DUP3 ADD MLOAD DUP2 DUP5 ADD MSTORE PUSH1 0x20 DUP2 ADD SWAP1 POP PUSH2 0x440 JUMP JUMPDEST PUSH1 0x0 DUP5 DUP5 ADD MSTORE POP POP POP POP JUMP JUMPDEST PUSH1 0x0 PUSH2 0x472 DUP3 PUSH2 0x427 JUMP JUMPDEST PUSH2 0x47C DUP2 DUP6 PUSH2 0x432 JUMP JUMPDEST SWAP4 POP PUSH2 0x48C DUP2 DUP6 PUSH1 0x20 DUP7 ADD PUSH2 0x43D JUMP JUMPDEST DUP1 DUP5 ADD SWAP2 POP POP SWAP3 SWAP2 POP POP JUMP JUMPDEST PUSH1 0x0 PUSH2 0x4A4 DUP3 DUP5 PUSH2 0x467 JUMP JUMPDEST SWAP2 POP DUP2 SWAP1 POP SWAP3 SWAP2 POP POP JUMP JUMPDEST PUSH32 0x546865205472616E73616374696F6E207761736E277420737563636573736675 PUSH1 0x0 DUP3 ADD MSTORE PUSH32 0x6C2C2063616E63656C696E670000000000000000000000000000000000000000 PUSH1 0x20 DUP3 ADD MSTORE POP JUMP JUMPDEST PUSH1 0x0 PUSH2 0x50B PUSH1 0x2C DUP4 PUSH2 0x2A7 JUMP JUMPDEST SWAP2 POP PUSH2 0x516 DUP3 PUSH2 0x4AF JUMP JUMPDEST PUSH1 0x40 DUP3 ADD SWAP1 POP SWAP2 SWAP1 POP JUMP JUMPDEST PUSH1 0x0 PUSH1 0x20 DUP3 ADD SWAP1 POP DUP2 DUP2 SUB PUSH1 0x0 DUP4 ADD MSTORE PUSH2 0x53A DUP2 PUSH2 0x4FE JUMP JUMPDEST SWAP1 POP SWAP2 SWAP1 POP JUMP INVALID LOG2 PUSH5 0x6970667358 0x22 SLT KECCAK256 JUMPDEST ADDRESS SLT 0xEA 0xE8 0xD4 0xD7 DUP2 0x2B 0xE2 PUSH32 0xD78D2D964380EFB68B9A31F917B0DBA4A621B3D02864736F6C63430008100033 LOG2 PUSH5 0x6970667358 0x22 SLT KECCAK256 ORIGIN 0xE3 0xF PUSH12 0x2F38C94B640C96CD055ADE6D DIFFICULTY 0xF CODESIZE 0x28 JUMP PUSH20 0xB4ECC179FBD8BCBFC2CB64736F6C634300081000 CALLER "
				},
				"gasEstimates": {
					"creation": {
						"codeDepositCost": "2319000",
						"executionCost": "infinite",
						"totalCost": "infinite"
					},
					"external": {
						"Buyer(uint256)": "infinite",
						"BuyersHistory(address)": "infinite",
						"Invoice(uint256)": "infinite",
						"InvoiceLedger()": "infinite",
						"createItem(string,uint256)": "infinite",
						"owner()": "2522",
						"renounceOwnership()": "2719",
						"transferOwnership(address)": "30786"
					},
					"internal": {
						"add_Invoice_To_BuyersPan(address,contract Item,string memory,uint256,enum InvoiceManager.InvoiceState,address,uint256)": "infinite"
					}
				},
				"methodIdentifiers": {
					"Buyer(uint256)": "3ea3a44b",
					"BuyersHistory(address)": "a5f445b7",
					"Invoice(uint256)": "98589742",
					"InvoiceLedger()": "27435f62",
					"createItem(string,uint256)": "8c551742",
					"owner()": "8da5cb5b",
					"renounceOwnership()": "715018a6",
					"transferOwnership(address)": "f2fde38b"
				}
			},
			"storageLayout": {
				"storage": [
					{
						"astId": 452,
						"contract": "Event trigger supply chain.sol:InvoiceManager",
						"label": "_owner",
						"offset": 0,
						"slot": "0",
						"type": "t_address"
					},
					{
						"astId": 115,
						"contract": "Event trigger supply chain.sol:InvoiceManager",
						"label": "Buyers_History",
						"offset": 0,
						"slot": "1",
						"type": "t_mapping(t_address,t_array(t_struct(Invoice_Data)109_storage)dyn_storage)"
					},
					{
						"astId": 120,
						"contract": "Event trigger supply chain.sol:InvoiceManager",
						"label": "Invoice",
						"offset": 0,
						"slot": "2",
						"type": "t_mapping(t_uint256,t_struct(Invoice_Data)109_storage)"
					},
					{
						"astId": 124,
						"contract": "Event trigger supply chain.sol:InvoiceManager",
						"label": "invoices",
						"offset": 0,
						"slot": "3",
						"type": "t_array(t_struct(Invoice_Data)109_storage)dyn_storage"
					},
					{
						"astId": 140,
						"contract": "Event trigger supply chain.sol:InvoiceManager",
						"label": "itemIndex",
						"offset": 0,
						"slot": "4",
						"type": "t_uint256"
					}
				],
				"types": {
					"t_address": {
						"encoding": "inplace",
						"label": "address",
						"numberOfBytes": "20"
					},
					"t_array(t_struct(Invoice_Data)109_storage)dyn_storage": {
						"base": "t_struct(Invoice_Data)109_storage",
						"encoding": "dynamic_array",
						"label": "struct InvoiceManager.Invoice_Data[]",
						"numberOfBytes": "32"
					},
					"t_contract(Item)87": {
						"encoding": "inplace",
						"label": "contract Item",
						"numberOfBytes": "20"
					},
					"t_enum(InvoiceState)92": {
						"encoding": "inplace",
						"label": "enum InvoiceManager.InvoiceState",
						"numberOfBytes": "1"
					},
					"t_mapping(t_address,t_array(t_struct(Invoice_Data)109_storage)dyn_storage)": {
						"encoding": "mapping",
						"key": "t_address",
						"label": "mapping(address => struct InvoiceManager.Invoice_Data[])",
						"numberOfBytes": "32",
						"value": "t_array(t_struct(Invoice_Data)109_storage)dyn_storage"
					},
					"t_mapping(t_uint256,t_struct(Invoice_Data)109_storage)": {
						"encoding": "mapping",
						"key": "t_uint256",
						"label": "mapping(uint256 => struct InvoiceManager.Invoice_Data)",
						"numberOfBytes": "32",
						"value": "t_struct(Invoice_Data)109_storage"
					},
					"t_string_storage": {
						"encoding": "bytes",
						"label": "string",
						"numberOfBytes": "32"
					},
					"t_struct(Invoice_Data)109_storage": {
						"encoding": "inplace",
						"label": "struct InvoiceManager.Invoice_Data",
						"members": [
							{
								"astId": 94,
								"contract": "Event trigger supply chain.sol:InvoiceManager",
								"label": "_BuyerPan",
								"offset": 0,
								"slot": "0",
								"type": "t_address"
							},
							{
								"astId": 96,
								"contract": "Event trigger supply chain.sol:InvoiceManager",
								"label": "_SellerPan",
								"offset": 0,
								"slot": "1",
								"type": "t_address"
							},
							{
								"astId": 99,
								"contract": "Event trigger supply chain.sol:InvoiceManager",
								"label": "_items",
								"offset": 0,
								"slot": "2",
								"type": "t_contract(Item)87"
							},
							{
								"astId": 101,
								"contract": "Event trigger supply chain.sol:InvoiceManager",
								"label": "_Identifier",
								"offset": 0,
								"slot": "3",
								"type": "t_string_storage"
							},
							{
								"astId": 103,
								"contract": "Event trigger supply chain.sol:InvoiceManager",
								"label": "_itemPrice",
								"offset": 0,
								"slot": "4",
								"type": "t_uint256"
							},
							{
								"astId": 106,
								"contract": "Event trigger supply chain.sol:InvoiceManager",
								"label": "_state",
								"offset": 0,
								"slot": "5",
								"type": "t_enum(InvoiceState)92"
							},
							{
								"astId": 108,
								"contract": "Event trigger supply chain.sol:InvoiceManager",
								"label": "_InvoiceDate",
								"offset": 0,
								"slot": "6",
								"type": "t_uint256"
							}
						],
						"numberOfBytes": "224"
					},
					"t_uint256": {
						"encoding": "inplace",
						"label": "uint256",
						"numberOfBytes": "32"
					}
				}
			},
			"userdoc": {
				"kind": "user",
				"methods": {},
				"version": 1
			}
		}
	}
}