{
	"Event trigger supply chain.sol": {
		"Item": {
			"abi": [
				{
					"inputs": [
						{
							"internalType": "contract InvoiceManager",
							"name": "_parentContract",
							"type": "address"
						},
						{
							"internalType": "uint256",
							"name": "_itempriceinwei",
							"type": "uint256"
						},
						{
							"internalType": "uint256",
							"name": "_index",
							"type": "uint256"
						}
					],
					"stateMutability": "nonpayable",
					"type": "constructor"
				},
				{
					"stateMutability": "nonpayable",
					"type": "fallback"
				},
				{
					"inputs": [],
					"name": "index",
					"outputs": [
						{
							"internalType": "uint256",
							"name": "",
							"type": "uint256"
						}
					],
					"stateMutability": "view",
					"type": "function"
				},
				{
					"inputs": [],
					"name": "pricepaid",
					"outputs": [
						{
							"internalType": "uint256",
							"name": "",
							"type": "uint256"
						}
					],
					"stateMutability": "view",
					"type": "function"
				},
				{
					"stateMutability": "payable",
					"type": "receive"
				}
			],
			"devdoc": {
				"kind": "dev",
				"methods": {},
				"version": 1
			},
			"evm": {
				"assembly": "    /* \"Event trigger supply chain.sol\":258:1041  contract Item{... */\n  mstore(0x40, 0x80)\n    /* \"Event trigger supply chain.sol\":384:574  constructor(InvoiceManager _parentContract, uint _itempriceinwei, uint _index){... */\n  callvalue\n  dup1\n  iszero\n  tag_1\n  jumpi\n  0x00\n  dup1\n  revert\ntag_1:\n  pop\n  mload(0x40)\n  sub(codesize, bytecodeSize)\n  dup1\n  bytecodeSize\n  dup4\n  codecopy\n  dup2\n  dup2\n  add\n  0x40\n  mstore\n  dup2\n  add\n  swap1\n  tag_2\n  swap2\n  swap1\n  tag_3\n  jump\t// in\ntag_2:\n    /* \"Event trigger supply chain.sol\":486:501  _itempriceinwei */\n  dup2\n    /* \"Event trigger supply chain.sol\":473:483  priceinwei */\n  0x00\n    /* \"Event trigger supply chain.sol\":473:501  priceinwei = _itempriceinwei */\n  dup2\n  swap1\n  sstore\n  pop\n    /* \"Event trigger supply chain.sol\":518:524  _index */\n  dup1\n    /* \"Event trigger supply chain.sol\":512:517  index */\n  0x02\n    /* \"Event trigger supply chain.sol\":512:524  index=_index */\n  dup2\n  swap1\n  sstore\n  pop\n    /* \"Event trigger supply chain.sol\":551:566  _parentContract */\n  dup3\n    /* \"Event trigger supply chain.sol\":535:549  parentContract */\n  0x03\n  0x00\n    /* \"Event trigger supply chain.sol\":535:566  parentContract =_parentContract */\n  0x0100\n  exp\n  dup2\n  sload\n  dup2\n  0xffffffffffffffffffffffffffffffffffffffff\n  mul\n  not\n  and\n  swap1\n  dup4\n  0xffffffffffffffffffffffffffffffffffffffff\n  and\n  mul\n  or\n  swap1\n  sstore\n  pop\n    /* \"Event trigger supply chain.sol\":384:574  constructor(InvoiceManager _parentContract, uint _itempriceinwei, uint _index){... */\n  pop\n  pop\n  pop\n    /* \"Event trigger supply chain.sol\":258:1041  contract Item{... */\n  jump(tag_6)\n    /* \"#utility.yul\":88:205   */\ntag_8:\n    /* \"#utility.yul\":197:198   */\n  0x00\n    /* \"#utility.yul\":194:195   */\n  dup1\n    /* \"#utility.yul\":187:199   */\n  revert\n    /* \"#utility.yul\":334:460   */\ntag_10:\n    /* \"#utility.yul\":371:378   */\n  0x00\n    /* \"#utility.yul\":411:453   */\n  0xffffffffffffffffffffffffffffffffffffffff\n    /* \"#utility.yul\":404:409   */\n  dup3\n    /* \"#utility.yul\":400:454   */\n  and\n    /* \"#utility.yul\":389:454   */\n  swap1\n  pop\n    /* \"#utility.yul\":334:460   */\n  swap2\n  swap1\n  pop\n  jump\t// out\n    /* \"#utility.yul\":466:562   */\ntag_11:\n    /* \"#utility.yul\":503:510   */\n  0x00\n    /* \"#utility.yul\":532:556   */\n  tag_24\n    /* \"#utility.yul\":550:555   */\n  dup3\n    /* \"#utility.yul\":532:556   */\n  tag_10\n  jump\t// in\ntag_24:\n    /* \"#utility.yul\":521:556   */\n  swap1\n  pop\n    /* \"#utility.yul\":466:562   */\n  swap2\n  swap1\n  pop\n  jump\t// out\n    /* \"#utility.yul\":568:686   */\ntag_12:\n    /* \"#utility.yul\":627:634   */\n  0x00\n    /* \"#utility.yul\":656:680   */\n  tag_26\n    /* \"#utility.yul\":674:679   */\n  dup3\n    /* \"#utility.yul\":656:680   */\n  tag_11\n  jump\t// in\ntag_26:\n    /* \"#utility.yul\":645:680   */\n  swap1\n  pop\n    /* \"#utility.yul\":568:686   */\n  swap2\n  swap1\n  pop\n  jump\t// out\n    /* \"#utility.yul\":692:858   */\ntag_13:\n    /* \"#utility.yul\":787:833   */\n  tag_28\n    /* \"#utility.yul\":827:832   */\n  dup2\n    /* \"#utility.yul\":787:833   */\n  tag_12\n  jump\t// in\ntag_28:\n    /* \"#utility.yul\":780:785   */\n  dup2\n    /* \"#utility.yul\":777:834   */\n  eq\n    /* \"#utility.yul\":767:852   */\n  tag_29\n  jumpi\n    /* \"#utility.yul\":848:849   */\n  0x00\n    /* \"#utility.yul\":845:846   */\n  dup1\n    /* \"#utility.yul\":838:850   */\n  revert\n    /* \"#utility.yul\":767:852   */\ntag_29:\n    /* \"#utility.yul\":692:858   */\n  pop\n  jump\t// out\n    /* \"#utility.yul\":864:1051   */\ntag_14:\n    /* \"#utility.yul\":943:948   */\n  0x00\n    /* \"#utility.yul\":974:980   */\n  dup2\n    /* \"#utility.yul\":968:981   */\n  mload\n    /* \"#utility.yul\":959:981   */\n  swap1\n  pop\n    /* \"#utility.yul\":990:1045   */\n  tag_31\n    /* \"#utility.yul\":1039:1044   */\n  dup2\n    /* \"#utility.yul\":990:1045   */\n  tag_13\n  jump\t// in\ntag_31:\n    /* \"#utility.yul\":864:1051   */\n  swap3\n  swap2\n  pop\n  pop\n  jump\t// out\n    /* \"#utility.yul\":1057:1134   */\ntag_15:\n    /* \"#utility.yul\":1094:1101   */\n  0x00\n    /* \"#utility.yul\":1123:1128   */\n  dup2\n    /* \"#utility.yul\":1112:1128   */\n  swap1\n  pop\n    /* \"#utility.yul\":1057:1134   */\n  swap2\n  swap1\n  pop\n  jump\t// out\n    /* \"#utility.yul\":1140:1262   */\ntag_16:\n    /* \"#utility.yul\":1213:1237   */\n  tag_34\n    /* \"#utility.yul\":1231:1236   */\n  dup2\n    /* \"#utility.yul\":1213:1237   */\n  tag_15\n  jump\t// in\ntag_34:\n    /* \"#utility.yul\":1206:1211   */\n  dup2\n    /* \"#utility.yul\":1203:1238   */\n  eq\n    /* \"#utility.yul\":1193:1256   */\n  tag_35\n  jumpi\n    /* \"#utility.yul\":1252:1253   */\n  0x00\n    /* \"#utility.yul\":1249:1250   */\n  dup1\n    /* \"#utility.yul\":1242:1254   */\n  revert\n    /* \"#utility.yul\":1193:1256   */\ntag_35:\n    /* \"#utility.yul\":1140:1262   */\n  pop\n  jump\t// out\n    /* \"#utility.yul\":1268:1411   */\ntag_17:\n    /* \"#utility.yul\":1325:1330   */\n  0x00\n    /* \"#utility.yul\":1356:1362   */\n  dup2\n    /* \"#utility.yul\":1350:1363   */\n  mload\n    /* \"#utility.yul\":1341:1363   */\n  swap1\n  pop\n    /* \"#utility.yul\":1372:1405   */\n  tag_37\n    /* \"#utility.yul\":1399:1404   */\n  dup2\n    /* \"#utility.yul\":1372:1405   */\n  tag_16\n  jump\t// in\ntag_37:\n    /* \"#utility.yul\":1268:1411   */\n  swap3\n  swap2\n  pop\n  pop\n  jump\t// out\n    /* \"#utility.yul\":1417:2124   */\ntag_3:\n    /* \"#utility.yul\":1527:1533   */\n  0x00\n    /* \"#utility.yul\":1535:1541   */\n  dup1\n    /* \"#utility.yul\":1543:1549   */\n  0x00\n    /* \"#utility.yul\":1592:1594   */\n  0x60\n    /* \"#utility.yul\":1580:1589   */\n  dup5\n    /* \"#utility.yul\":1571:1578   */\n  dup7\n    /* \"#utility.yul\":1567:1590   */\n  sub\n    /* \"#utility.yul\":1563:1595   */\n  slt\n    /* \"#utility.yul\":1560:1679   */\n  iszero\n  tag_39\n  jumpi\n    /* \"#utility.yul\":1598:1677   */\n  tag_40\n  tag_8\n  jump\t// in\ntag_40:\n    /* \"#utility.yul\":1560:1679   */\ntag_39:\n    /* \"#utility.yul\":1718:1719   */\n  0x00\n    /* \"#utility.yul\":1743:1829   */\n  tag_41\n    /* \"#utility.yul\":1821:1828   */\n  dup7\n    /* \"#utility.yul\":1812:1818   */\n  dup3\n    /* \"#utility.yul\":1801:1810   */\n  dup8\n    /* \"#utility.yul\":1797:1819   */\n  add\n    /* \"#utility.yul\":1743:1829   */\n  tag_14\n  jump\t// in\ntag_41:\n    /* \"#utility.yul\":1733:1829   */\n  swap4\n  pop\n    /* \"#utility.yul\":1689:1839   */\n  pop\n    /* \"#utility.yul\":1878:1880   */\n  0x20\n    /* \"#utility.yul\":1904:1968   */\n  tag_42\n    /* \"#utility.yul\":1960:1967   */\n  dup7\n    /* \"#utility.yul\":1951:1957   */\n  dup3\n    /* \"#utility.yul\":1940:1949   */\n  dup8\n    /* \"#utility.yul\":1936:1958   */\n  add\n    /* \"#utility.yul\":1904:1968   */\n  tag_17\n  jump\t// in\ntag_42:\n    /* \"#utility.yul\":1894:1968   */\n  swap3\n  pop\n    /* \"#utility.yul\":1849:1978   */\n  pop\n    /* \"#utility.yul\":2017:2019   */\n  0x40\n    /* \"#utility.yul\":2043:2107   */\n  tag_43\n    /* \"#utility.yul\":2099:2106   */\n  dup7\n    /* \"#utility.yul\":2090:2096   */\n  dup3\n    /* \"#utility.yul\":2079:2088   */\n  dup8\n    /* \"#utility.yul\":2075:2097   */\n  add\n    /* \"#utility.yul\":2043:2107   */\n  tag_17\n  jump\t// in\ntag_43:\n    /* \"#utility.yul\":2033:2107   */\n  swap2\n  pop\n    /* \"#utility.yul\":1988:2117   */\n  pop\n    /* \"#utility.yul\":1417:2124   */\n  swap3\n  pop\n  swap3\n  pop\n  swap3\n  jump\t// out\n    /* \"Event trigger supply chain.sol\":258:1041  contract Item{... */\ntag_6:\n  dataSize(sub_0)\n  dup1\n  dataOffset(sub_0)\n  0x00\n  codecopy\n  0x00\n  return\nstop\n\nsub_0: assembly {\n        /* \"Event trigger supply chain.sol\":258:1041  contract Item{... */\n      mstore(0x40, 0x80)\n      jumpi(tag_1, lt(calldatasize, 0x04))\n      shr(0xe0, calldataload(0x00))\n      dup1\n      0x2986c0e5\n      eq\n      tag_3\n      jumpi\n      dup1\n      0x7666c5a2\n      eq\n      tag_4\n      jumpi\n      jump(tag_2)\n    tag_1:\n      jumpi(tag_2, calldatasize)\n        /* \"Event trigger supply chain.sol\":638:639  0 */\n      0x00\n        /* \"Event trigger supply chain.sol\":625:634  pricepaid */\n      sload(0x01)\n        /* \"Event trigger supply chain.sol\":625:639  pricepaid == 0 */\n      eq\n        /* \"Event trigger supply chain.sol\":617:664  require(pricepaid == 0, \"item is paid already\") */\n      tag_7\n      jumpi\n      mload(0x40)\n      0x08c379a000000000000000000000000000000000000000000000000000000000\n      dup2\n      mstore\n      0x04\n      add\n      tag_8\n      swap1\n      tag_9\n      jump\t// in\n    tag_8:\n      mload(0x40)\n      dup1\n      swap2\n      sub\n      swap1\n      revert\n    tag_7:\n        /* \"Event trigger supply chain.sol\":697:706  msg.value */\n      callvalue\n        /* \"Event trigger supply chain.sol\":683:693  priceinwei */\n      sload(0x00)\n        /* \"Event trigger supply chain.sol\":683:706  priceinwei == msg.value */\n      eq\n        /* \"Event trigger supply chain.sol\":675:737  require(priceinwei == msg.value, \"Only full payments allowed\") */\n      tag_10\n      jumpi\n      mload(0x40)\n      0x08c379a000000000000000000000000000000000000000000000000000000000\n      dup2\n      mstore\n      0x04\n      add\n      tag_11\n      swap1\n      tag_12\n      jump\t// in\n    tag_11:\n      mload(0x40)\n      dup1\n      swap2\n      sub\n      swap1\n      revert\n    tag_10:\n        /* \"Event trigger supply chain.sol\":761:771  priceinwei */\n      sload(0x00)\n        /* \"Event trigger supply chain.sol\":749:758  pricepaid */\n      0x01\n      0x00\n        /* \"Event trigger supply chain.sol\":749:771  pricepaid +=priceinwei */\n      dup3\n      dup3\n      sload\n      tag_13\n      swap2\n      swap1\n      tag_14\n      jump\t// in\n    tag_13:\n      swap3\n      pop\n      pop\n      dup2\n      swap1\n      sstore\n      pop\n        /* \"Event trigger supply chain.sol\":790:802  bool success */\n      0x00\n        /* \"Event trigger supply chain.sol\":824:838  parentContract */\n      0x03\n      0x00\n      swap1\n      sload\n      swap1\n      0x0100\n      exp\n      swap1\n      div\n      0xffffffffffffffffffffffffffffffffffffffff\n      and\n        /* \"Event trigger supply chain.sol\":808:845  payable(address(parentContract)).call */\n      0xffffffffffffffffffffffffffffffffffffffff\n      and\n        /* \"Event trigger supply chain.sol\":852:861  msg.value */\n      callvalue\n        /* \"Event trigger supply chain.sol\":913:918  index */\n      sload(0x02)\n        /* \"Event trigger supply chain.sol\":863:919  abi.encodeWithSignature(\"triggerPayment(uint256)\",index) */\n      add(0x24, mload(0x40))\n      tag_15\n      swap2\n      swap1\n      tag_16\n      jump\t// in\n    tag_15:\n      mload(0x40)\n      0x20\n      dup2\n      dup4\n      sub\n      sub\n      dup2\n      mstore\n      swap1\n      0x40\n      mstore\n      and(not(0xffffffffffffffffffffffffffffffffffffffffffffffffffffffff), 0x800fb83f00000000000000000000000000000000000000000000000000000000)\n      0x20\n      dup3\n      add\n      dup1\n      mload\n      0xffffffffffffffffffffffffffffffffffffffffffffffffffffffff\n      dup4\n      dup2\n      dup4\n      and\n      or\n      dup4\n      mstore\n      pop\n      pop\n      pop\n      pop\n        /* \"Event trigger supply chain.sol\":808:920  payable(address(parentContract)).call{value:msg.value}(abi.encodeWithSignature(\"triggerPayment(uint256)\",index)) */\n      mload(0x40)\n      tag_17\n      swap2\n      swap1\n      tag_18\n      jump\t// in\n    tag_17:\n      0x00\n      mload(0x40)\n      dup1\n      dup4\n      sub\n      dup2\n      dup6\n      dup8\n      gas\n      call\n      swap3\n      pop\n      pop\n      pop\n      returndatasize\n      dup1\n      0x00\n      dup2\n      eq\n      tag_21\n      jumpi\n      mload(0x40)\n      swap2\n      pop\n      and(add(returndatasize, 0x3f), not(0x1f))\n      dup3\n      add\n      0x40\n      mstore\n      returndatasize\n      dup3\n      mstore\n      returndatasize\n      0x00\n      0x20\n      dup5\n      add\n      returndatacopy\n      jump(tag_20)\n    tag_21:\n      0x60\n      swap2\n      pop\n    tag_20:\n      pop\n        /* \"Event trigger supply chain.sol\":789:920  (bool success, ) = payable(address(parentContract)).call{value:msg.value}(abi.encodeWithSignature(\"triggerPayment(uint256)\",index)) */\n      pop\n      swap1\n      pop\n        /* \"Event trigger supply chain.sol\":939:946  success */\n      dup1\n        /* \"Event trigger supply chain.sol\":931:995  require(success, \"The Transaction wasn't successful, canceling\") */\n      tag_22\n      jumpi\n      mload(0x40)\n      0x08c379a000000000000000000000000000000000000000000000000000000000\n      dup2\n      mstore\n      0x04\n      add\n      tag_23\n      swap1\n      tag_24\n      jump\t// in\n    tag_23:\n      mload(0x40)\n      dup1\n      swap2\n      sub\n      swap1\n      revert\n    tag_22:\n        /* \"Event trigger supply chain.sol\":606:1003  {... */\n      stop\n        /* \"Event trigger supply chain.sol\":258:1041  contract Item{... */\n    tag_2:\n      callvalue\n      dup1\n      iszero\n      tag_25\n      jumpi\n      0x00\n      dup1\n      revert\n    tag_25:\n      stop\n        /* \"Event trigger supply chain.sol\":324:341  uint public index */\n    tag_3:\n      callvalue\n      dup1\n      iszero\n      tag_28\n      jumpi\n      0x00\n      dup1\n      revert\n    tag_28:\n      pop\n      tag_29\n      tag_30\n      jump\t// in\n    tag_29:\n      mload(0x40)\n      tag_31\n      swap2\n      swap1\n      tag_16\n      jump\t// in\n    tag_31:\n      mload(0x40)\n      dup1\n      swap2\n      sub\n      swap1\n      return\n        /* \"Event trigger supply chain.sol\":296:317  uint public pricepaid */\n    tag_4:\n      callvalue\n      dup1\n      iszero\n      tag_32\n      jumpi\n      0x00\n      dup1\n      revert\n    tag_32:\n      pop\n      tag_33\n      tag_34\n      jump\t// in\n    tag_33:\n      mload(0x40)\n      tag_35\n      swap2\n      swap1\n      tag_16\n      jump\t// in\n    tag_35:\n      mload(0x40)\n      dup1\n      swap2\n      sub\n      swap1\n      return\n        /* \"Event trigger supply chain.sol\":324:341  uint public index */\n    tag_30:\n      sload(0x02)\n      dup2\n      jump\t// out\n        /* \"Event trigger supply chain.sol\":296:317  uint public pricepaid */\n    tag_34:\n      sload(0x01)\n      dup2\n      jump\t// out\n        /* \"#utility.yul\":7:176   */\n    tag_36:\n        /* \"#utility.yul\":91:102   */\n      0x00\n        /* \"#utility.yul\":125:131   */\n      dup3\n        /* \"#utility.yul\":120:123   */\n      dup3\n        /* \"#utility.yul\":113:132   */\n      mstore\n        /* \"#utility.yul\":165:169   */\n      0x20\n        /* \"#utility.yul\":160:163   */\n      dup3\n        /* \"#utility.yul\":156:170   */\n      add\n        /* \"#utility.yul\":141:170   */\n      swap1\n      pop\n        /* \"#utility.yul\":7:176   */\n      swap3\n      swap2\n      pop\n      pop\n      jump\t// out\n        /* \"#utility.yul\":182:352   */\n    tag_37:\n        /* \"#utility.yul\":322:344   */\n      0x6974656d206973207061696420616c7265616479000000000000000000000000\n        /* \"#utility.yul\":318:319   */\n      0x00\n        /* \"#utility.yul\":310:316   */\n      dup3\n        /* \"#utility.yul\":306:320   */\n      add\n        /* \"#utility.yul\":299:345   */\n      mstore\n        /* \"#utility.yul\":182:352   */\n      pop\n      jump\t// out\n        /* \"#utility.yul\":358:724   */\n    tag_38:\n        /* \"#utility.yul\":500:503   */\n      0x00\n        /* \"#utility.yul\":521:588   */\n      tag_54\n        /* \"#utility.yul\":585:587   */\n      0x14\n        /* \"#utility.yul\":580:583   */\n      dup4\n        /* \"#utility.yul\":521:588   */\n      tag_36\n      jump\t// in\n    tag_54:\n        /* \"#utility.yul\":514:588   */\n      swap2\n      pop\n        /* \"#utility.yul\":597:690   */\n      tag_55\n        /* \"#utility.yul\":686:689   */\n      dup3\n        /* \"#utility.yul\":597:690   */\n      tag_37\n      jump\t// in\n    tag_55:\n        /* \"#utility.yul\":715:717   */\n      0x20\n        /* \"#utility.yul\":710:713   */\n      dup3\n        /* \"#utility.yul\":706:718   */\n      add\n        /* \"#utility.yul\":699:718   */\n      swap1\n      pop\n        /* \"#utility.yul\":358:724   */\n      swap2\n      swap1\n      pop\n      jump\t// out\n        /* \"#utility.yul\":730:1149   */\n    tag_9:\n        /* \"#utility.yul\":896:900   */\n      0x00\n        /* \"#utility.yul\":934:936   */\n      0x20\n        /* \"#utility.yul\":923:932   */\n      dup3\n        /* \"#utility.yul\":919:937   */\n      add\n        /* \"#utility.yul\":911:937   */\n      swap1\n      pop\n        /* \"#utility.yul\":983:992   */\n      dup2\n        /* \"#utility.yul\":977:981   */\n      dup2\n        /* \"#utility.yul\":973:993   */\n      sub\n        /* \"#utility.yul\":969:970   */\n      0x00\n        /* \"#utility.yul\":958:967   */\n      dup4\n        /* \"#utility.yul\":954:971   */\n      add\n        /* \"#utility.yul\":947:994   */\n      mstore\n        /* \"#utility.yul\":1011:1142   */\n      tag_57\n        /* \"#utility.yul\":1137:1141   */\n      dup2\n        /* \"#utility.yul\":1011:1142   */\n      tag_38\n      jump\t// in\n    tag_57:\n        /* \"#utility.yul\":1003:1142   */\n      swap1\n      pop\n        /* \"#utility.yul\":730:1149   */\n      swap2\n      swap1\n      pop\n      jump\t// out\n        /* \"#utility.yul\":1155:1331   */\n    tag_39:\n        /* \"#utility.yul\":1295:1323   */\n      0x4f6e6c792066756c6c207061796d656e747320616c6c6f776564000000000000\n        /* \"#utility.yul\":1291:1292   */\n      0x00\n        /* \"#utility.yul\":1283:1289   */\n      dup3\n        /* \"#utility.yul\":1279:1293   */\n      add\n        /* \"#utility.yul\":1272:1324   */\n      mstore\n        /* \"#utility.yul\":1155:1331   */\n      pop\n      jump\t// out\n        /* \"#utility.yul\":1337:1703   */\n    tag_40:\n        /* \"#utility.yul\":1479:1482   */\n      0x00\n        /* \"#utility.yul\":1500:1567   */\n      tag_60\n        /* \"#utility.yul\":1564:1566   */\n      0x1a\n        /* \"#utility.yul\":1559:1562   */\n      dup4\n        /* \"#utility.yul\":1500:1567   */\n      tag_36\n      jump\t// in\n    tag_60:\n        /* \"#utility.yul\":1493:1567   */\n      swap2\n      pop\n        /* \"#utility.yul\":1576:1669   */\n      tag_61\n        /* \"#utility.yul\":1665:1668   */\n      dup3\n        /* \"#utility.yul\":1576:1669   */\n      tag_39\n      jump\t// in\n    tag_61:\n        /* \"#utility.yul\":1694:1696   */\n      0x20\n        /* \"#utility.yul\":1689:1692   */\n      dup3\n        /* \"#utility.yul\":1685:1697   */\n      add\n        /* \"#utility.yul\":1678:1697   */\n      swap1\n      pop\n        /* \"#utility.yul\":1337:1703   */\n      swap2\n      swap1\n      pop\n      jump\t// out\n        /* \"#utility.yul\":1709:2128   */\n    tag_12:\n        /* \"#utility.yul\":1875:1879   */\n      0x00\n        /* \"#utility.yul\":1913:1915   */\n      0x20\n        /* \"#utility.yul\":1902:1911   */\n      dup3\n        /* \"#utility.yul\":1898:1916   */\n      add\n        /* \"#utility.yul\":1890:1916   */\n      swap1\n      pop\n        /* \"#utility.yul\":1962:1971   */\n      dup2\n        /* \"#utility.yul\":1956:1960   */\n      dup2\n        /* \"#utility.yul\":1952:1972   */\n      sub\n        /* \"#utility.yul\":1948:1949   */\n      0x00\n        /* \"#utility.yul\":1937:1946   */\n      dup4\n        /* \"#utility.yul\":1933:1950   */\n      add\n        /* \"#utility.yul\":1926:1973   */\n      mstore\n        /* \"#utility.yul\":1990:2121   */\n      tag_63\n        /* \"#utility.yul\":2116:2120   */\n      dup2\n        /* \"#utility.yul\":1990:2121   */\n      tag_40\n      jump\t// in\n    tag_63:\n        /* \"#utility.yul\":1982:2121   */\n      swap1\n      pop\n        /* \"#utility.yul\":1709:2128   */\n      swap2\n      swap1\n      pop\n      jump\t// out\n        /* \"#utility.yul\":2134:2211   */\n    tag_41:\n        /* \"#utility.yul\":2171:2178   */\n      0x00\n        /* \"#utility.yul\":2200:2205   */\n      dup2\n        /* \"#utility.yul\":2189:2205   */\n      swap1\n      pop\n        /* \"#utility.yul\":2134:2211   */\n      swap2\n      swap1\n      pop\n      jump\t// out\n        /* \"#utility.yul\":2217:2397   */\n    tag_42:\n        /* \"#utility.yul\":2265:2342   */\n      0x4e487b7100000000000000000000000000000000000000000000000000000000\n        /* \"#utility.yul\":2262:2263   */\n      0x00\n        /* \"#utility.yul\":2255:2343   */\n      mstore\n        /* \"#utility.yul\":2362:2366   */\n      0x11\n        /* \"#utility.yul\":2359:2360   */\n      0x04\n        /* \"#utility.yul\":2352:2367   */\n      mstore\n        /* \"#utility.yul\":2386:2390   */\n      0x24\n        /* \"#utility.yul\":2383:2384   */\n      0x00\n        /* \"#utility.yul\":2376:2391   */\n      revert\n        /* \"#utility.yul\":2403:2594   */\n    tag_14:\n        /* \"#utility.yul\":2443:2446   */\n      0x00\n        /* \"#utility.yul\":2462:2482   */\n      tag_67\n        /* \"#utility.yul\":2480:2481   */\n      dup3\n        /* \"#utility.yul\":2462:2482   */\n      tag_41\n      jump\t// in\n    tag_67:\n        /* \"#utility.yul\":2457:2482   */\n      swap2\n      pop\n        /* \"#utility.yul\":2496:2516   */\n      tag_68\n        /* \"#utility.yul\":2514:2515   */\n      dup4\n        /* \"#utility.yul\":2496:2516   */\n      tag_41\n      jump\t// in\n    tag_68:\n        /* \"#utility.yul\":2491:2516   */\n      swap3\n      pop\n        /* \"#utility.yul\":2539:2540   */\n      dup3\n        /* \"#utility.yul\":2536:2537   */\n      dup3\n        /* \"#utility.yul\":2532:2541   */\n      add\n        /* \"#utility.yul\":2525:2541   */\n      swap1\n      pop\n        /* \"#utility.yul\":2560:2563   */\n      dup1\n        /* \"#utility.yul\":2557:2558   */\n      dup3\n        /* \"#utility.yul\":2554:2564   */\n      gt\n        /* \"#utility.yul\":2551:2587   */\n      iszero\n      tag_69\n      jumpi\n        /* \"#utility.yul\":2567:2585   */\n      tag_70\n      tag_42\n      jump\t// in\n    tag_70:\n        /* \"#utility.yul\":2551:2587   */\n    tag_69:\n        /* \"#utility.yul\":2403:2594   */\n      swap3\n      swap2\n      pop\n      pop\n      jump\t// out\n        /* \"#utility.yul\":2600:2718   */\n    tag_43:\n        /* \"#utility.yul\":2687:2711   */\n      tag_72\n        /* \"#utility.yul\":2705:2710   */\n      dup2\n        /* \"#utility.yul\":2687:2711   */\n      tag_41\n      jump\t// in\n    tag_72:\n        /* \"#utility.yul\":2682:2685   */\n      dup3\n        /* \"#utility.yul\":2675:2712   */\n      mstore\n        /* \"#utility.yul\":2600:2718   */\n      pop\n      pop\n      jump\t// out\n        /* \"#utility.yul\":2724:2946   */\n    tag_16:\n        /* \"#utility.yul\":2817:2821   */\n      0x00\n        /* \"#utility.yul\":2855:2857   */\n      0x20\n        /* \"#utility.yul\":2844:2853   */\n      dup3\n        /* \"#utility.yul\":2840:2858   */\n      add\n        /* \"#utility.yul\":2832:2858   */\n      swap1\n      pop\n        /* \"#utility.yul\":2868:2939   */\n      tag_74\n        /* \"#utility.yul\":2936:2937   */\n      0x00\n        /* \"#utility.yul\":2925:2934   */\n      dup4\n        /* \"#utility.yul\":2921:2938   */\n      add\n        /* \"#utility.yul\":2912:2918   */\n      dup5\n        /* \"#utility.yul\":2868:2939   */\n      tag_43\n      jump\t// in\n    tag_74:\n        /* \"#utility.yul\":2724:2946   */\n      swap3\n      swap2\n      pop\n      pop\n      jump\t// out\n        /* \"#utility.yul\":2952:3050   */\n    tag_44:\n        /* \"#utility.yul\":3003:3009   */\n      0x00\n        /* \"#utility.yul\":3037:3042   */\n      dup2\n        /* \"#utility.yul\":3031:3043   */\n      mload\n        /* \"#utility.yul\":3021:3043   */\n      swap1\n      pop\n        /* \"#utility.yul\":2952:3050   */\n      swap2\n      swap1\n      pop\n      jump\t// out\n        /* \"#utility.yul\":3056:3203   */\n    tag_45:\n        /* \"#utility.yul\":3157:3168   */\n      0x00\n        /* \"#utility.yul\":3194:3197   */\n      dup2\n        /* \"#utility.yul\":3179:3197   */\n      swap1\n      pop\n        /* \"#utility.yul\":3056:3203   */\n      swap3\n      swap2\n      pop\n      pop\n      jump\t// out\n        /* \"#utility.yul\":3209:3455   */\n    tag_46:\n        /* \"#utility.yul\":3290:3291   */\n      0x00\n        /* \"#utility.yul\":3300:3413   */\n    tag_78:\n        /* \"#utility.yul\":3314:3320   */\n      dup4\n        /* \"#utility.yul\":3311:3312   */\n      dup2\n        /* \"#utility.yul\":3308:3321   */\n      lt\n        /* \"#utility.yul\":3300:3413   */\n      iszero\n      tag_80\n      jumpi\n        /* \"#utility.yul\":3399:3400   */\n      dup1\n        /* \"#utility.yul\":3394:3397   */\n      dup3\n        /* \"#utility.yul\":3390:3401   */\n      add\n        /* \"#utility.yul\":3384:3402   */\n      mload\n        /* \"#utility.yul\":3380:3381   */\n      dup2\n        /* \"#utility.yul\":3375:3378   */\n      dup5\n        /* \"#utility.yul\":3371:3382   */\n      add\n        /* \"#utility.yul\":3364:3403   */\n      mstore\n        /* \"#utility.yul\":3336:3338   */\n      0x20\n        /* \"#utility.yul\":3333:3334   */\n      dup2\n        /* \"#utility.yul\":3329:3339   */\n      add\n        /* \"#utility.yul\":3324:3339   */\n      swap1\n      pop\n        /* \"#utility.yul\":3300:3413   */\n      jump(tag_78)\n    tag_80:\n        /* \"#utility.yul\":3447:3448   */\n      0x00\n        /* \"#utility.yul\":3438:3444   */\n      dup5\n        /* \"#utility.yul\":3433:3436   */\n      dup5\n        /* \"#utility.yul\":3429:3445   */\n      add\n        /* \"#utility.yul\":3422:3449   */\n      mstore\n        /* \"#utility.yul\":3271:3455   */\n      pop\n        /* \"#utility.yul\":3209:3455   */\n      pop\n      pop\n      pop\n      jump\t// out\n        /* \"#utility.yul\":3461:3847   */\n    tag_47:\n        /* \"#utility.yul\":3565:3568   */\n      0x00\n        /* \"#utility.yul\":3593:3631   */\n      tag_82\n        /* \"#utility.yul\":3625:3630   */\n      dup3\n        /* \"#utility.yul\":3593:3631   */\n      tag_44\n      jump\t// in\n    tag_82:\n        /* \"#utility.yul\":3647:3735   */\n      tag_83\n        /* \"#utility.yul\":3728:3734   */\n      dup2\n        /* \"#utility.yul\":3723:3726   */\n      dup6\n        /* \"#utility.yul\":3647:3735   */\n      tag_45\n      jump\t// in\n    tag_83:\n        /* \"#utility.yul\":3640:3735   */\n      swap4\n      pop\n        /* \"#utility.yul\":3744:3809   */\n      tag_84\n        /* \"#utility.yul\":3802:3808   */\n      dup2\n        /* \"#utility.yul\":3797:3800   */\n      dup6\n        /* \"#utility.yul\":3790:3794   */\n      0x20\n        /* \"#utility.yul\":3783:3788   */\n      dup7\n        /* \"#utility.yul\":3779:3795   */\n      add\n        /* \"#utility.yul\":3744:3809   */\n      tag_46\n      jump\t// in\n    tag_84:\n        /* \"#utility.yul\":3834:3840   */\n      dup1\n        /* \"#utility.yul\":3829:3832   */\n      dup5\n        /* \"#utility.yul\":3825:3841   */\n      add\n        /* \"#utility.yul\":3818:3841   */\n      swap2\n      pop\n        /* \"#utility.yul\":3569:3847   */\n      pop\n        /* \"#utility.yul\":3461:3847   */\n      swap3\n      swap2\n      pop\n      pop\n      jump\t// out\n        /* \"#utility.yul\":3853:4124   */\n    tag_18:\n        /* \"#utility.yul\":3983:3986   */\n      0x00\n        /* \"#utility.yul\":4005:4098   */\n      tag_86\n        /* \"#utility.yul\":4094:4097   */\n      dup3\n        /* \"#utility.yul\":4085:4091   */\n      dup5\n        /* \"#utility.yul\":4005:4098   */\n      tag_47\n      jump\t// in\n    tag_86:\n        /* \"#utility.yul\":3998:4098   */\n      swap2\n      pop\n        /* \"#utility.yul\":4115:4118   */\n      dup2\n        /* \"#utility.yul\":4108:4118   */\n      swap1\n      pop\n        /* \"#utility.yul\":3853:4124   */\n      swap3\n      swap2\n      pop\n      pop\n      jump\t// out\n        /* \"#utility.yul\":4130:4361   */\n    tag_48:\n        /* \"#utility.yul\":4270:4304   */\n      0x546865205472616e73616374696f6e207761736e277420737563636573736675\n        /* \"#utility.yul\":4266:4267   */\n      0x00\n        /* \"#utility.yul\":4258:4264   */\n      dup3\n        /* \"#utility.yul\":4254:4268   */\n      add\n        /* \"#utility.yul\":4247:4305   */\n      mstore\n        /* \"#utility.yul\":4339:4353   */\n      0x6c2c2063616e63656c696e670000000000000000000000000000000000000000\n        /* \"#utility.yul\":4334:4336   */\n      0x20\n        /* \"#utility.yul\":4326:4332   */\n      dup3\n        /* \"#utility.yul\":4322:4337   */\n      add\n        /* \"#utility.yul\":4315:4354   */\n      mstore\n        /* \"#utility.yul\":4130:4361   */\n      pop\n      jump\t// out\n        /* \"#utility.yul\":4367:4733   */\n    tag_49:\n        /* \"#utility.yul\":4509:4512   */\n      0x00\n        /* \"#utility.yul\":4530:4597   */\n      tag_89\n        /* \"#utility.yul\":4594:4596   */\n      0x2c\n        /* \"#utility.yul\":4589:4592   */\n      dup4\n        /* \"#utility.yul\":4530:4597   */\n      tag_36\n      jump\t// in\n    tag_89:\n        /* \"#utility.yul\":4523:4597   */\n      swap2\n      pop\n        /* \"#utility.yul\":4606:4699   */\n      tag_90\n        /* \"#utility.yul\":4695:4698   */\n      dup3\n        /* \"#utility.yul\":4606:4699   */\n      tag_48\n      jump\t// in\n    tag_90:\n        /* \"#utility.yul\":4724:4726   */\n      0x40\n        /* \"#utility.yul\":4719:4722   */\n      dup3\n        /* \"#utility.yul\":4715:4727   */\n      add\n        /* \"#utility.yul\":4708:4727   */\n      swap1\n      pop\n        /* \"#utility.yul\":4367:4733   */\n      swap2\n      swap1\n      pop\n      jump\t// out\n        /* \"#utility.yul\":4739:5158   */\n    tag_24:\n        /* \"#utility.yul\":4905:4909   */\n      0x00\n        /* \"#utility.yul\":4943:4945   */\n      0x20\n        /* \"#utility.yul\":4932:4941   */\n      dup3\n        /* \"#utility.yul\":4928:4946   */\n      add\n        /* \"#utility.yul\":4920:4946   */\n      swap1\n      pop\n        /* \"#utility.yul\":4992:5001   */\n      dup2\n        /* \"#utility.yul\":4986:4990   */\n      dup2\n        /* \"#utility.yul\":4982:5002   */\n      sub\n        /* \"#utility.yul\":4978:4979   */\n      0x00\n        /* \"#utility.yul\":4967:4976   */\n      dup4\n        /* \"#utility.yul\":4963:4980   */\n      add\n        /* \"#utility.yul\":4956:5003   */\n      mstore\n        /* \"#utility.yul\":5020:5151   */\n      tag_92\n        /* \"#utility.yul\":5146:5150   */\n      dup2\n        /* \"#utility.yul\":5020:5151   */\n      tag_49\n      jump\t// in\n    tag_92:\n        /* \"#utility.yul\":5012:5151   */\n      swap1\n      pop\n        /* \"#utility.yul\":4739:5158   */\n      swap2\n      swap1\n      pop\n      jump\t// out\n\n    auxdata: 0xa26469706673582212205b3012eae8d4d7812be27fd78d2d964380efb68b9a31f917b0dba4a621b3d02864736f6c63430008100033\n}\n",
				"bytecode": {
					"linkReferences": {},
					"object": "608060405234801561001057600080fd5b5060405161070d38038061070d83398181016040528101906100329190610134565b816000819055508060028190555082600360006101000a81548173ffffffffffffffffffffffffffffffffffffffff021916908373ffffffffffffffffffffffffffffffffffffffff160217905550505050610187565b600080fd5b600073ffffffffffffffffffffffffffffffffffffffff82169050919050565b60006100b98261008e565b9050919050565b60006100cb826100ae565b9050919050565b6100db816100c0565b81146100e657600080fd5b50565b6000815190506100f8816100d2565b92915050565b6000819050919050565b610111816100fe565b811461011c57600080fd5b50565b60008151905061012e81610108565b92915050565b60008060006060848603121561014d5761014c610089565b5b600061015b868287016100e9565b935050602061016c8682870161011f565b925050604061017d8682870161011f565b9150509250925092565b610577806101966000396000f3fe60806040526004361061002d5760003560e01c80632986c0e5146102455780637666c5a21461027057610237565b3661023757600060015414610077576040517f08c379a000000000000000000000000000000000000000000000000000000000815260040161006e90610304565b60405180910390fd5b34600054146100bb576040517f08c379a00000000000000000000000000000000000000000000000000000000081526004016100b290610370565b60405180910390fd5b600054600160008282546100cf91906103c9565b925050819055506000600360009054906101000a900473ffffffffffffffffffffffffffffffffffffffff1673ffffffffffffffffffffffffffffffffffffffff1634600254604051602401610125919061040c565b6040516020818303038152906040527f800fb83f000000000000000000000000000000000000000000000000000000007bffffffffffffffffffffffffffffffffffffffffffffffffffffffff19166020820180517bffffffffffffffffffffffffffffffffffffffffffffffffffffffff83818316178352505050506040516101af9190610498565b60006040518083038185875af1925050503d80600081146101ec576040519150601f19603f3d011682016040523d82523d6000602084013e6101f1565b606091505b5050905080610235576040517f08c379a000000000000000000000000000000000000000000000000000000000815260040161022c90610521565b60405180910390fd5b005b34801561024357600080fd5b005b34801561025157600080fd5b5061025a61029b565b604051610267919061040c565b60405180910390f35b34801561027c57600080fd5b506102856102a1565b604051610292919061040c565b60405180910390f35b60025481565b60015481565b600082825260208201905092915050565b7f6974656d206973207061696420616c7265616479000000000000000000000000600082015250565b60006102ee6014836102a7565b91506102f9826102b8565b602082019050919050565b6000602082019050818103600083015261031d816102e1565b9050919050565b7f4f6e6c792066756c6c207061796d656e747320616c6c6f776564000000000000600082015250565b600061035a601a836102a7565b915061036582610324565b602082019050919050565b600060208201905081810360008301526103898161034d565b9050919050565b6000819050919050565b7f4e487b7100000000000000000000000000000000000000000000000000000000600052601160045260246000fd5b60006103d482610390565b91506103df83610390565b92508282019050808211156103f7576103f661039a565b5b92915050565b61040681610390565b82525050565b600060208201905061042160008301846103fd565b92915050565b600081519050919050565b600081905092915050565b60005b8381101561045b578082015181840152602081019050610440565b60008484015250505050565b600061047282610427565b61047c8185610432565b935061048c81856020860161043d565b80840191505092915050565b60006104a48284610467565b915081905092915050565b7f546865205472616e73616374696f6e207761736e27742073756363657373667560008201527f6c2c2063616e63656c696e670000000000000000000000000000000000000000602082015250565b600061050b602c836102a7565b9150610516826104af565b604082019050919050565b6000602082019050818103600083015261053a816104fe565b905091905056fea26469706673582212205b3012eae8d4d7812be27fd78d2d964380efb68b9a31f917b0dba4a621b3d02864736f6c63430008100033",
					"opcodes": "PUSH1 0x80 PUSH1 0x40 MSTORE CALLVALUE DUP1 ISZERO PUSH2 0x10 JUMPI PUSH1 0x0 DUP1 REVERT JUMPDEST POP PUSH1 0x40 MLOAD PUSH2 0x70D CODESIZE SUB DUP1 PUSH2 0x70D DUP4 CODECOPY DUP2 DUP2 ADD PUSH1 0x40 MSTORE DUP2 ADD SWAP1 PUSH2 0x32 SWAP2 SWAP1 PUSH2 0x134 JUMP JUMPDEST DUP2 PUSH1 0x0 DUP2 SWAP1 SSTORE POP DUP1 PUSH1 0x2 DUP2 SWAP1 SSTORE POP DUP3 PUSH1 0x3 PUSH1 0x0 PUSH2 0x100 EXP DUP2 SLOAD DUP2 PUSH20 0xFFFFFFFFFFFFFFFFFFFFFFFFFFFFFFFFFFFFFFFF MUL NOT AND SWAP1 DUP4 PUSH20 0xFFFFFFFFFFFFFFFFFFFFFFFFFFFFFFFFFFFFFFFF AND MUL OR SWAP1 SSTORE POP POP POP POP PUSH2 0x187 JUMP JUMPDEST PUSH1 0x0 DUP1 REVERT JUMPDEST PUSH1 0x0 PUSH20 0xFFFFFFFFFFFFFFFFFFFFFFFFFFFFFFFFFFFFFFFF DUP3 AND SWAP1 POP SWAP2 SWAP1 POP JUMP JUMPDEST PUSH1 0x0 PUSH2 0xB9 DUP3 PUSH2 0x8E JUMP JUMPDEST SWAP1 POP SWAP2 SWAP1 POP JUMP JUMPDEST PUSH1 0x0 PUSH2 0xCB DUP3 PUSH2 0xAE JUMP JUMPDEST SWAP1 POP SWAP2 SWAP1 POP JUMP JUMPDEST PUSH2 0xDB DUP2 PUSH2 0xC0 JUMP JUMPDEST DUP2 EQ PUSH2 0xE6 JUMPI PUSH1 0x0 DUP1 REVERT JUMPDEST POP JUMP JUMPDEST PUSH1 0x0 DUP2 MLOAD SWAP1 POP PUSH2 0xF8 DUP2 PUSH2 0xD2 JUMP JUMPDEST SWAP3 SWAP2 POP POP JUMP JUMPDEST PUSH1 0x0 DUP2 SWAP1 POP SWAP2 SWAP1 POP JUMP JUMPDEST PUSH2 0x111 DUP2 PUSH2 0xFE JUMP JUMPDEST DUP2 EQ PUSH2 0x11C JUMPI PUSH1 0x0 DUP1 REVERT JUMPDEST POP JUMP JUMPDEST PUSH1 0x0 DUP2 MLOAD SWAP1 POP PUSH2 0x12E DUP2 PUSH2 0x108 JUMP JUMPDEST SWAP3 SWAP2 POP POP JUMP JUMPDEST PUSH1 0x0 DUP1 PUSH1 0x0 PUSH1 0x60 DUP5 DUP7 SUB SLT ISZERO PUSH2 0x14D JUMPI PUSH2 0x14C PUSH2 0x89 JUMP JUMPDEST JUMPDEST PUSH1 0x0 PUSH2 0x15B DUP7 DUP3 DUP8 ADD PUSH2 0xE9 JUMP JUMPDEST SWAP4 POP POP PUSH1 0x20 PUSH2 0x16C DUP7 DUP3 DUP8 ADD PUSH2 0x11F JUMP JUMPDEST SWAP3 POP POP PUSH1 0x40 PUSH2 0x17D DUP7 DUP3 DUP8 ADD PUSH2 0x11F JUMP JUMPDEST SWAP2 POP POP SWAP3 POP SWAP3 POP SWAP3 JUMP JUMPDEST PUSH2 0x577 DUP1 PUSH2 0x196 PUSH1 0x0 CODECOPY PUSH1 0x0 RETURN INVALID PUSH1 0x80 PUSH1 0x40 MSTORE PUSH1 0x4 CALLDATASIZE LT PUSH2 0x2D JUMPI PUSH1 0x0 CALLDATALOAD PUSH1 0xE0 SHR DUP1 PUSH4 0x2986C0E5 EQ PUSH2 0x245 JUMPI DUP1 PUSH4 0x7666C5A2 EQ PUSH2 0x270 JUMPI PUSH2 0x237 JUMP JUMPDEST CALLDATASIZE PUSH2 0x237 JUMPI PUSH1 0x0 PUSH1 0x1 SLOAD EQ PUSH2 0x77 JUMPI PUSH1 0x40 MLOAD PUSH32 0x8C379A000000000000000000000000000000000000000000000000000000000 DUP2 MSTORE PUSH1 0x4 ADD PUSH2 0x6E SWAP1 PUSH2 0x304 JUMP JUMPDEST PUSH1 0x40 MLOAD DUP1 SWAP2 SUB SWAP1 REVERT JUMPDEST CALLVALUE PUSH1 0x0 SLOAD EQ PUSH2 0xBB JUMPI PUSH1 0x40 MLOAD PUSH32 0x8C379A000000000000000000000000000000000000000000000000000000000 DUP2 MSTORE PUSH1 0x4 ADD PUSH2 0xB2 SWAP1 PUSH2 0x370 JUMP JUMPDEST PUSH1 0x40 MLOAD DUP1 SWAP2 SUB SWAP1 REVERT JUMPDEST PUSH1 0x0 SLOAD PUSH1 0x1 PUSH1 0x0 DUP3 DUP3 SLOAD PUSH2 0xCF SWAP2 SWAP1 PUSH2 0x3C9 JUMP JUMPDEST SWAP3 POP POP DUP2 SWAP1 SSTORE POP PUSH1 0x0 PUSH1 0x3 PUSH1 0x0 SWAP1 SLOAD SWAP1 PUSH2 0x100 EXP SWAP1 DIV PUSH20 0xFFFFFFFFFFFFFFFFFFFFFFFFFFFFFFFFFFFFFFFF AND PUSH20 0xFFFFFFFFFFFFFFFFFFFFFFFFFFFFFFFFFFFFFFFF AND CALLVALUE PUSH1 0x2 SLOAD PUSH1 0x40 MLOAD PUSH1 0x24 ADD PUSH2 0x125 SWAP2 SWAP1 PUSH2 0x40C JUMP JUMPDEST PUSH1 0x40 MLOAD PUSH1 0x20 DUP2 DUP4 SUB SUB DUP2 MSTORE SWAP1 PUSH1 0x40 MSTORE PUSH32 0x800FB83F00000000000000000000000000000000000000000000000000000000 PUSH28 0xFFFFFFFFFFFFFFFFFFFFFFFFFFFFFFFFFFFFFFFFFFFFFFFFFFFFFFFF NOT AND PUSH1 0x20 DUP3 ADD DUP1 MLOAD PUSH28 0xFFFFFFFFFFFFFFFFFFFFFFFFFFFFFFFFFFFFFFFFFFFFFFFFFFFFFFFF DUP4 DUP2 DUP4 AND OR DUP4 MSTORE POP POP POP POP PUSH1 0x40 MLOAD PUSH2 0x1AF SWAP2 SWAP1 PUSH2 0x498 JUMP JUMPDEST PUSH1 0x0 PUSH1 0x40 MLOAD DUP1 DUP4 SUB DUP2 DUP6 DUP8 GAS CALL SWAP3 POP POP POP RETURNDATASIZE DUP1 PUSH1 0x0 DUP2 EQ PUSH2 0x1EC JUMPI PUSH1 0x40 MLOAD SWAP2 POP PUSH1 0x1F NOT PUSH1 0x3F RETURNDATASIZE ADD AND DUP3 ADD PUSH1 0x40 MSTORE RETURNDATASIZE DUP3 MSTORE RETURNDATASIZE PUSH1 0x0 PUSH1 0x20 DUP5 ADD RETURNDATACOPY PUSH2 0x1F1 JUMP JUMPDEST PUSH1 0x60 SWAP2 POP JUMPDEST POP POP SWAP1 POP DUP1 PUSH2 0x235 JUMPI PUSH1 0x40 MLOAD PUSH32 0x8C379A000000000000000000000000000000000000000000000000000000000 DUP2 MSTORE PUSH1 0x4 ADD PUSH2 0x22C SWAP1 PUSH2 0x521 JUMP JUMPDEST PUSH1 0x40 MLOAD DUP1 SWAP2 SUB SWAP1 REVERT JUMPDEST STOP JUMPDEST CALLVALUE DUP1 ISZERO PUSH2 0x243 JUMPI PUSH1 0x0 DUP1 REVERT JUMPDEST STOP JUMPDEST CALLVALUE DUP1 ISZERO PUSH2 0x251 JUMPI PUSH1 0x0 DUP1 REVERT JUMPDEST POP PUSH2 0x25A PUSH2 0x29B JUMP JUMPDEST PUSH1 0x40 MLOAD PUSH2 0x267 SWAP2 SWAP1 PUSH2 0x40C JUMP JUMPDEST PUSH1 0x40 MLOAD DUP1 SWAP2 SUB SWAP1 RETURN JUMPDEST CALLVALUE DUP1 ISZERO PUSH2 0x27C JUMPI PUSH1 0x0 DUP1 REVERT JUMPDEST POP PUSH2 0x285 PUSH2 0x2A1 JUMP JUMPDEST PUSH1 0x40 MLOAD PUSH2 0x292 SWAP2 SWAP1 PUSH2 0x40C JUMP JUMPDEST PUSH1 0x40 MLOAD DUP1 SWAP2 SUB SWAP1 RETURN JUMPDEST PUSH1 0x2 SLOAD DUP2 JUMP JUMPDEST PUSH1 0x1 SLOAD DUP2 JUMP JUMPDEST PUSH1 0x0 DUP3 DUP3 MSTORE PUSH1 0x20 DUP3 ADD SWAP1 POP SWAP3 SWAP2 POP POP JUMP JUMPDEST PUSH32 0x6974656D206973207061696420616C7265616479000000000000000000000000 PUSH1 0x0 DUP3 ADD MSTORE POP JUMP JUMPDEST PUSH1 0x0 PUSH2 0x2EE PUSH1 0x14 DUP4 PUSH2 0x2A7 JUMP JUMPDEST SWAP2 POP PUSH2 0x2F9 DUP3 PUSH2 0x2B8 JUMP JUMPDEST PUSH1 0x20 DUP3 ADD SWAP1 POP SWAP2 SWAP1 POP JUMP JUMPDEST PUSH1 0x0 PUSH1 0x20 DUP3 ADD SWAP1 POP DUP2 DUP2 SUB PUSH1 0x0 DUP4 ADD MSTORE PUSH2 0x31D DUP2 PUSH2 0x2E1 JUMP JUMPDEST SWAP1 POP SWAP2 SWAP1 POP JUMP JUMPDEST PUSH32 0x4F6E6C792066756C6C207061796D656E747320616C6C6F776564000000000000 PUSH1 0x0 DUP3 ADD MSTORE POP JUMP JUMPDEST PUSH1 0x0 PUSH2 0x35A PUSH1 0x1A DUP4 PUSH2 0x2A7 JUMP JUMPDEST SWAP2 POP PUSH2 0x365 DUP3 PUSH2 0x324 JUMP JUMPDEST PUSH1 0x20 DUP3 ADD SWAP1 POP SWAP2 SWAP1 POP JUMP JUMPDEST PUSH1 0x0 PUSH1 0x20 DUP3 ADD SWAP1 POP DUP2 DUP2 SUB PUSH1 0x0 DUP4 ADD MSTORE PUSH2 0x389 DUP2 PUSH2 0x34D JUMP JUMPDEST SWAP1 POP SWAP2 SWAP1 POP JUMP JUMPDEST PUSH1 0x0 DUP2 SWAP1 POP SWAP2 SWAP1 POP JUMP JUMPDEST PUSH32 0x4E487B7100000000000000000000000000000000000000000000000000000000 PUSH1 0x0 MSTORE PUSH1 0x11 PUSH1 0x4 MSTORE PUSH1 0x24 PUSH1 0x0 REVERT JUMPDEST PUSH1 0x0 PUSH2 0x3D4 DUP3 PUSH2 0x390 JUMP JUMPDEST SWAP2 POP PUSH2 0x3DF DUP4 PUSH2 0x390 JUMP JUMPDEST SWAP3 POP DUP3 DUP3 ADD SWAP1 POP DUP1 DUP3 GT ISZERO PUSH2 0x3F7 JUMPI PUSH2 0x3F6 PUSH2 0x39A JUMP JUMPDEST JUMPDEST SWAP3 SWAP2 POP POP JUMP JUMPDEST PUSH2 0x406 DUP2 PUSH2 0x390 JUMP JUMPDEST DUP3 MSTORE POP POP JUMP JUMPDEST PUSH1 0x0 PUSH1 0x20 DUP3 ADD SWAP1 POP PUSH2 0x421 PUSH1 0x0 DUP4 ADD DUP5 PUSH2 0x3FD JUMP JUMPDEST SWAP3 SWAP2 POP POP JUMP JUMPDEST PUSH1 0x0 DUP2 MLOAD SWAP1 POP SWAP2 SWAP1 POP JUMP JUMPDEST PUSH1 0x0 DUP2 SWAP1 POP SWAP3 SWAP2 POP POP JUMP JUMPDEST PUSH1 0x0 JUMPDEST DUP4 DUP2 LT ISZERO PUSH2 0x45B JUMPI DUP1 DUP3 ADD MLOAD DUP2 DUP5 ADD MSTORE PUSH1 0x20 DUP2 ADD SWAP1 POP PUSH2 0x440 JUMP JUMPDEST PUSH1 0x0 DUP5 DUP5 ADD MSTORE POP POP POP POP JUMP JUMPDEST PUSH1 0x0 PUSH2 0x472 DUP3 PUSH2 0x427 JUMP JUMPDEST PUSH2 0x47C DUP2 DUP6 PUSH2 0x432 JUMP JUMPDEST SWAP4 POP PUSH2 0x48C DUP2 DUP6 PUSH1 0x20 DUP7 ADD PUSH2 0x43D JUMP JUMPDEST DUP1 DUP5 ADD SWAP2 POP POP SWAP3 SWAP2 POP POP JUMP JUMPDEST PUSH1 0x0 PUSH2 0x4A4 DUP3 DUP5 PUSH2 0x467 JUMP JUMPDEST SWAP2 POP DUP2 SWAP1 POP SWAP3 SWAP2 POP POP JUMP JUMPDEST PUSH32 0x546865205472616E73616374696F6E207761736E277420737563636573736675 PUSH1 0x0 DUP3 ADD MSTORE PUSH32 0x6C2C2063616E63656C696E670000000000000000000000000000000000000000 PUSH1 0x20 DUP3 ADD MSTORE POP JUMP JUMPDEST PUSH1 0x0 PUSH2 0x50B PUSH1 0x2C DUP4 PUSH2 0x2A7 JUMP JUMPDEST SWAP2 POP PUSH2 0x516 DUP3 PUSH2 0x4AF JUMP JUMPDEST PUSH1 0x40 DUP3 ADD SWAP1 POP SWAP2 SWAP1 POP JUMP JUMPDEST PUSH1 0x0 PUSH1 0x20 DUP3 ADD SWAP1 POP DUP2 DUP2 SUB PUSH1 0x0 DUP4 ADD MSTORE PUSH2 0x53A DUP2 PUSH2 0x4FE JUMP JUMPDEST SWAP1 POP SWAP2 SWAP1 POP JUMP INVALID LOG2 PUSH5 0x6970667358 0x22 SLT KECCAK256 JUMPDEST ADDRESS SLT 0xEA 0xE8 0xD4 0xD7 DUP2 0x2B 0xE2 PUSH32 0xD78D2D964380EFB68B9A31F917B0DBA4A621B3D02864736F6C63430008100033 "
				},
				"gasEstimates": {
					"creation": {
						"codeDepositCost": "279800",
						"executionCost": "infinite",
						"totalCost": "infinite"
					},
					"external": {
						"": "134",
						"index()": "2407",
						"pricepaid()": "2429"
					}
				},
				"methodIdentifiers": {
					"index()": "2986c0e5",
					"pricepaid()": "7666c5a2"
				}
			},
			"storageLayout": {
				"storage": [
					{
						"astId": 4,
						"contract": "Event trigger supply chain.sol:Item",
						"label": "priceinwei",
						"offset": 0,
						"slot": "0",
						"type": "t_uint256"
					},
					{
						"astId": 6,
						"contract": "Event trigger supply chain.sol:Item",
						"label": "pricepaid",
						"offset": 0,
						"slot": "1",
						"type": "t_uint256"
					},
					{
						"astId": 8,
						"contract": "Event trigger supply chain.sol:Item",
						"label": "index",
						"offset": 0,
						"slot": "2",
						"type": "t_uint256"
					},
					{
						"astId": 11,
						"contract": "Event trigger supply chain.sol:Item",
						"label": "parentContract",
						"offset": 0,
						"slot": "3",
						"type": "t_contract(InvoiceManager)444"
					}
				],
				"types": {
					"t_contract(InvoiceManager)444": {
						"encoding": "inplace",
						"label": "contract InvoiceManager",
						"numberOfBytes": "20"
					},
					"t_uint256": {
						"encoding": "inplace",
						"label": "uint256",
						"numberOfBytes": "32"
					}
				}
			},
			"userdoc": {
				"kind": "user",
				"methods": {},
				"version": 1
			}
		}
	}
}