{
	"data": {
		"bytecode": {
			"linkReferences": {},
			"object": "60806040523480156200001157600080fd5b5062000032620000266200003860201b60201c565b6200004060201b60201c565b62000104565b600033905090565b60008060009054906101000a900473ffffffffffffffffffffffffffffffffffffffff169050816000806101000a81548173ffffffffffffffffffffffffffffffffffffffff021916908373ffffffffffffffffffffffffffffffffffffffff1602179055508173ffffffffffffffffffffffffffffffffffffffff168173ffffffffffffffffffffffffffffffffffffffff167f8be0079c531659141344cd1fd0a4f28419497f9722a3daafe3b4186f6b6457e060405160405180910390a35050565b612d4b80620001146000396000f3fe608060405260043610620000865760003560e01c80638da5cb5b11620000555780638da5cb5b1462000123578063985897421462000153578063a5f445b7146200019d578063f2fde38b14620001e15762000086565b806327435f62146200008b5780633ea3a44b14620000bb578063715018a614620000db5780638c55174214620000f5575b600080fd5b3480156200009857600080fd5b50620000a36200020f565b604051620000b2919062001a02565b60405180910390f35b620000d96004803603810190620000d3919062001a6b565b62000461565b005b348015620000e857600080fd5b50620000f362000987565b005b3480156200010257600080fd5b506200012160048036038101906200011b919062001bee565b62000a47565b005b3480156200013057600080fd5b506200013b62000c98565b6040516200014a919062001c65565b60405180910390f35b3480156200016057600080fd5b506200017f600480360381019062000179919062001a6b565b62000cc1565b60405162000194979695949392919062001d07565b60405180910390f35b348015620001aa57600080fd5b50620001c96004803603810190620001c3919062001dbc565b62000e00565b604051620001d8919062001a02565b60405180910390f35b348015620001ee57600080fd5b506200020d600480360381019062000207919062001dbc565b62001091565b005b60606003805480602002602001604051908101604052809291908181526020016000905b828210156200045857838290600052602060002090600702016040518060e00160405290816000820160009054906101000a900473ffffffffffffffffffffffffffffffffffffffff1673ffffffffffffffffffffffffffffffffffffffff1673ffffffffffffffffffffffffffffffffffffffff1681526020016001820160009054906101000a900473ffffffffffffffffffffffffffffffffffffffff1673ffffffffffffffffffffffffffffffffffffffff1673ffffffffffffffffffffffffffffffffffffffff1681526020016002820160009054906101000a900473ffffffffffffffffffffffffffffffffffffffff1673ffffffffffffffffffffffffffffffffffffffff1673ffffffffffffffffffffffffffffffffffffffff1681526020016003820180546200036b9062001e1d565b80601f0160208091040260200160405190810160405280929190818152602001828054620003999062001e1d565b8015620003ea5780601f10620003be57610100808354040283529160200191620003ea565b820191906000526020600020905b815481529060010190602001808311620003cc57829003601f168201915b50505050508152602001600482015481526020016005820160009054906101000a900460ff16600181111562000425576200042462001834565b5b60018111156200043a576200043962001834565b5b81526020016006820154815250508152602001906001019062000233565b50505050905090565b3460026000838152602001908152602001600020600401541115620004bd576040517f08c379a0000000000000000000000000000000000000000000000000000000008152600401620004b49062001ea2565b60405180910390fd5b60006001811115620004d457620004d362001834565b5b6002600083815260200190815260200160002060050160009054906101000a900460ff1660018111156200050d576200050c62001834565b5b1462000550576040517f08c379a0000000000000000000000000000000000000000000000000000000008152600401620005479062001f14565b60405180910390fd5b3373ffffffffffffffffffffffffffffffffffffffff166002600083815260200190815260200160002060010160009054906101000a900473ffffffffffffffffffffffffffffffffffffffff1673ffffffffffffffffffffffffffffffffffffffff1603620005f7576040517f08c379a0000000000000000000000000000000000000000000000000000000008152600401620005ee9062001fac565b60405180910390fd5b60016002600083815260200190815260200160002060050160006101000a81548160ff0219169083600181111562000634576200063362001834565b5b0217905550336002600083815260200190815260200160002060000160006101000a81548173ffffffffffffffffffffffffffffffffffffffff021916908373ffffffffffffffffffffffffffffffffffffffff160217905550426002600083815260200190815260200160002060060181905550620008516002600083815260200190815260200160002060010160009054906101000a900473ffffffffffffffffffffffffffffffffffffffff166002600084815260200190815260200160002060020160009054906101000a900473ffffffffffffffffffffffffffffffffffffffff166002600085815260200190815260200160002060030180546200073e9062001e1d565b80601f01602080910402602001604051908101604052809291908181526020018280546200076c9062001e1d565b8015620007bd5780601f106200079157610100808354040283529160200191620007bd565b820191906000526020600020905b8154815290600101906020018083116200079f57829003601f168201915b505050505060026000868152602001908152602001600020600401546002600087815260200190815260200160002060050160009054906101000a900460ff166002600088815260200190815260200160002060000160009054906101000a900473ffffffffffffffffffffffffffffffffffffffff16600260008981526020019081526020016000206006015462001194565b7fa3cc98fd99f30b099f998ac88cf0d8cf7c2a3ce87b8af5d8543e401a78e30410816002600084815260200190815260200160002060050160009054906101000a900460ff166001811115620008ac57620008ab62001834565b5b6002600085815260200190815260200160002060020160009054906101000a900473ffffffffffffffffffffffffffffffffffffffff1660026000868152602001908152602001600020600601546002600087815260200190815260200160002060000160009054906101000a900473ffffffffffffffffffffffffffffffffffffffff166002600088815260200190815260200160002060010160009054906101000a900473ffffffffffffffffffffffffffffffffffffffff166040516200097c9695949392919062001fce565b60405180910390a150565b6200099162001535565b73ffffffffffffffffffffffffffffffffffffffff16620009b162000c98565b73ffffffffffffffffffffffffffffffffffffffff161462000a0a576040517f08c379a000000000000000000000000000000000000000000000000000000000815260040162000a01906200208b565b60405180910390fd5b6040517f08c379a000000000000000000000000000000000000000000000000000000000815260040162000a3e90620020fd565b60405180910390fd5b6000308260045460405162000a5c9062001601565b62000a6a9392919062002158565b604051809103906000f08015801562000a87573d6000803e3d6000fd5b5090503360026000600454815260200190815260200160002060010160006101000a81548173ffffffffffffffffffffffffffffffffffffffff021916908373ffffffffffffffffffffffffffffffffffffffff1602179055508060026000600454815260200190815260200160002060020160006101000a81548173ffffffffffffffffffffffffffffffffffffffff021916908373ffffffffffffffffffffffffffffffffffffffff16021790555082600260006004548152602001908152602001600020600301908162000b5f91906200235d565b508160026000600454815260200190815260200160002060040181905550600060026000600454815260200190815260200160002060050160006101000a81548160ff0219169083600181111562000bbc5762000bbb62001834565b5b02179055507fa3cc98fd99f30b099f998ac88cf0d8cf7c2a3ce87b8af5d8543e401a78e3041060045460026000600454815260200190815260200160002060050160009054906101000a900460ff16600181111562000c205762000c1f62001834565b5b8360008060026000600454815260200190815260200160002060010160009054906101000a900473ffffffffffffffffffffffffffffffffffffffff1660405162000c719695949392919062002487565b60405180910390a16004600081548092919062000c8e9062002523565b9190505550505050565b60008060009054906101000a900473ffffffffffffffffffffffffffffffffffffffff16905090565b60026020528060005260406000206000915090508060000160009054906101000a900473ffffffffffffffffffffffffffffffffffffffff16908060010160009054906101000a900473ffffffffffffffffffffffffffffffffffffffff16908060020160009054906101000a900473ffffffffffffffffffffffffffffffffffffffff169080600301805462000d589062001e1d565b80601f016020809104026020016040519081016040528092919081815260200182805462000d869062001e1d565b801562000dd75780601f1062000dab5761010080835404028352916020019162000dd7565b820191906000526020600020905b81548152906001019060200180831162000db957829003601f168201915b5050505050908060040154908060050160009054906101000a900460ff16908060060154905087565b6060600160008373ffffffffffffffffffffffffffffffffffffffff1673ffffffffffffffffffffffffffffffffffffffff168152602001908152602001600020805480602002602001604051908101604052809291908181526020016000905b828210156200108657838290600052602060002090600702016040518060e00160405290816000820160009054906101000a900473ffffffffffffffffffffffffffffffffffffffff1673ffffffffffffffffffffffffffffffffffffffff1673ffffffffffffffffffffffffffffffffffffffff1681526020016001820160009054906101000a900473ffffffffffffffffffffffffffffffffffffffff1673ffffffffffffffffffffffffffffffffffffffff1673ffffffffffffffffffffffffffffffffffffffff1681526020016002820160009054906101000a900473ffffffffffffffffffffffffffffffffffffffff1673ffffffffffffffffffffffffffffffffffffffff1673ffffffffffffffffffffffffffffffffffffffff16815260200160038201805462000f999062001e1d565b80601f016020809104026020016040519081016040528092919081815260200182805462000fc79062001e1d565b8015620010185780601f1062000fec5761010080835404028352916020019162001018565b820191906000526020600020905b81548152906001019060200180831162000ffa57829003601f168201915b50505050508152602001600482015481526020016005820160009054906101000a900460ff16600181111562001053576200105262001834565b5b600181111562001068576200106762001834565b5b81526020016006820154815250508152602001906001019062000e61565b505050509050919050565b6200109b62001535565b73ffffffffffffffffffffffffffffffffffffffff16620010bb62000c98565b73ffffffffffffffffffffffffffffffffffffffff161462001114576040517f08c379a00000000000000000000000000000000000000000000000000000000081526004016200110b906200208b565b60405180910390fd5b600073ffffffffffffffffffffffffffffffffffffffff168173ffffffffffffffffffffffffffffffffffffffff160362001186576040517f08c379a00000000000000000000000000000000000000000000000000000000081526004016200117d90620025e6565b60405180910390fd5b62001191816200153d565b50565b6200119e6200160f565b6040518060e001604052808473ffffffffffffffffffffffffffffffffffffffff1681526020018973ffffffffffffffffffffffffffffffffffffffff1681526020018873ffffffffffffffffffffffffffffffffffffffff1681526020018781526020018681526020018560018111156200121f576200121e62001834565b5b8152602001838152509050600381908060018154018082558091505060019003906000526020600020906007020160009091909190915060008201518160000160006101000a81548173ffffffffffffffffffffffffffffffffffffffff021916908373ffffffffffffffffffffffffffffffffffffffff16021790555060208201518160010160006101000a81548173ffffffffffffffffffffffffffffffffffffffff021916908373ffffffffffffffffffffffffffffffffffffffff16021790555060408201518160020160006101000a81548173ffffffffffffffffffffffffffffffffffffffff021916908373ffffffffffffffffffffffffffffffffffffffff16021790555060608201518160030190816200134291906200235d565b506080820151816004015560a08201518160050160006101000a81548160ff021916908360018111156200137b576200137a62001834565b5b021790555060c082015181600601555050600160008473ffffffffffffffffffffffffffffffffffffffff1673ffffffffffffffffffffffffffffffffffffffff16815260200190815260200160002081908060018154018082558091505060019003906000526020600020906007020160009091909190915060008201518160000160006101000a81548173ffffffffffffffffffffffffffffffffffffffff021916908373ffffffffffffffffffffffffffffffffffffffff16021790555060208201518160010160006101000a81548173ffffffffffffffffffffffffffffffffffffffff021916908373ffffffffffffffffffffffffffffffffffffffff16021790555060408201518160020160006101000a81548173ffffffffffffffffffffffffffffffffffffffff021916908373ffffffffffffffffffffffffffffffffffffffff1602179055506060820151816003019081620014e191906200235d565b506080820151816004015560a08201518160050160006101000a81548160ff021916908360018111156200151a576200151962001834565b5b021790555060c0820151816006015550505050505050505050565b600033905090565b60008060009054906101000a900473ffffffffffffffffffffffffffffffffffffffff169050816000806101000a81548173ffffffffffffffffffffffffffffffffffffffff021916908373ffffffffffffffffffffffffffffffffffffffff1602179055508173ffffffffffffffffffffffffffffffffffffffff168173ffffffffffffffffffffffffffffffffffffffff167f8be0079c531659141344cd1fd0a4f28419497f9722a3daafe3b4186f6b6457e060405160405180910390a35050565b61070d806200260983390190565b6040518060e00160405280600073ffffffffffffffffffffffffffffffffffffffff168152602001600073ffffffffffffffffffffffffffffffffffffffff168152602001600073ffffffffffffffffffffffffffffffffffffffff16815260200160608152602001600081526020016000600181111562001696576200169562001834565b5b8152602001600081525090565b600081519050919050565b600082825260208201905092915050565b6000819050602082019050919050565b600073ffffffffffffffffffffffffffffffffffffffff82169050919050565b6000620016fc82620016cf565b9050919050565b6200170e81620016ef565b82525050565b6000819050919050565b60006200173f620017396200173384620016cf565b62001714565b620016cf565b9050919050565b600062001753826200171e565b9050919050565b6000620017678262001746565b9050919050565b62001779816200175a565b82525050565b600081519050919050565b600082825260208201905092915050565b60005b83811015620017bb5780820151818401526020810190506200179e565b60008484015250505050565b6000601f19601f8301169050919050565b6000620017e5826200177f565b620017f181856200178a565b9350620018038185602086016200179b565b6200180e81620017c7565b840191505092915050565b6000819050919050565b6200182e8162001819565b82525050565b7f4e487b7100000000000000000000000000000000000000000000000000000000600052602160045260246000fd5b6002811062001877576200187662001834565b5b50565b60008190506200188a8262001863565b919050565b60006200189c826200187a565b9050919050565b620018ae816200188f565b82525050565b600060e083016000830151620018ce600086018262001703565b506020830151620018e3602086018262001703565b506040830151620018f860408601826200176e565b5060608301518482036060860152620019128282620017d8565b915050608083015162001929608086018262001823565b5060a08301516200193e60a0860182620018a3565b5060c08301516200195360c086018262001823565b508091505092915050565b60006200196c8383620018b4565b905092915050565b6000602082019050919050565b60006200198e82620016a3565b6200199a8185620016ae565b935083602082028501620019ae85620016bf565b8060005b85811015620019f05784840389528151620019ce85826200195e565b9450620019db8362001974565b925060208a01995050600181019050620019b2565b50829750879550505050505092915050565b6000602082019050818103600083015262001a1e818462001981565b905092915050565b6000604051905090565b600080fd5b600080fd5b62001a458162001819565b811462001a5157600080fd5b50565b60008135905062001a658162001a3a565b92915050565b60006020828403121562001a845762001a8362001a30565b5b600062001a948482850162001a54565b91505092915050565b600080fd5b600080fd5b7f4e487b7100000000000000000000000000000000000000000000000000000000600052604160045260246000fd5b62001ae182620017c7565b810181811067ffffffffffffffff8211171562001b035762001b0262001aa7565b5b80604052505050565b600062001b1862001a26565b905062001b26828262001ad6565b919050565b600067ffffffffffffffff82111562001b495762001b4862001aa7565b5b62001b5482620017c7565b9050602081019050919050565b82818337600083830152505050565b600062001b8762001b818462001b2b565b62001b0c565b90508281526020810184848401111562001ba65762001ba562001aa2565b5b62001bb384828562001b61565b509392505050565b600082601f83011262001bd35762001bd262001a9d565b5b813562001be584826020860162001b70565b91505092915050565b6000806040838503121562001c085762001c0762001a30565b5b600083013567ffffffffffffffff81111562001c295762001c2862001a35565b5b62001c378582860162001bbb565b925050602062001c4a8582860162001a54565b9150509250929050565b62001c5f81620016ef565b82525050565b600060208201905062001c7c600083018462001c54565b92915050565b62001c8d816200175a565b82525050565b600082825260208201905092915050565b600062001cb1826200177f565b62001cbd818562001c93565b935062001ccf8185602086016200179b565b62001cda81620017c7565b840191505092915050565b62001cf08162001819565b82525050565b62001d01816200188f565b82525050565b600060e08201905062001d1e600083018a62001c54565b62001d2d602083018962001c54565b62001d3c604083018862001c82565b818103606083015262001d50818762001ca4565b905062001d61608083018662001ce5565b62001d7060a083018562001cf6565b62001d7f60c083018462001ce5565b98975050505050505050565b62001d9681620016ef565b811462001da257600080fd5b50565b60008135905062001db68162001d8b565b92915050565b60006020828403121562001dd55762001dd462001a30565b5b600062001de58482850162001da5565b91505092915050565b7f4e487b7100000000000000000000000000000000000000000000000000000000600052602260045260246000fd5b6000600282049050600182168062001e3657607f821691505b60208210810362001e4c5762001e4b62001dee565b5b50919050565b7f4f6e6c792066756c6c207061796d656e7420697320616c6c6f77656400000000600082015250565b600062001e8a601c8362001c93565b915062001e978262001e52565b602082019050919050565b6000602082019050818103600083015262001ebd8162001e7b565b9050919050565b7f4974656d206973206675727468657220696e20746865206c696e650000000000600082015250565b600062001efc601b8362001c93565b915062001f098262001ec4565b602082019050919050565b6000602082019050818103600083015262001f2f8162001eed565b9050919050565b7f53656c6c65722063616e206e6f7420627579207468656972206f776e2069746560008201527f6d00000000000000000000000000000000000000000000000000000000000000602082015250565b600062001f9460218362001c93565b915062001fa18262001f36565b604082019050919050565b6000602082019050818103600083015262001fc78162001f85565b9050919050565b600060c08201905062001fe5600083018962001ce5565b62001ff4602083018862001ce5565b62002003604083018762001c54565b62002012606083018662001ce5565b62002021608083018562001c54565b6200203060a083018462001c54565b979650505050505050565b7f4f776e61626c653a2063616c6c6572206973206e6f7420746865206f776e6572600082015250565b60006200207360208362001c93565b915062002080826200203b565b602082019050919050565b60006020820190508181036000830152620020a68162002064565b9050919050565b7f63616e206e6f742072656e6f756e6365206f776e657273686970000000000000600082015250565b6000620020e5601a8362001c93565b9150620020f282620020ad565b602082019050919050565b600060208201905081810360008301526200211881620020d6565b9050919050565b60006200212c826200171e565b9050919050565b600062002140826200211f565b9050919050565b620021528162002133565b82525050565b60006060820190506200216f600083018662002147565b6200217e602083018562001ce5565b6200218d604083018462001ce5565b949350505050565b60008190508160005260206000209050919050565b60006020601f8301049050919050565b600082821b905092915050565b600060088302620021f97fffffffffffffffffffffffffffffffffffffffffffffffffffffffffffffffff82620021ba565b620022058683620021ba565b95508019841693508086168417925050509392505050565b60006200223e62002238620022328462001819565b62001714565b62001819565b9050919050565b6000819050919050565b6200225a836200221d565b62002272620022698262002245565b848454620021c7565b825550505050565b600090565b620022896200227a565b620022968184846200224f565b505050565b5b81811015620022be57620022b26000826200227f565b6001810190506200229c565b5050565b601f8211156200230d57620022d78162002195565b620022e284620021aa565b81016020851015620022f2578190505b6200230a6200230185620021aa565b8301826200229b565b50505b505050565b600082821c905092915050565b6000620023326000198460080262002312565b1980831691505092915050565b60006200234d83836200231f565b9150826002028217905092915050565b62002368826200177f565b67ffffffffffffffff81111562002384576200238362001aa7565b5b62002390825462001e1d565b6200239d828285620022c2565b600060209050601f831160018114620023d55760008415620023c0578287015190505b620023cc85826200233f565b8655506200243c565b601f198416620023e58662002195565b60005b828110156200240f57848901518255600182019150602085019450602081019050620023e8565b868310156200242f57848901516200242b601f8916826200231f565b8355505b6001600288020188555050505b505050505050565b6000819050919050565b60006200246f62002469620024638462002444565b62001714565b62001819565b9050919050565b62002481816200244e565b82525050565b600060c0820190506200249e600083018962001ce5565b620024ad602083018862001ce5565b620024bc604083018762001c54565b620024cb606083018662002476565b620024da608083018562001c54565b620024e960a083018462001c54565b979650505050505050565b7f4e487b7100000000000000000000000000000000000000000000000000000000600052601160045260246000fd5b6000620025308262001819565b91507fffffffffffffffffffffffffffffffffffffffffffffffffffffffffffffffff8203620025655762002564620024f4565b5b600182019050919050565b7f4f776e61626c653a206e6577206f776e657220697320746865207a65726f206160008201527f6464726573730000000000000000000000000000000000000000000000000000602082015250565b6000620025ce60268362001c93565b9150620025db8262002570565b604082019050919050565b600060208201905081810360008301526200260181620025bf565b905091905056fe608060405234801561001057600080fd5b5060405161070d38038061070d83398181016040528101906100329190610134565b816000819055508060028190555082600360006101000a81548173ffffffffffffffffffffffffffffffffffffffff021916908373ffffffffffffffffffffffffffffffffffffffff160217905550505050610187565b600080fd5b600073ffffffffffffffffffffffffffffffffffffffff82169050919050565b60006100b98261008e565b9050919050565b60006100cb826100ae565b9050919050565b6100db816100c0565b81146100e657600080fd5b50565b6000815190506100f8816100d2565b92915050565b6000819050919050565b610111816100fe565b811461011c57600080fd5b50565b60008151905061012e81610108565b92915050565b60008060006060848603121561014d5761014c610089565b5b600061015b868287016100e9565b935050602061016c8682870161011f565b925050604061017d8682870161011f565b9150509250925092565b610577806101966000396000f3fe60806040526004361061002d5760003560e01c80632986c0e5146102455780637666c5a21461027057610237565b3661023757600060015414610077576040517f08c379a000000000000000000000000000000000000000000000000000000000815260040161006e90610304565b60405180910390fd5b34600054146100bb576040517f08c379a00000000000000000000000000000000000000000000000000000000081526004016100b290610370565b60405180910390fd5b600054600160008282546100cf91906103c9565b925050819055506000600360009054906101000a900473ffffffffffffffffffffffffffffffffffffffff1673ffffffffffffffffffffffffffffffffffffffff1634600254604051602401610125919061040c565b6040516020818303038152906040527f800fb83f000000000000000000000000000000000000000000000000000000007bffffffffffffffffffffffffffffffffffffffffffffffffffffffff19166020820180517bffffffffffffffffffffffffffffffffffffffffffffffffffffffff83818316178352505050506040516101af9190610498565b60006040518083038185875af1925050503d80600081146101ec576040519150601f19603f3d011682016040523d82523d6000602084013e6101f1565b606091505b5050905080610235576040517f08c379a000000000000000000000000000000000000000000000000000000000815260040161022c90610521565b60405180910390fd5b005b34801561024357600080fd5b005b34801561025157600080fd5b5061025a61029b565b604051610267919061040c565b60405180910390f35b34801561027c57600080fd5b506102856102a1565b604051610292919061040c565b60405180910390f35b60025481565b60015481565b600082825260208201905092915050565b7f6974656d206973207061696420616c7265616479000000000000000000000000600082015250565b60006102ee6014836102a7565b91506102f9826102b8565b602082019050919050565b6000602082019050818103600083015261031d816102e1565b9050919050565b7f4f6e6c792066756c6c207061796d656e747320616c6c6f776564000000000000600082015250565b600061035a601a836102a7565b915061036582610324565b602082019050919050565b600060208201905081810360008301526103898161034d565b9050919050565b6000819050919050565b7f4e487b7100000000000000000000000000000000000000000000000000000000600052601160045260246000fd5b60006103d482610390565b91506103df83610390565b92508282019050808211156103f7576103f661039a565b5b92915050565b61040681610390565b82525050565b600060208201905061042160008301846103fd565b92915050565b600081519050919050565b600081905092915050565b60005b8381101561045b578082015181840152602081019050610440565b60008484015250505050565b600061047282610427565b61047c8185610432565b935061048c81856020860161043d565b80840191505092915050565b60006104a48284610467565b915081905092915050565b7f546865205472616e73616374696f6e207761736e27742073756363657373667560008201527f6c2c2063616e63656c696e670000000000000000000000000000000000000000602082015250565b600061050b602c836102a7565b9150610516826104af565b604082019050919050565b6000602082019050818103600083015261053a816104fe565b905091905056fea26469706673582212209a6622e9d6fee1145bdde383a7449b383c4e2fe04e765745542610b3f4b7081d64736f6c63430008100033a2646970667358221220e6ba11a7bc19ef522b794952ff5860e275b78b2caad17493be9b228195b228d164736f6c63430008100033",
			"opcodes": "PUSH1 0x80 PUSH1 0x40 MSTORE CALLVALUE DUP1 ISZERO PUSH3 0x11 JUMPI PUSH1 0x0 DUP1 REVERT JUMPDEST POP PUSH3 0x32 PUSH3 0x26 PUSH3 0x38 PUSH1 0x20 SHL PUSH1 0x20 SHR JUMP JUMPDEST PUSH3 0x40 PUSH1 0x20 SHL PUSH1 0x20 SHR JUMP JUMPDEST PUSH3 0x104 JUMP JUMPDEST PUSH1 0x0 CALLER SWAP1 POP SWAP1 JUMP JUMPDEST PUSH1 0x0 DUP1 PUSH1 0x0 SWAP1 SLOAD SWAP1 PUSH2 0x100 EXP SWAP1 DIV PUSH20 0xFFFFFFFFFFFFFFFFFFFFFFFFFFFFFFFFFFFFFFFF AND SWAP1 POP DUP2 PUSH1 0x0 DUP1 PUSH2 0x100 EXP DUP2 SLOAD DUP2 PUSH20 0xFFFFFFFFFFFFFFFFFFFFFFFFFFFFFFFFFFFFFFFF MUL NOT AND SWAP1 DUP4 PUSH20 0xFFFFFFFFFFFFFFFFFFFFFFFFFFFFFFFFFFFFFFFF AND MUL OR SWAP1 SSTORE POP DUP2 PUSH20 0xFFFFFFFFFFFFFFFFFFFFFFFFFFFFFFFFFFFFFFFF AND DUP2 PUSH20 0xFFFFFFFFFFFFFFFFFFFFFFFFFFFFFFFFFFFFFFFF AND PUSH32 0x8BE0079C531659141344CD1FD0A4F28419497F9722A3DAAFE3B4186F6B6457E0 PUSH1 0x40 MLOAD PUSH1 0x40 MLOAD DUP1 SWAP2 SUB SWAP1 LOG3 POP POP JUMP JUMPDEST PUSH2 0x2D4B DUP1 PUSH3 0x114 PUSH1 0x0 CODECOPY PUSH1 0x0 RETURN INVALID PUSH1 0x80 PUSH1 0x40 MSTORE PUSH1 0x4 CALLDATASIZE LT PUSH3 0x86 JUMPI PUSH1 0x0 CALLDATALOAD PUSH1 0xE0 SHR DUP1 PUSH4 0x8DA5CB5B GT PUSH3 0x55 JUMPI DUP1 PUSH4 0x8DA5CB5B EQ PUSH3 0x123 JUMPI DUP1 PUSH4 0x98589742 EQ PUSH3 0x153 JUMPI DUP1 PUSH4 0xA5F445B7 EQ PUSH3 0x19D JUMPI DUP1 PUSH4 0xF2FDE38B EQ PUSH3 0x1E1 JUMPI PUSH3 0x86 JUMP JUMPDEST DUP1 PUSH4 0x27435F62 EQ PUSH3 0x8B JUMPI DUP1 PUSH4 0x3EA3A44B EQ PUSH3 0xBB JUMPI DUP1 PUSH4 0x715018A6 EQ PUSH3 0xDB JUMPI DUP1 PUSH4 0x8C551742 EQ PUSH3 0xF5 JUMPI JUMPDEST PUSH1 0x0 DUP1 REVERT JUMPDEST CALLVALUE DUP1 ISZERO PUSH3 0x98 JUMPI PUSH1 0x0 DUP1 REVERT JUMPDEST POP PUSH3 0xA3 PUSH3 0x20F JUMP JUMPDEST PUSH1 0x40 MLOAD PUSH3 0xB2 SWAP2 SWAP1 PUSH3 0x1A02 JUMP JUMPDEST PUSH1 0x40 MLOAD DUP1 SWAP2 SUB SWAP1 RETURN JUMPDEST PUSH3 0xD9 PUSH1 0x4 DUP1 CALLDATASIZE SUB DUP2 ADD SWAP1 PUSH3 0xD3 SWAP2 SWAP1 PUSH3 0x1A6B JUMP JUMPDEST PUSH3 0x461 JUMP JUMPDEST STOP JUMPDEST CALLVALUE DUP1 ISZERO PUSH3 0xE8 JUMPI PUSH1 0x0 DUP1 REVERT JUMPDEST POP PUSH3 0xF3 PUSH3 0x987 JUMP JUMPDEST STOP JUMPDEST CALLVALUE DUP1 ISZERO PUSH3 0x102 JUMPI PUSH1 0x0 DUP1 REVERT JUMPDEST POP PUSH3 0x121 PUSH1 0x4 DUP1 CALLDATASIZE SUB DUP2 ADD SWAP1 PUSH3 0x11B SWAP2 SWAP1 PUSH3 0x1BEE JUMP JUMPDEST PUSH3 0xA47 JUMP JUMPDEST STOP JUMPDEST CALLVALUE DUP1 ISZERO PUSH3 0x130 JUMPI PUSH1 0x0 DUP1 REVERT JUMPDEST POP PUSH3 0x13B PUSH3 0xC98 JUMP JUMPDEST PUSH1 0x40 MLOAD PUSH3 0x14A SWAP2 SWAP1 PUSH3 0x1C65 JUMP JUMPDEST PUSH1 0x40 MLOAD DUP1 SWAP2 SUB SWAP1 RETURN JUMPDEST CALLVALUE DUP1 ISZERO PUSH3 0x160 JUMPI PUSH1 0x0 DUP1 REVERT JUMPDEST POP PUSH3 0x17F PUSH1 0x4 DUP1 CALLDATASIZE SUB DUP2 ADD SWAP1 PUSH3 0x179 SWAP2 SWAP1 PUSH3 0x1A6B JUMP JUMPDEST PUSH3 0xCC1 JUMP JUMPDEST PUSH1 0x40 MLOAD PUSH3 0x194 SWAP8 SWAP7 SWAP6 SWAP5 SWAP4 SWAP3 SWAP2 SWAP1 PUSH3 0x1D07 JUMP JUMPDEST PUSH1 0x40 MLOAD DUP1 SWAP2 SUB SWAP1 RETURN JUMPDEST CALLVALUE DUP1 ISZERO PUSH3 0x1AA JUMPI PUSH1 0x0 DUP1 REVERT JUMPDEST POP PUSH3 0x1C9 PUSH1 0x4 DUP1 CALLDATASIZE SUB DUP2 ADD SWAP1 PUSH3 0x1C3 SWAP2 SWAP1 PUSH3 0x1DBC JUMP JUMPDEST PUSH3 0xE00 JUMP JUMPDEST PUSH1 0x40 MLOAD PUSH3 0x1D8 SWAP2 SWAP1 PUSH3 0x1A02 JUMP JUMPDEST PUSH1 0x40 MLOAD DUP1 SWAP2 SUB SWAP1 RETURN JUMPDEST CALLVALUE DUP1 ISZERO PUSH3 0x1EE JUMPI PUSH1 0x0 DUP1 REVERT JUMPDEST POP PUSH3 0x20D PUSH1 0x4 DUP1 CALLDATASIZE SUB DUP2 ADD SWAP1 PUSH3 0x207 SWAP2 SWAP1 PUSH3 0x1DBC JUMP JUMPDEST PUSH3 0x1091 JUMP JUMPDEST STOP JUMPDEST PUSH1 0x60 PUSH1 0x3 DUP1 SLOAD DUP1 PUSH1 0x20 MUL PUSH1 0x20 ADD PUSH1 0x40 MLOAD SWAP1 DUP2 ADD PUSH1 0x40 MSTORE DUP1 SWAP3 SWAP2 SWAP1 DUP2 DUP2 MSTORE PUSH1 0x20 ADD PUSH1 0x0 SWAP1 JUMPDEST DUP3 DUP3 LT ISZERO PUSH3 0x458 JUMPI DUP4 DUP3 SWAP1 PUSH1 0x0 MSTORE PUSH1 0x20 PUSH1 0x0 KECCAK256 SWAP1 PUSH1 0x7 MUL ADD PUSH1 0x40 MLOAD DUP1 PUSH1 0xE0 ADD PUSH1 0x40 MSTORE SWAP1 DUP2 PUSH1 0x0 DUP3 ADD PUSH1 0x0 SWAP1 SLOAD SWAP1 PUSH2 0x100 EXP SWAP1 DIV PUSH20 0xFFFFFFFFFFFFFFFFFFFFFFFFFFFFFFFFFFFFFFFF AND PUSH20 0xFFFFFFFFFFFFFFFFFFFFFFFFFFFFFFFFFFFFFFFF AND PUSH20 0xFFFFFFFFFFFFFFFFFFFFFFFFFFFFFFFFFFFFFFFF AND DUP2 MSTORE PUSH1 0x20 ADD PUSH1 0x1 DUP3 ADD PUSH1 0x0 SWAP1 SLOAD SWAP1 PUSH2 0x100 EXP SWAP1 DIV PUSH20 0xFFFFFFFFFFFFFFFFFFFFFFFFFFFFFFFFFFFFFFFF AND PUSH20 0xFFFFFFFFFFFFFFFFFFFFFFFFFFFFFFFFFFFFFFFF AND PUSH20 0xFFFFFFFFFFFFFFFFFFFFFFFFFFFFFFFFFFFFFFFF AND DUP2 MSTORE PUSH1 0x20 ADD PUSH1 0x2 DUP3 ADD PUSH1 0x0 SWAP1 SLOAD SWAP1 PUSH2 0x100 EXP SWAP1 DIV PUSH20 0xFFFFFFFFFFFFFFFFFFFFFFFFFFFFFFFFFFFFFFFF AND PUSH20 0xFFFFFFFFFFFFFFFFFFFFFFFFFFFFFFFFFFFFFFFF AND PUSH20 0xFFFFFFFFFFFFFFFFFFFFFFFFFFFFFFFFFFFFFFFF AND DUP2 MSTORE PUSH1 0x20 ADD PUSH1 0x3 DUP3 ADD DUP1 SLOAD PUSH3 0x36B SWAP1 PUSH3 0x1E1D JUMP JUMPDEST DUP1 PUSH1 0x1F ADD PUSH1 0x20 DUP1 SWAP2 DIV MUL PUSH1 0x20 ADD PUSH1 0x40 MLOAD SWAP1 DUP2 ADD PUSH1 0x40 MSTORE DUP1 SWAP3 SWAP2 SWAP1 DUP2 DUP2 MSTORE PUSH1 0x20 ADD DUP3 DUP1 SLOAD PUSH3 0x399 SWAP1 PUSH3 0x1E1D JUMP JUMPDEST DUP1 ISZERO PUSH3 0x3EA JUMPI DUP1 PUSH1 0x1F LT PUSH3 0x3BE JUMPI PUSH2 0x100 DUP1 DUP4 SLOAD DIV MUL DUP4 MSTORE SWAP2 PUSH1 0x20 ADD SWAP2 PUSH3 0x3EA JUMP JUMPDEST DUP3 ADD SWAP2 SWAP1 PUSH1 0x0 MSTORE PUSH1 0x20 PUSH1 0x0 KECCAK256 SWAP1 JUMPDEST DUP2 SLOAD DUP2 MSTORE SWAP1 PUSH1 0x1 ADD SWAP1 PUSH1 0x20 ADD DUP1 DUP4 GT PUSH3 0x3CC JUMPI DUP3 SWAP1 SUB PUSH1 0x1F AND DUP3 ADD SWAP2 JUMPDEST POP POP POP POP POP DUP2 MSTORE PUSH1 0x20 ADD PUSH1 0x4 DUP3 ADD SLOAD DUP2 MSTORE PUSH1 0x20 ADD PUSH1 0x5 DUP3 ADD PUSH1 0x0 SWAP1 SLOAD SWAP1 PUSH2 0x100 EXP SWAP1 DIV PUSH1 0xFF AND PUSH1 0x1 DUP2 GT ISZERO PUSH3 0x425 JUMPI PUSH3 0x424 PUSH3 0x1834 JUMP JUMPDEST JUMPDEST PUSH1 0x1 DUP2 GT ISZERO PUSH3 0x43A JUMPI PUSH3 0x439 PUSH3 0x1834 JUMP JUMPDEST JUMPDEST DUP2 MSTORE PUSH1 0x20 ADD PUSH1 0x6 DUP3 ADD SLOAD DUP2 MSTORE POP POP DUP2 MSTORE PUSH1 0x20 ADD SWAP1 PUSH1 0x1 ADD SWAP1 PUSH3 0x233 JUMP JUMPDEST POP POP POP POP SWAP1 POP SWAP1 JUMP JUMPDEST CALLVALUE PUSH1 0x2 PUSH1 0x0 DUP4 DUP2 MSTORE PUSH1 0x20 ADD SWAP1 DUP2 MSTORE PUSH1 0x20 ADD PUSH1 0x0 KECCAK256 PUSH1 0x4 ADD SLOAD GT ISZERO PUSH3 0x4BD JUMPI PUSH1 0x40 MLOAD PUSH32 0x8C379A000000000000000000000000000000000000000000000000000000000 DUP2 MSTORE PUSH1 0x4 ADD PUSH3 0x4B4 SWAP1 PUSH3 0x1EA2 JUMP JUMPDEST PUSH1 0x40 MLOAD DUP1 SWAP2 SUB SWAP1 REVERT JUMPDEST PUSH1 0x0 PUSH1 0x1 DUP2 GT ISZERO PUSH3 0x4D4 JUMPI PUSH3 0x4D3 PUSH3 0x1834 JUMP JUMPDEST JUMPDEST PUSH1 0x2 PUSH1 0x0 DUP4 DUP2 MSTORE PUSH1 0x20 ADD SWAP1 DUP2 MSTORE PUSH1 0x20 ADD PUSH1 0x0 KECCAK256 PUSH1 0x5 ADD PUSH1 0x0 SWAP1 SLOAD SWAP1 PUSH2 0x100 EXP SWAP1 DIV PUSH1 0xFF AND PUSH1 0x1 DUP2 GT ISZERO PUSH3 0x50D JUMPI PUSH3 0x50C PUSH3 0x1834 JUMP JUMPDEST JUMPDEST EQ PUSH3 0x550 JUMPI PUSH1 0x40 MLOAD PUSH32 0x8C379A000000000000000000000000000000000000000000000000000000000 DUP2 MSTORE PUSH1 0x4 ADD PUSH3 0x547 SWAP1 PUSH3 0x1F14 JUMP JUMPDEST PUSH1 0x40 MLOAD DUP1 SWAP2 SUB SWAP1 REVERT JUMPDEST CALLER PUSH20 0xFFFFFFFFFFFFFFFFFFFFFFFFFFFFFFFFFFFFFFFF AND PUSH1 0x2 PUSH1 0x0 DUP4 DUP2 MSTORE PUSH1 0x20 ADD SWAP1 DUP2 MSTORE PUSH1 0x20 ADD PUSH1 0x0 KECCAK256 PUSH1 0x1 ADD PUSH1 0x0 SWAP1 SLOAD SWAP1 PUSH2 0x100 EXP SWAP1 DIV PUSH20 0xFFFFFFFFFFFFFFFFFFFFFFFFFFFFFFFFFFFFFFFF AND PUSH20 0xFFFFFFFFFFFFFFFFFFFFFFFFFFFFFFFFFFFFFFFF AND SUB PUSH3 0x5F7 JUMPI PUSH1 0x40 MLOAD PUSH32 0x8C379A000000000000000000000000000000000000000000000000000000000 DUP2 MSTORE PUSH1 0x4 ADD PUSH3 0x5EE SWAP1 PUSH3 0x1FAC JUMP JUMPDEST PUSH1 0x40 MLOAD DUP1 SWAP2 SUB SWAP1 REVERT JUMPDEST PUSH1 0x1 PUSH1 0x2 PUSH1 0x0 DUP4 DUP2 MSTORE PUSH1 0x20 ADD SWAP1 DUP2 MSTORE PUSH1 0x20 ADD PUSH1 0x0 KECCAK256 PUSH1 0x5 ADD PUSH1 0x0 PUSH2 0x100 EXP DUP2 SLOAD DUP2 PUSH1 0xFF MUL NOT AND SWAP1 DUP4 PUSH1 0x1 DUP2 GT ISZERO PUSH3 0x634 JUMPI PUSH3 0x633 PUSH3 0x1834 JUMP JUMPDEST JUMPDEST MUL OR SWAP1 SSTORE POP CALLER PUSH1 0x2 PUSH1 0x0 DUP4 DUP2 MSTORE PUSH1 0x20 ADD SWAP1 DUP2 MSTORE PUSH1 0x20 ADD PUSH1 0x0 KECCAK256 PUSH1 0x0 ADD PUSH1 0x0 PUSH2 0x100 EXP DUP2 SLOAD DUP2 PUSH20 0xFFFFFFFFFFFFFFFFFFFFFFFFFFFFFFFFFFFFFFFF MUL NOT AND SWAP1 DUP4 PUSH20 0xFFFFFFFFFFFFFFFFFFFFFFFFFFFFFFFFFFFFFFFF AND MUL OR SWAP1 SSTORE POP TIMESTAMP PUSH1 0x2 PUSH1 0x0 DUP4 DUP2 MSTORE PUSH1 0x20 ADD SWAP1 DUP2 MSTORE PUSH1 0x20 ADD PUSH1 0x0 KECCAK256 PUSH1 0x6 ADD DUP2 SWAP1 SSTORE POP PUSH3 0x851 PUSH1 0x2 PUSH1 0x0 DUP4 DUP2 MSTORE PUSH1 0x20 ADD SWAP1 DUP2 MSTORE PUSH1 0x20 ADD PUSH1 0x0 KECCAK256 PUSH1 0x1 ADD PUSH1 0x0 SWAP1 SLOAD SWAP1 PUSH2 0x100 EXP SWAP1 DIV PUSH20 0xFFFFFFFFFFFFFFFFFFFFFFFFFFFFFFFFFFFFFFFF AND PUSH1 0x2 PUSH1 0x0 DUP5 DUP2 MSTORE PUSH1 0x20 ADD SWAP1 DUP2 MSTORE PUSH1 0x20 ADD PUSH1 0x0 KECCAK256 PUSH1 0x2 ADD PUSH1 0x0 SWAP1 SLOAD SWAP1 PUSH2 0x100 EXP SWAP1 DIV PUSH20 0xFFFFFFFFFFFFFFFFFFFFFFFFFFFFFFFFFFFFFFFF AND PUSH1 0x2 PUSH1 0x0 DUP6 DUP2 MSTORE PUSH1 0x20 ADD SWAP1 DUP2 MSTORE PUSH1 0x20 ADD PUSH1 0x0 KECCAK256 PUSH1 0x3 ADD DUP1 SLOAD PUSH3 0x73E SWAP1 PUSH3 0x1E1D JUMP JUMPDEST DUP1 PUSH1 0x1F ADD PUSH1 0x20 DUP1 SWAP2 DIV MUL PUSH1 0x20 ADD PUSH1 0x40 MLOAD SWAP1 DUP2 ADD PUSH1 0x40 MSTORE DUP1 SWAP3 SWAP2 SWAP1 DUP2 DUP2 MSTORE PUSH1 0x20 ADD DUP3 DUP1 SLOAD PUSH3 0x76C SWAP1 PUSH3 0x1E1D JUMP JUMPDEST DUP1 ISZERO PUSH3 0x7BD JUMPI DUP1 PUSH1 0x1F LT PUSH3 0x791 JUMPI PUSH2 0x100 DUP1 DUP4 SLOAD DIV MUL DUP4 MSTORE SWAP2 PUSH1 0x20 ADD SWAP2 PUSH3 0x7BD JUMP JUMPDEST DUP3 ADD SWAP2 SWAP1 PUSH1 0x0 MSTORE PUSH1 0x20 PUSH1 0x0 KECCAK256 SWAP1 JUMPDEST DUP2 SLOAD DUP2 MSTORE SWAP1 PUSH1 0x1 ADD SWAP1 PUSH1 0x20 ADD DUP1 DUP4 GT PUSH3 0x79F JUMPI DUP3 SWAP1 SUB PUSH1 0x1F AND DUP3 ADD SWAP2 JUMPDEST POP POP POP POP POP PUSH1 0x2 PUSH1 0x0 DUP7 DUP2 MSTORE PUSH1 0x20 ADD SWAP1 DUP2 MSTORE PUSH1 0x20 ADD PUSH1 0x0 KECCAK256 PUSH1 0x4 ADD SLOAD PUSH1 0x2 PUSH1 0x0 DUP8 DUP2 MSTORE PUSH1 0x20 ADD SWAP1 DUP2 MSTORE PUSH1 0x20 ADD PUSH1 0x0 KECCAK256 PUSH1 0x5 ADD PUSH1 0x0 SWAP1 SLOAD SWAP1 PUSH2 0x100 EXP SWAP1 DIV PUSH1 0xFF AND PUSH1 0x2 PUSH1 0x0 DUP9 DUP2 MSTORE PUSH1 0x20 ADD SWAP1 DUP2 MSTORE PUSH1 0x20 ADD PUSH1 0x0 KECCAK256 PUSH1 0x0 ADD PUSH1 0x0 SWAP1 SLOAD SWAP1 PUSH2 0x100 EXP SWAP1 DIV PUSH20 0xFFFFFFFFFFFFFFFFFFFFFFFFFFFFFFFFFFFFFFFF AND PUSH1 0x2 PUSH1 0x0 DUP10 DUP2 MSTORE PUSH1 0x20 ADD SWAP1 DUP2 MSTORE PUSH1 0x20 ADD PUSH1 0x0 KECCAK256 PUSH1 0x6 ADD SLOAD PUSH3 0x1194 JUMP JUMPDEST PUSH32 0xA3CC98FD99F30B099F998AC88CF0D8CF7C2A3CE87B8AF5D8543E401A78E30410 DUP2 PUSH1 0x2 PUSH1 0x0 DUP5 DUP2 MSTORE PUSH1 0x20 ADD SWAP1 DUP2 MSTORE PUSH1 0x20 ADD PUSH1 0x0 KECCAK256 PUSH1 0x5 ADD PUSH1 0x0 SWAP1 SLOAD SWAP1 PUSH2 0x100 EXP SWAP1 DIV PUSH1 0xFF AND PUSH1 0x1 DUP2 GT ISZERO PUSH3 0x8AC JUMPI PUSH3 0x8AB PUSH3 0x1834 JUMP JUMPDEST JUMPDEST PUSH1 0x2 PUSH1 0x0 DUP6 DUP2 MSTORE PUSH1 0x20 ADD SWAP1 DUP2 MSTORE PUSH1 0x20 ADD PUSH1 0x0 KECCAK256 PUSH1 0x2 ADD PUSH1 0x0 SWAP1 SLOAD SWAP1 PUSH2 0x100 EXP SWAP1 DIV PUSH20 0xFFFFFFFFFFFFFFFFFFFFFFFFFFFFFFFFFFFFFFFF AND PUSH1 0x2 PUSH1 0x0 DUP7 DUP2 MSTORE PUSH1 0x20 ADD SWAP1 DUP2 MSTORE PUSH1 0x20 ADD PUSH1 0x0 KECCAK256 PUSH1 0x6 ADD SLOAD PUSH1 0x2 PUSH1 0x0 DUP8 DUP2 MSTORE PUSH1 0x20 ADD SWAP1 DUP2 MSTORE PUSH1 0x20 ADD PUSH1 0x0 KECCAK256 PUSH1 0x0 ADD PUSH1 0x0 SWAP1 SLOAD SWAP1 PUSH2 0x100 EXP SWAP1 DIV PUSH20 0xFFFFFFFFFFFFFFFFFFFFFFFFFFFFFFFFFFFFFFFF AND PUSH1 0x2 PUSH1 0x0 DUP9 DUP2 MSTORE PUSH1 0x20 ADD SWAP1 DUP2 MSTORE PUSH1 0x20 ADD PUSH1 0x0 KECCAK256 PUSH1 0x1 ADD PUSH1 0x0 SWAP1 SLOAD SWAP1 PUSH2 0x100 EXP SWAP1 DIV PUSH20 0xFFFFFFFFFFFFFFFFFFFFFFFFFFFFFFFFFFFFFFFF AND PUSH1 0x40 MLOAD PUSH3 0x97C SWAP7 SWAP6 SWAP5 SWAP4 SWAP3 SWAP2 SWAP1 PUSH3 0x1FCE JUMP JUMPDEST PUSH1 0x40 MLOAD DUP1 SWAP2 SUB SWAP1 LOG1 POP JUMP JUMPDEST PUSH3 0x991 PUSH3 0x1535 JUMP JUMPDEST PUSH20 0xFFFFFFFFFFFFFFFFFFFFFFFFFFFFFFFFFFFFFFFF AND PUSH3 0x9B1 PUSH3 0xC98 JUMP JUMPDEST PUSH20 0xFFFFFFFFFFFFFFFFFFFFFFFFFFFFFFFFFFFFFFFF AND EQ PUSH3 0xA0A JUMPI PUSH1 0x40 MLOAD PUSH32 0x8C379A000000000000000000000000000000000000000000000000000000000 DUP2 MSTORE PUSH1 0x4 ADD PUSH3 0xA01 SWAP1 PUSH3 0x208B JUMP JUMPDEST PUSH1 0x40 MLOAD DUP1 SWAP2 SUB SWAP1 REVERT JUMPDEST PUSH1 0x40 MLOAD PUSH32 0x8C379A000000000000000000000000000000000000000000000000000000000 DUP2 MSTORE PUSH1 0x4 ADD PUSH3 0xA3E SWAP1 PUSH3 0x20FD JUMP JUMPDEST PUSH1 0x40 MLOAD DUP1 SWAP2 SUB SWAP1 REVERT JUMPDEST PUSH1 0x0 ADDRESS DUP3 PUSH1 0x4 SLOAD PUSH1 0x40 MLOAD PUSH3 0xA5C SWAP1 PUSH3 0x1601 JUMP JUMPDEST PUSH3 0xA6A SWAP4 SWAP3 SWAP2 SWAP1 PUSH3 0x2158 JUMP JUMPDEST PUSH1 0x40 MLOAD DUP1 SWAP2 SUB SWAP1 PUSH1 0x0 CREATE DUP1 ISZERO DUP1 ISZERO PUSH3 0xA87 JUMPI RETURNDATASIZE PUSH1 0x0 DUP1 RETURNDATACOPY RETURNDATASIZE PUSH1 0x0 REVERT JUMPDEST POP SWAP1 POP CALLER PUSH1 0x2 PUSH1 0x0 PUSH1 0x4 SLOAD DUP2 MSTORE PUSH1 0x20 ADD SWAP1 DUP2 MSTORE PUSH1 0x20 ADD PUSH1 0x0 KECCAK256 PUSH1 0x1 ADD PUSH1 0x0 PUSH2 0x100 EXP DUP2 SLOAD DUP2 PUSH20 0xFFFFFFFFFFFFFFFFFFFFFFFFFFFFFFFFFFFFFFFF MUL NOT AND SWAP1 DUP4 PUSH20 0xFFFFFFFFFFFFFFFFFFFFFFFFFFFFFFFFFFFFFFFF AND MUL OR SWAP1 SSTORE POP DUP1 PUSH1 0x2 PUSH1 0x0 PUSH1 0x4 SLOAD DUP2 MSTORE PUSH1 0x20 ADD SWAP1 DUP2 MSTORE PUSH1 0x20 ADD PUSH1 0x0 KECCAK256 PUSH1 0x2 ADD PUSH1 0x0 PUSH2 0x100 EXP DUP2 SLOAD DUP2 PUSH20 0xFFFFFFFFFFFFFFFFFFFFFFFFFFFFFFFFFFFFFFFF MUL NOT AND SWAP1 DUP4 PUSH20 0xFFFFFFFFFFFFFFFFFFFFFFFFFFFFFFFFFFFFFFFF AND MUL OR SWAP1 SSTORE POP DUP3 PUSH1 0x2 PUSH1 0x0 PUSH1 0x4 SLOAD DUP2 MSTORE PUSH1 0x20 ADD SWAP1 DUP2 MSTORE PUSH1 0x20 ADD PUSH1 0x0 KECCAK256 PUSH1 0x3 ADD SWAP1 DUP2 PUSH3 0xB5F SWAP2 SWAP1 PUSH3 0x235D JUMP JUMPDEST POP DUP2 PUSH1 0x2 PUSH1 0x0 PUSH1 0x4 SLOAD DUP2 MSTORE PUSH1 0x20 ADD SWAP1 DUP2 MSTORE PUSH1 0x20 ADD PUSH1 0x0 KECCAK256 PUSH1 0x4 ADD DUP2 SWAP1 SSTORE POP PUSH1 0x0 PUSH1 0x2 PUSH1 0x0 PUSH1 0x4 SLOAD DUP2 MSTORE PUSH1 0x20 ADD SWAP1 DUP2 MSTORE PUSH1 0x20 ADD PUSH1 0x0 KECCAK256 PUSH1 0x5 ADD PUSH1 0x0 PUSH2 0x100 EXP DUP2 SLOAD DUP2 PUSH1 0xFF MUL NOT AND SWAP1 DUP4 PUSH1 0x1 DUP2 GT ISZERO PUSH3 0xBBC JUMPI PUSH3 0xBBB PUSH3 0x1834 JUMP JUMPDEST JUMPDEST MUL OR SWAP1 SSTORE POP PUSH32 0xA3CC98FD99F30B099F998AC88CF0D8CF7C2A3CE87B8AF5D8543E401A78E30410 PUSH1 0x4 SLOAD PUSH1 0x2 PUSH1 0x0 PUSH1 0x4 SLOAD DUP2 MSTORE PUSH1 0x20 ADD SWAP1 DUP2 MSTORE PUSH1 0x20 ADD PUSH1 0x0 KECCAK256 PUSH1 0x5 ADD PUSH1 0x0 SWAP1 SLOAD SWAP1 PUSH2 0x100 EXP SWAP1 DIV PUSH1 0xFF AND PUSH1 0x1 DUP2 GT ISZERO PUSH3 0xC20 JUMPI PUSH3 0xC1F PUSH3 0x1834 JUMP JUMPDEST JUMPDEST DUP4 PUSH1 0x0 DUP1 PUSH1 0x2 PUSH1 0x0 PUSH1 0x4 SLOAD DUP2 MSTORE PUSH1 0x20 ADD SWAP1 DUP2 MSTORE PUSH1 0x20 ADD PUSH1 0x0 KECCAK256 PUSH1 0x1 ADD PUSH1 0x0 SWAP1 SLOAD SWAP1 PUSH2 0x100 EXP SWAP1 DIV PUSH20 0xFFFFFFFFFFFFFFFFFFFFFFFFFFFFFFFFFFFFFFFF AND PUSH1 0x40 MLOAD PUSH3 0xC71 SWAP7 SWAP6 SWAP5 SWAP4 SWAP3 SWAP2 SWAP1 PUSH3 0x2487 JUMP JUMPDEST PUSH1 0x40 MLOAD DUP1 SWAP2 SUB SWAP1 LOG1 PUSH1 0x4 PUSH1 0x0 DUP2 SLOAD DUP1 SWAP3 SWAP2 SWAP1 PUSH3 0xC8E SWAP1 PUSH3 0x2523 JUMP JUMPDEST SWAP2 SWAP1 POP SSTORE POP POP POP POP JUMP JUMPDEST PUSH1 0x0 DUP1 PUSH1 0x0 SWAP1 SLOAD SWAP1 PUSH2 0x100 EXP SWAP1 DIV PUSH20 0xFFFFFFFFFFFFFFFFFFFFFFFFFFFFFFFFFFFFFFFF AND SWAP1 POP SWAP1 JUMP JUMPDEST PUSH1 0x2 PUSH1 0x20 MSTORE DUP1 PUSH1 0x0 MSTORE PUSH1 0x40 PUSH1 0x0 KECCAK256 PUSH1 0x0 SWAP2 POP SWAP1 POP DUP1 PUSH1 0x0 ADD PUSH1 0x0 SWAP1 SLOAD SWAP1 PUSH2 0x100 EXP SWAP1 DIV PUSH20 0xFFFFFFFFFFFFFFFFFFFFFFFFFFFFFFFFFFFFFFFF AND SWAP1 DUP1 PUSH1 0x1 ADD PUSH1 0x0 SWAP1 SLOAD SWAP1 PUSH2 0x100 EXP SWAP1 DIV PUSH20 0xFFFFFFFFFFFFFFFFFFFFFFFFFFFFFFFFFFFFFFFF AND SWAP1 DUP1 PUSH1 0x2 ADD PUSH1 0x0 SWAP1 SLOAD SWAP1 PUSH2 0x100 EXP SWAP1 DIV PUSH20 0xFFFFFFFFFFFFFFFFFFFFFFFFFFFFFFFFFFFFFFFF AND SWAP1 DUP1 PUSH1 0x3 ADD DUP1 SLOAD PUSH3 0xD58 SWAP1 PUSH3 0x1E1D JUMP JUMPDEST DUP1 PUSH1 0x1F ADD PUSH1 0x20 DUP1 SWAP2 DIV MUL PUSH1 0x20 ADD PUSH1 0x40 MLOAD SWAP1 DUP2 ADD PUSH1 0x40 MSTORE DUP1 SWAP3 SWAP2 SWAP1 DUP2 DUP2 MSTORE PUSH1 0x20 ADD DUP3 DUP1 SLOAD PUSH3 0xD86 SWAP1 PUSH3 0x1E1D JUMP JUMPDEST DUP1 ISZERO PUSH3 0xDD7 JUMPI DUP1 PUSH1 0x1F LT PUSH3 0xDAB JUMPI PUSH2 0x100 DUP1 DUP4 SLOAD DIV MUL DUP4 MSTORE SWAP2 PUSH1 0x20 ADD SWAP2 PUSH3 0xDD7 JUMP JUMPDEST DUP3 ADD SWAP2 SWAP1 PUSH1 0x0 MSTORE PUSH1 0x20 PUSH1 0x0 KECCAK256 SWAP1 JUMPDEST DUP2 SLOAD DUP2 MSTORE SWAP1 PUSH1 0x1 ADD SWAP1 PUSH1 0x20 ADD DUP1 DUP4 GT PUSH3 0xDB9 JUMPI DUP3 SWAP1 SUB PUSH1 0x1F AND DUP3 ADD SWAP2 JUMPDEST POP POP POP POP POP SWAP1 DUP1 PUSH1 0x4 ADD SLOAD SWAP1 DUP1 PUSH1 0x5 ADD PUSH1 0x0 SWAP1 SLOAD SWAP1 PUSH2 0x100 EXP SWAP1 DIV PUSH1 0xFF AND SWAP1 DUP1 PUSH1 0x6 ADD SLOAD SWAP1 POP DUP8 JUMP JUMPDEST PUSH1 0x60 PUSH1 0x1 PUSH1 0x0 DUP4 PUSH20 0xFFFFFFFFFFFFFFFFFFFFFFFFFFFFFFFFFFFFFFFF AND PUSH20 0xFFFFFFFFFFFFFFFFFFFFFFFFFFFFFFFFFFFFFFFF AND DUP2 MSTORE PUSH1 0x20 ADD SWAP1 DUP2 MSTORE PUSH1 0x20 ADD PUSH1 0x0 KECCAK256 DUP1 SLOAD DUP1 PUSH1 0x20 MUL PUSH1 0x20 ADD PUSH1 0x40 MLOAD SWAP1 DUP2 ADD PUSH1 0x40 MSTORE DUP1 SWAP3 SWAP2 SWAP1 DUP2 DUP2 MSTORE PUSH1 0x20 ADD PUSH1 0x0 SWAP1 JUMPDEST DUP3 DUP3 LT ISZERO PUSH3 0x1086 JUMPI DUP4 DUP3 SWAP1 PUSH1 0x0 MSTORE PUSH1 0x20 PUSH1 0x0 KECCAK256 SWAP1 PUSH1 0x7 MUL ADD PUSH1 0x40 MLOAD DUP1 PUSH1 0xE0 ADD PUSH1 0x40 MSTORE SWAP1 DUP2 PUSH1 0x0 DUP3 ADD PUSH1 0x0 SWAP1 SLOAD SWAP1 PUSH2 0x100 EXP SWAP1 DIV PUSH20 0xFFFFFFFFFFFFFFFFFFFFFFFFFFFFFFFFFFFFFFFF AND PUSH20 0xFFFFFFFFFFFFFFFFFFFFFFFFFFFFFFFFFFFFFFFF AND PUSH20 0xFFFFFFFFFFFFFFFFFFFFFFFFFFFFFFFFFFFFFFFF AND DUP2 MSTORE PUSH1 0x20 ADD PUSH1 0x1 DUP3 ADD PUSH1 0x0 SWAP1 SLOAD SWAP1 PUSH2 0x100 EXP SWAP1 DIV PUSH20 0xFFFFFFFFFFFFFFFFFFFFFFFFFFFFFFFFFFFFFFFF AND PUSH20 0xFFFFFFFFFFFFFFFFFFFFFFFFFFFFFFFFFFFFFFFF AND PUSH20 0xFFFFFFFFFFFFFFFFFFFFFFFFFFFFFFFFFFFFFFFF AND DUP2 MSTORE PUSH1 0x20 ADD PUSH1 0x2 DUP3 ADD PUSH1 0x0 SWAP1 SLOAD SWAP1 PUSH2 0x100 EXP SWAP1 DIV PUSH20 0xFFFFFFFFFFFFFFFFFFFFFFFFFFFFFFFFFFFFFFFF AND PUSH20 0xFFFFFFFFFFFFFFFFFFFFFFFFFFFFFFFFFFFFFFFF AND PUSH20 0xFFFFFFFFFFFFFFFFFFFFFFFFFFFFFFFFFFFFFFFF AND DUP2 MSTORE PUSH1 0x20 ADD PUSH1 0x3 DUP3 ADD DUP1 SLOAD PUSH3 0xF99 SWAP1 PUSH3 0x1E1D JUMP JUMPDEST DUP1 PUSH1 0x1F ADD PUSH1 0x20 DUP1 SWAP2 DIV MUL PUSH1 0x20 ADD PUSH1 0x40 MLOAD SWAP1 DUP2 ADD PUSH1 0x40 MSTORE DUP1 SWAP3 SWAP2 SWAP1 DUP2 DUP2 MSTORE PUSH1 0x20 ADD DUP3 DUP1 SLOAD PUSH3 0xFC7 SWAP1 PUSH3 0x1E1D JUMP JUMPDEST DUP1 ISZERO PUSH3 0x1018 JUMPI DUP1 PUSH1 0x1F LT PUSH3 0xFEC JUMPI PUSH2 0x100 DUP1 DUP4 SLOAD DIV MUL DUP4 MSTORE SWAP2 PUSH1 0x20 ADD SWAP2 PUSH3 0x1018 JUMP JUMPDEST DUP3 ADD SWAP2 SWAP1 PUSH1 0x0 MSTORE PUSH1 0x20 PUSH1 0x0 KECCAK256 SWAP1 JUMPDEST DUP2 SLOAD DUP2 MSTORE SWAP1 PUSH1 0x1 ADD SWAP1 PUSH1 0x20 ADD DUP1 DUP4 GT PUSH3 0xFFA JUMPI DUP3 SWAP1 SUB PUSH1 0x1F AND DUP3 ADD SWAP2 JUMPDEST POP POP POP POP POP DUP2 MSTORE PUSH1 0x20 ADD PUSH1 0x4 DUP3 ADD SLOAD DUP2 MSTORE PUSH1 0x20 ADD PUSH1 0x5 DUP3 ADD PUSH1 0x0 SWAP1 SLOAD SWAP1 PUSH2 0x100 EXP SWAP1 DIV PUSH1 0xFF AND PUSH1 0x1 DUP2 GT ISZERO PUSH3 0x1053 JUMPI PUSH3 0x1052 PUSH3 0x1834 JUMP JUMPDEST JUMPDEST PUSH1 0x1 DUP2 GT ISZERO PUSH3 0x1068 JUMPI PUSH3 0x1067 PUSH3 0x1834 JUMP JUMPDEST JUMPDEST DUP2 MSTORE PUSH1 0x20 ADD PUSH1 0x6 DUP3 ADD SLOAD DUP2 MSTORE POP POP DUP2 MSTORE PUSH1 0x20 ADD SWAP1 PUSH1 0x1 ADD SWAP1 PUSH3 0xE61 JUMP JUMPDEST POP POP POP POP SWAP1 POP SWAP2 SWAP1 POP JUMP JUMPDEST PUSH3 0x109B PUSH3 0x1535 JUMP JUMPDEST PUSH20 0xFFFFFFFFFFFFFFFFFFFFFFFFFFFFFFFFFFFFFFFF AND PUSH3 0x10BB PUSH3 0xC98 JUMP JUMPDEST PUSH20 0xFFFFFFFFFFFFFFFFFFFFFFFFFFFFFFFFFFFFFFFF AND EQ PUSH3 0x1114 JUMPI PUSH1 0x40 MLOAD PUSH32 0x8C379A000000000000000000000000000000000000000000000000000000000 DUP2 MSTORE PUSH1 0x4 ADD PUSH3 0x110B SWAP1 PUSH3 0x208B JUMP JUMPDEST PUSH1 0x40 MLOAD DUP1 SWAP2 SUB SWAP1 REVERT JUMPDEST PUSH1 0x0 PUSH20 0xFFFFFFFFFFFFFFFFFFFFFFFFFFFFFFFFFFFFFFFF AND DUP2 PUSH20 0xFFFFFFFFFFFFFFFFFFFFFFFFFFFFFFFFFFFFFFFF AND SUB PUSH3 0x1186 JUMPI PUSH1 0x40 MLOAD PUSH32 0x8C379A000000000000000000000000000000000000000000000000000000000 DUP2 MSTORE PUSH1 0x4 ADD PUSH3 0x117D SWAP1 PUSH3 0x25E6 JUMP JUMPDEST PUSH1 0x40 MLOAD DUP1 SWAP2 SUB SWAP1 REVERT JUMPDEST PUSH3 0x1191 DUP2 PUSH3 0x153D JUMP JUMPDEST POP JUMP JUMPDEST PUSH3 0x119E PUSH3 0x160F JUMP JUMPDEST PUSH1 0x40 MLOAD DUP1 PUSH1 0xE0 ADD PUSH1 0x40 MSTORE DUP1 DUP5 PUSH20 0xFFFFFFFFFFFFFFFFFFFFFFFFFFFFFFFFFFFFFFFF AND DUP2 MSTORE PUSH1 0x20 ADD DUP10 PUSH20 0xFFFFFFFFFFFFFFFFFFFFFFFFFFFFFFFFFFFFFFFF AND DUP2 MSTORE PUSH1 0x20 ADD DUP9 PUSH20 0xFFFFFFFFFFFFFFFFFFFFFFFFFFFFFFFFFFFFFFFF AND DUP2 MSTORE PUSH1 0x20 ADD DUP8 DUP2 MSTORE PUSH1 0x20 ADD DUP7 DUP2 MSTORE PUSH1 0x20 ADD DUP6 PUSH1 0x1 DUP2 GT ISZERO PUSH3 0x121F JUMPI PUSH3 0x121E PUSH3 0x1834 JUMP JUMPDEST JUMPDEST DUP2 MSTORE PUSH1 0x20 ADD DUP4 DUP2 MSTORE POP SWAP1 POP PUSH1 0x3 DUP2 SWAP1 DUP1 PUSH1 0x1 DUP2 SLOAD ADD DUP1 DUP3 SSTORE DUP1 SWAP2 POP POP PUSH1 0x1 SWAP1 SUB SWAP1 PUSH1 0x0 MSTORE PUSH1 0x20 PUSH1 0x0 KECCAK256 SWAP1 PUSH1 0x7 MUL ADD PUSH1 0x0 SWAP1 SWAP2 SWAP1 SWAP2 SWAP1 SWAP2 POP PUSH1 0x0 DUP3 ADD MLOAD DUP2 PUSH1 0x0 ADD PUSH1 0x0 PUSH2 0x100 EXP DUP2 SLOAD DUP2 PUSH20 0xFFFFFFFFFFFFFFFFFFFFFFFFFFFFFFFFFFFFFFFF MUL NOT AND SWAP1 DUP4 PUSH20 0xFFFFFFFFFFFFFFFFFFFFFFFFFFFFFFFFFFFFFFFF AND MUL OR SWAP1 SSTORE POP PUSH1 0x20 DUP3 ADD MLOAD DUP2 PUSH1 0x1 ADD PUSH1 0x0 PUSH2 0x100 EXP DUP2 SLOAD DUP2 PUSH20 0xFFFFFFFFFFFFFFFFFFFFFFFFFFFFFFFFFFFFFFFF MUL NOT AND SWAP1 DUP4 PUSH20 0xFFFFFFFFFFFFFFFFFFFFFFFFFFFFFFFFFFFFFFFF AND MUL OR SWAP1 SSTORE POP PUSH1 0x40 DUP3 ADD MLOAD DUP2 PUSH1 0x2 ADD PUSH1 0x0 PUSH2 0x100 EXP DUP2 SLOAD DUP2 PUSH20 0xFFFFFFFFFFFFFFFFFFFFFFFFFFFFFFFFFFFFFFFF MUL NOT AND SWAP1 DUP4 PUSH20 0xFFFFFFFFFFFFFFFFFFFFFFFFFFFFFFFFFFFFFFFF AND MUL OR SWAP1 SSTORE POP PUSH1 0x60 DUP3 ADD MLOAD DUP2 PUSH1 0x3 ADD SWAP1 DUP2 PUSH3 0x1342 SWAP2 SWAP1 PUSH3 0x235D JUMP JUMPDEST POP PUSH1 0x80 DUP3 ADD MLOAD DUP2 PUSH1 0x4 ADD SSTORE PUSH1 0xA0 DUP3 ADD MLOAD DUP2 PUSH1 0x5 ADD PUSH1 0x0 PUSH2 0x100 EXP DUP2 SLOAD DUP2 PUSH1 0xFF MUL NOT AND SWAP1 DUP4 PUSH1 0x1 DUP2 GT ISZERO PUSH3 0x137B JUMPI PUSH3 0x137A PUSH3 0x1834 JUMP JUMPDEST JUMPDEST MUL OR SWAP1 SSTORE POP PUSH1 0xC0 DUP3 ADD MLOAD DUP2 PUSH1 0x6 ADD SSTORE POP POP PUSH1 0x1 PUSH1 0x0 DUP5 PUSH20 0xFFFFFFFFFFFFFFFFFFFFFFFFFFFFFFFFFFFFFFFF AND PUSH20 0xFFFFFFFFFFFFFFFFFFFFFFFFFFFFFFFFFFFFFFFF AND DUP2 MSTORE PUSH1 0x20 ADD SWAP1 DUP2 MSTORE PUSH1 0x20 ADD PUSH1 0x0 KECCAK256 DUP2 SWAP1 DUP1 PUSH1 0x1 DUP2 SLOAD ADD DUP1 DUP3 SSTORE DUP1 SWAP2 POP POP PUSH1 0x1 SWAP1 SUB SWAP1 PUSH1 0x0 MSTORE PUSH1 0x20 PUSH1 0x0 KECCAK256 SWAP1 PUSH1 0x7 MUL ADD PUSH1 0x0 SWAP1 SWAP2 SWAP1 SWAP2 SWAP1 SWAP2 POP PUSH1 0x0 DUP3 ADD MLOAD DUP2 PUSH1 0x0 ADD PUSH1 0x0 PUSH2 0x100 EXP DUP2 SLOAD DUP2 PUSH20 0xFFFFFFFFFFFFFFFFFFFFFFFFFFFFFFFFFFFFFFFF MUL NOT AND SWAP1 DUP4 PUSH20 0xFFFFFFFFFFFFFFFFFFFFFFFFFFFFFFFFFFFFFFFF AND MUL OR SWAP1 SSTORE POP PUSH1 0x20 DUP3 ADD MLOAD DUP2 PUSH1 0x1 ADD PUSH1 0x0 PUSH2 0x100 EXP DUP2 SLOAD DUP2 PUSH20 0xFFFFFFFFFFFFFFFFFFFFFFFFFFFFFFFFFFFFFFFF MUL NOT AND SWAP1 DUP4 PUSH20 0xFFFFFFFFFFFFFFFFFFFFFFFFFFFFFFFFFFFFFFFF AND MUL OR SWAP1 SSTORE POP PUSH1 0x40 DUP3 ADD MLOAD DUP2 PUSH1 0x2 ADD PUSH1 0x0 PUSH2 0x100 EXP DUP2 SLOAD DUP2 PUSH20 0xFFFFFFFFFFFFFFFFFFFFFFFFFFFFFFFFFFFFFFFF MUL NOT AND SWAP1 DUP4 PUSH20 0xFFFFFFFFFFFFFFFFFFFFFFFFFFFFFFFFFFFFFFFF AND MUL OR SWAP1 SSTORE POP PUSH1 0x60 DUP3 ADD MLOAD DUP2 PUSH1 0x3 ADD SWAP1 DUP2 PUSH3 0x14E1 SWAP2 SWAP1 PUSH3 0x235D JUMP JUMPDEST POP PUSH1 0x80 DUP3 ADD MLOAD DUP2 PUSH1 0x4 ADD SSTORE PUSH1 0xA0 DUP3 ADD MLOAD DUP2 PUSH1 0x5 ADD PUSH1 0x0 PUSH2 0x100 EXP DUP2 SLOAD DUP2 PUSH1 0xFF MUL NOT AND SWAP1 DUP4 PUSH1 0x1 DUP2 GT ISZERO PUSH3 0x151A JUMPI PUSH3 0x1519 PUSH3 0x1834 JUMP JUMPDEST JUMPDEST MUL OR SWAP1 SSTORE POP PUSH1 0xC0 DUP3 ADD MLOAD DUP2 PUSH1 0x6 ADD SSTORE POP POP POP POP POP POP POP POP POP POP JUMP JUMPDEST PUSH1 0x0 CALLER SWAP1 POP SWAP1 JUMP JUMPDEST PUSH1 0x0 DUP1 PUSH1 0x0 SWAP1 SLOAD SWAP1 PUSH2 0x100 EXP SWAP1 DIV PUSH20 0xFFFFFFFFFFFFFFFFFFFFFFFFFFFFFFFFFFFFFFFF AND SWAP1 POP DUP2 PUSH1 0x0 DUP1 PUSH2 0x100 EXP DUP2 SLOAD DUP2 PUSH20 0xFFFFFFFFFFFFFFFFFFFFFFFFFFFFFFFFFFFFFFFF MUL NOT AND SWAP1 DUP4 PUSH20 0xFFFFFFFFFFFFFFFFFFFFFFFFFFFFFFFFFFFFFFFF AND MUL OR SWAP1 SSTORE POP DUP2 PUSH20 0xFFFFFFFFFFFFFFFFFFFFFFFFFFFFFFFFFFFFFFFF AND DUP2 PUSH20 0xFFFFFFFFFFFFFFFFFFFFFFFFFFFFFFFFFFFFFFFF AND PUSH32 0x8BE0079C531659141344CD1FD0A4F28419497F9722A3DAAFE3B4186F6B6457E0 PUSH1 0x40 MLOAD PUSH1 0x40 MLOAD DUP1 SWAP2 SUB SWAP1 LOG3 POP POP JUMP JUMPDEST PUSH2 0x70D DUP1 PUSH3 0x2609 DUP4 CODECOPY ADD SWAP1 JUMP JUMPDEST PUSH1 0x40 MLOAD DUP1 PUSH1 0xE0 ADD PUSH1 0x40 MSTORE DUP1 PUSH1 0x0 PUSH20 0xFFFFFFFFFFFFFFFFFFFFFFFFFFFFFFFFFFFFFFFF AND DUP2 MSTORE PUSH1 0x20 ADD PUSH1 0x0 PUSH20 0xFFFFFFFFFFFFFFFFFFFFFFFFFFFFFFFFFFFFFFFF AND DUP2 MSTORE PUSH1 0x20 ADD PUSH1 0x0 PUSH20 0xFFFFFFFFFFFFFFFFFFFFFFFFFFFFFFFFFFFFFFFF AND DUP2 MSTORE PUSH1 0x20 ADD PUSH1 0x60 DUP2 MSTORE PUSH1 0x20 ADD PUSH1 0x0 DUP2 MSTORE PUSH1 0x20 ADD PUSH1 0x0 PUSH1 0x1 DUP2 GT ISZERO PUSH3 0x1696 JUMPI PUSH3 0x1695 PUSH3 0x1834 JUMP JUMPDEST JUMPDEST DUP2 MSTORE PUSH1 0x20 ADD PUSH1 0x0 DUP2 MSTORE POP SWAP1 JUMP JUMPDEST PUSH1 0x0 DUP2 MLOAD SWAP1 POP SWAP2 SWAP1 POP JUMP JUMPDEST PUSH1 0x0 DUP3 DUP3 MSTORE PUSH1 0x20 DUP3 ADD SWAP1 POP SWAP3 SWAP2 POP POP JUMP JUMPDEST PUSH1 0x0 DUP2 SWAP1 POP PUSH1 0x20 DUP3 ADD SWAP1 POP SWAP2 SWAP1 POP JUMP JUMPDEST PUSH1 0x0 PUSH20 0xFFFFFFFFFFFFFFFFFFFFFFFFFFFFFFFFFFFFFFFF DUP3 AND SWAP1 POP SWAP2 SWAP1 POP JUMP JUMPDEST PUSH1 0x0 PUSH3 0x16FC DUP3 PUSH3 0x16CF JUMP JUMPDEST SWAP1 POP SWAP2 SWAP1 POP JUMP JUMPDEST PUSH3 0x170E DUP2 PUSH3 0x16EF JUMP JUMPDEST DUP3 MSTORE POP POP JUMP JUMPDEST PUSH1 0x0 DUP2 SWAP1 POP SWAP2 SWAP1 POP JUMP JUMPDEST PUSH1 0x0 PUSH3 0x173F PUSH3 0x1739 PUSH3 0x1733 DUP5 PUSH3 0x16CF JUMP JUMPDEST PUSH3 0x1714 JUMP JUMPDEST PUSH3 0x16CF JUMP JUMPDEST SWAP1 POP SWAP2 SWAP1 POP JUMP JUMPDEST PUSH1 0x0 PUSH3 0x1753 DUP3 PUSH3 0x171E JUMP JUMPDEST SWAP1 POP SWAP2 SWAP1 POP JUMP JUMPDEST PUSH1 0x0 PUSH3 0x1767 DUP3 PUSH3 0x1746 JUMP JUMPDEST SWAP1 POP SWAP2 SWAP1 POP JUMP JUMPDEST PUSH3 0x1779 DUP2 PUSH3 0x175A JUMP JUMPDEST DUP3 MSTORE POP POP JUMP JUMPDEST PUSH1 0x0 DUP2 MLOAD SWAP1 POP SWAP2 SWAP1 POP JUMP JUMPDEST PUSH1 0x0 DUP3 DUP3 MSTORE PUSH1 0x20 DUP3 ADD SWAP1 POP SWAP3 SWAP2 POP POP JUMP JUMPDEST PUSH1 0x0 JUMPDEST DUP4 DUP2 LT ISZERO PUSH3 0x17BB JUMPI DUP1 DUP3 ADD MLOAD DUP2 DUP5 ADD MSTORE PUSH1 0x20 DUP2 ADD SWAP1 POP PUSH3 0x179E JUMP JUMPDEST PUSH1 0x0 DUP5 DUP5 ADD MSTORE POP POP POP POP JUMP JUMPDEST PUSH1 0x0 PUSH1 0x1F NOT PUSH1 0x1F DUP4 ADD AND SWAP1 POP SWAP2 SWAP1 POP JUMP JUMPDEST PUSH1 0x0 PUSH3 0x17E5 DUP3 PUSH3 0x177F JUMP JUMPDEST PUSH3 0x17F1 DUP2 DUP6 PUSH3 0x178A JUMP JUMPDEST SWAP4 POP PUSH3 0x1803 DUP2 DUP6 PUSH1 0x20 DUP7 ADD PUSH3 0x179B JUMP JUMPDEST PUSH3 0x180E DUP2 PUSH3 0x17C7 JUMP JUMPDEST DUP5 ADD SWAP2 POP POP SWAP3 SWAP2 POP POP JUMP JUMPDEST PUSH1 0x0 DUP2 SWAP1 POP SWAP2 SWAP1 POP JUMP JUMPDEST PUSH3 0x182E DUP2 PUSH3 0x1819 JUMP JUMPDEST DUP3 MSTORE POP POP JUMP JUMPDEST PUSH32 0x4E487B7100000000000000000000000000000000000000000000000000000000 PUSH1 0x0 MSTORE PUSH1 0x21 PUSH1 0x4 MSTORE PUSH1 0x24 PUSH1 0x0 REVERT JUMPDEST PUSH1 0x2 DUP2 LT PUSH3 0x1877 JUMPI PUSH3 0x1876 PUSH3 0x1834 JUMP JUMPDEST JUMPDEST POP JUMP JUMPDEST PUSH1 0x0 DUP2 SWAP1 POP PUSH3 0x188A DUP3 PUSH3 0x1863 JUMP JUMPDEST SWAP2 SWAP1 POP JUMP JUMPDEST PUSH1 0x0 PUSH3 0x189C DUP3 PUSH3 0x187A JUMP JUMPDEST SWAP1 POP SWAP2 SWAP1 POP JUMP JUMPDEST PUSH3 0x18AE DUP2 PUSH3 0x188F JUMP JUMPDEST DUP3 MSTORE POP POP JUMP JUMPDEST PUSH1 0x0 PUSH1 0xE0 DUP4 ADD PUSH1 0x0 DUP4 ADD MLOAD PUSH3 0x18CE PUSH1 0x0 DUP7 ADD DUP3 PUSH3 0x1703 JUMP JUMPDEST POP PUSH1 0x20 DUP4 ADD MLOAD PUSH3 0x18E3 PUSH1 0x20 DUP7 ADD DUP3 PUSH3 0x1703 JUMP JUMPDEST POP PUSH1 0x40 DUP4 ADD MLOAD PUSH3 0x18F8 PUSH1 0x40 DUP7 ADD DUP3 PUSH3 0x176E JUMP JUMPDEST POP PUSH1 0x60 DUP4 ADD MLOAD DUP5 DUP3 SUB PUSH1 0x60 DUP7 ADD MSTORE PUSH3 0x1912 DUP3 DUP3 PUSH3 0x17D8 JUMP JUMPDEST SWAP2 POP POP PUSH1 0x80 DUP4 ADD MLOAD PUSH3 0x1929 PUSH1 0x80 DUP7 ADD DUP3 PUSH3 0x1823 JUMP JUMPDEST POP PUSH1 0xA0 DUP4 ADD MLOAD PUSH3 0x193E PUSH1 0xA0 DUP7 ADD DUP3 PUSH3 0x18A3 JUMP JUMPDEST POP PUSH1 0xC0 DUP4 ADD MLOAD PUSH3 0x1953 PUSH1 0xC0 DUP7 ADD DUP3 PUSH3 0x1823 JUMP JUMPDEST POP DUP1 SWAP2 POP POP SWAP3 SWAP2 POP POP JUMP JUMPDEST PUSH1 0x0 PUSH3 0x196C DUP4 DUP4 PUSH3 0x18B4 JUMP JUMPDEST SWAP1 POP SWAP3 SWAP2 POP POP JUMP JUMPDEST PUSH1 0x0 PUSH1 0x20 DUP3 ADD SWAP1 POP SWAP2 SWAP1 POP JUMP JUMPDEST PUSH1 0x0 PUSH3 0x198E DUP3 PUSH3 0x16A3 JUMP JUMPDEST PUSH3 0x199A DUP2 DUP6 PUSH3 0x16AE JUMP JUMPDEST SWAP4 POP DUP4 PUSH1 0x20 DUP3 MUL DUP6 ADD PUSH3 0x19AE DUP6 PUSH3 0x16BF JUMP JUMPDEST DUP1 PUSH1 0x0 JUMPDEST DUP6 DUP2 LT ISZERO PUSH3 0x19F0 JUMPI DUP5 DUP5 SUB DUP10 MSTORE DUP2 MLOAD PUSH3 0x19CE DUP6 DUP3 PUSH3 0x195E JUMP JUMPDEST SWAP5 POP PUSH3 0x19DB DUP4 PUSH3 0x1974 JUMP JUMPDEST SWAP3 POP PUSH1 0x20 DUP11 ADD SWAP10 POP POP PUSH1 0x1 DUP2 ADD SWAP1 POP PUSH3 0x19B2 JUMP JUMPDEST POP DUP3 SWAP8 POP DUP8 SWAP6 POP POP POP POP POP POP SWAP3 SWAP2 POP POP JUMP JUMPDEST PUSH1 0x0 PUSH1 0x20 DUP3 ADD SWAP1 POP DUP2 DUP2 SUB PUSH1 0x0 DUP4 ADD MSTORE PUSH3 0x1A1E DUP2 DUP5 PUSH3 0x1981 JUMP JUMPDEST SWAP1 POP SWAP3 SWAP2 POP POP JUMP JUMPDEST PUSH1 0x0 PUSH1 0x40 MLOAD SWAP1 POP SWAP1 JUMP JUMPDEST PUSH1 0x0 DUP1 REVERT JUMPDEST PUSH1 0x0 DUP1 REVERT JUMPDEST PUSH3 0x1A45 DUP2 PUSH3 0x1819 JUMP JUMPDEST DUP2 EQ PUSH3 0x1A51 JUMPI PUSH1 0x0 DUP1 REVERT JUMPDEST POP JUMP JUMPDEST PUSH1 0x0 DUP2 CALLDATALOAD SWAP1 POP PUSH3 0x1A65 DUP2 PUSH3 0x1A3A JUMP JUMPDEST SWAP3 SWAP2 POP POP JUMP JUMPDEST PUSH1 0x0 PUSH1 0x20 DUP3 DUP5 SUB SLT ISZERO PUSH3 0x1A84 JUMPI PUSH3 0x1A83 PUSH3 0x1A30 JUMP JUMPDEST JUMPDEST PUSH1 0x0 PUSH3 0x1A94 DUP5 DUP3 DUP6 ADD PUSH3 0x1A54 JUMP JUMPDEST SWAP2 POP POP SWAP3 SWAP2 POP POP JUMP JUMPDEST PUSH1 0x0 DUP1 REVERT JUMPDEST PUSH1 0x0 DUP1 REVERT JUMPDEST PUSH32 0x4E487B7100000000000000000000000000000000000000000000000000000000 PUSH1 0x0 MSTORE PUSH1 0x41 PUSH1 0x4 MSTORE PUSH1 0x24 PUSH1 0x0 REVERT JUMPDEST PUSH3 0x1AE1 DUP3 PUSH3 0x17C7 JUMP JUMPDEST DUP2 ADD DUP2 DUP2 LT PUSH8 0xFFFFFFFFFFFFFFFF DUP3 GT OR ISZERO PUSH3 0x1B03 JUMPI PUSH3 0x1B02 PUSH3 0x1AA7 JUMP JUMPDEST JUMPDEST DUP1 PUSH1 0x40 MSTORE POP POP POP JUMP JUMPDEST PUSH1 0x0 PUSH3 0x1B18 PUSH3 0x1A26 JUMP JUMPDEST SWAP1 POP PUSH3 0x1B26 DUP3 DUP3 PUSH3 0x1AD6 JUMP JUMPDEST SWAP2 SWAP1 POP JUMP JUMPDEST PUSH1 0x0 PUSH8 0xFFFFFFFFFFFFFFFF DUP3 GT ISZERO PUSH3 0x1B49 JUMPI PUSH3 0x1B48 PUSH3 0x1AA7 JUMP JUMPDEST JUMPDEST PUSH3 0x1B54 DUP3 PUSH3 0x17C7 JUMP JUMPDEST SWAP1 POP PUSH1 0x20 DUP2 ADD SWAP1 POP SWAP2 SWAP1 POP JUMP JUMPDEST DUP3 DUP2 DUP4 CALLDATACOPY PUSH1 0x0 DUP4 DUP4 ADD MSTORE POP POP POP JUMP JUMPDEST PUSH1 0x0 PUSH3 0x1B87 PUSH3 0x1B81 DUP5 PUSH3 0x1B2B JUMP JUMPDEST PUSH3 0x1B0C JUMP JUMPDEST SWAP1 POP DUP3 DUP2 MSTORE PUSH1 0x20 DUP2 ADD DUP5 DUP5 DUP5 ADD GT ISZERO PUSH3 0x1BA6 JUMPI PUSH3 0x1BA5 PUSH3 0x1AA2 JUMP JUMPDEST JUMPDEST PUSH3 0x1BB3 DUP5 DUP3 DUP6 PUSH3 0x1B61 JUMP JUMPDEST POP SWAP4 SWAP3 POP POP POP JUMP JUMPDEST PUSH1 0x0 DUP3 PUSH1 0x1F DUP4 ADD SLT PUSH3 0x1BD3 JUMPI PUSH3 0x1BD2 PUSH3 0x1A9D JUMP JUMPDEST JUMPDEST DUP2 CALLDATALOAD PUSH3 0x1BE5 DUP5 DUP3 PUSH1 0x20 DUP7 ADD PUSH3 0x1B70 JUMP JUMPDEST SWAP2 POP POP SWAP3 SWAP2 POP POP JUMP JUMPDEST PUSH1 0x0 DUP1 PUSH1 0x40 DUP4 DUP6 SUB SLT ISZERO PUSH3 0x1C08 JUMPI PUSH3 0x1C07 PUSH3 0x1A30 JUMP JUMPDEST JUMPDEST PUSH1 0x0 DUP4 ADD CALLDATALOAD PUSH8 0xFFFFFFFFFFFFFFFF DUP2 GT ISZERO PUSH3 0x1C29 JUMPI PUSH3 0x1C28 PUSH3 0x1A35 JUMP JUMPDEST JUMPDEST PUSH3 0x1C37 DUP6 DUP3 DUP7 ADD PUSH3 0x1BBB JUMP JUMPDEST SWAP3 POP POP PUSH1 0x20 PUSH3 0x1C4A DUP6 DUP3 DUP7 ADD PUSH3 0x1A54 JUMP JUMPDEST SWAP2 POP POP SWAP3 POP SWAP3 SWAP1 POP JUMP JUMPDEST PUSH3 0x1C5F DUP2 PUSH3 0x16EF JUMP JUMPDEST DUP3 MSTORE POP POP JUMP JUMPDEST PUSH1 0x0 PUSH1 0x20 DUP3 ADD SWAP1 POP PUSH3 0x1C7C PUSH1 0x0 DUP4 ADD DUP5 PUSH3 0x1C54 JUMP JUMPDEST SWAP3 SWAP2 POP POP JUMP JUMPDEST PUSH3 0x1C8D DUP2 PUSH3 0x175A JUMP JUMPDEST DUP3 MSTORE POP POP JUMP JUMPDEST PUSH1 0x0 DUP3 DUP3 MSTORE PUSH1 0x20 DUP3 ADD SWAP1 POP SWAP3 SWAP2 POP POP JUMP JUMPDEST PUSH1 0x0 PUSH3 0x1CB1 DUP3 PUSH3 0x177F JUMP JUMPDEST PUSH3 0x1CBD DUP2 DUP6 PUSH3 0x1C93 JUMP JUMPDEST SWAP4 POP PUSH3 0x1CCF DUP2 DUP6 PUSH1 0x20 DUP7 ADD PUSH3 0x179B JUMP JUMPDEST PUSH3 0x1CDA DUP2 PUSH3 0x17C7 JUMP JUMPDEST DUP5 ADD SWAP2 POP POP SWAP3 SWAP2 POP POP JUMP JUMPDEST PUSH3 0x1CF0 DUP2 PUSH3 0x1819 JUMP JUMPDEST DUP3 MSTORE POP POP JUMP JUMPDEST PUSH3 0x1D01 DUP2 PUSH3 0x188F JUMP JUMPDEST DUP3 MSTORE POP POP JUMP JUMPDEST PUSH1 0x0 PUSH1 0xE0 DUP3 ADD SWAP1 POP PUSH3 0x1D1E PUSH1 0x0 DUP4 ADD DUP11 PUSH3 0x1C54 JUMP JUMPDEST PUSH3 0x1D2D PUSH1 0x20 DUP4 ADD DUP10 PUSH3 0x1C54 JUMP JUMPDEST PUSH3 0x1D3C PUSH1 0x40 DUP4 ADD DUP9 PUSH3 0x1C82 JUMP JUMPDEST DUP2 DUP2 SUB PUSH1 0x60 DUP4 ADD MSTORE PUSH3 0x1D50 DUP2 DUP8 PUSH3 0x1CA4 JUMP JUMPDEST SWAP1 POP PUSH3 0x1D61 PUSH1 0x80 DUP4 ADD DUP7 PUSH3 0x1CE5 JUMP JUMPDEST PUSH3 0x1D70 PUSH1 0xA0 DUP4 ADD DUP6 PUSH3 0x1CF6 JUMP JUMPDEST PUSH3 0x1D7F PUSH1 0xC0 DUP4 ADD DUP5 PUSH3 0x1CE5 JUMP JUMPDEST SWAP9 SWAP8 POP POP POP POP POP POP POP POP JUMP JUMPDEST PUSH3 0x1D96 DUP2 PUSH3 0x16EF JUMP JUMPDEST DUP2 EQ PUSH3 0x1DA2 JUMPI PUSH1 0x0 DUP1 REVERT JUMPDEST POP JUMP JUMPDEST PUSH1 0x0 DUP2 CALLDATALOAD SWAP1 POP PUSH3 0x1DB6 DUP2 PUSH3 0x1D8B JUMP JUMPDEST SWAP3 SWAP2 POP POP JUMP JUMPDEST PUSH1 0x0 PUSH1 0x20 DUP3 DUP5 SUB SLT ISZERO PUSH3 0x1DD5 JUMPI PUSH3 0x1DD4 PUSH3 0x1A30 JUMP JUMPDEST JUMPDEST PUSH1 0x0 PUSH3 0x1DE5 DUP5 DUP3 DUP6 ADD PUSH3 0x1DA5 JUMP JUMPDEST SWAP2 POP POP SWAP3 SWAP2 POP POP JUMP JUMPDEST PUSH32 0x4E487B7100000000000000000000000000000000000000000000000000000000 PUSH1 0x0 MSTORE PUSH1 0x22 PUSH1 0x4 MSTORE PUSH1 0x24 PUSH1 0x0 REVERT JUMPDEST PUSH1 0x0 PUSH1 0x2 DUP3 DIV SWAP1 POP PUSH1 0x1 DUP3 AND DUP1 PUSH3 0x1E36 JUMPI PUSH1 0x7F DUP3 AND SWAP2 POP JUMPDEST PUSH1 0x20 DUP3 LT DUP2 SUB PUSH3 0x1E4C JUMPI PUSH3 0x1E4B PUSH3 0x1DEE JUMP JUMPDEST JUMPDEST POP SWAP2 SWAP1 POP JUMP JUMPDEST PUSH32 0x4F6E6C792066756C6C207061796D656E7420697320616C6C6F77656400000000 PUSH1 0x0 DUP3 ADD MSTORE POP JUMP JUMPDEST PUSH1 0x0 PUSH3 0x1E8A PUSH1 0x1C DUP4 PUSH3 0x1C93 JUMP JUMPDEST SWAP2 POP PUSH3 0x1E97 DUP3 PUSH3 0x1E52 JUMP JUMPDEST PUSH1 0x20 DUP3 ADD SWAP1 POP SWAP2 SWAP1 POP JUMP JUMPDEST PUSH1 0x0 PUSH1 0x20 DUP3 ADD SWAP1 POP DUP2 DUP2 SUB PUSH1 0x0 DUP4 ADD MSTORE PUSH3 0x1EBD DUP2 PUSH3 0x1E7B JUMP JUMPDEST SWAP1 POP SWAP2 SWAP1 POP JUMP JUMPDEST PUSH32 0x4974656D206973206675727468657220696E20746865206C696E650000000000 PUSH1 0x0 DUP3 ADD MSTORE POP JUMP JUMPDEST PUSH1 0x0 PUSH3 0x1EFC PUSH1 0x1B DUP4 PUSH3 0x1C93 JUMP JUMPDEST SWAP2 POP PUSH3 0x1F09 DUP3 PUSH3 0x1EC4 JUMP JUMPDEST PUSH1 0x20 DUP3 ADD SWAP1 POP SWAP2 SWAP1 POP JUMP JUMPDEST PUSH1 0x0 PUSH1 0x20 DUP3 ADD SWAP1 POP DUP2 DUP2 SUB PUSH1 0x0 DUP4 ADD MSTORE PUSH3 0x1F2F DUP2 PUSH3 0x1EED JUMP JUMPDEST SWAP1 POP SWAP2 SWAP1 POP JUMP JUMPDEST PUSH32 0x53656C6C65722063616E206E6F7420627579207468656972206F776E20697465 PUSH1 0x0 DUP3 ADD MSTORE PUSH32 0x6D00000000000000000000000000000000000000000000000000000000000000 PUSH1 0x20 DUP3 ADD MSTORE POP JUMP JUMPDEST PUSH1 0x0 PUSH3 0x1F94 PUSH1 0x21 DUP4 PUSH3 0x1C93 JUMP JUMPDEST SWAP2 POP PUSH3 0x1FA1 DUP3 PUSH3 0x1F36 JUMP JUMPDEST PUSH1 0x40 DUP3 ADD SWAP1 POP SWAP2 SWAP1 POP JUMP JUMPDEST PUSH1 0x0 PUSH1 0x20 DUP3 ADD SWAP1 POP DUP2 DUP2 SUB PUSH1 0x0 DUP4 ADD MSTORE PUSH3 0x1FC7 DUP2 PUSH3 0x1F85 JUMP JUMPDEST SWAP1 POP SWAP2 SWAP1 POP JUMP JUMPDEST PUSH1 0x0 PUSH1 0xC0 DUP3 ADD SWAP1 POP PUSH3 0x1FE5 PUSH1 0x0 DUP4 ADD DUP10 PUSH3 0x1CE5 JUMP JUMPDEST PUSH3 0x1FF4 PUSH1 0x20 DUP4 ADD DUP9 PUSH3 0x1CE5 JUMP JUMPDEST PUSH3 0x2003 PUSH1 0x40 DUP4 ADD DUP8 PUSH3 0x1C54 JUMP JUMPDEST PUSH3 0x2012 PUSH1 0x60 DUP4 ADD DUP7 PUSH3 0x1CE5 JUMP JUMPDEST PUSH3 0x2021 PUSH1 0x80 DUP4 ADD DUP6 PUSH3 0x1C54 JUMP JUMPDEST PUSH3 0x2030 PUSH1 0xA0 DUP4 ADD DUP5 PUSH3 0x1C54 JUMP JUMPDEST SWAP8 SWAP7 POP POP POP POP POP POP POP JUMP JUMPDEST PUSH32 0x4F776E61626C653A2063616C6C6572206973206E6F7420746865206F776E6572 PUSH1 0x0 DUP3 ADD MSTORE POP JUMP JUMPDEST PUSH1 0x0 PUSH3 0x2073 PUSH1 0x20 DUP4 PUSH3 0x1C93 JUMP JUMPDEST SWAP2 POP PUSH3 0x2080 DUP3 PUSH3 0x203B JUMP JUMPDEST PUSH1 0x20 DUP3 ADD SWAP1 POP SWAP2 SWAP1 POP JUMP JUMPDEST PUSH1 0x0 PUSH1 0x20 DUP3 ADD SWAP1 POP DUP2 DUP2 SUB PUSH1 0x0 DUP4 ADD MSTORE PUSH3 0x20A6 DUP2 PUSH3 0x2064 JUMP JUMPDEST SWAP1 POP SWAP2 SWAP1 POP JUMP JUMPDEST PUSH32 0x63616E206E6F742072656E6F756E6365206F776E657273686970000000000000 PUSH1 0x0 DUP3 ADD MSTORE POP JUMP JUMPDEST PUSH1 0x0 PUSH3 0x20E5 PUSH1 0x1A DUP4 PUSH3 0x1C93 JUMP JUMPDEST SWAP2 POP PUSH3 0x20F2 DUP3 PUSH3 0x20AD JUMP JUMPDEST PUSH1 0x20 DUP3 ADD SWAP1 POP SWAP2 SWAP1 POP JUMP JUMPDEST PUSH1 0x0 PUSH1 0x20 DUP3 ADD SWAP1 POP DUP2 DUP2 SUB PUSH1 0x0 DUP4 ADD MSTORE PUSH3 0x2118 DUP2 PUSH3 0x20D6 JUMP JUMPDEST SWAP1 POP SWAP2 SWAP1 POP JUMP JUMPDEST PUSH1 0x0 PUSH3 0x212C DUP3 PUSH3 0x171E JUMP JUMPDEST SWAP1 POP SWAP2 SWAP1 POP JUMP JUMPDEST PUSH1 0x0 PUSH3 0x2140 DUP3 PUSH3 0x211F JUMP JUMPDEST SWAP1 POP SWAP2 SWAP1 POP JUMP JUMPDEST PUSH3 0x2152 DUP2 PUSH3 0x2133 JUMP JUMPDEST DUP3 MSTORE POP POP JUMP JUMPDEST PUSH1 0x0 PUSH1 0x60 DUP3 ADD SWAP1 POP PUSH3 0x216F PUSH1 0x0 DUP4 ADD DUP7 PUSH3 0x2147 JUMP JUMPDEST PUSH3 0x217E PUSH1 0x20 DUP4 ADD DUP6 PUSH3 0x1CE5 JUMP JUMPDEST PUSH3 0x218D PUSH1 0x40 DUP4 ADD DUP5 PUSH3 0x1CE5 JUMP JUMPDEST SWAP5 SWAP4 POP POP POP POP JUMP JUMPDEST PUSH1 0x0 DUP2 SWAP1 POP DUP2 PUSH1 0x0 MSTORE PUSH1 0x20 PUSH1 0x0 KECCAK256 SWAP1 POP SWAP2 SWAP1 POP JUMP JUMPDEST PUSH1 0x0 PUSH1 0x20 PUSH1 0x1F DUP4 ADD DIV SWAP1 POP SWAP2 SWAP1 POP JUMP JUMPDEST PUSH1 0x0 DUP3 DUP3 SHL SWAP1 POP SWAP3 SWAP2 POP POP JUMP JUMPDEST PUSH1 0x0 PUSH1 0x8 DUP4 MUL PUSH3 0x21F9 PUSH32 0xFFFFFFFFFFFFFFFFFFFFFFFFFFFFFFFFFFFFFFFFFFFFFFFFFFFFFFFFFFFFFFFF DUP3 PUSH3 0x21BA JUMP JUMPDEST PUSH3 0x2205 DUP7 DUP4 PUSH3 0x21BA JUMP JUMPDEST SWAP6 POP DUP1 NOT DUP5 AND SWAP4 POP DUP1 DUP7 AND DUP5 OR SWAP3 POP POP POP SWAP4 SWAP3 POP POP POP JUMP JUMPDEST PUSH1 0x0 PUSH3 0x223E PUSH3 0x2238 PUSH3 0x2232 DUP5 PUSH3 0x1819 JUMP JUMPDEST PUSH3 0x1714 JUMP JUMPDEST PUSH3 0x1819 JUMP JUMPDEST SWAP1 POP SWAP2 SWAP1 POP JUMP JUMPDEST PUSH1 0x0 DUP2 SWAP1 POP SWAP2 SWAP1 POP JUMP JUMPDEST PUSH3 0x225A DUP4 PUSH3 0x221D JUMP JUMPDEST PUSH3 0x2272 PUSH3 0x2269 DUP3 PUSH3 0x2245 JUMP JUMPDEST DUP5 DUP5 SLOAD PUSH3 0x21C7 JUMP JUMPDEST DUP3 SSTORE POP POP POP POP JUMP JUMPDEST PUSH1 0x0 SWAP1 JUMP JUMPDEST PUSH3 0x2289 PUSH3 0x227A JUMP JUMPDEST PUSH3 0x2296 DUP2 DUP5 DUP5 PUSH3 0x224F JUMP JUMPDEST POP POP POP JUMP JUMPDEST JUMPDEST DUP2 DUP2 LT ISZERO PUSH3 0x22BE JUMPI PUSH3 0x22B2 PUSH1 0x0 DUP3 PUSH3 0x227F JUMP JUMPDEST PUSH1 0x1 DUP2 ADD SWAP1 POP PUSH3 0x229C JUMP JUMPDEST POP POP JUMP JUMPDEST PUSH1 0x1F DUP3 GT ISZERO PUSH3 0x230D JUMPI PUSH3 0x22D7 DUP2 PUSH3 0x2195 JUMP JUMPDEST PUSH3 0x22E2 DUP5 PUSH3 0x21AA JUMP JUMPDEST DUP2 ADD PUSH1 0x20 DUP6 LT ISZERO PUSH3 0x22F2 JUMPI DUP2 SWAP1 POP JUMPDEST PUSH3 0x230A PUSH3 0x2301 DUP6 PUSH3 0x21AA JUMP JUMPDEST DUP4 ADD DUP3 PUSH3 0x229B JUMP JUMPDEST POP POP JUMPDEST POP POP POP JUMP JUMPDEST PUSH1 0x0 DUP3 DUP3 SHR SWAP1 POP SWAP3 SWAP2 POP POP JUMP JUMPDEST PUSH1 0x0 PUSH3 0x2332 PUSH1 0x0 NOT DUP5 PUSH1 0x8 MUL PUSH3 0x2312 JUMP JUMPDEST NOT DUP1 DUP4 AND SWAP2 POP POP SWAP3 SWAP2 POP POP JUMP JUMPDEST PUSH1 0x0 PUSH3 0x234D DUP4 DUP4 PUSH3 0x231F JUMP JUMPDEST SWAP2 POP DUP3 PUSH1 0x2 MUL DUP3 OR SWAP1 POP SWAP3 SWAP2 POP POP JUMP JUMPDEST PUSH3 0x2368 DUP3 PUSH3 0x177F JUMP JUMPDEST PUSH8 0xFFFFFFFFFFFFFFFF DUP2 GT ISZERO PUSH3 0x2384 JUMPI PUSH3 0x2383 PUSH3 0x1AA7 JUMP JUMPDEST JUMPDEST PUSH3 0x2390 DUP3 SLOAD PUSH3 0x1E1D JUMP JUMPDEST PUSH3 0x239D DUP3 DUP3 DUP6 PUSH3 0x22C2 JUMP JUMPDEST PUSH1 0x0 PUSH1 0x20 SWAP1 POP PUSH1 0x1F DUP4 GT PUSH1 0x1 DUP2 EQ PUSH3 0x23D5 JUMPI PUSH1 0x0 DUP5 ISZERO PUSH3 0x23C0 JUMPI DUP3 DUP8 ADD MLOAD SWAP1 POP JUMPDEST PUSH3 0x23CC DUP6 DUP3 PUSH3 0x233F JUMP JUMPDEST DUP7 SSTORE POP PUSH3 0x243C JUMP JUMPDEST PUSH1 0x1F NOT DUP5 AND PUSH3 0x23E5 DUP7 PUSH3 0x2195 JUMP JUMPDEST PUSH1 0x0 JUMPDEST DUP3 DUP2 LT ISZERO PUSH3 0x240F JUMPI DUP5 DUP10 ADD MLOAD DUP3 SSTORE PUSH1 0x1 DUP3 ADD SWAP2 POP PUSH1 0x20 DUP6 ADD SWAP5 POP PUSH1 0x20 DUP2 ADD SWAP1 POP PUSH3 0x23E8 JUMP JUMPDEST DUP7 DUP4 LT ISZERO PUSH3 0x242F JUMPI DUP5 DUP10 ADD MLOAD PUSH3 0x242B PUSH1 0x1F DUP10 AND DUP3 PUSH3 0x231F JUMP JUMPDEST DUP4 SSTORE POP JUMPDEST PUSH1 0x1 PUSH1 0x2 DUP9 MUL ADD DUP9 SSTORE POP POP POP JUMPDEST POP POP POP POP POP POP JUMP JUMPDEST PUSH1 0x0 DUP2 SWAP1 POP SWAP2 SWAP1 POP JUMP JUMPDEST PUSH1 0x0 PUSH3 0x246F PUSH3 0x2469 PUSH3 0x2463 DUP5 PUSH3 0x2444 JUMP JUMPDEST PUSH3 0x1714 JUMP JUMPDEST PUSH3 0x1819 JUMP JUMPDEST SWAP1 POP SWAP2 SWAP1 POP JUMP JUMPDEST PUSH3 0x2481 DUP2 PUSH3 0x244E JUMP JUMPDEST DUP3 MSTORE POP POP JUMP JUMPDEST PUSH1 0x0 PUSH1 0xC0 DUP3 ADD SWAP1 POP PUSH3 0x249E PUSH1 0x0 DUP4 ADD DUP10 PUSH3 0x1CE5 JUMP JUMPDEST PUSH3 0x24AD PUSH1 0x20 DUP4 ADD DUP9 PUSH3 0x1CE5 JUMP JUMPDEST PUSH3 0x24BC PUSH1 0x40 DUP4 ADD DUP8 PUSH3 0x1C54 JUMP JUMPDEST PUSH3 0x24CB PUSH1 0x60 DUP4 ADD DUP7 PUSH3 0x2476 JUMP JUMPDEST PUSH3 0x24DA PUSH1 0x80 DUP4 ADD DUP6 PUSH3 0x1C54 JUMP JUMPDEST PUSH3 0x24E9 PUSH1 0xA0 DUP4 ADD DUP5 PUSH3 0x1C54 JUMP JUMPDEST SWAP8 SWAP7 POP POP POP POP POP POP POP JUMP JUMPDEST PUSH32 0x4E487B7100000000000000000000000000000000000000000000000000000000 PUSH1 0x0 MSTORE PUSH1 0x11 PUSH1 0x4 MSTORE PUSH1 0x24 PUSH1 0x0 REVERT JUMPDEST PUSH1 0x0 PUSH3 0x2530 DUP3 PUSH3 0x1819 JUMP JUMPDEST SWAP2 POP PUSH32 0xFFFFFFFFFFFFFFFFFFFFFFFFFFFFFFFFFFFFFFFFFFFFFFFFFFFFFFFFFFFFFFFF DUP3 SUB PUSH3 0x2565 JUMPI PUSH3 0x2564 PUSH3 0x24F4 JUMP JUMPDEST JUMPDEST PUSH1 0x1 DUP3 ADD SWAP1 POP SWAP2 SWAP1 POP JUMP JUMPDEST PUSH32 0x4F776E61626C653A206E6577206F776E657220697320746865207A65726F2061 PUSH1 0x0 DUP3 ADD MSTORE PUSH32 0x6464726573730000000000000000000000000000000000000000000000000000 PUSH1 0x20 DUP3 ADD MSTORE POP JUMP JUMPDEST PUSH1 0x0 PUSH3 0x25CE PUSH1 0x26 DUP4 PUSH3 0x1C93 JUMP JUMPDEST SWAP2 POP PUSH3 0x25DB DUP3 PUSH3 0x2570 JUMP JUMPDEST PUSH1 0x40 DUP3 ADD SWAP1 POP SWAP2 SWAP1 POP JUMP JUMPDEST PUSH1 0x0 PUSH1 0x20 DUP3 ADD SWAP1 POP DUP2 DUP2 SUB PUSH1 0x0 DUP4 ADD MSTORE PUSH3 0x2601 DUP2 PUSH3 0x25BF JUMP JUMPDEST SWAP1 POP SWAP2 SWAP1 POP JUMP INVALID PUSH1 0x80 PUSH1 0x40 MSTORE CALLVALUE DUP1 ISZERO PUSH2 0x10 JUMPI PUSH1 0x0 DUP1 REVERT JUMPDEST POP PUSH1 0x40 MLOAD PUSH2 0x70D CODESIZE SUB DUP1 PUSH2 0x70D DUP4 CODECOPY DUP2 DUP2 ADD PUSH1 0x40 MSTORE DUP2 ADD SWAP1 PUSH2 0x32 SWAP2 SWAP1 PUSH2 0x134 JUMP JUMPDEST DUP2 PUSH1 0x0 DUP2 SWAP1 SSTORE POP DUP1 PUSH1 0x2 DUP2 SWAP1 SSTORE POP DUP3 PUSH1 0x3 PUSH1 0x0 PUSH2 0x100 EXP DUP2 SLOAD DUP2 PUSH20 0xFFFFFFFFFFFFFFFFFFFFFFFFFFFFFFFFFFFFFFFF MUL NOT AND SWAP1 DUP4 PUSH20 0xFFFFFFFFFFFFFFFFFFFFFFFFFFFFFFFFFFFFFFFF AND MUL OR SWAP1 SSTORE POP POP POP POP PUSH2 0x187 JUMP JUMPDEST PUSH1 0x0 DUP1 REVERT JUMPDEST PUSH1 0x0 PUSH20 0xFFFFFFFFFFFFFFFFFFFFFFFFFFFFFFFFFFFFFFFF DUP3 AND SWAP1 POP SWAP2 SWAP1 POP JUMP JUMPDEST PUSH1 0x0 PUSH2 0xB9 DUP3 PUSH2 0x8E JUMP JUMPDEST SWAP1 POP SWAP2 SWAP1 POP JUMP JUMPDEST PUSH1 0x0 PUSH2 0xCB DUP3 PUSH2 0xAE JUMP JUMPDEST SWAP1 POP SWAP2 SWAP1 POP JUMP JUMPDEST PUSH2 0xDB DUP2 PUSH2 0xC0 JUMP JUMPDEST DUP2 EQ PUSH2 0xE6 JUMPI PUSH1 0x0 DUP1 REVERT JUMPDEST POP JUMP JUMPDEST PUSH1 0x0 DUP2 MLOAD SWAP1 POP PUSH2 0xF8 DUP2 PUSH2 0xD2 JUMP JUMPDEST SWAP3 SWAP2 POP POP JUMP JUMPDEST PUSH1 0x0 DUP2 SWAP1 POP SWAP2 SWAP1 POP JUMP JUMPDEST PUSH2 0x111 DUP2 PUSH2 0xFE JUMP JUMPDEST DUP2 EQ PUSH2 0x11C JUMPI PUSH1 0x0 DUP1 REVERT JUMPDEST POP JUMP JUMPDEST PUSH1 0x0 DUP2 MLOAD SWAP1 POP PUSH2 0x12E DUP2 PUSH2 0x108 JUMP JUMPDEST SWAP3 SWAP2 POP POP JUMP JUMPDEST PUSH1 0x0 DUP1 PUSH1 0x0 PUSH1 0x60 DUP5 DUP7 SUB SLT ISZERO PUSH2 0x14D JUMPI PUSH2 0x14C PUSH2 0x89 JUMP JUMPDEST JUMPDEST PUSH1 0x0 PUSH2 0x15B DUP7 DUP3 DUP8 ADD PUSH2 0xE9 JUMP JUMPDEST SWAP4 POP POP PUSH1 0x20 PUSH2 0x16C DUP7 DUP3 DUP8 ADD PUSH2 0x11F JUMP JUMPDEST SWAP3 POP POP PUSH1 0x40 PUSH2 0x17D DUP7 DUP3 DUP8 ADD PUSH2 0x11F JUMP JUMPDEST SWAP2 POP POP SWAP3 POP SWAP3 POP SWAP3 JUMP JUMPDEST PUSH2 0x577 DUP1 PUSH2 0x196 PUSH1 0x0 CODECOPY PUSH1 0x0 RETURN INVALID PUSH1 0x80 PUSH1 0x40 MSTORE PUSH1 0x4 CALLDATASIZE LT PUSH2 0x2D JUMPI PUSH1 0x0 CALLDATALOAD PUSH1 0xE0 SHR DUP1 PUSH4 0x2986C0E5 EQ PUSH2 0x245 JUMPI DUP1 PUSH4 0x7666C5A2 EQ PUSH2 0x270 JUMPI PUSH2 0x237 JUMP JUMPDEST CALLDATASIZE PUSH2 0x237 JUMPI PUSH1 0x0 PUSH1 0x1 SLOAD EQ PUSH2 0x77 JUMPI PUSH1 0x40 MLOAD PUSH32 0x8C379A000000000000000000000000000000000000000000000000000000000 DUP2 MSTORE PUSH1 0x4 ADD PUSH2 0x6E SWAP1 PUSH2 0x304 JUMP JUMPDEST PUSH1 0x40 MLOAD DUP1 SWAP2 SUB SWAP1 REVERT JUMPDEST CALLVALUE PUSH1 0x0 SLOAD EQ PUSH2 0xBB JUMPI PUSH1 0x40 MLOAD PUSH32 0x8C379A000000000000000000000000000000000000000000000000000000000 DUP2 MSTORE PUSH1 0x4 ADD PUSH2 0xB2 SWAP1 PUSH2 0x370 JUMP JUMPDEST PUSH1 0x40 MLOAD DUP1 SWAP2 SUB SWAP1 REVERT JUMPDEST PUSH1 0x0 SLOAD PUSH1 0x1 PUSH1 0x0 DUP3 DUP3 SLOAD PUSH2 0xCF SWAP2 SWAP1 PUSH2 0x3C9 JUMP JUMPDEST SWAP3 POP POP DUP2 SWAP1 SSTORE POP PUSH1 0x0 PUSH1 0x3 PUSH1 0x0 SWAP1 SLOAD SWAP1 PUSH2 0x100 EXP SWAP1 DIV PUSH20 0xFFFFFFFFFFFFFFFFFFFFFFFFFFFFFFFFFFFFFFFF AND PUSH20 0xFFFFFFFFFFFFFFFFFFFFFFFFFFFFFFFFFFFFFFFF AND CALLVALUE PUSH1 0x2 SLOAD PUSH1 0x40 MLOAD PUSH1 0x24 ADD PUSH2 0x125 SWAP2 SWAP1 PUSH2 0x40C JUMP JUMPDEST PUSH1 0x40 MLOAD PUSH1 0x20 DUP2 DUP4 SUB SUB DUP2 MSTORE SWAP1 PUSH1 0x40 MSTORE PUSH32 0x800FB83F00000000000000000000000000000000000000000000000000000000 PUSH28 0xFFFFFFFFFFFFFFFFFFFFFFFFFFFFFFFFFFFFFFFFFFFFFFFFFFFFFFFF NOT AND PUSH1 0x20 DUP3 ADD DUP1 MLOAD PUSH28 0xFFFFFFFFFFFFFFFFFFFFFFFFFFFFFFFFFFFFFFFFFFFFFFFFFFFFFFFF DUP4 DUP2 DUP4 AND OR DUP4 MSTORE POP POP POP POP PUSH1 0x40 MLOAD PUSH2 0x1AF SWAP2 SWAP1 PUSH2 0x498 JUMP JUMPDEST PUSH1 0x0 PUSH1 0x40 MLOAD DUP1 DUP4 SUB DUP2 DUP6 DUP8 GAS CALL SWAP3 POP POP POP RETURNDATASIZE DUP1 PUSH1 0x0 DUP2 EQ PUSH2 0x1EC JUMPI PUSH1 0x40 MLOAD SWAP2 POP PUSH1 0x1F NOT PUSH1 0x3F RETURNDATASIZE ADD AND DUP3 ADD PUSH1 0x40 MSTORE RETURNDATASIZE DUP3 MSTORE RETURNDATASIZE PUSH1 0x0 PUSH1 0x20 DUP5 ADD RETURNDATACOPY PUSH2 0x1F1 JUMP JUMPDEST PUSH1 0x60 SWAP2 POP JUMPDEST POP POP SWAP1 POP DUP1 PUSH2 0x235 JUMPI PUSH1 0x40 MLOAD PUSH32 0x8C379A000000000000000000000000000000000000000000000000000000000 DUP2 MSTORE PUSH1 0x4 ADD PUSH2 0x22C SWAP1 PUSH2 0x521 JUMP JUMPDEST PUSH1 0x40 MLOAD DUP1 SWAP2 SUB SWAP1 REVERT JUMPDEST STOP JUMPDEST CALLVALUE DUP1 ISZERO PUSH2 0x243 JUMPI PUSH1 0x0 DUP1 REVERT JUMPDEST STOP JUMPDEST CALLVALUE DUP1 ISZERO PUSH2 0x251 JUMPI PUSH1 0x0 DUP1 REVERT JUMPDEST POP PUSH2 0x25A PUSH2 0x29B JUMP JUMPDEST PUSH1 0x40 MLOAD PUSH2 0x267 SWAP2 SWAP1 PUSH2 0x40C JUMP JUMPDEST PUSH1 0x40 MLOAD DUP1 SWAP2 SUB SWAP1 RETURN JUMPDEST CALLVALUE DUP1 ISZERO PUSH2 0x27C JUMPI PUSH1 0x0 DUP1 REVERT JUMPDEST POP PUSH2 0x285 PUSH2 0x2A1 JUMP JUMPDEST PUSH1 0x40 MLOAD PUSH2 0x292 SWAP2 SWAP1 PUSH2 0x40C JUMP JUMPDEST PUSH1 0x40 MLOAD DUP1 SWAP2 SUB SWAP1 RETURN JUMPDEST PUSH1 0x2 SLOAD DUP2 JUMP JUMPDEST PUSH1 0x1 SLOAD DUP2 JUMP JUMPDEST PUSH1 0x0 DUP3 DUP3 MSTORE PUSH1 0x20 DUP3 ADD SWAP1 POP SWAP3 SWAP2 POP POP JUMP JUMPDEST PUSH32 0x6974656D206973207061696420616C7265616479000000000000000000000000 PUSH1 0x0 DUP3 ADD MSTORE POP JUMP JUMPDEST PUSH1 0x0 PUSH2 0x2EE PUSH1 0x14 DUP4 PUSH2 0x2A7 JUMP JUMPDEST SWAP2 POP PUSH2 0x2F9 DUP3 PUSH2 0x2B8 JUMP JUMPDEST PUSH1 0x20 DUP3 ADD SWAP1 POP SWAP2 SWAP1 POP JUMP JUMPDEST PUSH1 0x0 PUSH1 0x20 DUP3 ADD SWAP1 POP DUP2 DUP2 SUB PUSH1 0x0 DUP4 ADD MSTORE PUSH2 0x31D DUP2 PUSH2 0x2E1 JUMP JUMPDEST SWAP1 POP SWAP2 SWAP1 POP JUMP JUMPDEST PUSH32 0x4F6E6C792066756C6C207061796D656E747320616C6C6F776564000000000000 PUSH1 0x0 DUP3 ADD MSTORE POP JUMP JUMPDEST PUSH1 0x0 PUSH2 0x35A PUSH1 0x1A DUP4 PUSH2 0x2A7 JUMP JUMPDEST SWAP2 POP PUSH2 0x365 DUP3 PUSH2 0x324 JUMP JUMPDEST PUSH1 0x20 DUP3 ADD SWAP1 POP SWAP2 SWAP1 POP JUMP JUMPDEST PUSH1 0x0 PUSH1 0x20 DUP3 ADD SWAP1 POP DUP2 DUP2 SUB PUSH1 0x0 DUP4 ADD MSTORE PUSH2 0x389 DUP2 PUSH2 0x34D JUMP JUMPDEST SWAP1 POP SWAP2 SWAP1 POP JUMP JUMPDEST PUSH1 0x0 DUP2 SWAP1 POP SWAP2 SWAP1 POP JUMP JUMPDEST PUSH32 0x4E487B7100000000000000000000000000000000000000000000000000000000 PUSH1 0x0 MSTORE PUSH1 0x11 PUSH1 0x4 MSTORE PUSH1 0x24 PUSH1 0x0 REVERT JUMPDEST PUSH1 0x0 PUSH2 0x3D4 DUP3 PUSH2 0x390 JUMP JUMPDEST SWAP2 POP PUSH2 0x3DF DUP4 PUSH2 0x390 JUMP JUMPDEST SWAP3 POP DUP3 DUP3 ADD SWAP1 POP DUP1 DUP3 GT ISZERO PUSH2 0x3F7 JUMPI PUSH2 0x3F6 PUSH2 0x39A JUMP JUMPDEST JUMPDEST SWAP3 SWAP2 POP POP JUMP JUMPDEST PUSH2 0x406 DUP2 PUSH2 0x390 JUMP JUMPDEST DUP3 MSTORE POP POP JUMP JUMPDEST PUSH1 0x0 PUSH1 0x20 DUP3 ADD SWAP1 POP PUSH2 0x421 PUSH1 0x0 DUP4 ADD DUP5 PUSH2 0x3FD JUMP JUMPDEST SWAP3 SWAP2 POP POP JUMP JUMPDEST PUSH1 0x0 DUP2 MLOAD SWAP1 POP SWAP2 SWAP1 POP JUMP JUMPDEST PUSH1 0x0 DUP2 SWAP1 POP SWAP3 SWAP2 POP POP JUMP JUMPDEST PUSH1 0x0 JUMPDEST DUP4 DUP2 LT ISZERO PUSH2 0x45B JUMPI DUP1 DUP3 ADD MLOAD DUP2 DUP5 ADD MSTORE PUSH1 0x20 DUP2 ADD SWAP1 POP PUSH2 0x440 JUMP JUMPDEST PUSH1 0x0 DUP5 DUP5 ADD MSTORE POP POP POP POP JUMP JUMPDEST PUSH1 0x0 PUSH2 0x472 DUP3 PUSH2 0x427 JUMP JUMPDEST PUSH2 0x47C DUP2 DUP6 PUSH2 0x432 JUMP JUMPDEST SWAP4 POP PUSH2 0x48C DUP2 DUP6 PUSH1 0x20 DUP7 ADD PUSH2 0x43D JUMP JUMPDEST DUP1 DUP5 ADD SWAP2 POP POP SWAP3 SWAP2 POP POP JUMP JUMPDEST PUSH1 0x0 PUSH2 0x4A4 DUP3 DUP5 PUSH2 0x467 JUMP JUMPDEST SWAP2 POP DUP2 SWAP1 POP SWAP3 SWAP2 POP POP JUMP JUMPDEST PUSH32 0x546865205472616E73616374696F6E207761736E277420737563636573736675 PUSH1 0x0 DUP3 ADD MSTORE PUSH32 0x6C2C2063616E63656C696E670000000000000000000000000000000000000000 PUSH1 0x20 DUP3 ADD MSTORE POP JUMP JUMPDEST PUSH1 0x0 PUSH2 0x50B PUSH1 0x2C DUP4 PUSH2 0x2A7 JUMP JUMPDEST SWAP2 POP PUSH2 0x516 DUP3 PUSH2 0x4AF JUMP JUMPDEST PUSH1 0x40 DUP3 ADD SWAP1 POP SWAP2 SWAP1 POP JUMP JUMPDEST PUSH1 0x0 PUSH1 0x20 DUP3 ADD SWAP1 POP DUP2 DUP2 SUB PUSH1 0x0 DUP4 ADD MSTORE PUSH2 0x53A DUP2 PUSH2 0x4FE JUMP JUMPDEST SWAP1 POP SWAP2 SWAP1 POP JUMP INVALID LOG2 PUSH5 0x6970667358 0x22 SLT KECCAK256 SWAP11 PUSH7 0x22E9D6FEE1145B 0xDD 0xE3 DUP4 0xA7 DIFFICULTY SWAP12 CODESIZE EXTCODECOPY 0x4E 0x2F 0xE0 0x4E PUSH23 0x5745542610B3F4B7081D64736F6C63430008100033A264 PUSH10 0x70667358221220E6BA11 0xA7 0xBC NOT 0xEF MSTORE 0x2B PUSH26 0x4952FF5860E275B78B2CAAD17493BE9B228195B228D164736F6C PUSH4 0x43000810 STOP CALLER "
		},
		"gasEstimates": {
			"creation": {
				"codeDepositCost": "2319000",
				"executionCost": "infinite",
				"totalCost": "infinite"
			},
			"external": {
				"Buyer(uint256)": "infinite",
				"BuyersHistory(address)": "infinite",
				"Invoice(uint256)": "infinite",
				"InvoiceLedger()": "infinite",
				"createItem(string,uint256)": "infinite",
				"owner()": "2522",
				"renounceOwnership()": "2719",
				"transferOwnership(address)": "30786"
			},
			"internal": {
				"add_Invoice_To_BuyersPan(address,contract Item,string memory,uint256,enum InvoiceManager.InvoiceState,address,uint256)": "infinite"
			}
		},
		"methodIdentifiers": {
			"Buyer(uint256)": "3ea3a44b",
			"BuyersHistory(address)": "a5f445b7",
			"Invoice(uint256)": "98589742",
			"InvoiceLedger()": "27435f62",
			"createItem(string,uint256)": "8c551742",
			"owner()": "8da5cb5b",
			"renounceOwnership()": "715018a6",
			"transferOwnership(address)": "f2fde38b"
		}
	},
	"abi": [
		{
			"anonymous": false,
			"inputs": [
				{
					"indexed": false,
					"internalType": "uint256",
					"name": "_itemindex",
					"type": "uint256"
				},
				{
					"indexed": false,
					"internalType": "uint256",
					"name": "_step",
					"type": "uint256"
				},
				{
					"indexed": false,
					"internalType": "address",
					"name": "itemaddr",
					"type": "address"
				},
				{
					"indexed": false,
					"internalType": "uint256",
					"name": "InvoiceDate",
					"type": "uint256"
				},
				{
					"indexed": false,
					"internalType": "address",
					"name": "Buyer",
					"type": "address"
				},
				{
					"indexed": false,
					"internalType": "address",
					"name": "Seller",
					"type": "address"
				}
			],
			"name": "Invoice_State",
			"type": "event"
		},
		{
			"anonymous": false,
			"inputs": [
				{
					"indexed": true,
					"internalType": "address",
					"name": "previousOwner",
					"type": "address"
				},
				{
					"indexed": true,
					"internalType": "address",
					"name": "newOwner",
					"type": "address"
				}
			],
			"name": "OwnershipTransferred",
			"type": "event"
		},
		{
			"inputs": [
				{
					"internalType": "uint256",
					"name": "_itemindex",
					"type": "uint256"
				}
			],
			"name": "Buyer",
			"outputs": [],
			"stateMutability": "payable",
			"type": "function"
		},
		{
			"inputs": [
				{
					"internalType": "address",
					"name": "BuyerAddres",
					"type": "address"
				}
			],
			"name": "BuyersHistory",
			"outputs": [
				{
					"components": [
						{
							"internalType": "address",
							"name": "_BuyerPan",
							"type": "address"
						},
						{
							"internalType": "address",
							"name": "_SellerPan",
							"type": "address"
						},
						{
							"internalType": "contract Item",
							"name": "_items",
							"type": "address"
						},
						{
							"internalType": "string",
							"name": "_Identifier",
							"type": "string"
						},
						{
							"internalType": "uint256",
							"name": "_itemPrice",
							"type": "uint256"
						},
						{
							"internalType": "enum InvoiceManager.InvoiceState",
							"name": "_state",
							"type": "uint8"
						},
						{
							"internalType": "uint256",
							"name": "_InvoiceDate",
							"type": "uint256"
						}
					],
					"internalType": "struct InvoiceManager.Invoice_Data[]",
					"name": "",
					"type": "tuple[]"
				}
			],
			"stateMutability": "view",
			"type": "function"
		},
		{
			"inputs": [
				{
					"internalType": "uint256",
					"name": "",
					"type": "uint256"
				}
			],
			"name": "Invoice",
			"outputs": [
				{
					"internalType": "address",
					"name": "_BuyerPan",
					"type": "address"
				},
				{
					"internalType": "address",
					"name": "_SellerPan",
					"type": "address"
				},
				{
					"internalType": "contract Item",
					"name": "_items",
					"type": "address"
				},
				{
					"internalType": "string",
					"name": "_Identifier",
					"type": "string"
				},
				{
					"internalType": "uint256",
					"name": "_itemPrice",
					"type": "uint256"
				},
				{
					"internalType": "enum InvoiceManager.InvoiceState",
					"name": "_state",
					"type": "uint8"
				},
				{
					"internalType": "uint256",
					"name": "_InvoiceDate",
					"type": "uint256"
				}
			],
			"stateMutability": "view",
			"type": "function"
		},
		{
			"inputs": [],
			"name": "InvoiceLedger",
			"outputs": [
				{
					"components": [
						{
							"internalType": "address",
							"name": "_BuyerPan",
							"type": "address"
						},
						{
							"internalType": "address",
							"name": "_SellerPan",
							"type": "address"
						},
						{
							"internalType": "contract Item",
							"name": "_items",
							"type": "address"
						},
						{
							"internalType": "string",
							"name": "_Identifier",
							"type": "string"
						},
						{
							"internalType": "uint256",
							"name": "_itemPrice",
							"type": "uint256"
						},
						{
							"internalType": "enum InvoiceManager.InvoiceState",
							"name": "_state",
							"type": "uint8"
						},
						{
							"internalType": "uint256",
							"name": "_InvoiceDate",
							"type": "uint256"
						}
					],
					"internalType": "struct InvoiceManager.Invoice_Data[]",
					"name": "",
					"type": "tuple[]"
				}
			],
			"stateMutability": "view",
			"type": "function"
		},
		{
			"inputs": [
				{
					"internalType": "string",
					"name": "_identifier",
					"type": "string"
				},
				{
					"internalType": "uint256",
					"name": "_itemprice",
					"type": "uint256"
				}
			],
			"name": "createItem",
			"outputs": [],
			"stateMutability": "nonpayable",
			"type": "function"
		},
		{
			"inputs": [],
			"name": "owner",
			"outputs": [
				{
					"internalType": "address",
					"name": "",
					"type": "address"
				}
			],
			"stateMutability": "view",
			"type": "function"
		},
		{
			"inputs": [],
			"name": "renounceOwnership",
			"outputs": [],
			"stateMutability": "view",
			"type": "function"
		},
		{
			"inputs": [
				{
					"internalType": "address",
					"name": "newOwner",
					"type": "address"
				}
			],
			"name": "transferOwnership",
			"outputs": [],
			"stateMutability": "nonpayable",
			"type": "function"
		}
	]
}